:10000000000002202D5302006D530200B156020081
:100010007153020073530200755302000000000088
:10002000000000000000000000000000B15D0200C0
:100030007953020000000000D15D02007D530200F0
:100040005D6002006591010071240200F9A50000C5
:10005000EDA500007F5302007F5302007F53020092
:100060007F530200496400007F5302007D9101002C
:100070007F530200719101007F5302007F53020001
:100080007F530200852702007F5302007F53020046
:100090007F5302007F5302007F5302007F53020010
:1000A0007F5302007F5302007F5302007F53020000
:1000B0007F5302007F530200000000000000000098
:1000C0007F5302007F5302007F5302007F530200E0
:1000D0007F5302007F5302007F5302007F530200D0
:1000E0007F5302000000000000000000000000003C
:1000F000000000007F530200000000007F53020058
:1001000000000000000000000000000000000000EF
:1001100000000000000000000000000000000000DF
:1001200000000000000000000000000000000000CF
:1001300000000000000000000000000000000000BF
:1001400000000000000000000000000000000000AF
:10015000000000000000000000000000000000009F
:10016000000000000000000000000000000000008F
:10017000000000000000000000000000000000007F
:10018000000000000000000000000000000000006F
:10019000000000000000000000000000000000005F
:1001A000000000000000000000000000000000004F
:1001B000000000000000000000000000000000003F
:1001C000000000000000000000000000000000002F
:1001D000000000000000000000000000000000001F
:1001E000000000000000000000000000000000000F
:1001F00000000000000000000000000000000000FF
:1002000010B5054C237833B9044B13B10448AFF350
:1002100000800123237010BD600200200000000058
:1002200040EA020008B5034B1BB103490348AFF392
:10023000008008BD000000006402002040EA0200C7
:10024000A3F5803A704700BF174B002B08BF134B34
:100250009D46FFF7F5FF00218B460F461348144AD1
:10026000121A29F03BFC0E4B002B00D098470D4B87
:10027000002B00D098470020002104000D000D48FD
:10028000002802D00C48AFF3008029F069FB200061
:10029000290025F00FF829F04FFB00BF00000800EF
:1002A00000000000000000000000022060020020AA
:1002B000EC8C0020000000000000000070470000EF
:1002C00010B5064C20680BF072FF2068044ABDE8A8
:1002D0001040002301210BF08DBF00BF9C020020C5
:1002E000C102000010B5044625F01EF8204610BDDE
:1002F00008B5064B1B6833B10BF034FD04490AF016
:10030000A2FD02F097FC002008BD00BF980200206B
:1003100050040020154A38B551681068144B154C2C
:1003200003C30BF03FFD05462060042024F0F8FFD6
:10033000114B03600022014628460BF003FF2068A2
:1003400000210BF0FCFE206801210BF0ECFE206880
:1003500000210BF0EFFE094A2068002301210BF079
:1003600049FF074B01221A7038BD00BFC0A9020027
:10037000480400209C0200204CAA0200C102000098
:1003800038040020234B1B7870B50BB9FFF7C2FF70
:10039000214E3568002D3AD015F10B0148BF05F10B
:1003A0000E0100228910032006F044FB044620B908
:1003B000BDE870400A2002F0B1BFC30711D4042881
:1003C0000FD9026802F00F03032B0AD105F00303D3
:1003D000C3F104035B0703F0C04322F0C0421343A0
:1003E00003600E4B0E491B7823710E4B1B78637113
:1003F0000D4B1A689B88C4F8062063812A4604F1D5
:100400000C0029F043FB00233360204670BD2C46CE
:10041000FBE700BF380400203C04002094020020C9
:10042000A802002040040020A102002000F10803DF
:1004300073B5044603600D46E1B1084629F0A8FCF7
:100440000F2805EB0006019007D9002201A92046DC
:1004500025F022FE019B2060A360206832462946D9
:1004600025F04DFE019B2268636000212046D15497
:1004700002B070BD014825F005FE00BFC9A9020009
:1004800070B5002888B033DD086810F001022FD164
:1004900004282DD9036803F00F03042B28D10192FF
:1004A00006F006F9054602F0A3FB0BF05BFC124CCC
:1004B00020600AF09CFE114920680AF0A3FF26681C
:1004C000294602A8FFF7B2FF02A930460BF030F828
:1004D00002A825F003FE206820210AF0D8FC20683D
:1004E00020210AF0D7FC019A206811460AF0D6FCB8
:1004F000002008B070BD00BF98020020500400200A
:1005000008B5084B1B780BB9FFF704FF064B1878AA
:1005100030B100221A70054B1868400040F001000D
:1005200008BD00BF38040020A002002044040020C1
:100530002DE9F043084691B00C460AF083FA0028F2
:1005400038D0214604A800220AF0D6FA5B4804A954
:100550000CF0BAFF002878D021460AA80AF043FB25
:100560000B9B102B6ED10A9D2868696802AB03C3F0
:10057000534BDDE90267D3E900239F4208BF96424F
:1005800060D050490B685A1E02F01F0C4E4A9C4521
:1005900049D002EBC300D0E900894F4508BF46456A
:1005A00050D00133584200F01F0003F01F0358BF22
:1005B0004342ECE7019020460AF00AFA019A00282B
:1005C00043D0214604A80AF0DCFA404804A90CF004
:1005D0007BFF019A002838D021460AA80AF028FBA0
:1005E0000B9B0D2B2ED10A9D6968286802AB03C3B3
:1005F00034490B68DDE902675A1E02F01F0C324ACB
:100600009C4550D002EBC300D0E900894F4508BF9C
:10061000464517D00133584200F01F0003F01F0376
:1006200058BF4342ECE702EBCC02C2E90067EB7B28
:10063000274AC1F800C0303B00D5FF231360254B8B
:1006400001221A700AA825F049FD234D2B683BBBF7
:1006500020460AF010FA6428CCBF642328602046A4
:10066000C8BF2B600AF005FA2A6801461B4829F02A
:100670000DFA20460AF01FF9194B40421870214626
:100680000AA80AF00DF90AA80AF0D3F8154B187059
:100690000AA80AF0CDF8144B02681A6082889A8082
:1006A00011B0BDE8F08302EBCC02C2E90067084B51
:1006B000EA79C1F800C01A60C1E700BF5004002009
:1006C0004804002068050020680400207C02002007
:1006D00044040020A00200203C040020A8020020C6
:1006E0009402002040040020A1020020024A034896
:1006F000042107F035BF00BF8CAA0200F3A9020055
:100700007FB50C496846FFF791FE69460A480CF030
:10071000FEFD684625F0E2FC08496846FFF786FEC4
:10072000694607480CF0F3FD684625F0D7FC07B092
:100730005DF804FBF7A902007C0200201CAA02005D
:1007400050040020C30711D404280FD9026802F016
:100750000F03032B0AD101F00301C1F104035B076E
:1007600003F0C04322F0C0421343036070470246C7
:1007700010F001000FD1042A0ED91368C3F30F1033
:1007800050B1431E9800031D0432115C21B10130A9
:100790008342FAD1704700207047037883B11A066C
:1007A00001D40130704703F0C003C02B08BF0130F3
:1007B000024610460132037803F0C003802BF8D0C4
:1007C000704708B5002103780BB9084608BDFFF74C
:1007D000E4FF0131F7E7014600787F2829DDDF28B3
:1007E00007DC8301487803F4F86300F03F00184306
:1007F0007047EF2808DC4A780303920102F47C6218
:100800009BB288781343F0E7F72810DC4A7883041A
:100810001203C87802F47C3203F4E01300F03F00C6
:10082000134303438878800100F47C60DFE74FF0D6
:10083000FF30704738B5002204460D46411C0920A0
:1008400006F0F8F840B16300024643F0010342F8B5
:10085000043F0023A34200DB38BD55F8231042F8C3
:10086000041F0133F6E7002838B504DC1C20BDE87E
:10087000384002F053BD0C68E20701D40D20F6E7C2
:1008800001281ED04A68D307F8D5B2F5007F4FEA99
:10089000620301D31320EAE71A0442EA03621A430F
:1008A00042EA0322641024EAE474E11C8910032064
:1008B00006F0C0F8054610B12146FFF743FF284671
:1008C00038BD0022EEE7012838B504DC1C20BDE865
:1008D000384002F023BD0C68E20701D41120F6E78E
:1008E0004868C30706D4042804D9036803F00F033B
:1008F000042B01D00E20EAE705F0DAFE6410002C8C
:10090000054603DDFFF75DFFA04205DA1220DEE7B2
:10091000FFF743FF013C0546012C2846F8D1FFF7BD
:100920005AFF400040F0010038BD01282DE9F3478F
:100930008246884605DC1C2002B0BDE8F04702F084
:10094000EDBC4C6814F0010901D10D20F4E7022838
:1009500002D08B68DA07F8D5D8F80070FB0700F1F1
:10096000B180042F40F2AE803D686410012C05F088
:100970000F02B8BF0124092A2CD17B68BAF1020FFB
:1009800018BFD8F808704FEA63030CBF1F467F10EA
:100990009F42A8BF1F463D1B0135012225EAE57590
:1009A000A918092006F046F8064648B16D0003462E
:1009B00045F00105D8F8002043F8045FBC4203DD90
:1009C000304602B0BDE8F087013452F8241043F8F5
:1009D000041FF3E7042A43D1384605F069FEFFF708
:1009E000F0FEBAF1020F16BFD8F80860064676107E
:1009F0008642A8BF0646B44205DD002002B0BDE82D
:100A0000F04706F0D3B8384605F052FE05464C458F
:100A10001FD1384605F04CFE0746284609F101096A
:100A2000FFF7BBFE4E45F9DA441B204606F0BEF840
:100A300006460028C4D005F03BFE8146D8F80000E9
:100A400005F036FEED1B41192246484629F01EF8F6
:100A5000B6E72846FFF7A1FE09F101090546D6E7EA
:100A6000032A2FD1BAF1020FC5F30F12C5F3417556
:100A7000C5EB820216BFD8F8085015466D10954296
:100A8000A8BF1546AC4207DD00221146032002B084
:100A9000BDE8F04705F0CEBF2D1B291D48BFE91D5D
:100AA00000228910032005F0C5FF0646002887D0E4
:100AB0006A1C11460192FFF745FEE11C019A394478
:100AC0000430C3E7212037E70028F8B504DC1C20F8
:100AD000BDE8F84002F022BC0D6815F0010713D004
:100AE000B5F5007F4FEA650601D31320F0E7002239
:100AF0000121032005F09EFF044618B10121FFF7F4
:100B000021FE06712046F8BD042DEED92B6803F0B6
:100B10000F03042B1AD12846FFF729FEC11C48BF3A
:100B2000811D064600228910032005F083FF04463C
:100B30000028E7D03146FFF705FE284605F0B8FD4E
:100B400032460146201D28F0A1FFDBE7092B1FD10B
:100B50006E687610F11C48BFB11D00228910032079
:100B600005F068FF04460028CCD03146FFF7EAFDC7
:100B70000435021DB742C5DA55F8043FD90705D53B
:100B8000B3F5007F4FEA6301AFD2D1550137F1E7EA
:100B9000032BAAD12C46B5E7486838B5C3070D46E4
:100BA00006D4042804D9026802F00F03092B04D0EC
:100BB000BDE838400B2002F0B1BB4368C2F30F120E
:100BC000511EB1EB630F4FEA630411D80B2C4FF0A9
:100BD000030304DD94FBF3F3642BA8BF642399188B
:100BE00005F0A6FF0368C3F30F13013B9C4208D234
:100BF000A31C013464002A6840F8232044F0010457
:100C00004460002038BD01282DE9F84304DC1C2095
:100C1000BDE8F84302F082BB02284E680CD08C6815
:100C2000E20709D56410012CB8BF0124F30705D5EC
:100C30004FF0FF30BDE8F8830124F7E7042EF7D921
:100C400033680D6803F00F02042A30D1EF0706D491
:100C5000042D04D92B6803F00F03042B01D00E20C0
:100C6000D6E73046FFF783FDA042E1DB304605F0D2
:100C70001FFD0646284605F01BFD03780146002BA4
:100C8000D6D0601E304429F09EF804460028CFD00C
:100C9000012133780BB1A64203D3480040F0010094
:100CA000C8E73046FFF779FD06460131F1E7092A2A
:100CB00038D17368B4EB630F4FEA6309B8DCE80717
:100CC00028D4042D26D92B6803F00F03042B21D13F
:100CD000284605F0EDFC80462746013456F82400EE
:100CE000854201D17800D9E7C1070ED404280CD978
:100CF000036803F00F03042B07D105F0D9FC01466C
:100D0000404629F033F80028ECD04C45E4DD8FE76D
:100D10004C458DDC2046013456F82430AB42F7D1E7
:100D20004000BBE7032A83D1C3F30F18C3F3417319
:100D3000C3EB880844453FF77BAFEA0706F104039D
:100D400027D4042D39D92B6803F00F02032A16D1BA
:100D5000C3F30F10C3F341732F1DC3EB8000A8EB47
:100D600000083B18013C033644453FF761AF311999
:100D70003A469A42104622D328D1601CD0E7042A72
:100D80001BD1284605F094FC07462846FFF7EFFCE8
:100D9000E5E7B5F5007F4FEA650201D3282037E784
:100DA000013C44453FF744AF195D914204F1010411
:100DB000F7D1640044F001003CE70F2028E711F868
:100DC000015F0078854202F10102D2D00134CBE705
:100DD00001282DE9F047884604DC1C20BDE8F047D7
:100DE00002F09CBA0868C20706D4042804D9036834
:100DF00003F00F03042B01D00E20EFE74B6813F034
:100E00000109F9D1042BF7D91B6803F00F03042B58
:100E1000F2D105F04DFC0446D8F8040005F048FC7A
:100E2000074628F0B5FF064678B92046FFF7C9FC0B
:100E300005460122A918092005F0FCFD374B186072
:100E40009A4690B90020BDE8F0873946204628F040
:100E5000BAFF231A5D425D412046394630440135D0
:100E600028F0B1FF0028F8D1E3E76B0043F001035D
:100E70004360D6B92046FFF790FC4D45064602DC9C
:100E8000DAF80000DFE7311B204605F097FE002866
:100E9000D8D0DAF8003003EB890334469860304646
:100EA000FFF77BFC09F10109E7E7012D03D1D8F831
:100EB00000308360C7E73946204628F084FF4FF0B2
:100EC00001088146B9F1000F16D04545D8DBA9EBE2
:100ED0000401204605F072FE0028B3D0DAF8003095
:100EE00008F1010809EB060443F8280039462046BA
:100EF00028F069FF8146E5E74545C1DB204628F03B
:100F000047FF0146204605F059FE00289AD0DAF83E
:100F1000003008F1010843F82800B1E7E01B002089
:100F200008B505F0A9FB400040F0010008BD7F298D
:100F300002DC00F8011B7047B1F5006F0CDA0346C4
:100F40008A1162F03F0203F8022B01F03F0161F0C9
:100F50007F01417018467047B1F5803F0FDA0B13DF
:100F600063F01F030370C1F3851301F03F0163F0C9
:100F70007F0361F07F014370817003307047B1F5EA
:100F8000883F0DDAF0230370902343708B1101F03A
:100F90003F0163F07F0361F07F018370C170043013
:100FA0007047000010B5094C002220600221092082
:100FB00005F040FD226820B9BDE810400A2002F08B
:100FC000ADB90321C0E9011210BD00BFE01B002034
:100FD00038B5C30709D5B0F5007F4FEA600507D3E0
:100FE0001320BDE8384002F099B9051E18BF01254D
:100FF00000220121032005F01DFD08B90A20F0E7B9
:101000000121FFF79FFB057138BD07B510F0010105
:1010100004D04110084603B05DF804FB042813D93E
:10102000026802F00F02042A09D1019105F040FB89
:1010300001990A2203B05DF804EB28F061BF032A8E
:1010400002D10A220430F5E70D20019102F066F981
:101050000199DFE70128F8B507460E4604DC1C209D
:10106000BDE8F84002F05AB90868FFF7CEFF054620
:101070007068FFF7CAFF022F044606D0B068FFF77A
:10108000C4FF061E02DC2920EAE70126A542D5BFDF
:10109000641B2C1BB4FBF6F4B4FBF6F4D4BF013490
:1010A00001344FF0000204F101014FF00900C8BF04
:1010B000764205F0BFFC80B16300024643F00103B5
:1010C00042F8043F6D00730002EB840445F0010117
:1010D00042F8041F94421D44F8D1F8BD00282DE9C0
:1010E000F3410F4603DC1C2002F018F916E00C68EF
:1010F00014F0010506D1042C1DD9236803F00F0359
:10110000042B0DD12046FFF780FF6C460146204698
:10111000FFF70DFF011B204605F050FD044634E0AB
:10112000092B08D166684FF001087610B04504DD40
:1011300002F0FAF8E0B12A20D6E708F1010854F8E5
:101140002800FFF762FF7F280CDDB0F5006F0BDB96
:10115000B0F5803F0ADBB0F5883FACBF0023042325
:101160001D44E3E70123FBE70223F9E70323F7E745
:10117000284605F01BFD044638B1D7F8008005F07D
:1011800097FA01270546B74203DD204602B0BDE8C5
:10119000F081013758F82700FFF737FF014628464E
:1011A000FFF7C5FE0546EEE710B5044611F0010055
:1011B00011D104290ED90A6802F00F02042A09D1BC
:1011C000084605F075FA0146204628F0CFFDB0FA32
:1011D00080F0400910BD0020FCE700000128F8B5B0
:1011E0000E4604DC1C20BDE8F84002F097B84D68BC
:1011F000EA0706D4042D04D92B6803F00F02092A4C
:1012000001D00B20EFE76A680968C3F30F13B3EB53
:10121000620F4FEA620498BF03F1FF3411F0010737
:101220000DD0481000283CDD84423ADB2B1D84425F
:1012300019DD013053F8202045F82020F7E71A483F
:10124000FFF7B2FF40B10123BC4201DA0020F8BD34
:10125000013745F82730F7E731681448FFF7A4FF56
:1012600050B1002CF2D00122631C013C9440144385
:1012700045F823206C60E9E73068C3070FD40428E1
:101280000DD9036803F00F03042B08D1FFF7BDFE4F
:101290000028C8D131680648FFF786FF08B9112039
:1012A000A1E712209FE700BFACAA0200B0AA02008B
:1012B000F6C40200002310B50B70C3070C4606D518
:1012C0000E4942102046BDE8104023F09BBF28B9CC
:1012D0000B492046BDE8104028F02CBD042801D160
:1012E0000849F6E709D9036803F00F03042B04D17A
:1012F00005F0DEF904490246E4E710BD71B10200D1
:10130000F6C40200D3B80200B5AA02002DE9F043EA
:1013100001288FB080460E4607DC1C2001F0FEFF3E
:10132000054628460FB0BDE8F0830B6813F00104B2
:1013300040F0AE80042B40F2E2801B6803F00F0304
:10134000092B48D1274656F8273013F0010906D15A
:10135000042B04D9186800F00F00092803D02220BC
:10136000DCE71F46EFE75B6804EB63047B1C9845F2
:10137000F7D10122A11805F05DFB054608B900254B
:10138000CFE7640044F001044460494600F10804DA
:1013900056F821301868D3F804C0C0F30F10B0EB32
:1013A0006C0F4FEA6C0203F1040398BF00F1FF32A7
:1013B0000020824209DC22EAE2728F4204EB8204BE
:1013C00001F10103ADDD1946E2E753F804CF44F81B
:1013D00020C00130EDE7032B40F09180274656F8FE
:1013E0002700C507BBD40428B9D9036803F00F024E
:1013F000032A3CD1C3F30F12C3F34173C3EB82033F
:101400001C447B1C984530D1E11C48BFA11D002223
:101410008910032005F00EFB05460028AFD02146B9
:10142000FFF790F94FF0000800F1040956F8284042
:10143000E10723D4042C21D9206800F00F03032BEB
:101440001CD1C0F30F13C0F34170C0EB8300033411
:101450000023834216DB0028A8BF8144474508F1DA
:1014600001037FF75EAF9846E0E71F46B7E7042A1F
:101470007FF475AFFFF77BF90444C2E72046FFF71E
:1014800076F9E4E714F8012F09F803200133E0E7C7
:1014900000252C4656F82500C20732D4042830D93E
:1014A000036803F00F02042A32D1FFF760F9044405
:1014B0000135A845EED1204605F078FB0546002809
:1014C0003FF45DAF041DB14606EB880859F8046B84
:1014D000F30728D4042E26D9336803F00F02042A18
:1014E00034D13046FFF743F90746304605F0E0F8BF
:1014F0003A460146204628F0C9FA3C4421E02546F8
:10150000C8E701A9FFF7D6FE01A828F041FCCEE705
:10151000032A7FF424AFC3F30F12C3F34173C3EB69
:1015200082031C44C4E701A93046FFF7C3FE01A8AB
:1015300028F02EFC01A906460246204628F0A6FA0D
:101540003444C845C2D100232370EAE6032AF8D107
:10155000C3F30F17C3F34173C3EB87073A46311D3B
:10156000C8E700002DE9F04F002893B00E4607DCD5
:101570001C2001F0D3FE0446204613B0BDE8F08FD6
:101580000C6814F0010906D1042C04D9236803F077
:101590000F03092B01D00B20EBE763684FEA6308C8
:1015A000B8F1000F03DC484605F000FBE3E7012833
:1015B00027D04868C20724D4042822D9036803F03E
:1015C0000F03042B1DD105F073F80546284628F0BB
:1015D000DFFB043408F1FF330746019303FB00FBF4
:1015E00004EB880A54F8040FC3076BD4042869D9A4
:1015F000026802F00F01042905D1FFF7B8F883440F
:101600000AE0354DE2E7032963D1C2F30F11C2F3BB
:101610004172C2EB81029344A245E3D1584605F0E2
:10162000C5FA04460028A7D0D6F800A01FB17068FC
:1016300005F03EF80546204605F03AF80AF1040A9E
:1016400006465AF804BF584605F032F81BF001036D
:101650000146029302D1BBF1040F04D805A95846F4
:10166000FFF728FE05A90846039128F091FBDDE964
:10167000023102468BB9BBF1040F0ED9DBF8000032
:1016800000F00F0CBCF1030F01BFC0F30F12C0F349
:1016900041700BF10401C0EB82023046029228F047
:1016A000F5F9029A164447B1019B4B4505DD3046DA
:1016B0003A46294628F0EAF93E4409F10109C845AD
:1016C000BFD159E705A9FFF7F5FD05A828F060FB94
:1016D00095E704F0EDFFF9E7D5CD02002DE9F041E3
:1016E000012888B003DC1C2001F018FE5EE00C68C5
:1016F000E30730D4042C30D9266806F00F0648687A
:1017000004F0D6FFB349074628F030FBB249002861
:1017100038460CBF01254FF0FF3528F027FBAF49B5
:101720000028384608BF022528F020FBAC490028D5
:10173000384608BF042528F019FBAA490028384676
:1017400008BF092528F012FB002800F0EA816F1C71
:1017500005D13020C8E70226D1E70126CFE7013EB8
:10176000082E17D8DFE816F0090024007301530093
:101770001600160016001600CF00023D072D09D8EE
:10178000DFE805F004410C080808083D042C0CBFF4
:1017900003240124204608B0BDE8F0819248934B11
:1017A0000121042C18BF184605F008FA0446F1E799
:1017B000013D082DEED801A353F825F0E1170000F4
:1017C0009517000007180000E917000095170000A2
:1017D000951700009517000095170000FF170000EF
:1017E000630835D00424D5E781496210684623F0A8
:1017F00009FD684628F0CCFA01466846D4E7204641
:10180000FFF7D0FBD2E72046FFF7E2FBCEE7013D32
:10181000082DBFD801A353F825F000BF41180000E0
:1018200055180000C118000095170000951700001A
:101830009517000095170000951700006318000029
:10184000204604F035FF694928F090FA0028C9D1F4
:1018500000249FE72046FFF7D8FB400040F001043A
:1018600098E7204604F024FFFEF7ABFF614D411CD2
:101870000646002209202C6005F0DCF8044608B971
:101880000A2031E70746730043F00103286847F850
:10189000043F04F00DFF4FF00008054646457FF772
:1018A00079AF2846FEF797FF400040F0010047F867
:1018B000040F2846FEF771FF08F101080546EDE721
:1018C000204604F0F5FE28F063FA4A4DC11C064696
:1018D0000022891003202C6005F0ACF80446002893
:1018E000CED02D683146FEF72DFF284604F0E0FEED
:1018F000E21C00239E427FF74DAFC15C02F8011F3E
:101900000133F7E7032566686B1E7610032B3FF65D
:1019100041AFDFE803F00212713A012E0BD1A46847
:10192000E00708D4042C7FF635AF236803F00F03DB
:10193000012B3FF42FAF2D20D6E6012E03D1A46852
:10194000E1073FF527AF2C20CEE6013754F82700FA
:10195000FFF75BFB7F2812DDB0F5006F11DBB0F500
:10196000803F10DBB0F5883FB4BF2B46002398447E
:10197000BE42EADA01F0D8FC58B12A20B4E60123CD
:10198000F5E70223F3E70323F1E701274FF000080F
:10199000EEE7184D40462C6005F008F92F68044624
:1019A00000283FF455AF04F083FE0125AE42FFF658
:1019B000F1AE013557F82530DA0701D4272093E638
:1019C000B3F5081F4FEA630101D331208CE6FFF71E
:1019D000AEFAEBE7BEAA0200C6AA0200CDAA020038
:1019E000D4AA0200D9AA0200D3B80200F6C40200A9
:1019F00071B10200E01B0020F11C48BFB11D554D24
:101A00000022891003202C6005F014F804460028F9
:101A10003FF436AF31462D68FEF794FE021D6FF09D
:101A2000030005F10803001B11188E427FF7B2AEC8
:101A300053F8041BCD07C1D5B1F5007F4FEA61050E
:101A400001D3132050E602F8015BEDE73546266826
:101A5000013DC6F30F13C6F34176C6EB8306082D8E
:101A60003FF698AE01A353F825F000BF911A00008D
:101A7000A11A000095170000AB1A0000951700008E
:101A8000951700009517000095170000DF1A000059
:101A9000012E7FF450AF2379002B7FF4A3AED7E65D
:101AA000012E7FF450AF2079D7E62A4D30462C60C6
:101AB00005F07CF82B68044600283FF4E1AE1A1DBF
:101AC000C3F1FF2303F57F03C11CFC33D018B042E0
:101AD000BFF660AE12F8010B01F8010FF6E71D4DDD
:101AE0000022711C09202C6004F0A4FF2B6804461E
:101AF00000283FF4C5AE0146720042F0010241F8F1
:101B0000042F6FF00202D81CD21A13189E427FF7DE
:101B100041AE10F8013F5B0043F0010341F8043F80
:101B2000F3E7731E082B3FF635AE01A252F823F0FF
:101B300007180000071800004D1A0000C118000027
:101B400095170000951700009517000095170000E5
:101B500005190000E01B0020021E10B513DD0B6804
:101B600013F001041CBF5C1024EAE474012A00D0C5
:101B70004A68611C092004F05DFF18B1640044F05C
:101B80000104446010BD00240122F2E70A6812F04B
:101B9000010038B53AD1042A38D91368496803F0EE
:101BA0000F04092C1AD15568C3F30F13B3EB650F5B
:101BB0004FEA650498BF03F1FF34151D844205DC2C
:101BC00001330220984205DB002038BD45F8041F90
:101BD0000130F3E742F820100130F3E7032C15D170
:101BE000C80704D4BDE83840132001F097BBB1F515
:101BF000007F4FEA6100F5D20432C3F30F1302EB0A
:101C000083039A42E0D202F8010BFAE70B2001F0BD
:101C100085FBD9E72DE9F0414E6816F001078846AB
:101C20002BD1042E29D9326802F00F03092B14D1CD
:101C30007368C2F30F12B2EB630F4FEA630500D86B
:101C4000551ED8F8008018F0010F1AD04FEA68042A
:101C5000002C1CDDA54223DA19E0042B04D1304608
:101C6000FEF785FD0546ECE7032B08D1C2F30F1301
:101C7000C2F34172C2EB8305E3E70025E1E73D468D
:101C8000DFE734484146FFF78FFAC0B10DB91220A3
:101C90002FE027F09DFF90FBF5F303FB15035C1C81
:101CA000002F54D1042E52D9336803F00F03092BAF
:101CB00025D1013456F824402046BDE8F08126485D
:101CC0004146FFF771FAC0B9B8F1040F10D9D8F83E
:101CD000003003F00F03042B0AD14046FFF795F9BB
:101CE000041EB6D11D484146FFF75EFA0028CED14A
:101CF0001120BDE8F04101F011BB2C46D0E7042BC8
:101D00001DD1304604F0D4FC012C05460FDCFEF753
:101D100044FD461B304604F049FF04460028CBD062
:101D200004F0C6FC3246294627F0B0FEC4E72B7803
:101D3000013C002BABD02846FEF72FFDE4E7032B38
:101D400005D13444E478640044F00104B4E70B2086
:101D5000CFE700BFE4AA0200B0AA0200F6C4020066
:101D60002DE9F0414C6814F00106884632D1042C6C
:101D700030D923688F6803F00F02092A15D16268F1
:101D8000C3F30F13B3EB620F4FEA620500D85D1E79
:101D9000D8F800103748FFF707FA98B3236803F024
:101DA0000F03092B20D1012319E0032A12D1FA07CE
:101DB00004D41320BDE8F04101F0B0BAB7F5007FBC
:101DC0004FEA6706F5D2C3F30F15C3F34173C3EBB4
:101DD0008505DDE70B20EDE7013344F823709D42D4
:101DE000FADA0020BDE8F081032BFAD1E31CC4F13C
:101DF000FF2404F57F04FE34E218AA42F1DC03F864
:101E0000016FF9E7D8F8008018F0010F0ED04FEA03
:101E10006800002822DD854220DB236803F00F03E1
:101E2000092B21D1013044F82070DAE712484146ED
:101E3000FFF7BAF9B0B9B8F1040F11D9D8F80030EA
:101E400003F00F03042B0BD14046FFF7DEF8002808
:101E5000E0D10A484146FFF7A7F908B11220A9E7E7
:101E60001120A7E72846D8E7032B04BF2418E67003
:101E7000B7E700BFACAA0200B0AA0200F6C4020095
:101E8000086808B5C3071BD4042819D9036803F0F0
:101E90000F02092A01D1406808BD032A09D1C3F302
:101EA0000F12C3F34170C0EB8200400040F001000C
:101EB000F2E7042A04D104F0FBFBFEF782FCF4E70E
:101EC0000120E9E7024A03480F2106F049BB00BFA1
:101ED00080AB0200EBAA02001FB500210E2004F027
:101EE00083F901210D2004F07FF901210F2004F076
:101EF0007BF90A4808F006FC4FF080530193002359
:101F0000039302238DF8083004AB13E90E00034855
:101F100005B05DF804EB08F00BBC00BFA430002056
:101F2000086810B50C46C10706D4042804D9036814
:101F300003F00F03042B04D0BDE810400E2001F085
:101F4000EDB904F0B5FB0278A2F14103052B03D9EA
:101F5000A2F16103052B01D85A1C01D1206810BDE4
:101F6000054AD25C0E2A01BF044AD05C400040F012
:101F7000010018BF0120F2E70400002078050020CE
:101F8000086810B50C46C10706D4042804D90368B4
:101F900003F00F03042B04D0BDE810400E2001F025
:101FA000BDB904F085FB0278A2F14103052B03D9EA
:101FB000A2F16103052B01D85A1C01D1206810BD84
:101FC000054AD25C142A01BF044AD05C400040F0AC
:101FD000010018BF0120F2E704000020780500206E
:101FE000086810B50C46C10706D4042804D9036854
:101FF00003F00F03042B04D0BDE810400E2001F0C5
:102000008DB904F055FB0278A2F14103052B03D9E9
:10201000A2F16103052B01D85A1C01D1206810BD23
:10202000054AD25C112A01BF044AD05C400040F04E
:10203000010018BF0120F2E704000020780500200D
:10204000086810B50C46C10706D4042804D90368F3
:1020500003F00F03042B04D0BDE810400E2001F064
:102060005DB904F025FB0278A2F14103052B03D9E9
:10207000A2F16103052B01D85A1C01D1206810BDC3
:10208000034A32F81300400040F00100F7E700BFB8
:102090006C0500200868C30710B50C4604D40D2059
:1020A00001F03CF9206810BD4010B0F5FA6FA8BFF0
:1020B0004FF4FA601428B8BF142006F075FB042012
:1020C000F1E708B506F076FB400040F0010008BDDE
:1020D00008B506F05BFB400040F0010008BD08B504
:1020E00006F05AFB400040F0010008BD08B506F0BC
:1020F000FBFA400040F0010008BD000010B50022CE
:102100000621032004F096FC20B9BDE810400A2007
:1021100001F004B9C30709D4042807D9036803F000
:102120000F02032A04BF43F0C0430360054AC31CE7
:1021300000F1180112F8014B03F8014F8B42F9D15D
:1021400010BD00BF03060020024B4FF4FA4043F0DD
:1021500001031847D0AC02002DE9F04102230F46DD
:1021600083420EDA57F82320D50707EB830405D402
:102170000D2001F0D3F82068BDE8F0810133DBB217
:10218000EEE7386810F0010606D1042804D9036888
:1021900003F00F03042B04D0BDE8F0410E2001F042
:1021A000BDB804F085FA0578A5F14103052B73D875
:1021B0001D46681C73D0464B5B5D0A2B40F0868041
:1021C000444A15236B43D118E320D0544D70BC68AA
:1021D0006410C4EB042414F1630F904661DB6423A4
:1021E00094FBF3F4FF2CA8BFFF24FA685210C2EB53
:1021F000022212F1630F56DB642392FBF3F2FF2AF3
:10220000A8BFFF223B695B10C3EB032313F1630FED
:102210004BDB642193FBF1F3FF2BA8BFFF2378680E
:10222000C10744D4042842D9016801F00F010429F0
:102230003DD1152101FB0581E4B2D2B2DBB28C7035
:10224000CA700B714C718A71CB710C724A728B72AD
:10225000CC720A734B730121102023F0DBFB0021A9
:10226000102023F015FC1C4CFFF736FE152303FB52
:10227000058515F8011B2046013608F066FA152E73
:10228000F7D1154808F060FA1020012123F000FC76
:10229000FFF75AFF04206FE7613D052D89D93868A3
:1022A0006AE70024A1E70022ACE70023B7E741106A
:1022B000013903293FF660AF01EB4100152101FB15
:1022C000058101448C70CA700B71C4E7002053E78C
:1022D000040000207E050020A4300020FC230949D2
:1022E000037010B50246841D11F8013B0A2B08BF8C
:1022F000092302F8013FA242F6D1034B1B7DC371B3
:1023000010BD00BF040000200306002038B50121E5
:10231000102023F07FFB0021102023F0B9FBFFF7F2
:10232000DBFD0C480C4DE22108F00FFA0124295D79
:102330000848013408F009FA152CF8D1054808F0CE
:1023400003FA0121102023F0A3FBBDE83840FFF77A
:10235000FBBE00BFA4300020100000204B68D8074F
:1023600010B50C4604D40D2000F0D8FF606810BDF5
:102370000868C10706D4042804D9036803F00F03D2
:10238000042B04D0BDE810400E2000F0C7BF04F0BD
:102390008FF90278A2F14103052B03D9A2F1610361
:1023A000052B01D85A1C01D12068E0E70A4AD25C0B
:1023B000082A0ED1094A616803EB43031344002243
:1023C0005A709A70A1F34802DA70FFF79FFF042059
:1023D000CDE70020CBE700BF040000201000002064
:1023E0004B68D80710B50C4604D40D2000F096FFBA
:1023F000606810BD0868C10706D4042804D90368C2
:1024000003F00F03042B04D0BDE810400E2000F0B1
:1024100085BF04F04DF90278A2F14103052B03D9E1
:10242000A2F16103052B01D85A1C01D12068E0E715
:102430000C4AD25C013A052A12D862680A49521045
:10244000023203EB43030B44FF2A4FF00001A8BF05
:10245000FF2259709970DA70FFF758FF0420C8E71F
:102460000020C6E704000020100000204B68D807B9
:1024700010B50C4604D40D2000F050FF606810BD6C
:102480000868C10706D4042804D9036803F00F03C1
:10249000042B04D0BDE810400E2000F03FBF04F034
:1024A00007F90378A3F14102052A26D813465A1CDE
:1024B00026D0194AD25C013A052A2BD86168491006
:1024C00064290A466FF06300A8BF64228242B8BF45
:1024D0000246002916DD3B214A436421B2FBF1F29A
:1024E00074320E4903EB43030B4400215970997079
:1024F000DA70FFF70BFF0420C1E7613B052BD6D94B
:102500002068BCE7EDD03B214A43642192FBF1F205
:102510004032E6E70020B2E704000020100000206F
:10252000F8B54B68D8070C4605D58B68D90702D596
:10253000E368DA0704D40D2000F0F0FE002055E037
:10254000206810F0010506D1042804D9036803F0BF
:102550000F03042B04D0BDE8F8400E2000F0DEBECF
:1025600004F0A6F80678A6F14103052B3AD81E46DA
:10257000731C3AD062685210C2EB022212F1630F50
:1025800035DB642392FBF3F2FF2AA8BFFF22A06889
:102590004010C0EB002010F1630F2ADB642190FB98
:1025A000F1F0FF28A8BFFF20E3685B10C3EB032313
:1025B00013F1630F1FDB642193FBF1F3FF2BA8BF23
:1025C000FF232949895D072901D0092915D1274908
:1025D00006EB46060E447070B270F370FFF796FE7D
:1025E000042003E0613E052EC2D92068F8BD002218
:1025F000CDE70020D8E70023E3E70A299ED11C4F4E
:10260000152171437C184FF0E30C07F801C0C1B2EB
:10261000D2B2DBB2A17061712172E172102001218E
:10262000E2702371A271E3716272A3722273637309
:10263000667023F0EFF90021102023F029FAFFF74C
:102640004BFC0C4E14F8011B3046013508F07DF8A8
:10265000152DF7D1074808F077F80121102023F055
:1026600017FAFFF771FDBBE70400002010000020FF
:102670007E050020A430002000EB400303481844EE
:10268000002343708370C370FFF740BE100000202A
:102690002DE9F3479C4B9D4C186800909B88ADF842
:1026A00004300121102023F0B5F90021102023F07F
:1026B000EFF9FFF711FC9648954EDE2108F045F83A
:1026C00001252070FF21304608F03FF860550135A4
:1026D000152DF7D18E488F4E08F036F810200121C5
:1026E00023F0D6F98C4BE2781A7062795A70E2794D
:1026F0009A70627ADA70E27A1A71627B5A7187484C
:10270000DFF838C2002303279E46018816F8012B04
:1027100002EB4102B2F53C7FB2FBF7F520F8025B19
:102720004DDD0DF803E00133062BEED17C4ADFF8D6
:1027300010C21078694667461E46002511F801EB65
:1027400097F8008007F801EBC6451CBF0125002063
:10275000013EF3D105B110701178132940D8013131
:102760001170704E3378002B40F0B6806E4C22789A
:1027700012B30121102023F04DF90021102023F085
:1027800087F9FFF7A9FB694FDFF88481002517F867
:10279000011B4046013507F0D8FF152DF7D15C48E5
:1027A00007F0D2FF0121102023F072F9FFF7CCFCD3
:1027B000012333700023237002B0BDE8F0870122AB
:1027C00012F80C1001F10608454505DC06398D426A
:1027D00002DB0DF80320A6E701321A2AF0D1A2E7A6
:1027E0001429BED1152111704F49514D91F800E0C7
:1027F000504800222F4690464FF0010917F801ABD0
:102800001CF8016BB24508D00EB11F2E33D180F8F1
:10281000008007F8016C01229646013B00F101009F
:10282000ECD10AB181F800E00B78002B99D03F4B36
:1028300015220021184627F051F9E12202700022EA
:102840000221052617464FF0040C4FF0030E4FF0FF
:1028500006084FF0010915F8013B03F1FF3ABAF100
:10286000010F02F1010210D880F80190062A00F150
:102870000100F0D175E790F800A0BAF1000FCCD1BB
:1028800007F8016C80F80090C5E7A3F1030ABAF1DC
:10289000030F02D880F80180E8E7072B01D0092B4D
:1028A00001D14170E2E7A3F10A0ABAF1010F02D89F
:1028B00080F801E0DAE7A3F10C0ABAF1090F02D8B7
:1028C00080F801C0D2E7082B02D0163B032B01D8B9
:1028D0004670CBE74770C9E7DFF85090DFF84880D3
:1028E000154F0025013515F8092014F815309A42C6
:1028F00005D00123384688F8003006F025FA062D69
:10290000F0D10023337031E70CAC02000306002045
:10291000A430002011060020780500206C0500205E
:1029200019060020020600201806002025000020BD
:1029300004000020FC050020F8AB0200ACAC020053
:102940000A000020F0B587B01522FF21684627F065
:10295000C5F8DF23012110208DF8003023F05AF84C
:102960000021102023F094F8FFF7B6FA0D4E6C46C4
:102970001525002714F8011B0B4807F0E6FE013D62
:1029800006F8017BF6D1084807F0DEFE0121102091
:1029900023F07EF8054B4FF01F321A609A8007B083
:1029A000F0BD00BF10000020A43000200A0000206D
:1029B000024A03480F2105F0D3BD00BF34AC02002A
:1029C00004C00200014A1360704700BF580E002087
:1029D000704710B5044622F0A7FC204610BD000049
:1029E00008B5084609F02FFE0022114608F056FAF5
:1029F000034B4FF6FF721A80024B00221A6008BD8B
:102A00003A0000202006002010B50846144609F0C0
:102A10001AFE08F0E3FB034B228C1A80024B0122C2
:102A20001A6010BD3A00002020060020F0B5104EBC
:102A300085B0002201A808F053FE3468BDF80A50A2
:102A4000019FC4F50062954204DD0A480368013322
:102A50000360154608482A463946204427F016F8F0
:102A60002C443846346021F08EFA05B0F0BD00BF2A
:102A7000500E0020600E00202406002010B5034BED
:102A80000360044608F06CFD204610BD80AD0200D6
:102A900010B50446FFF7F2FF204622F045FC204621
:102AA00010BD10B5044603F08DFB044403F08AFB0F
:102AB000A04207D206F074FB04F0F2FC01201FF0E4
:102AC00001FEF3E710BD00F1080373B5036004468F
:102AD00008460D4627F05CF90F2805EB000601902B
:102AE00007D9002201A9204623F0D6FA019B2060D5
:102AF000A36020683246294623F001FB019B22682F
:102B0000636000212046D15402B070BD4FF0805266
:102B1000136E4371190A0171190C1B0EC170837079
:102B2000536E43701B0A03707047000037B50024D2
:102B300068460094ADF80440FFF7E8FFBDF80430A4
:102B40000E495BBA1A209BB2B3FBF0F200FB1233C2
:102B50004133B2FBF0F50B7000FB1522B5FBF0F32F
:102B600000FB1350413088700548CC7041324A70E8
:102B700003B0BDE8304027F003B900BF1A060020BB
:102B8000250E0020F8B5134E33780BB3124D134CBD
:102B900028682188124F132209F057FD4FF6FF7362
:102BA0002380104B286800241C600F4B1C7009F018
:102BB0004AFD08F013FB39682868224609F09EFF99
:102BC000204609F0EBF9094B2C603C601C60347026
:102BD000F8BD00BF240E00205C0E00203A0000204B
:102BE000640E0020200600204C0E0020540E002011
:102BF00010B50E4C20688CB0B0B109F024FD08F07F
:102C0000EDFA206809F01FFD094904466846FFF700
:102C10005AFF694606A80AF07AFB204606A908F082
:102C200012F9684623F05AFA0CB010BD5C0E002071
:102C3000D6AC020010B5154B1B6886B01BB309F06B
:102C400091F8044608F0D3FA1149204608F0F6FB43
:102C500010496846FFF737FF6946204608F068FCD0
:102C6000684623F03BFA6421204608F010F9C82199
:102C7000204608F00FF9084B1B7823B100221146BB
:102C8000204608F00BF906B010BD00BF5C0E002016
:102C9000D6AC0200250E00204C0E00202DE9F0419C
:102CA000434D2B7886B0002B7ED1FFF73FFF414983
:102CB000414E424FDFF8FC806846FFF704FF68464C
:102CC00009F0DCF8684623F009FA09F02FF8044609
:102CD0003060042022F024FB394B036001460122BE
:102CE000204609F0BBFC37493068374E09F0D3FE67
:102CF0001022364930604FF400730AF0C7FA344BA3
:102D000004461860042022F00BFB014607602046B1
:102D100008F02EFE4FF4007304222E4930680AF0AA
:102D2000B5FA0446042022F0FBFA0146076020466B
:102D300008F01EFE30680AF03BF9274A01232B7089
:102D40001370FFF777FF1B4827F022F8032405468E
:102D50002E1F0327B5421DD0012108EB060003F00A
:102D60002DFF69460090012004F098FA6946CDE9EC
:102D700000070320029704F0C9FA4FF42F70FFF701
:102D800090FE6946002004F08DF86420FFF789FE6C
:102D90000136DFE74FF47A70FFF783FE013CD7D1AD
:102DA0006946204604F07EF806B0BDE8F08100BF19
:102DB000240E0020250E00205C0E002080AD0200B5
:102DC00050AD0200D6AC0200640E0020FBAC020045
:102DD000540E002020AD02004C0E0020014B18685C
:102DE000704700BF20060020012070472DE9F04306
:102DF000464D2B6887B006460C46002B49D0444808
:102E00001FF02CFA022862DD05201FF05BFC404811
:102E10001FF024FA1428024601A9A8BF14223C4836
:102E20001FF0CBF901AB0022023890424FDD13F8BE
:102E3000011BFA2902F10102F7D119781A29F4D1FC
:102E40005F78002FF1D1DFF8D890DFF8D880B9F89B
:102E50000010D8F80000132209F0F7FB4FF6FF73BB
:102E6000A9F800302B4BD8F8000019683A4609F051
:102E700045FE294B2F601F7025481FF0EFF9844253
:102E800022463146A8BF024621481FF096F9044663
:102E900037E0DFF8848098F80030002BECD105F0A3
:102EA0003FFF074698B9DFF87C90D9F8000070B171
:102EB000184B196809F004FED9F8000009F0C3FBAB
:102EC0003A46394607F0EAFF012388F800302B68BC
:102ED000002BD1D0114F3D68AC42A8BF2C4684B125
:102EE000DFF844802246414630462D1B26F0CEFDB9
:102EF000002D05DD2A4608EB0401404626F0C6FDFC
:102F00003D60204607B0BDE8F08300BF20060020EA
:102F1000B85A0020640E00204C0E0020500E0020F5
:102F20003A0000205C0E0020240600200B462DE90C
:102F3000F341D41A1B4B1B68411833B91A48224677
:102F400002B0BDE8F0411FF0A1B8184D019103F0A7
:102F500039F92B68019998423CBF00232B602B68FC
:102F6000C31A132B06461BD9002C19DDFA2CDFF8E7
:102F700044800F4FD8F80000A8BFFA24002322464F
:102F80003B6008F0FDFCD8F8000008F0EDFC3B6861
:102F90002E60002B18BF0024204602B0BDE8F0814F
:102FA0000024F9E720060020B85A0020480E00202F
:102FB000580E0020540E002008B505481FF026F9D1
:102FC000BDE8084002484FF4E1311FF009B900BFE5
:102FD000B85A0020037883B11A0601D40130704733
:102FE00003F0C003C02B08BF013002461046013277
:102FF000037803F0C003802BF8D0704773B5064602
:10300000084611F00101144627D1042842D903686B
:1030100003F00F03042B3DD1D30714D4042A39D96C
:10302000136803F00F03042B34D103F041FB054672
:10303000204603F03DFB0146284626F097FE002877
:1030400030DB21D129E0019103F032FB01990A2202
:1030500026F056FF0546641013E012F0010117D167
:10306000042A17D9136803F00F03042B12D145105B
:103070001046019103F01CFB01990A2226F040FF43
:103080000446A5420EDB08DD002E09DC00200CE022
:103090004510E0E7064B0F221A700136022EF5D8D4
:1030A000042002E0701700F0040002B070BD00BF01
:1030B000900E002007B510F0010104D04110084621
:1030C00003B05DF804FB042813D9026802F00F0274
:1030D000042A09D1019103F0EBFA01990A2203B005
:1030E0005DF804EB26F00CBF032A02D10A2204305B
:1030F000F5E7024B0D221A70E1E700BF900E0020A9
:103100002DE9F843054605F03FFA044608B1BDE84D
:10311000F883284626F03CFE2C4E07463379032BD5
:103120000AD00134FF2C06F10806F7D1284B1B22E8
:103130001A704FF0FF30EAE73A462946E0B205F050
:10314000A1FA034600283DD132685068111D98420B
:10315000E7D051F804CFBCF1F00F03F10103F6D131
:103160009B000833D00702EB0301DAD40429D8D935
:10317000D35803F00F02042AD3D1C3F30F13013342
:10318000CA0701EB8300CCD40428CAD951F82330F4
:1031900003F00F03042BC4D103F08AFA4FF00309A4
:1031A00080460921404626F0D4FD0028B9D0B9F167
:1031B000010900F10108F4D12946404626F003FE3A
:1031C0008045AED164F0FF00A1E700BF3877002052
:1031D000900E002010F0010210B516D1042802D97B
:1031E0000268C2F30F1211F0010310D1042902D9B1
:1031F0000B68C3F30F13934214D1043000EB830325
:103200000331834205D8012010BD0022EBE70023E3
:10321000F1E710F8014B11F8012F54EA020CF2D03B
:103220009442EED00020EFE72DE9F04F85B0CDE9D4
:103230000113314F314E80468AB102233B70012386
:1032400033603368DFF8C890DFF8C8A0DFF8C8B093
:103250000024FC54444504DB05B0BDE8F08F326027
:10326000EFE7019B316853F82400C30707EB010522
:10327000C1F5487105D5224A4310284621F0D6FFF2
:1032800004E0A8B91F4A284621F0D0FF1A4826F0CA
:103290007FFD029B30604BB108F1FF33A34205DD97
:1032A000431C20223A540022FA5433600134D1E7FF
:1032B000042801D1144AE6E71BD9026802F00F0383
:1032C000042B06D1039103F0F3F9104A0399034646
:1032D000D3E7092B03D143685A465B10CDE7032B94
:1032E00008D1C2F30F13C2F34172C2EB83035246FB
:1032F000C3E701234A46C0E7E80E00200812002079
:1033000071B10200A4AD0200AAAD0200A5E4020062
:10331000C9AD0200BEAD0200AFAD0200014B187096
:1033200000207047900E0020024B1878003818BF1C
:1033300001207047900E0020024B1860024BFF22C4
:103340001A70704710120020900E002008B500235C
:103350001A46FFF769FF034B0348196805F008FF99
:10336000002008BD08120020E80E002010B502F071
:1033700035FF084C231D01461F22184626F010FD7C
:1033800026F006FD031D9B081B0143F00403236088
:10339000204610BD680E00202DE9F04F804608F150
:1033A0001809D8F81410C74FD8F810508BB009EB93
:1033B0008101D0E9023002913978AA0003EB800440
:1033C00009EB8505002952D153F8203092101E12C6
:1033D000C8F8102003F07F03BB4A52F823300434AE
:1033E000924643F001031847D8F8082098F80230B5
:1033F00098F80100A21A921043EA022205F0C6FBD7
:10340000002388F800303B70D8F80830E41A029B9B
:10341000A5EB0905A3EB0909A410AD104FEAA90318
:10342000C8F80C40C8F81050C8F814300BB0BDE80C
:10343000F08F98F8010005F0A3FB002388F8003016
:10344000E2E73B789BB954F8043BA5EB09021E1256
:1034500003F07F0392105AF82330C8F81020C0E719
:10346000291DA1EB0903D82B17DD1A233B703978EE
:10347000FF29B9D1954E00233B703368002BC3DD83
:10348000012388F8003002F095FE33684FF47A7219
:1034900002FB0300C8F80400B6E79A103B782E60E0
:1034A0000BB10D46E3E754F8043BC8F810201E1298
:1034B00003F07F030D465AF8233092E7291DA1EB54
:1034C0000903D82B02DD1A233B70D0E7204650F8C1
:1034D000042B2A609A103B7813B10D460446C6E7C8
:1034E0006368C8F810201E1203F07F030D465AF8D7
:1034F0002330083475E7291DA1EB0903D82B02DD21
:103500001A233B70B3E79A103B7804EB86062E60D3
:103510000BB10D46ABE754F8043BC8F810201E125F
:1035200003F07F030D465AF823305AE72A1DA2EB19
:103530000903D82B02DD1A233B7098E7632ECABF1C
:1035400063496449643E51F82610296015469A1073
:103550003B78002B8BD154F8043BC8F810201E1286
:1035600003F07F035AF823303BE75A4B55F8042DFC
:1035700043F826203B78002B7FF479AF54F8043BC6
:10358000A5EB09021E1203F07F0392105AF82330B4
:10359000C8F8102025E7DFF83CB15BF82600FFF7FC
:1035A00089FD3A78002A7FF462AF009055F8040D47
:1035B000FFF780FD009B184440003B7840F001007D
:1035C000A5EB09024BF826009210002B7FF44FAFB9
:1035D00054F8043BC8F810201E1203F07F035AF879
:1035E0002330FEE62A1DA2EB0903D82B02DD1A23A5
:1035F0003B703CE7029B994534BF53F80C3C0123D8
:103600002B603B78A2EB090189100BB115462EE720
:1036100054F8043BC8F810101E1203F07F0315463F
:103620005AF82330DDE62A1DA2EB0903D82B02DD70
:103630001A233B701BE7029989450ED251F80C0CF6
:1036400006F18046033EA6EB600651F8261029607D
:1036500099103B783BB1154609E718233B700023CE
:103660002B60154603E754F8043BC8F810101E12EF
:1036700003F07F0315465AF82330B2E6029B9945C2
:103680001CD2029A55F8043D52F80C0C06F1804603
:10369000033EA6EB600642F826303B78A5EB090214
:1036A0009210002B7FF4E3AE54F8043BC8F81020CE
:1036B0001E1203F07F035AF8233092E618233B7062
:1036C000D5E600BF900E002014AE020010120020BC
:1036D00010770020347F0020029B99452DD253F8AB
:1036E0000C3C029A06F18046033EA6EB630352F8B7
:1036F0002300FFF7DFFC834655F8040DFFF7DAFCE3
:10370000029B029A53F80C3C5844A6EB6306430014
:1037100043F0010342F826303B78A5EB09029210F2
:10372000002B7FF4A4AE54F8043BC8F810201E12FE
:1037300003F07F035AF8233053E618233B7096E6D4
:10374000291DA1EB0903D82B02DD1A233B708EE65D
:10375000029A52F826202A609A103B780BB10D4647
:1037600085E654F8043BC8F810201E1203F07F03CE
:103770000D465AF8233034E6029A55F8043D42F8D3
:1037800026303B78002B7FF472AE54F8043BA5EB57
:1037900009021E1203F07F0392105AF82330C8F872
:1037A00010201EE6029B53F826004FEA600B55F8E6
:1037B000040DFFF77FFC5844029B400040F00100DD
:1037C00043F826003B78002B7FF451AE54F8043BBD
:1037D000A5EB09021E1203F07F0392105AF8233062
:1037E000C8F81020FDE5A5EB8605A945A5EB09065F
:1037F0000ED83A78B310002A7FF439AE54F8042B6F
:10380000C8F81030161202F07F025AF82230E8E5AC
:10381000CC4802F03DFF3A78B310002A7FF427AE7F
:1038200054F8042BC8F81030161202F07F025AF830
:103830002230D6E5002E04EB8604FFF6E5AD3B789A
:10384000A5EB09029210002B7FF411AE54F8043B53
:10385000C8F810201E1203F07F035AF82330C0E589
:1038600055F8043D042B04D1002E04EB8604FFF62A
:10387000CBAD3B78A5EB09029210002B7FF4F7AD9E
:1038800054F8043BC8F810201E1203F07F035AF8C6
:103890002330A6E555F8043D042B04D0002E04EB9C
:1038A0008604FFF6B1AD3B78A5EB09029210002B20
:1038B0007FF4DDAD54F8043BC8F810201E1203F06D
:1038C0007F035AF823308CE555F8040CC107A5F1A5
:1038D000040B0BD54010013800280ADB400040F0F3
:1038E000010004EB8604CBF800008DE5FFF7E2FB56
:1038F000F1E73B78ABEB090292100BB15D46B6E500
:1039000054F8043BC8F810201E1203F07F035D46F4
:103910005AF8233065E5029B05F10C0EAEEB090267
:10392000A3EB090BD82A4FEAAB0B02DD1A233B703D
:103930009DE5760006F4FF7646F001062E60D8F885
:1039400008302946E41A98F80250A41045EA0425E4
:103950004FEA4B0B4BF001036D008B6045F0010506
:10396000009B4D6088F80230397850F83C30C8F838
:1039700008307546921021B103F10804CDF808E033
:1039800075E503F10C049B68CDF808E01E1203F006
:103990007F03C8F810205AF8233022E5029B55F81F
:1039A000046C99452DD1F2071ED4042E15D9336825
:1039B00003F00F03042B19D1304602F079FE26F0F4
:1039C000E7F9B0F5487FA8BF4FF44870063064307F
:1039D00004F0F6FE78B9043C16E50AD0002E0CBFC0
:1039E00007204FF40070F2E70A20F0E74FF4007070
:1039F000EDE70720EBE798F80100314605F0DDF828
:103A00001BE5029B504953F80C2C504B3878A3EB24
:103A10006203029A42F8236002EB830552F8083CE5
:103A20005A1088F80220D2B2043551F83210029AA6
:103A3000C8F8081052F8042C521009EB8202C3F3A4
:103A400055230292A5EB090201EB83049210002892
:103A50007FF40DAD51F82330C8F810201E1203F08A
:103A60007F0304345AF82330BBE455F8040CFFF705
:103A700021FB1E28A5EB86052DDCA5EB090B0028F4
:103A80004FEAAB0B0DDC3B78002B7FF4F0AC54F825
:103A9000043BC8F810B01E1203F07F035AF823301D
:103AA0009FE4009002F086FB009B033B1E1802F08F
:103AB00081FB274B801B9842F9D23B78002B7FF487
:103AC000D6AC54F8043BC8F810B01E1203F07F03C4
:103AD0005AF8233085E4012288F80020009002F093
:103AE00069FB009B0A380344C8F804308CE455F89D
:103AF000040CFFF7DFFAA5EB8605061E10DC3B7809
:103B0000A5EB09029210002B7FF4B1AC54F8043BF2
:103B1000C8F810201E1203F07F035AF8233060E427
:103B20000C4B9E4202DD1D233B70A0E4012388F86C
:103B3000003002F03FFB4FF47A7303FB06000A38B3
:103B4000A8E400BFDBAD020038770020FDFFFF3F97
:103B50008096980080EE360000233046A5EB86055F
:103B6000CA4E1A462946FFF75FFB3168C84803F082
:103B700025F8C84B31681860C54805F0DBF9316895
:103B8000C34805F0F5FA3B78002B7FF470AC54F88D
:103B9000043BA5EB09021E1203F07F0392105AF8B2
:103BA0002330C8F810201CE43B78A5EB8605002BD9
:103BB0007FF45DAC54F8043BA5EB09021E1203F040
:103BC0007F0392105AF82330C8F8102009E44046C9
:103BD00004F054FE3B78002B7FF449AC54F8043BCE
:103BE000A5EB09021E1203F07F0392105AF823304E
:103BF000C8F81020FFF7F5BB55F8043C002B47D15F
:103C000055F80C0C10F0010B20D04FEA600B4FEA76
:103C10004B0343F0010345F8083CBBF1000F40F3B0
:103C2000968055F8080C4FEA4B03CBEB600B55F828
:103C30000C0C43F0010345F8043CC3072DD50BF1F0
:103C4000010B4FEA4B0343F0010331E004281BD979
:103C5000036803F00F02092A01D14068D5E7042A5E
:103C600009D102F025FD0378002BD0D0FFF7B2F97F
:103C70000BF1010BF7E7032A06D1C3F30F1BC3F3C4
:103C80004173C3EB8B0BC2E719233B70FFF7EFBB0C
:103C90004FEA630B0BF1FF3BBFE7042853D90368DE
:103CA00003F00F03092B18D10BF1020B50F82B3046
:103CB000029A42F826303B78A5EB09029210002BBD
:103CC0007FF4D5AB54F8043BC8F810201E1203F063
:103CD0007F035AF82330FFF784BB042B2CD1029BBF
:103CE00003EB8603009302F0E3FC0BF1010B0646A5
:103CF000BBF1010F10DC3046FFF76CF9821B104658
:103D0000039202F053FF834668B102F0D1FC039A9C
:103D1000314625F0BBFE06E030780BF1FF3B30B9B1
:103D200012233B708346009BC3F800B0C3E73046C4
:103D3000FFF750F90646DBE7032B04D183449BF8D9
:103D400004305B007FE719233B70FFF790BB04341E
:103D5000B1E705EB8603A3EB0903D82B16DC0122A0
:103D6000002E06F1FF3315DC3B78A5EB090292101B
:103D7000002B7FF47CAB54F8043BC8F810201E12D3
:103D800003F07F035AF82330FFF72BBB1A233B7055
:103D9000FFF76DBB45F8042B1E46E1E72B1DA3EB97
:103DA0000903D82B03DD1A233B70FFF760BB029B8E
:103DB000994530D255F8040CFFF77CF9002827DD2F
:103DC000029B53F80C3CB0EB630F4FEA63021FDC1D
:103DD000801A00F18040029B043853F82020A5EBA4
:103DE00086031A60C6F1010605EB86053B78A5EB54
:103DF00009029210002B7FF43AAB54F8043BC8F848
:103E000010201E1203F07F035AF82330FFF7E9BA9F
:103E100020233B70E6E71823FBE71E4B1A68A5EB4F
:103E20008603C6F101061A603B7805EB8605002B78
:103E30007FF41DAB54F8043BA5EB09021E1203F0FE
:103E40007F0392105AF82330C8F81020FFF7C9BA40
:103E500055F8043C042BA5F104023B7808BF2A4620
:103E6000A2EB090108BF04EB8604891013B11546C3
:103E7000FFF7FDBA54F8043BC8F810101E1203F007
:103E80007F0315465AF82330FFF7ABBA081200201B
:103E9000E80E00204400002055F8043D042B1CBF10
:103EA000002345F8043B3B78A5EB090218BF04EB5F
:103EB00086049210002B7FF4DAAA54F8043BC8F869
:103EC00010201E1203F07F035AF82330FFF789BA3F
:103ED000002EA5EB860119DC1C233B700022C6F1E5
:103EE000010605EB86053B780A60A5EB09029210F6
:103EF000002B7FF4BCAA54F8043BC8F810201E1213
:103F000003F07F035AF82330FFF76BBA0B684FF0CA
:103F1000000C5B1051F82C0010F0010202D10D23AF
:103F20003B70DCE7401083420CF1010CA8BF034654
:103F30006645EFDC5B0043F00102D0E7002EA5EB05
:103F4000860119DC1C233B700022C6F1010605EB3B
:103F500086053B780A60A5EB09029210002B7FF4DE
:103F600086AA54F8043BC8F810201E1203F07F0301
:103F70005AF82330FFF735BA0B684FF0000C5B108E
:103F800051F82C0010F0010202D10D233B70DCE748
:103F9000401083420CF1010CB8BF03466645EFDCCC
:103FA0005B0043F00102D0E755F8081C11F0010F47
:103FB0004FEA860323D055F8042C12F0010F1ED0CF
:103FC0005210B2EB610FA5EB0303CCBF0422002219
:103FD0001A60C6F1010605EB86053B78A5EB0902E0
:103FE0009210002B7FF443AA54F8043BC8F8102029
:103FF0001E1203F07F035AF82330FFF7F2B955F889
:10400000042C6FF00100A5EB030BFEF7F7FFCBF8D4
:104010000000DEE755F8081C11F0010F4FEA860397
:1040200023D055F8042C12F0010F1ED05210B2EB21
:10403000610FA5EB0303ACBF042200221A60C6F196
:10404000010605EB86053B78A5EB09029210002BD3
:104050007FF40DAA54F8043BC8F810201E1203F098
:104060007F035AF82330FFF7BCB955F8042C4FF002
:10407000FF30A5EB030BFEF7C1FFCBF80000DEE736
:1040800055E902014FEA860B8142A5EB0B0B18D1D3
:104090000423CBF80030C6F1010605EB86053B781A
:1040A000A5EB09029210002B7FF4E1A954F8043B20
:1040B000C8F810201E1203F07F035AF82330FFF7D0
:1040C00090B9042801D80023E3E7C207FBD40368B2
:1040D00003F00F03042BF6D1CB07F4D40429F2D953
:1040E0000B6803F00F03042BEDD1FFF773F80028E2
:1040F00014BF04230023CCE755E902014FEA860BE5
:104100008142A5EB0B0B18D10023CBF80030C6F190
:10411000010605EB86053B78A5EB09029210002B02
:104120007FF4A5A954F8043BC8F810201E1203F030
:104130007F035AF82330FFF754B9042801D8042329
:10414000E3E7C207FBD4036803F00F03042BF6D1A7
:10415000CB07F4D40429F2D90B6803F00F03042B26
:10416000EDD1FFF737F8002814BF00230423CCE774
:1041700055F8081C11F0010F4FEA860323D055F8BB
:10418000042C12F0010F1ED05210B2EB610FA5EB00
:104190000303D4BF042200221A60C6F1010605EB16
:1041A00086053B78A5EB09029210002B7FF45FA9EE
:1041B00054F8043BC8F810201E1203F07F035AF88D
:1041C0002330FFF70EB955F8042C0120A5EB030BA3
:1041D000FEF714FFCBF80000DFE755F8081C11F0DC
:1041E000010F4FEA860323D055F8042C12F0010F7B
:1041F0001ED05210B2EB610FA5EB0303B4BF042233
:1042000000221A60C6F1010605EB86053B78A5EB96
:1042100009029210002B7FF42AA954F8043BC8F835
:1042200010201E1203F07F035AF82330FFF7D9B88D
:1042300055F8042C0220A5EB030BFEF7DFFECBF8AC
:104240000000DFE755F8043C042BA5EB86030CBF08
:1042500000220422C6F101061A6005EB86053B78B0
:10426000A5EB09029210002B7FF401A954F8043B3E
:10427000C8F810201E1203F07F035AF82330FFF70E
:10428000B0B855F8080CFEF715FF834655F8040C36
:10429000FEF710FF5844A5EB8603400040F00100F4
:1042A00018603B78C6F1010605EB8605002B7FF40C
:1042B000DEA854F8043BA5EB09021E1203F07F03AD
:1042C00092105AF82330C8F81020FFF78AB855F832
:1042D000080CFEF7EFFE834655F8040CFEF7EAFEE5
:1042E000ABEB0000A5EB8603400040F00100186036
:1042F0003B78C6F1010605EB8605002B7FF4B7A8D5
:1043000054F8043BA5EB09021E1203F07F03921040
:104310005AF82330C8F81020FFF763B855F8080C96
:10432000FEF7C8FE834655F8040CFEF7C3FE00FBFB
:104330000BF0A5EB8603400040F0010018603B78CD
:10434000C6F1010605EB8605002B7FF490A854F812
:10435000043BA5EB09021E1203F07F0392105AF8EA
:104360002330C8F81020FFF73CB855F8040CFEF7CE
:10437000A1FE8346D0B91F233B70A5EB8603C6F18F
:104380000106186005EB86053B78A5EB0902921043
:10439000002B7FF46CA854F8043BC8F810201E12C0
:1043A00003F07F035AF82330FFF71BB855F8080CC9
:1043B000FEF780FE90FBFBF0400040F00100DCE7E0
:1043C000A5EB860BDBF80000FEF774FE0090DBF82F
:1043D0000400FEF76FFE009BC8B91F233B70C6F1B7
:1043E000010605EB86053B78CBF80000A5EB09023A
:1043F0009210002B7FF43BA854F8043BC8F810201F
:104400001E1203F07F035AF82330FEF7EABF80EA5A
:10441000E072A2EBE07293FBF2F002FB1030002896
:10442000B8BF8018400040F00100D8E755F8040CF0
:10443000FEF740FE002855F8040C1DDDFEF73AFE9D
:10444000A5EB8603400040F00100C6F101061860AC
:1044500005EB86053B78A5EB09029210002B7FF453
:1044600006A854F8043BC8F810201E1203F07F037E
:104470005AF82330FEF7B5BFFEF71CFE4042DFE7D7
:10448000012EA5EB860B35D1DBF80000FEF712FEFE
:104490000028ACBF01224FF0FF32824202DD1346FA
:1044A000024618460130831A0392009325F090FBD0
:1044B000009B039A90FBF3F101FB13031A44520093
:1044C000C6F1010642F0010205EB86053B78CBF808
:1044D0000020A5EB09029210002B7EF4C8AF54F81F
:1044E000043BC8F810201E1203F07F035AF8233053
:1044F000FEF777BF022E0AD1DBF80000FEF7DAFDE7
:104500000090DBF80400FEF7D5FD009AC5E76420B3
:104510000122C7E7A5EB860B3046594602F06DFB3A
:104520003B78CBF80000C6F1010605EB8605002BB1
:104530007EF49DAF54F8043BA5EB09021E1203F074
:104540007F0392105AF82330C8F81020FEF749BFB5
:1045500055F8080CFEF7AEFD834655F8040CFEF73F
:10456000A9FD0BEA0000A5EB8603400040F0010026
:1045700018603B78C6F1010605EB8605002B7EF43A
:1045800076AF54F8043BA5EB09021E1203F07F033B
:1045900092105AF82330C8F81020FEF722BF55F8C1
:1045A000080CFEF787FD834655F8040CFEF782FDE4
:1045B0004BEA0000A5EB8603400040F001001860C4
:1045C0003B78C6F1010605EB8605002B7EF44FAF64
:1045D00054F8043BA5EB09021E1203F07F0392106E
:1045E0005AF82330C8F81020FEF7FBBE55F8080C27
:1045F000FEF760FD834655F8040CFEF75BFD8BEA81
:104600000000A5EB8603400040F0010018603B78F5
:10461000C6F1010605EB8605002B7EF428AF54F8A1
:10462000043BA5EB09021E1203F07F0392105AF817
:104630002330C8F81020FEF7D4BE55F8040CFEF75E
:1046400039FDC043A5EB8603400040F0010018602F
:104650003B78C6F1010605EB8605002B7EF407AF1B
:1046600054F8043BA5EB09021E1203F07F039210DD
:104670005AF82330C8F81020FEF7B3BE55F8080CDE
:10468000FEF718FD834655F8040CFEF713FD0BFAF0
:1046900000F0A5EB8603400040F0010018603B7875
:1046A000C6F1010605EB8605002B7EF4E0AE54F85A
:1046B000043BA5EB09021E1203F07F0392105AF887
:1046C0002330C8F81020FEF78CBE55F8080CFEF712
:1046D000F1FC834655F8040CFEF7ECFC4BFA00F0B5
:1046E000A5EB8603400040F0010018603B78C6F15E
:1046F000010605EB8605002B7EF4B9AE54F8043BA9
:10470000A5EB09021E1203F07F0392105AF8233022
:10471000C8F81020FEF765BE55F80C0CFEF7CAFC71
:10472000834655F8080CFEF7C5FC8BFB002355F8B3
:10473000040CCDE90023FEF7BDFCDDE90023C0F148
:10474000200CB0F1200103FA0CFC22FA00F040EA40
:104750000C005CBF43FA01F10843A5EB860E400054
:104760003B7840F00100C6F10106CEF8000005EBF1
:104770008605002B7EF47BAE54F8043BA5EB0902C2
:104780001E1203F07F0392105AF82330C8F810204D
:10479000FEF727BEA5EB860B30465946FDF7DCF940
:1047A0003B78CBF80000C6F1010605EB8605002B2F
:1047B0007EF45DAE54F8043BA5EB09021E1203F033
:1047C0007F0392105AF82330C8F81020FEF709BE74
:1047D000A5EB860529463046FDF7D8F93B78002B36
:1047E0007EF445AE54F8043BA5EB09021E1203F01B
:1047F0007F0392105AF82330C8F81020FEF7F1BD5D
:10480000A5EB860B30465946FDF704FA3B78CBF80A
:104810000000C6F1010605EB8605002B7EF427AEED
:1048200054F8043BA5EB09021E1203F07F0392101B
:104830005AF82330C8F81020FEF7D3BDA5EB860543
:1048400029463046FDF78CFA3B78002B7EF40FAEFC
:1048500054F8043BA5EB09021E1203F07F039210EB
:104860005AF82330C8F81020FEF7BBBDA5EB860B25
:1048700030465946FDF704FB3B78CBF80000C6F103
:10488000010605EB8605002B7EF4F1AD54F8043BE0
:10489000A5EB09021E1203F07F0392105AF8233091
:1048A000C8F81020FEF79DBD55F8040C01F000FF7C
:1048B00055F8083CDA072ED4042B0CD91B6803F0FA
:1048C0000F03013B082B10D8DFE803F005252B2749
:1048D0000F0F0F0F2900C44925F048FAA5EB8603F6
:1048E00000280CBF042200221A60C6F1010605EB65
:1048F00086053B78A5EB09029210002B7EF4B7AD3C
:1049000054F8043BC8F810201E1203F07F035AF835
:104910002330FEF766BDB549DEE7B549DCE7B549AA
:10492000DAE7B549D8E705F1040BABEB0906D82E59
:1049300003DD1A233B70FEF79ABD01F043FC3B7880
:10494000400040F001002860B21013B15D46FEF750
:104950008EBD54F8043BC8F810201E1203F07F03EC
:104960005D465AF82330FEF73CBD05F1040BABEB76
:104970000906D82E03DD1A233B70FEF778BD01F03F
:1049800019FC9E4B03EA40003B7840F00100286090
:10499000B21013B15D46FEF76ABD54F8043BC8F887
:1049A00010201E1203F07F035D465AF82330FEF7F5
:1049B00018BD05F1040BABEB0903D82B03DD1A235B
:1049C0003B70FEF754BD01F0FDFB8D4B1B68984218
:1049D0003DBFC3F5830303F63713C018C01A400068
:1049E0003B7840F00100ABEB09022860921013B154
:1049F0005D46FEF73CBD54F8043BC8F810201E127B
:104A000003F07F035D465AF82330FEF7EABC01F05D
:104A1000D9FB7B4B18603B78A5EB8605002B7EF419
:104A200026AD54F8043BA5EB09021E1203F07F03E8
:104A300092105AF82330C8F81020FEF7D2BC04F0C8
:104A40006FF9B30090B9ED1A3B78A5EB090292100B
:104A5000002B7EF40CAD54F8043BC8F810201E1255
:104A600003F07F035AF82330FEF7BBBC3046EF1A41
:104A7000644E01231A463946FEF7D6FB306864308F
:104A800003F09EFE00283EF4A6AF98F8012031689E
:104A90005D4804F097F8012388F8003001F08AFBA4
:104AA0005A4A33681268063302FB0300C8F8040050
:104AB0003D46FEF7A9BC04F033F9B10090B96D1A78
:104AC0003B78A5EB09029210002B7EF4D0AC54F891
:104AD000043BC8F810201E1203F07F035AF823305D
:104AE000FEF77FBC30466F1A464E0123002239463E
:104AF000FEF79AFB3068643003F062FE00283EF453
:104B00006AAF414804F01FF8C5E7FEF72FFCA5EB9C
:104B1000860B3B78CBF80000C6F1010605EB860555
:104B2000002B7EF4A4AC54F8043BA5EB09021E1242
:104B300003F07F0392105AF82330C8F81020FEF7D4
:104B400050BC3B78A5EB8605002B7EF490AC54F866
:104B5000043BA5EB09021E1203F07F0392105AF8E2
:104B60002330C8F81020FEF73CBC012E4FEA860225
:104B70001ADC1C233B70AA1A00231360C6F101063D
:104B800005EB86053B78A5EB09029210002B7EF41D
:104B90006EAC54F8043BC8F810201E1203F07F03DB
:104BA0005AF82330FEF71DBC029B9945A5EB020283
:104BB00002D355F8043CE0E755F8083C55F8041CCE
:104BC0005B10002B0DDD029850F80C0CB3EB600F5E
:104BD0004FEA600CDFBFA3EB0C030299043B51F8D2
:104BE00023101160CAE700BFBEAA0200C6AA0200D5
:104BF000CDAA0200D4AA0200D9AA0200FEFFFF7FBC
:104C00001C12002008120020E80E002040000020A6
:104C1000A5EB860B584601F00DFB3B78CBF8000066
:104C2000C6F1010605EB8605002B7EF420AC54F896
:104C3000043BA5EB09021E1203F07F0392105AF801
:104C40002330C8F81020FEF7CCBBA5EB860B5846E6
:104C500001F0F2FA3B78CBF80000C6F1010605EB53
:104C60008605002B7EF403AC54F8043BA5EB090247
:104C70001E1203F07F0392105AF82330C8F8102058
:104C8000FEF7AFBBA5EB860B3046594601F08AF91B
:104C90003B78CBF80000C6F1010605EB8605002B3A
:104CA0007EF4E5AB54F8043BA5EB09021E1203F0B9
:104CB0007F0392105AF82330C8F81020FEF791BBFA
:104CC000A5EB8605284601F0B9FA3B78002B7EF467
:104CD000CEAB54F8043BA5EB09021E1203F07F0390
:104CE00092105AF82330C8F81020FEF77ABBA5EBD3
:104CF000860B3046594601F091F93B78CBF800001D
:104D0000C6F1010605EB8605002B7EF4B0AB54F826
:104D1000043BA5EB09021E1203F07F0392105AF820
:104D20002330C8F81020FEF75CBBA5EB86052846AB
:104D300001F076FB3B78002B7EF499AB54F8043BF2
:104D4000A5EB09021E1203F07F0392105AF82330DC
:104D5000C8F81020FEF745BB0121304601F01EFBCC
:104D60003B78002B7EF483AB54F8043BA5EB09029F
:104D70001E1203F07F0392105AF82330C8F8102057
:104D8000FEF72FBB0021304601F008FB3B78002BDB
:104D90007EF46DAB54F8043BA5EB09021E1203F040
:104DA0007F0392105AF82330C8F81020FEF719BB81
:104DB000A5EB860B584601F0B3FA3B78CBF8000020
:104DC000C6F1010605EB8605002B7EF450AB54F8C6
:104DD000043BA5EB09021E1203F07F0392105AF860
:104DE0002330C8F81020FEF7FCBAA5EB860B584616
:104DF00001F0AAFA3B78CBF80000C6F1010605EBFA
:104E00008605002B7EF433AB54F8043BA5EB090276
:104E10001E1203F07F0392105AF82330C8F81020B6
:104E2000FEF7DFBAA5EB8605284601F05BFA3B7872
:104E3000002B7EF41CAB54F8043BA5EB09021E12B8
:104E400003F07F0392105AF82330C8F81020FEF7C1
:104E5000C8BAA5EB8605284604F0DCFD3B78002B9C
:104E60007EF405AB54F8043BA5EB09021E1203F0D7
:104E70007F0392105AF82330C8F81020FEF7B1BA19
:104E8000A5EB860B584604F0D5FE3B78CBF8000026
:104E9000C6F1010605EB8605002B7EF4E8AA54F85E
:104EA000043BA5EB09021E1203F07F0392105AF88F
:104EB0002330C8F81020FEF794BAA5EB86052846E3
:104EC00004F0F2FC3B78002B7EF4D1AA54F8043BAA
:104ED000A5EB09021E1203F07F0392105AF823304B
:104EE000C8F81020FEF77DBAA5EB860B584604F0F3
:104EF000F9FC3B78CBF80000C6F1010605EB86050E
:104F0000002B7EF4B4AA54F8043BA5EB09021E1250
:104F100003F07F0392105AF82330C8F81020FEF7F0
:104F200060BAA5EB86052946304602F06FF93B785A
:104F3000002B7EF49CAA54F8043BA5EB09021E1238
:104F400003F07F0392105AF82330C8F81020FEF7C0
:104F500048BAA5EB86052946304601F0A3FF3B7809
:104F6000002B7EF484AA54F8043BA5EB09021E1220
:104F700003F07F0392105AF82330C8F81020FEF790
:104F800030BAA5EB86052946304602F04BF93B784E
:104F9000002B7EF46CAA54F8043BA5EB09021E1208
:104FA00003F07F0392105AF82330C8F81020FEF760
:104FB00018BAA5EB86052946304602F051F93B7830
:104FC000002B7EF454AA54F8043BA5EB09021E12F0
:104FD00003F07F0392105AF82330C8F81020FEF730
:104FE00000BAA5EB860B3046594604F03FFF3B78EC
:104FF000CBF80000C6F1010605EB8605002B7EF418
:1050000036AA54F8043BA5EB09021E1203F07F03F5
:1050100092105AF82330C8F81020FEF7E2B9A5EB39
:10502000860B3046594604F029FF3B78CBF8000048
:10503000C6F1010605EB8605002B7EF418AA54F88C
:10504000043BA5EB09021E1203F07F0392105AF8ED
:105050002330C8F81020FEF7C4B9A5EB860B304604
:10506000594604F023FF3B78CBF80000C6F1010657
:1050700005EB8605002B7EF4FAA954F8043BA5EB5A
:1050800009021E1203F07F0392105AF82330C8F869
:105090001020FEF7A6B9A5EB860B3046594604F062
:1050A000D9FA3B78CBF80000C6F1010605EB86057E
:1050B000002B7EF4DCA954F8043BA5EB09021E1278
:1050C00003F07F0392105AF82330C8F81020FEF73F
:1050D00088B9A5EB86052946304602F06BF93B7886
:1050E000002B7EF4C4A954F8043BA5EB09021E1260
:1050F00003F07F0392105AF82330C8F81020FEF70F
:1051000070B9A5EB86052946304602F0FFF83B78DA
:10511000002B7EF4ACA954F8043BA5EB09021E1247
:1051200003F07F0392105AF82330C8F81020FEF7DE
:1051300058B9A5EB860B3046594602F0AFF83B78DC
:10514000CBF80000C6F1010605EB8605002B7EF4C6
:105150008EA954F8043BA5EB09021E1203F07F034D
:1051600092105AF82330C8F81020FEF73AB9A5EB90
:1051700086052946304601F0EFFF3B78002B7EF490
:1051800076A954F8043BA5EB09021E1203F07F0335
:1051900092105AF82330C8F81020FEF722B9A5EB78
:1051A00086052868FDF786FF1728834614DCA8B11A
:1051B00000232B603B78A5EB09029210002B7EF4B4
:1051C00056A954F8043BC8F810201E1203F07F03C0
:1051D0005AF82330FEF705B97828E9DC0C229BFB4E
:1051E000F2F3591F02FB13B3BD4A002952F82330D2
:1051F00042DD0022013291424FEA4303FADC686843
:105200000093FDF757FF064603F0D4FA032296FBFE
:10521000F2F202EB420296424FF03C020CBF42F225
:1052200028314FF47A6191FBF6F6564396FBF0F67F
:10523000092E009BBCDDBBF1000F17D04FF47A7B29
:10524000B3FBFBF35B004FF0FF3243F0010305A912
:1052500002200592069300F05BFEA24B01221A6029
:1052600000F0A8FFA04B0BFB060018609F4B1E60D0
:10527000FF233B7004239CE7C1D00022013A9142F6
:105280004FEA5303FADBBAE7A5EB86052868FDF77A
:1052900011FF44F60C62A0F11401914213D90023CE
:1052A0002B603B78A5EB09029210002B7EF4DFA85F
:1052B00054F8043BC8F810201E1203F07F035AF87C
:1052C0002330FEF78EB800906868FDF7F3FE0928DA
:1052D0000646E4DD009B580040F001004FF0FF3B24
:1052E000069005A90220CDF814B000F011FE7D4B08
:1052F00001221A6000F05EFF4FF47A7303FB060090
:10530000794B87F800B01860784B1E600423C7E71C
:10531000A5EB86052868C60706D4042804D90368C7
:1053200003F00F03042B15D00E233B7000232B60DA
:105330003B78A5EB09029210002B7EF498A854F854
:10534000043BC8F810201E1203F07F035AF82330E4
:10535000FEF747B801F0ACF90678A6F14103052B3A
:105360001FD81E46711CE1D0A868FDF7A3FE42F2CB
:10537000107398428346D9DC2B68059305A96B68A6
:1053800006930220FDF72CF8BBF1090F584A0CDCFC
:10539000002342F82630574B012243F826200423ED
:1053A000C5E7613E052EDDD9C0E7012342F826306E
:1053B00000F000FF4FF47A7202FB0B004E4A42F8F5
:1053C00026004C4A012342F82630484BC3F800B06F
:1053D000FF233B70E3E7A5EB86052868C20706D4E8
:1053E000042804D9036803F00F03042B15D00E23FF
:1053F0003B7000232B603B78A5EB09029210002B39
:105400007EF435A854F8043BC8F810201E1203F0AF
:105410007F035AF82330FDF7E4BF01F049F906781D
:10542000A6F14103052B1FD81E46731CE1D0A868C6
:10543000FDF740FE42F2107398428346D9DC2B6898
:10544000059305A96B6806930220FDF70FF8BBF1E1
:10545000090F274A274B0BDC002142F826100222B5
:1054600043F826200423C5E7613E052EDDD9C0E7B9
:10547000012142F8261000F09DFE4FF47A7202FBE3
:105480000B001D4A1B4B42F82600022243F826203F
:10549000164BC3F800B0FF233B70E3E7A5EB86058E
:1054A0002868C60706D4042804D9036803F00F034C
:1054B000042B23D00E233B7000232B603B78A5EBFD
:1054C00009029210002B7DF4D2AF54F8043BC8F8C7
:1054D00010201E1203F07F035AF82330FDF781BF1E
:1054E00014B00200980E0020940E0020101200202C
:1054F000A00E0020D00E0020B80E002001F0D8F839
:105500000678A6F14103052B1FD81E46711CD3D087
:10551000A868FDF7CFFD42F2107398428346CBDCBA
:105520002B68059305A96B6806930220FCF716FF0C
:10553000BBF1090FBC4ABD4B0BDC002142F8261021
:10554000032243F826200423B7E7613E052EDDD968
:10555000B2E7012142F8261000F02CFE4FF47A72D7
:1055600002FB0B00B24AB14B42F82600032243F87B
:105570002620B04BC3F800B0FF233B70E3E7A5EB58
:1055800086052868C20706D4042804D9036803F0F6
:105590000F03042B15D00E233B7000232B603B78A8
:1055A000A5EB09029210002B7DF461AF54F8043B87
:1055B000C8F810201E1203F07F035AF82330FDF7BD
:1055C00010BF01F075F80678A6F14103052B22D82B
:1055D0001E46731CE1D02869FDF76CFD42F2107382
:1055E00098428346D9DC2B6805936B680693AB68B9
:1055F000079305A9EB6808930420FCF791FFBBF122
:10560000090F894B894A0ADC002143F8261004233C
:1056100042F82630C2E7613E052EDAD9BDE7012106
:1056200043F8261000F0C6FD4FF47A7303FB0B001D
:105630007F4B7E4A43F82600042342F826307D4AF9
:10564000C2F800B0FF223A70A8E7A5EB86052868EB
:10565000C10706D4042804D9036803F00F03042B00
:1056600002D00E233B7031E001F022F80678A6F15B
:105670004103052B27D81E46721C27D02869FDF749
:1056800019FD42F21073984283461FDC2B686A486A
:105690000593032101F092FA6B680793AB680690BB
:1056A000089305A9EB6809930520FCF755FDBBF1AC
:1056B000090F5D4A5D4B1DDC002142F826100522D2
:1056C00043F8262002E0613E052ED5D900232B6049
:1056D0003B78A5EB09029210002B7DF4C8AE54F87C
:1056E000043BC8F810201E1203F07F035AF8233041
:1056F000FDF777BE012142F8261000F05BFD4FF464
:105700007A7202FB0B004A4A484B42F826000522F7
:1057100043F82620474BC3F800B0FF23A2E7474BCE
:1057200000221A60464A0523642013601EF025FCFF
:10573000A5EB8605434E83463060B0B9424803F07E
:1057400003FB3B78C5F800B0A5EB09029210002BD3
:105750007DF48DAE54F8043BC8F810201E1203F0FF
:105760007F035AF82330FDF73CBE2A68D30736D5AD
:10577000364952101FF046FDD6F800B0344E584658
:1057800024F006FB01213060584601F017FA05A904
:105790000590012001F082FD294B05901B685B00FC
:1057A00043F00103032005A90693079001F0AEFD25
:1057B000284B01221A6000F0FDFC274B326800F5EF
:1057C000C330A03018604FF4FA735343194A03F5FD
:1057D000C8731360FF233B704FF0040BB1E7104612
:1057E00000F066FF3060C7E7002E40F3A680114A44
:1057F00055F804BC4FF0FF33012E13603B702DD1E0
:105800001BF0010F37D1BBF1040F34D9DBF80020B6
:1058100002F00F02042A2ED1584600F049FFFDF78E
:105820006FFC034627E000BFA00E0020D00E002032
:10583000B80E002010120020ACAA02008C0E00202E
:1058400048000020307F0020EBAD020010AE0200C7
:1058500018120020141200209C0E0020022E0AD1E3
:1058600055F8080CC10706D4042804D9026802F0D0
:105870000F02042AD1D05A1CA5EB86055DD0022E5A
:105880003ED11BF0010F34D1BBF1040F31D9DBF84D
:10589000002002F00F02092A2BD1DBF804002E1F92
:1058A000C0F34700012181421DDD05EB8005A5EB1A
:1058B00009029210C8F8102023F0FF0212F5807F31
:1058C00020D11E02B6B2064341483312C6F3072C5C
:1058D000009300EBCC031B79032B3EF41CA802239E
:1058E0003B70FDF7C4BD01315BF8212046F8042F61
:1058F000D9E70B233B70002345F8043BFDF7B7BD08
:105900000020D4E7A5EB800529469847314B0022BB
:105910001A6045F8040B3B78A5EB09029210002BA6
:105920007DF4A5AD54F8043BC8F810201E1203F016
:105930007F035AF82330FDF754BD002345F8043B9C
:105940003B78A5EB09029210002B7DF490AD54F842
:10595000043BC8F810201E1203F07F035AF82330CE
:10596000FDF73FBDA5EB86052946304603F012FA48
:105970003B78002B7DF47BAD54F8043BA5EB09028A
:105980001E1203F07F0392105AF82330C8F810203B
:10599000FDF727BDA5EB860B3046594603F0FAF913
:1059A0003B78CBF80000C6F1010605EB8605002B1D
:1059B0007DF45DAD54F8043BA5EB09021E1203F023
:1059C0007F0392105AF82330C8F81020FDF709BD64
:1059D00038770020E01B00202DE9F04F8DB000F05B
:1059E000E9FB00901CF066FE00274FF0FF33DFF864
:1059F000BC9307930190FF2564243B46002B03F1E1
:105A0000FF3B80F2A3801CF055FE019BC01AB0F54D
:105A1000FA7F0CD9FDF7E2F948B105A8FCF75EFC66
:105A2000082105A803F0A4FB1CF044FE0190FDF73B
:105A3000D5F9002800F0AF80002F40F0AC801CF0BA
:105A400039FE044602F0A8FE02F04EFE01271CF0CB
:105A500031FE001BC82840F210811CF02BFE40F2E2
:105A60009323044607A90220089300F051FA012568
:105A7000C54E33686BB100F09DFBC44B1B68984268
:105A800007D9012307A90220089300F041FA002357
:105A900033604FF0000BBE4EDFF81483DA4656F841
:105AA000041B81B100F086FB58F82B1088420AD9FC
:105AB000B84B53F82B10042900F30E81012900F391
:105AC0000D8100F00E810BF1010BBBF1060FE6D149
:105AD000B14E3368012B19D1DFF8D8B200F06AFB60
