:10000000000002203D5502007D550200C15802004B
:100010008155020083550200855502000000000052
:10002000000000000000000000000000C15F0200AE
:100030008955020000000000E15F02008D550200BA
:100040006D620200759301008126020005A8000080
:10005000F9A700008F5502008F5502008F5502004E
:100060008F550200516600008F5502008D930100EC
:100070008F550200819301008F5502008F550200B9
:100080008F550200952902008F5502008F550200FE
:100090008F5502008F5502008F5502008F550200C8
:1000A0008F5502008F5502008F5502008F550200B8
:1000B0008F5502008F550200000000000000000074
:1000C0008F5502008F5502008F5502008F55020098
:1000D0008F5502008F5502008F5502008F55020088
:1000E0008F5502000000000000000000000000002A
:1000F000000000008F550200000000008F55020034
:1001000000000000000000000000000000000000EF
:1001100000000000000000000000000000000000DF
:1001200000000000000000000000000000000000CF
:1001300000000000000000000000000000000000BF
:1001400000000000000000000000000000000000AF
:10015000000000000000000000000000000000009F
:10016000000000000000000000000000000000008F
:10017000000000000000000000000000000000007F
:10018000000000000000000000000000000000006F
:10019000000000000000000000000000000000005F
:1001A000000000000000000000000000000000004F
:1001B000000000000000000000000000000000003F
:1001C000000000000000000000000000000000002F
:1001D000000000000000000000000000000000001F
:1001E000000000000000000000000000000000000F
:1001F00000000000000000000000000000000000FF
:1002000010B5054C237833B9044B13B10448AFF350
:1002100000800123237010BD600200200000000058
:10022000E0ED020008B5034B1BB103490348AFF3EF
:10023000008008BD0000000064020020E0ED020024
:10024000A3F5803A704700BF174B002B08BF134B34
:100250009D46FFF7F5FF00218B460F461348144AD1
:10026000121A29F043FD0E4B002B00D098470D4B7E
:10027000002B00D098470020002104000D000D48FD
:10028000002802D00C48AFF3008029F071FC200058
:10029000290025F017F929F057FC00BF00000800DD
:1002A00000000000000000000000022060020020AA
:1002B000148D0020000000000000000070470000C6
:1002C00010B5064C20680CF078F82068044ABDE8A8
:1002D0001040002301210CF093B800BF9C020020C5
:1002E000C102000010B5044625F026F9204610BDD5
:1002F00008B5064B1B6833B10BF03AFE04490AF00F
:10030000A8FE02F06BFD002008BD00BF980200208F
:1003100050040020154A38B551681068144B154C2C
:1003200003C30BF045FE05462060042025F000F9CC
:10033000114B03600022014628460CF009F82068A2
:1003400000210CF002F8206801210BF0F2FF206878
:1003500000210BF0F5FF094A2068002301210CF071
:100360004FF8074B01221A7038BD00BFD0AB020016
:10037000480400209C0200205CAC0200C102000086
:1003800038040020234B1B7870B50BB9FFF7C2FF70
:10039000214E3568002D3AD015F10B0148BF05F10B
:1003A0000E0100228910032006F048FC044620B903
:1003B000BDE870400A2003F08BB8C30711D40428AD
:1003C0000FD9026802F00F03032B0AD105F00303D3
:1003D000C3F104035B0703F0C04322F0C0421343A0
:1003E00003600E4B0E491B7823710E4B1B78637113
:1003F0000D4B1A689B88C4F8062063812A4604F1D5
:100400000C0029F04BFC00233360204670BD2C46C5
:10041000FBE700BF380400203C04002094020020C9
:10042000A802002040040020A102002000F10803DF
:1004300073B5044603600D46E1B1084629F0B0FDEE
:100440000F2805EB0006019007D9002201A92046DC
:1004500025F02AFF019B2060A360206832462946D0
:1004600025F055FF019B2268636000212046D1548E
:1004700002B070BD014825F00DFF00BFD9AB0200EE
:1004800070B5002888B033DD086810F001022FD164
:1004900004282DD9036803F00F03042B28D10192FF
:1004A00006F00AFA054602F077FC0BF061FD124CEB
:1004B00020600AF0A2FF114920680BF0A9F8266815
:1004C000294602A8FFF7B2FF02A930460BF036F921
:1004D00002A825F00BFF206820210AF0DEFD20682D
:1004E00020210AF0DDFD019A206811460AF0DCFDAA
:1004F000002008B070BD00BF98020020500400200A
:1005000008B5084B1B780BB9FFF704FF064B1878AA
:1005100030B100221A70054B1868400040F001000D
:1005200008BD00BF38040020A002002044040020C1
:100530002DE9F043084691B00C460AF089FB0028EB
:1005400038D0214604A800220AF0DCFB5B4804A94D
:100550000DF0C0F8002878D021460AA80AF049FC1E
:100560000B9B102B6ED10A9D2868696802AB03C3F0
:10057000534BDDE90267D3E900239F4208BF96424F
:1005800060D050490B685A1E02F01F0C4E4A9C4521
:1005900049D002EBC300D0E900894F4508BF46456A
:1005A00050D00133584200F01F0003F01F0358BF22
:1005B0004342ECE7019020460AF010FB019A002824
:1005C00043D0214604A80AF0E2FB404804A90DF0FC
:1005D00081F8019A002838D021460AA80AF02EFC9A
:1005E0000B9B0D2B2ED10A9D6968286802AB03C3B3
:1005F00034490B68DDE902675A1E02F01F0C324ACB
:100600009C4550D002EBC300D0E900894F4508BF9C
:10061000464517D00133584200F01F0003F01F0376
:1006200058BF4342ECE702EBCC02C2E90067EB7B28
:10063000274AC1F800C0303B00D5FF231360254B8B
:1006400001221A700AA825F051FE234D2B683BBBEE
:1006500020460AF016FB6428CCBF6423286020469D
:10066000C8BF2B600AF00BFB2A6801461B4829F023
:1006700015FB20460AF025FA194B40421870214616
:100680000AA80AF013FA0AA80AF0D9F9154B18704B
:100690000AA80AF0D3F9144B02681A6082889A807B
:1006A00011B0BDE8F08302EBCC02C2E90067084B51
:1006B000EA79C1F800C01A60C1E700BF5004002009
:1006C0004804002068050020680400207C02002007
:1006D00044040020A00200203C040020A8020020C6
:1006E0009402002040040020A1020020024A034896
:1006F000042108F039B800BF9CAC020003AC020032
:100700007FB50C496846FFF791FE69460A480CF030
:1007100004FF684625F0EAFD08496846FFF786FEB3
:10072000694607480CF0F9FE684625F0DFFD07B082
:100730005DF804FB07AC02007C0200202CAC020038
:1007400050040020C30711D404280FD9026802F016
:100750000F03032B0AD101F00301C1F104035B076E
:1007600003F0C04322F0C0421343036070470246C7
:1007700010F001000FD1042A0ED91368C3F30F1033
:1007800050B1431E9800031D0432115C21B10130A9
:100790008342FAD1704700207047037883B11A066C
:1007A00001D40130704703F0C003C02B08BF0130F3
:1007B000024610460132037803F0C003802BF8D0C4
:1007C000704708B5002103780BB9084608BDFFF74C
:1007D000E4FF0131F7E7014600787F2829DDDF28B3
:1007E00007DC8301487803F4F86300F03F00184306
:1007F0007047EF2808DC4A780303920102F47C6218
:100800009BB288781343F0E7F72810DC4A7883041A
:100810001203C87802F47C3203F4E01300F03F00C6
:10082000134303438878800100F47C60DFE74FF0D6
:10083000FF30704738B5002204460D46411C0920A0
:1008400006F0FCF940B16300024643F0010342F8B0
:10085000043F0023A34200DB38BD55F8231042F8C3
:10086000041F0133F6E7002838B504DC1C20BDE87E
:10087000384002F02DBE0C68E20701D40D20F6E7E7
:1008800001281ED04A68D307F8D5B2F5007F4FEA99
:10089000620301D31320EAE71A0442EA03621A430F
:1008A00042EA0322641024EAE474E11C8910032064
:1008B00006F0C4F9054610B12146FFF743FF28466C
:1008C00038BD0022EEE7012838B504DC1C20BDE865
:1008D000384002F0FDBD0C68E20701D41120F6E7B4
:1008E0004868C30706D4042804D9036803F00F033B
:1008F000042B01D00E20EAE705F0DEFF6410002C87
:10090000054603DDFFF75DFFA04205DA1220DEE7B2
:10091000FFF743FF013C0546012C2846F8D1FFF7BD
:100920005AFF400040F0010038BD01282DE9F3478F
:100930008246884605DC1C2002B0BDE8F04702F084
:10094000C7BD4C6814F0010901D10D20F4E702285D
:1009500002D08B68DA07F8D5D8F80070FB0700F1F1
:10096000B180042F40F2AE803D686410012C05F088
:100970000F02B8BF0124092A2CD17B68BAF1020FFB
:1009800018BFD8F808704FEA63030CBF1F467F10EA
:100990009F42A8BF1F463D1B0135012225EAE57590
:1009A000A918092006F04AF9064648B16D00034629
:1009B00045F00105D8F8002043F8045FBC4203DD90
:1009C000304602B0BDE8F087013452F8241043F8F5
:1009D000041FF3E7042A43D1384605F06DFFFFF703
:1009E000F0FEBAF1020F16BFD8F80860064676107E
:1009F0008642A8BF0646B44205DD002002B0BDE82D
:100A0000F04706F0D7B9384605F056FF05464C4585
:100A10001FD1384605F050FF0746284609F1010965
:100A2000FFF7BBFE4E45F9DA441B204606F0C2F93B
:100A300006460028C4D005F03FFF8146D8F80000E4
:100A400005F03AFFED1B41192246484629F026F9E8
:100A5000B6E72846FFF7A1FE09F101090546D6E7EA
:100A6000032A2FD1BAF1020FC5F30F12C5F3417556
:100A7000C5EB820216BFD8F8085015466D10954296
:100A8000A8BF1546AC4207DD00221146032002B084
:100A9000BDE8F04706F0D2B82D1B291D48BFE91D5F
:100AA00000228910032006F0C9F80646002887D0E6
:100AB0006A1C11460192FFF745FEE11C019A394478
:100AC0000430C3E7212037E70028F8B504DC1C20F8
:100AD000BDE8F84002F0FCBC0D6815F0010713D02A
:100AE000B5F5007F4FEA650601D31320F0E7002239
:100AF0000121032006F0A2F8044618B10121FFF7F6
:100B000021FE06712046F8BD042DEED92B6803F0B6
:100B10000F03042B1AD12846FFF729FEC11C48BF3A
:100B2000811D064600228910032006F087F804463E
:100B30000028E7D03146FFF705FE284605F0BCFE49
:100B400032460146201D29F0A9F8DBE7092B1FD109
:100B50006E687610F11C48BFB11D00228910032079
:100B600006F06CF804460028CCD03146FFF7EAFDC9
:100B70000435021DB742C5DA55F8043FD90705D53B
:100B8000B3F5007F4FEA6301AFD2D1550137F1E7EA
:100B9000032BAAD12C46B5E7486838B5C3070D46E4
:100BA00006D4042804D9026802F00F03092B04D0EC
:100BB000BDE838400B2002F08BBC4368C2F30F1233
:100BC000511EB1EB630F4FEA630411D80B2C4FF0A9
:100BD000030304DD94FBF3F3642BA8BF642399188B
:100BE00006F0AAF80368C3F30F13013B9C4208D236
:100BF000A31C013464002A6840F8232044F0010457
:100C00004460002038BD01282DE9F84304DC1C2095
:100C1000BDE8F84302F05CBC02284E680CD08C683A
:100C2000E20709D56410012CB8BF0124F30705D5EC
:100C30004FF0FF30BDE8F8830124F7E7042EF7D921
:100C400033680D6803F00F02042A30D1EF0706D491
:100C5000042D04D92B6803F00F03042B01D00E20C0
:100C6000D6E73046FFF783FDA042E1DB304605F0D2
:100C700023FE0646284605F01FFE03780146002B9A
:100C8000D6D0601E304429F0A6F904460028CFD003
:100C9000012133780BB1A64203D3480040F0010094
:100CA000C8E73046FFF779FD06460131F1E7092A2A
:100CB00038D17368B4EB630F4FEA6309B8DCE80717
:100CC00028D4042D26D92B6803F00F03042B21D13F
:100CD000284605F0F1FD80462746013456F82400E9
:100CE000854201D17800D9E7C1070ED404280CD978
:100CF000036803F00F03042B07D105F0DDFD014667
:100D0000404629F03BF90028ECD04C45E4DD8FE764
:100D10004C458DDC2046013456F82430AB42F7D1E7
:100D20004000BBE7032A83D1C3F30F18C3F3417319
:100D3000C3EB880844453FF77BAFEA0706F104039D
:100D400027D4042D39D92B6803F00F02032A16D1BA
:100D5000C3F30F10C3F341732F1DC3EB8000A8EB47
:100D600000083B18013C033644453FF761AF311999
:100D70003A469A42104622D328D1601CD0E7042A72
:100D80001BD1284605F098FD07462846FFF7EFFCE3
:100D9000E5E7B5F5007F4FEA650201D3282037E784
:100DA000013C44453FF744AF195D914204F1010411
:100DB000F7D1640044F001003CE70F2028E711F868
:100DC000015F0078854202F10102D2D00134CBE705
:100DD00001282DE9F047884604DC1C20BDE8F047D7
:100DE00002F076BB0868C20706D4042804D9036859
:100DF00003F00F03042B01D00E20EFE74B6813F034
:100E00000109F9D1042BF7D91B6803F00F03042B58
:100E1000F2D105F051FD0446D8F8040005F04CFD70
:100E2000074629F0BDF8064678B92046FFF7C9FC09
:100E300005460122A918092005F000FF374B18606C
:100E40009A4690B90020BDE8F0873946204629F03F
:100E5000C2F8231A5D425D412046394630440135CF
:100E600029F0B9F80028F8D1E3E76B0043F001035B
:100E70004360D6B92046FFF790FC4D45064602DC9C
:100E8000DAF80000DFE7311B204605F09BFF002861
:100E9000D8D0DAF8003003EB890334469860304646
:100EA000FFF77BFC09F10109E7E7012D03D1D8F831
:100EB00000308360C7E73946204629F08CF84FF0B0
:100EC00001088146B9F1000F16D04545D8DBA9EBE2
:100ED0000401204605F076FF0028B3D0DAF8003090
:100EE00008F1010809EB060443F8280039462046BA
:100EF00029F071F88146E5E74545C1DB204629F038
:100F00004FF80146204605F05DFF00289AD0DAF838
:100F1000003008F1010843F82800B1E7081C002060
:100F200008B505F0ADFC400040F0010008BD7F2988
:100F300002DC00F8011B7047B1F5006F0CDA0346C4
:100F40008A1162F03F0203F8022B01F03F0161F0C9
:100F50007F01417018467047B1F5803F0FDA0B13DF
:100F600063F01F030370C1F3851301F03F0163F0C9
:100F70007F0361F07F014370817003307047B1F5EA
:100F8000883F0DDAF0230370902343708B1101F03A
:100F90003F0163F07F0361F07F018370C170043013
:100FA0007047000010B5094C002220600221092082
:100FB00005F044FE226820B9BDE810400A2002F086
:100FC00087BA0321C0E9011210BD00BF081C002030
:100FD00038B5C30709D5B0F5007F4FEA600507D3E0
:100FE0001320BDE8384002F073BA051E18BF012572
:100FF00000220121032005F021FE08B90A20F0E7B4
:101000000121FFF79FFB057138BD07B510F0010105
:1010100004D04110084603B05DF804FB042813D93E
:10102000026802F00F02042A09D1019105F044FC84
:1010300001990A2203B05DF804EB29F069B8032A8C
:1010400002D10A220430F5E70D20019102F040FAA6
:101050000199DFE70128F8B507460E4604DC1C209D
:10106000BDE8F84002F034BA0868FFF7CEFF054645
:101070007068FFF7CAFF022F044606D0B068FFF77A
:10108000C4FF061E02DC2920EAE70126A542D5BFDF
:10109000641B2C1BB4FBF6F4B4FBF6F4D4BF013490
:1010A00001344FF0000204F101014FF00900C8BF04
:1010B000764205F0C3FD80B16300024643F00103B0
:1010C00042F8043F6D00730002EB840445F0010117
:1010D00042F8041F94421D44F8D1F8BD00282DE9C0
:1010E000F3410F4603DC1C2002F0F2F916E00C6815
:1010F00014F0010506D1042C1DD9236803F00F0359
:10110000042B0DD12046FFF780FF6C460146204698
:10111000FFF70DFF011B204605F054FE044634E0A6
:10112000092B08D166684FF001087610B04504DD40
:1011300002F0D4F9E0B12A20D6E708F1010854F80A
:101140002800FFF762FF7F280CDDB0F5006F0BDB96
:10115000B0F5803F0ADBB0F5883FACBF0023042325
:101160001D44E3E70123FBE70223F9E70323F7E745
:10117000284605F01FFE044638B1D7F8008005F078
:101180009BFB01270546B74203DD204602B0BDE8C0
:10119000F081013758F82700FFF737FF014628464E
:1011A000FFF7C5FE0546EEE710B5044611F0010055
:1011B00011D104290ED90A6802F00F02042A09D1BC
:1011C000084605F079FB0146204628F0D7FEB0FA24
:1011D00080F0400910BD0020FCE700000128F8B5B0
:1011E0000E4604DC1C20BDE8F84002F071B94D68E1
:1011F000EA0706D4042D04D92B6803F00F02092A4C
:1012000001D00B20EFE76A680968C3F30F13B3EB53
:10121000620F4FEA620498BF03F1FF3411F0010737
:101220000DD0481000283CDD84423ADB2B1D84425F
:1012300019DD013053F8202045F82020F7E71A483F
:10124000FFF7B2FF40B10123BC4201DA0020F8BD34
:10125000013745F82730F7E731681448FFF7A4FF56
:1012600050B1002CF2D00122631C013C9440144385
:1012700045F823206C60E9E73068C3070FD40428E1
:101280000DD9036803F00F03042B08D1FFF7BDFE4F
:101290000028C8D131680648FFF786FF08B9112039
:1012A000A1E712209FE700BFBCAC0200C0AC020067
:1012B00096C80200002310B50B70C3070C4606D574
:1012C0000E4942102046BDE8104024F0A3B828B9CA
:1012D0000B492046BDE8104028F034BE042801D157
:1012E0000849F6E709D9036803F00F03042B04D17A
:1012F00005F0E2FA04490246E4E710BD11B5020028
:1013000096C8020073BC0200C5AC02002DE9F04390
:1013100001288FB080460E4607DC1C2002F0D8F86A
:10132000054628460FB0BDE8F0830B6813F00104B2
:1013300040F0AE80042B40F2E2801B6803F00F0304
:10134000092B48D1274656F8273013F0010906D15A
:10135000042B04D9186800F00F00092803D02220BC
:10136000DCE71F46EFE75B6804EB63047B1C9845F2
:10137000F7D10122A11805F061FC054608B9002546
:10138000CFE7640044F001044460494600F10804DA
:1013900056F821301868D3F804C0C0F30F10B0EB32
:1013A0006C0F4FEA6C0203F1040398BF00F1FF32A7
:1013B0000020824209DC22EAE2728F4204EB8204BE
:1013C00001F10103ADDD1946E2E753F804CF44F81B
:1013D00020C00130EDE7032B40F09180274656F8FE
:1013E0002700C507BBD40428B9D9036803F00F024E
:1013F000032A3CD1C3F30F12C3F34173C3EB82033F
:101400001C447B1C984530D1E11C48BFA11D002223
:101410008910032005F012FC05460028AFD02146B4
:10142000FFF790F94FF0000800F1040956F8284042
:10143000E10723D4042C21D9206800F00F03032BEB
:101440001CD1C0F30F13C0F34170C0EB8300033411
:101450000023834216DB0028A8BF8144474508F1DA
:1014600001037FF75EAF9846E0E71F46B7E7042A1F
:101470007FF475AFFFF77BF90444C2E72046FFF71E
:1014800076F9E4E714F8012F09F803200133E0E7C7
:1014900000252C4656F82500C20732D4042830D93E
:1014A000036803F00F02042A32D1FFF760F9044405
:1014B0000135A845EED1204605F07CFC0546002804
:1014C0003FF45DAF041DB14606EB880859F8046B84
:1014D000F30728D4042E26D9336803F00F02042A18
:1014E00034D13046FFF743F90746304605F0E4F9BA
:1014F0003A460146204628F0D1FB3C4421E02546EF
:10150000C8E701A9FFF7D6FE01A828F049FDCEE7FC
:10151000032A7FF424AFC3F30F12C3F34173C3EB69
:1015200082031C44C4E701A93046FFF7C3FE01A8AB
:1015300028F036FD01A906460246204628F0AEFBFB
:101540003444C845C2D100232370EAE6032AF8D107
:10155000C3F30F17C3F34173C3EB87073A46311D3B
:10156000C8E700002DE9F04F002893B00E4607DCD5
:101570001C2001F0ADFF0446204613B0BDE8F08FFB
:101580000C6814F0010906D1042C04D9236803F077
:101590000F03092B01D00B20EBE763684FEA6308C8
:1015A000B8F1000F03DC484605F004FCE3E701282E
:1015B00027D04868C20724D4042822D9036803F03E
:1015C0000F03042B1DD105F077F90546284628F0B6
:1015D000E7FC043408F1FF330746019303FB00FBEB
:1015E00004EB880A54F8040FC3076BD4042869D9A4
:1015F000026802F00F01042905D1FFF7B8F883440F
:101600000AE0354DE2E7032963D1C2F30F11C2F3BB
:101610004172C2EB81029344A245E3D1584605F0E2
:10162000C9FB04460028A7D0D6F800A01FB17068F7
:1016300005F042F90546204605F03EF90AF1040A94
:1016400006465AF804BF584605F036F91BF0010368
:101650000146029302D1BBF1040F04D805A95846F4
:10166000FFF728FE05A90846039128F099FCDDE95B
:10167000023102468BB9BBF1040F0ED9DBF8000032
:1016800000F00F0CBCF1030F01BFC0F30F12C0F349
:1016900041700BF10401C0EB82023046029228F047
:1016A000FDFA029A164447B1019B4B4505DD3046D1
:1016B0003A46294628F0F2FA3E4409F10109C845A4
:1016C000BFD159E705A9FFF7F5FD05A828F068FC8B
:1016D00095E705F0F1F8F9E775D102002DE9F04141
:1016E000012888B003DC1C2001F0F2FE5EE00C68EB
:1016F000E30730D4042C30D9266806F00F0648687A
:1017000005F0DAF8B349074628F038FCB24900285A
:1017100038460CBF01254FF0FF3528F02FFCAF49AC
:101720000028384608BF022528F028FCAC490028CC
:10173000384608BF042528F021FCAA49002838466D
:1017400008BF092528F01AFC002800F0EA816F1C68
:1017500005D13020C8E70226D1E70126CFE7013EB8
:10176000082E17D8DFE816F0090024007301530093
:101770001600160016001600CF00023D072D09D8EE
:10178000DFE805F004410C080808083D042C0CBFF4
:1017900003240124204608B0BDE8F0819248934B11
:1017A0000121042C18BF184605F00CFB0446F1E794
:1017B000013D082DEED801A353F825F0E1170000F4
:1017C0009517000007180000E917000095170000A2
:1017D000951700009517000095170000FF170000EF
:1017E000630835D00424D5E781496210684623F0A8
:1017F00011FE684628F0D4FB01466846D4E720462F
:10180000FFF7D0FBD2E72046FFF7E2FBCEE7013D32
:10181000082DBFD801A353F825F000BF41180000E0
:1018200055180000C118000095170000951700001A
:101830009517000095170000951700006318000029
:10184000204605F039F8694928F098FB0028C9D1ED
:1018500000249FE72046FFF7D8FB400040F001043A
:1018600098E7204605F028F8FEF7ABFF614D411CD4
:101870000646002209202C6005F0E0F9044608B96C
:101880000A2031E70746730043F00103286847F850
:10189000043F05F011F84FF00008054646457FF774
:1018A00079AF2846FEF797FF400040F0010047F867
:1018B000040F2846FEF771FF08F101080546EDE721
:1018C000204604F0F9FF28F06BFB4A4DC11C064688
:1018D0000022891003202C6005F0B0F9044600288E
:1018E000CED02D683146FEF72DFF284604F0E4FFE8
:1018F000E21C00239E427FF74DAFC15C02F8011F3E
:101900000133F7E7032566686B1E7610032B3FF65D
:1019100041AFDFE803F00212713A012E0BD1A46847
:10192000E00708D4042C7FF635AF236803F00F03DB
:10193000012B3FF42FAF2D20D6E6012E03D1A46852
:10194000E1073FF527AF2C20CEE6013754F82700FA
:10195000FFF75BFB7F2812DDB0F5006F11DBB0F500
:10196000803F10DBB0F5883FB4BF2B46002398447E
:10197000BE42EADA01F0B2FD58B12A20B4E60123F2
:10198000F5E70223F3E70323F1E701274FF000080F
:10199000EEE7184D40462C6005F00CFA2F6804461F
:1019A00000283FF455AF04F087FF0125AE42FFF653
:1019B000F1AE013557F82530DA0701D4272093E638
:1019C000B3F5081F4FEA630101D331208CE6FFF71E
:1019D000AEFAEBE7CEAC0200D6AC0200DDAC020002
:1019E000E4AC0200E9AC020073BC020096C802003D
:1019F00011B50200081C0020F11C48BFB11D554D57
:101A00000022891003202C6005F018F904460028F4
:101A10003FF436AF31462D68FEF794FE021D6FF09D
:101A2000030005F10803001B11188E427FF7B2AEC8
:101A300053F8041BCD07C1D5B1F5007F4FEA61050E
:101A400001D3132050E602F8015BEDE73546266826
:101A5000013DC6F30F13C6F34176C6EB8306082D8E
:101A60003FF698AE01A353F825F000BF911A00008D
:101A7000A11A000095170000AB1A0000951700008E
:101A8000951700009517000095170000DF1A000059
:101A9000012E7FF450AF2379002B7FF4A3AED7E65D
:101AA000012E7FF450AF2079D7E62A4D30462C60C6
:101AB00005F080F92B68044600283FF4E1AE1A1DBA
:101AC000C3F1FF2303F57F03C11CFC33D018B042E0
:101AD000BFF660AE12F8010B01F8010FF6E71D4DDD
:101AE0000022711C09202C6005F0A8F82B68044620
:101AF00000283FF4C5AE0146720042F0010241F8F1
:101B0000042F6FF00202D81CD21A13189E427FF7DE
:101B100041AE10F8013F5B0043F0010341F8043F80
:101B2000F3E7731E082B3FF635AE01A252F823F0FF
:101B300007180000071800004D1A0000C118000027
:101B400095170000951700009517000095170000E5
:101B500005190000081C0020021E10B513DD0B68DB
:101B600013F001041CBF5C1024EAE474012A00D0C5
:101B70004A68611C092005F061F818B1640044F05E
:101B80000104446010BD00240122F2E70A6812F04B
:101B9000010038B53AD1042A38D91368496803F0EE
:101BA0000F04092C1AD15568C3F30F13B3EB650F5B
:101BB0004FEA650498BF03F1FF34151D844205DC2C
:101BC00001330220984205DB002038BD45F8041F90
:101BD0000130F3E742F820100130F3E7032C15D170
:101BE000C80704D4BDE83840132001F071BCB1F53A
:101BF000007F4FEA6100F5D20432C3F30F1302EB0A
:101C000083039A42E0D202F8010BFAE70B2001F0BD
:101C10005FFCD9E72DE9F0414E6816F001078846D0
:101C20002BD1042E29D9326802F00F03092B14D1CD
:101C30007368C2F30F12B2EB630F4FEA630500D86B
:101C4000551ED8F8008018F0010F1AD04FEA68042A
:101C5000002C1CDDA54223DA19E0042B04D1304608
:101C6000FEF785FD0546ECE7032B08D1C2F30F1301
:101C7000C2F34172C2EB8305E3E70025E1E73D468D
:101C8000DFE734484146FFF78FFAC0B10DB91220A3
:101C90002FE028F0A5F890FBF5F303FB15035C1C7F
:101CA000002F54D1042E52D9336803F00F03092BAF
:101CB00025D1013456F824402046BDE8F08126485D
:101CC0004146FFF771FAC0B9B8F1040F10D9D8F83E
:101CD000003003F00F03042B0AD14046FFF795F9BB
:101CE000041EB6D11D484146FFF75EFA0028CED14A
:101CF0001120BDE8F04101F0EBBB2C46D0E7042BEE
:101D00001DD1304604F0D8FD012C05460FDCFEF74E
:101D100044FD461B304605F04DF804460028CBD064
:101D200004F0CAFD3246294627F0B8FFC4E72B78F5
:101D3000013C002BABD02846FEF72FFDE4E7032B38
:101D400005D13444E478640044F00104B4E70B2086
:101D5000CFE700BFF4AC0200C0AC020096C802009E
:101D60002DE9F0414C6814F00106884632D1042C6C
:101D700030D923688F6803F00F02092A15D16268F1
:101D8000C3F30F13B3EB620F4FEA620500D85D1E79
:101D9000D8F800103748FFF707FA98B3236803F024
:101DA0000F03092B20D1012319E0032A12D1FA07CE
:101DB00004D41320BDE8F04101F08ABBB7F5007FE1
:101DC0004FEA6706F5D2C3F30F15C3F34173C3EBB4
:101DD0008505DDE70B20EDE7013344F823709D42D4
:101DE000FADA0020BDE8F081032BFAD1E31CC4F13C
:101DF000FF2404F57F04FE34E218AA42F1DC03F864
:101E0000016FF9E7D8F8008018F0010F0ED04FEA03
:101E10006800002822DD854220DB236803F00F03E1
:101E2000092B21D1013044F82070DAE712484146ED
:101E3000FFF7BAF9B0B9B8F1040F11D9D8F80030EA
:101E400003F00F03042B0BD14046FFF7DEF8002808
:101E5000E0D10A484146FFF7A7F908B11220A9E7E7
:101E60001120A7E72846D8E7032B04BF2418E67003
:101E7000B7E700BFBCAC0200C0AC020096C80200CD
:101E8000086808B5C3071BD4042819D9036803F0F0
:101E90000F02092A01D1406808BD032A09D1C3F302
:101EA0000F12C3F34170C0EB8200400040F001000C
:101EB000F2E7042A04D104F0FFFCFEF782FCF4E709
:101EC0000120E9E7024A03480F2106F04DBC00BF9C
:101ED00090AD0200FBAC02001FB500210E2004F003
:101EE00087FA01210D2004F083FA01210F2004F06C
:101EF0007FFA0A4808F00CFD4FF08053019300234D
:101F0000039302238DF8083004AB13E90E00034855
:101F100005B05DF804EB08F011BD00BFCC30002027
:101F2000086810B50C46C10706D4042804D9036814
:101F300003F00F03042B04D0BDE810400E2001F085
:101F4000C7BA04F0B9FC0278A2F14103052B03D90A
:101F5000A2F16103052B01D85A1C01D1206810BDE4
:101F6000054AD25C0E2A01BF044AD05C400040F012
:101F7000010018BF0120F2E70400002078050020CE
:101F8000086810B50C46C10706D4042804D90368B4
:101F900003F00F03042B04D0BDE810400E2001F025
:101FA00097BA04F089FC0278A2F14103052B03D90A
:101FB000A2F16103052B01D85A1C01D1206810BD84
:101FC000054AD25C142A01BF044AD05C400040F0AC
:101FD000010018BF0120F2E704000020780500206E
:101FE000086810B50C46C10706D4042804D9036854
:101FF00003F00F03042B04D0BDE810400E2001F0C5
:1020000067BA04F059FC0278A2F14103052B03D909
:10201000A2F16103052B01D85A1C01D1206810BD23
:10202000064AD25C112A06D1054AD35C1D2B8CBF0F
:1020300000200420F3E70020F1E700BF04000020A7
:1020400078050020086810B50C46C10706D404289E
:1020500004D9036803F00F03042B04D0BDE810403B
:102060000E2001F035BA04F027FC0278A2F14103FA
:10207000052B03D9A2F16103052B01D85A1C01D10C
:10208000206810BD034A32F81300400040F0010000
:10209000F7E700BF6C0500200868C30710B50C46C1
:1020A00004D40D2001F014FA206810BD4010B0F5E2
:1020B000FA6FA8BF4FF4FA601428B8BF142006F0D6
:1020C00077FC0420F1E708B506F078FC400040F00A
:1020D000010008BD08B506F05DFC400040F00100BD
:1020E00008BD08B506F05CFC400040F0010008BDEA
:1020F00008B506F0FDFB400040F0010008BD0000FF
:1021000010B5002004F010FA80B904F021FA68B983
:10211000074A0849034612F8014B112C02D15C5CB6
:10212000092C03D90133062BF5D110BD0420FCE79F
:10213000040000207805002010B5002206210320AD
:1021400004F07CFD20B9BDE810400A2001F0C0B9C0
:10215000C30709D4042807D9036803F00F02032A30
:1021600004BF43F0C0430360054AC31C00F11801DB
:1021700012F8014B03F8014F8B42F9D110BD00BF9B
:1021800003060020024B4FF4FA4043F001031847C6
:10219000A0AE020073B51D4A8DF8001000EB800060
:1021A0001318DC781C719C78DC705C789C70145C73
:1021B0005C7011545A788DF801209A788DF80220BD
:1021C0006846DA781B798DF803208DF804300022F8
:1021D000054613460132114602AC1C446E5C14F8ED
:1021E000084CA64238BF0B4601310529F4D102AC98
:1021F0002344017813F8084C00F8014B042A03F833
:10220000081CE6D19DF8020002B070BD190600203E
:10221000FC23094A10B5811D03700446034612F8D9
:10222000010B03F8010F8B42F9D1044B0620197DF5
:10223000FFF7B0FFE07110BD04000020030600208E
:1022400038B50121102023F0EDFC0021102023F0EF
:1022500027FDFFF741FE0C480C4DE22108F07BFB07
:102260000124295D0848013408F075FB152CF8D1CC
:10227000054808F06FFB0121102023F011FDBDE897
:102280003840FFF77FBF00BFCC3000201000002097
:1022900000EB400303481844002343708370C3706D
:1022A000FFF7CEBF1000002038B54B68DD070C46A5
:1022B00004D40D2001F00CF9606838BD086810F0F6
:1022C000010506D1042804D9036803F00F03042B89
:1022D00004D0BDE838400E2001F0FAB804F0ECFA62
:1022E0000278A2F14103052B03D9A2F16103052B6A
:1022F00001D8581C01D12068DFE76268521002EB58
:102300008202511C06DB02EBD2725210FF2AA8BFD8
:10231000FF221546084AD25C082A0BD1074903EB75
:1023200043030B4400225A709A70DD70FFF788FF58
:102330000420C2E70020C0E70400002010000020B5
:102340004B68D80710B50C4604D40D2001F0C0F836
:10235000606810BD0868C10706D4042804D9036862
:1023600003F00F03042B04D0BDE810400E2001F051
:10237000AFB804F0A1FA0278A2F14103052B03D90A
:10238000A2F16103052B01D85A1C01D12068E0E7B6
:102390000C4AD25C013A052A12D862680A495210E6
:1023A000023203EB43030B44FF2A4FF00001A8BFA6
:1023B000FF2259709970DA70FFF742FF0420C8E7D6
:1023C0000020C6E704000020100000204B68D8075A
:1023D00010B50C4604D40D2001F07AF8606810BDE9
:1023E0000868C10706D4042804D9036803F00F0362
:1023F000042B04D0BDE810400E2001F069B804F0B1
:102400005BFA0378A3F14102052A26D813465A1C29
:1024100026D0194AD25C013A052A2BD861684910A6
:1024200064290A466FF06300A8BF64228242B8BFE5
:102430000246002916DD3B214A436421B2FBF1F23A
:1024400074320E4903EB43030B4400215970997019
:10245000DA70FFF7F5FE0420C1E7613B052BD6D902
:102460002068BCE7EDD03B214A43642192FBF1F2A6
:102470004032E6E70020B2E7040000201000002010
:10248000F8B54B68D8070C4605D58B68D90702D537
:10249000E368DA0704D40D2001F01AF8002055E0B3
:1024A000206810F0010506D1042804D9036803F060
:1024B0000F03042B04D0BDE8F8400E2001F008B84B
:1024C00004F0FAF90678A6F14103052B3AD81E4626
:1024D000731C3AD062685210C2EB022212F1630FF1
:1024E00035DB642392FBF3F2FF2AA8BFFF22A0682A
:1024F0004010C0EB002010F1630F2ADB642190FB39
:10250000F1F0FF28A8BFFF20E3685B10C3EB0323B3
:1025100013F1630F1FDB642193FBF1F3FF2BA8BFC3
:10252000FF232A49895D072901D0092915D12849A6
:1025300006EB46060E447070B270F370FFF780FE33
:10254000042003E0613E052EC2D92068F8BD0022B8
:10255000CDE70020D8E70023E3E70A3901299DD819
:102560001C4F152171437C184FF0E30C07F801C094
:10257000C1B2D2B2DBB2A17061712172E1721020DE
:102580000121E2702371A271E3716272A37222735E
:102590006373667023F046FB0021102023F080FB5C
:1025A000FFF79AFC0C4E14F8011B3046013508F079
:1025B000D2F9152DF7D1084808F0CCF901211020E7
:1025C00023F06EFBFFF7DEFDBAE700BF040000203A
:1025D000100000207E050020CC3000202DE9F041C5
:1025E00002230F4683420EDA57F82320D50707EB64
:1025F000830405D40D2000F06BFF2068BDE8F08156
:102600000133DBB2EEE7386810F0010606D104288A
:1026100004D9036803F00F03042B04D0BDE8F04194
:102620000E2000F055BF04F047F90478A4F14103EF
:10263000052B7AD81C46601C7AD04A4B1B5D0A3B9E
:10264000012B00F28C80484A15236343D118E32004
:10265000D054631C4C7003EB430344490120C8541D
:10266000FD680541C5EB052515F1630F904661DB5B
:10267000642395FBF3F5FF2DA8BFFF25BA68521020
:10268000C2EB022212F1630F56DB642392FBF3F2DA
:10269000FF2AA8BFFF223B695B10C3EB032313F1A2
:1026A000630F4BDB642193FBF1F3FF2BA8BFFF23E8
:1026B0007868C10744D4042842D9016801F00F01A9
:1026C00004293DD1152101FB0481EDB2D2B2DBB268
:1026D0008D70CA700B714D718A71CB710D724A7217
:1026E0008B72CD720A734B730121102023F09AFA7A
:1026F0000021102023F0D4FA1D4DFFF7EDFB152328
:1027000003FB048414F8011B2846013608F023F962
:10271000152EF7D1164808F01DF91020012123F0DD
:10272000BFFAFFF72FFD042068E7613C052C82D932
:10273000386863E70025A1E70022ACE70023B7E78C
:102740004110013903293FF659AF01EB4100152132
:1027500001FB048101448D70CA700B71C4E7002035
:102760004CE700BF040000207E0500201000002080
:10277000CC3000202DE9F04FA14BA24D18689B886A
:1027800085B0012102901020ADF80C3023F04AFAF8
:102790000021102023F084FAFFF79EFB9948DE21E8
:1027A00008F0D9F8984B019318700124FF212846AE
:1027B00008F0D1F8019B18550134152CF6D1914839
:1027C000924D08F0C7F80121102023F069FAFFF7B5
:1027D000D9FC0024019B03EB4403E0B2D978FFF756
:1027E000D9FC0134062C05F8010BF3D100238848ED
:1027F000884D894F03269C46018815F8012B02EB72
:102800004102B2F53C7FB2FBF6F420F8024B68DDE2
:1028100002AA02F803C00133062BEDD17F4980489C
:1028200002AA04468E46002612F8015B11F8017BCD
:1028300001F8015CBD4203F1FF3318BF267013F0AD
:10284000FF0304F10104EFD1764C774F94F800C0F8
:1028500076493A461E464FF0150899464FF0010A50
:1028600010F8015B132D4CD8013500F8015C0136DE
:10287000062E01F1010102F10102F1D10BB184F840
:1028800000C02578002D58D1694E3178002940F0DC
:10289000A180237813B30121102023F0C3F9002174
:1028A000102023F0FDF9FFF717FB624FDFF854818A
:1028B000002517F8011B4046013508F04CF8152D8E
:1028C000F7D1504808F046F80121102023F0E8F92C
:1028D000FFF758FC012333700023237005B0BDE8D7
:1028E000F08F0122D15D01F1060E744505DC063939
:1028F0008C4202DB02A9CA548DE701321A2AF1D1B7
:1029000089E7142DB3D11EF8065092F800B000F8F4
:10291000018CAB45ABD00DB11F2D05D181F80090D6
:10292000157001239C46A2E791F800B0BBF1000F9F
:102930009DD1157081F800A0F3E73E4B15220021D0
:10294000184627F0D3F9E122027000224FF0020B63
:10295000052116464FF0040C4FF0030E4FF0060809
:102960004FF0010917F8013B03F1FF3ABAF1010FEB
:1029700002F1010206D880F80190062A00F1010058
:10298000F0D181E7A3F1030ABAF1030F02D880F86E
:102990000180F2E7072B01D0092B02D180F801B0AA
:1029A000EBE7A3F10A0ABAF1010F02D880F801E0BF
:1029B000E3E7A3F10C0ABAF1090F02D880F801C0CD
:1029C000DBE7082B02D0163B032B01D84170D4E77C
:1029D0004670D2E70022DFF85CC01346013301984D
:1029E00013F80C7010F8130087421CBF0A460D46FE
:1029F000062BF3D102B125700023337049E700BFE5
:102A000008AE0200CC30002003060020780500202C
:102A10006C0500201106002080AE02000A00002094
:102A20003C0600201806002004000020FC050020C1
:102A30000206002025000020F0B587B01522FF21F6
:102A4000684627F053F9DF23012110208DF800306C
:102A500023F0E8F80021102023F022F9FFF73CFAD8
:102A60000E4E6C461525002714F8011B0C4807F084
:102A700072FF013D06F8017BF6D1094807F06AFFB5
:102A80000121102023F00CF9FFF77CFB054B4FF0E0
:102A90001F321A609A8007B0F0BD00BF10000020FE
:102AA000CC3000200A000020F0B587B01522FF21AD
:102AB000684627F01BF9D623012110208DF800303D
:102AC00023F0B0F80021102023F0EAF8FFF704FA11
:102AD0000B4E6C461525002714F8011B094807F01A
:102AE0003AFF013D06F8017BF6D1064807F032FFB8
:102AF0000121102023F0D4F8FFF744FB07B0F0BD0C
:102B000010000020CC300020024A03480B2105F0C1
:102B10002BBE00BF28AE0200A4C30200014A13600E
:102B2000704700BF800E0020704710B5044622F0A9
:102B300003FD204610BD000008B5084609F089FED7
:102B40000022114608F0B0FA034B4FF6FF721A80CC
:102B5000024B00221A6008BD3A00002048060020FF
:102B600010B50846144609F074FE08F03DFC034B0E
:102B7000228C1A80024B01221A6010BD3A000020FC
:102B800048060020F0B5104E85B0002201A808F0DC
:102B9000ADFE3468BDF80A50019FC4F5006295424D
:102BA00004DD0A48036801330360154608482A46D5
:102BB0003946204427F072F82C443846346021F01E
:102BC000EAFA05B0F0BD00BF780E0020880E0020A4
:102BD0004C06002010B5034B0360044608F0C6FD08
:102BE000204610BD50AF020010B50446FFF7F2FFBB
:102BF000204622F0A1FC204610BD10B5044603F08B
:102C0000E5FB044403F0E2FBA04207D206F0CCFB54
:102C100004F04AFD01201FF05DFEF3E710BD00F156
:102C2000080373B50360044608460D4627F0B8F95B
:102C30000F2805EB0006019007D9002201A92046C4
:102C400023F032FB019B2060A360206832462946B6
:102C500023F05DFB019B2268636000212046D15474
:102C600002B070BD4FF08052136E4371190A0171AA
:102C7000190C1B0EC1708370536E43701B0A0370D6
:102C800070470000F0B50C4B0C4A0D4D0D4E1978F5
:102C900058789C78002312F8017BB94205D15F5D1A
:102CA000874202D19F5DA74204D00133992BF2D114
:102CB0000020F0BD0120FCE74206002074AF0200B6
:102CC000A6B002000DB0020037B500256846009599
:102CD000ADF80450FFF7C6FFBDF80430114C5BBAE5
:102CE0001A219BB2B3FBF1F201FB12334133B2FB69
:102CF000F1F0237001FB1022B0FBF1F301FB130193
:102D0000413241316270A170E570FFF7BBFF08B13D
:102D1000422363700349044803B0BDE8304027F004
:102D200037B900BF420600204D0E0020F8B5134E03
:102D300033780BB3124D134C28682188124F13229D
:102D400009F089FD4FF6FF732380104B286800249B
:102D50001C600F4B1C7009F07CFD08F045FB3968C6
:102D60002868224609F0D0FF204609F01DFA094BD9
:102D70002C603C601C603470F8BD00BF4C0E00201D
:102D8000840E00203A0000208C0E0020480600200F
:102D9000740E00207C0E002010B50E4C20688CB004
:102DA000B0B109F056FD08F01FFB206809F051FD95
:102DB000094904466846FFF732FF694606A80AF04B
:102DC000ACFB204606A908F044F9684623F08EFAC9
:102DD0000CB010BD840E0020A6AE020010B5154B3D
:102DE0001B6886B01BB309F0C3F8044608F005FB66
:102DF0001149204608F028FC10496846FFF70FFFEC
:102E00006946204608F09AFC684623F06FFA642170
:102E1000204608F042F9C821204608F041F9084B45
:102E20001B7823B100221146204608F03DF906B078
:102E300010BD00BF840E0020A6AE02004D0E002083
:102E4000740E00202DE9F041454D2B7886B0002B03
:102E500040F08380FFF738FF4249434E434FDFF88D
:102E600004816846FFF7DBFE684609F00DF9684605
:102E700023F03CFA09F060F804463060042022F0A8
:102E800057FB3B4B036001460122204609F0ECFC56
:102E900038493068384E09F004FF10223749306055
:102EA0004FF400730AF0F8FA354B0446186004201A
:102EB00022F03EFB01460760204608F05FFE4FF41B
:102EC000007304222F4930680AF0E6FA0446042011
:102ED00022F02EFB01460760204608F04FFE3068C6
:102EE000294F0AF06BF9294A01232B701370FFF761
:102EF00075FF1C4827F054F8032405462E1FB542E1
:102F00001FD0012108EB060003F05CFF694600902A
:102F1000012004F0C7FA694600900320CDE90100C2
:102F200004F0F8FA4FF42F70FFF767FE69460020AF
:102F300004F0BCF86420FFF760FE3B686BB9013613
:102F4000DDE74FF47A70FFF758FE3B682BB9013C80
:102F5000D4D16946204604F0A9F806B0BDE8F08156
:102F60004C0E00204D0E0020840E002050AF0200B9
:102F700020AF0200A6AE02008C0E0020CBAE0200F5
:102F80007C0E0020F0AE020048060020740E0020E7
:102F9000014B1868704700BF4806002001207047A9
:102FA0002DE9F043464D2B6887B006460C46002BB2
:102FB00049D044481FF05AFA022862DD05201FF06C
:102FC00089FC40481FF052FA1428024601A9A8BF04
:102FD00014223C481FF0F9F901AB0022023890425C
:102FE0004FDD13F8011BFA2902F10102F7D119781C
:102FF0001A29F4D15F78002FF1D1DFF8D890DFF8EB
:10300000D880B9F80010D8F80000132209F023FC8A
:103010004FF6FF73A9F800302B4BD8F80000196861
:103020003A4609F071FE294B2F601F7025481FF0AA
:103030001DFA844222463146A8BF024621481FF0AD
:10304000C4F9044637E0DFF8848098F80030002B9C
:10305000ECD105F069FF074698B9DFF87C90D9F804
:10306000000070B1184B196809F030FED9F8000063
:1030700009F0EFFB3A46394608F016F8012388F8C4
:1030800000302B68002BD1D0114F3D68AC42A8BF57
:103090002C4684B1DFF844802246414630462D1B41
:1030A00026F0FCFD002D05DD2A4608EB0401404614
:1030B00026F0F4FD3D60204607B0BDE8F08300BF78
:1030C00048060020E05A00208C0E0020740E0020DC
:1030D000780E00203A000020840E00204C060020CC
:1030E0000B462DE9F341D41A1B4B1B68411833B929
:1030F0001A48224602B0BDE8F0411FF0CFB8184D83
:10310000019103F063F92B68019998423CBF0023B9
:103110002B602B68C31A132B06461BD9002C19DD14
:10312000FA2CDFF844800F4FD8F80000A8BFFA242B
:10313000002322463B6008F029FDD8F8000008F083
:1031400019FD3B682E60002B18BF0024204602B0FA
:10315000BDE8F0810024F9E748060020E05A00208D
:10316000700E0020800E00207C0E002008B505485F
:103170001FF054F9BDE8084002484FF4E1311FF058
:1031800037B900BFE05A0020037883B11A0601D492
:103190000130704703F0C003C02B08BF0130024666
:1031A00010460132037803F0C003802BF8D070473B
:1031B00073B50646084611F00101144627D10428CC
:1031C00042D9036803F00F03042B3DD1D30714D475
:1031D000042A39D9136803F00F03042B34D103F008
:1031E0006BFB0546204603F067FB0146284626F0A8
:1031F000C5FE002830DB21D129E0019103F05CFB02
:1032000001990A2226F084FF0546641013E012F0AB
:10321000010117D1042A17D9136803F00F03042BF7
:1032200012D145101046019103F046FB01990A2284
:1032300026F06EFF0446A5420EDB08DD002E09DCF9
:1032400000200CE04510E0E7064B0F221A70013613
:10325000022EF5D8042002E0701700F0040002B03E
:1032600070BD00BFB80E002007B510F0010104D0FA
:103270004110084603B05DF804FB042813D9026826
:1032800002F00F02042A09D1019103F015FB019904
:103290000A2203B05DF804EB26F03ABF032A02D1FC
:1032A0000A220430F5E7024B0D221A70E1E700BF55
:1032B000B80E00202DE9F843054605F069FA0446EA
:1032C00008B1BDE8F883284626F06AFE2C4E074672
:1032D0003379032B0AD00134FF2C06F10806F7D10D
:1032E000284B1B221A704FF0FF30EAE73A46294676
:1032F000E0B205F0CBFA034600283DD132685068B1
:10330000111D9842E7D051F804CFBCF1F00F03F142
:103310000103F6D19B000833D00702EB0301DAD496
:103320000429D8D9D35803F00F02042AD3D1C3F308
:103330000F130133CA0701EB8300CCD40428CAD988
:1033400051F8233003F00F03042BC4D103F0B4FA77
:103350004FF0030980460921404626F002FE00286E
:10336000B9D0B9F1010900F10108F4D1294640466C
:1033700026F031FE8045AED164F0FF00A1E700BF2A
:1033800060770020B80E002010F0010210B516D1B1
:10339000042802D90268C2F30F1211F0010310D100
:1033A000042902D90B68C3F30F13934214D10430DC
:1033B00000EB83030331834205D8012010BD0022B6
:1033C000EBE70023F1E710F8014B11F8012F54EA65
:1033D000020CF2D09442EED00020EFE72DE9F04F3E
:1033E00085B0CDE90113314F314E80468AB10223B9
:1033F0003B70012333603368DFF8C890DFF8C8A062
:10340000DFF8C8B00024FC54444504DB05B0BDE837
:10341000F08F3260EFE7019B316853F82400C30757
:1034200007EB0105C1F5487105D5224A431028462E
:1034300022F004F804E0A8B91F4A284621F0FEFF54
:103440001A4826F0ADFD029B30604BB108F1FF3306
:10345000A34205DD431C20223A540022FA54336073
:103460000134D1E7042801D1144AE6E71BD90268E8
:1034700002F00F03042B06D1039103F01DFA104A4A
:1034800003990346D3E7092B03D143685A465B10DF
:10349000CDE7032B08D1C2F30F13C2F34172C2EB85
:1034A00083035246C3E701234A46C0E7100F0020BA
:1034B0003012002011B502003FB1020045B10200F8
:1034C00045E8020064B1020059B102004AB10200AD
:1034D000014B187000207047B80E0020024B18787E
:1034E000003818BF01207047B80E0020024B18604A
:1034F000024BFF221A70704738120020B80E0020CD
:1035000008B500231A46FFF769FF034B0348196803
:1035100005F032FF002008BD30120020100F0020FF
:1035200010B502F05FFF084C231D01461F2218460C
:1035300026F03EFD26F034FD031D9B081B0143F0E1
:1035400004032360204610BD900E00202DE9F04FAB
:10355000804608F11809D8F81410C74FD8F8105051
:103560008BB009EB8101D0E9023002913978AA00D1
:1035700003EB800409EB8505002952D153F8203074
:1035800092101E12C8F8102003F07F03BB4A52F8B5
:1035900023300434924643F001031847D8F808203A
:1035A00098F8023098F80100A21A921043EA022219
:1035B00005F0F0FB002388F800303B70D8F80830A5
:1035C000E41A029BA5EB0905A3EB0909A410AD10B1
:1035D0004FEAA903C8F80C40C8F81050C8F81430D6
:1035E0000BB0BDE8F08F98F8010005F0CDFB00238B
:1035F00088F80030E2E73B789BB954F8043BA5EB30
:1036000009021E1203F07F0392105AF82330C8F803
:103610001020C0E7291DA1EB0903D82B17DD1A23C1
:103620003B703978FF29B9D1954E00233B70336840
:10363000002BC3DD012388F8003002F0BFFE3368A1
:103640004FF47A7202FB0300C8F80400B6E79A1040
:103650003B782E600BB10D46E3E754F8043BC8F805
:1036600010201E1203F07F030D465AF8233092E714
:10367000291DA1EB0903D82B02DD1A233B70D0E7EB
:10368000204650F8042B2A609A103B7813B10D465F
:103690000446C6E76368C8F810201E1203F07F03D3
:1036A0000D465AF82330083475E7291DA1EB0903AC
:1036B000D82B02DD1A233B70B3E79A103B7804EB5A
:1036C00086062E600BB10D46ABE754F8043BC8F8F4
:1036D00010201E1203F07F030D465AF823305AE7DC
:1036E0002A1DA2EB0903D82B02DD1A233B7098E7B1
:1036F000632ECABF63496449643E51F826102960AD
:1037000015469A103B78002B8BD154F8043BC8F82F
:1037100010201E1203F07F035AF823303BE75A4B68
:1037200055F8042D43F826203B78002B7FF479AF21
:1037300054F8043BA5EB09021E1203F07F0392101C
:103740005AF82330C8F8102025E7DFF83CB15BF8C1
:103750002600FFF789FD3A78002A7FF462AF0090D7
:1037600055F8040DFFF780FD009B184440003B789E
:1037700040F00100A5EB09024BF826009210002B47
:103780007FF44FAF54F8043BC8F810201E1203F02A
:103790007F035AF82330FEE62A1DA2EB0903D82B3B
:1037A00002DD1A233B703CE7029B994534BF53F876
:1037B0000C3C01232B603B78A2EB090189100BB173
:1037C00015462EE754F8043BC8F810101E1203F0FB
:1037D0007F0315465AF82330DDE62A1DA2EB0903C4
:1037E000D82B02DD1A233B701BE7029989450ED2C4
:1037F00051F80C0C06F18046033EA6EB600651F82A
:103800002610296099103B783BB1154609E718232B
:103810003B7000232B60154603E754F8043BC8F8BF
:1038200010101E1203F07F0315465AF82330B2E63B
:10383000029B99451CD2029A55F8043D52F80C0C93
:1038400006F18046033EA6EB600642F826303B7840
:10385000A5EB09029210002B7FF4E3AE54F8043B71
:10386000C8F810201E1203F07F035AF8233092E6A6
:1038700018233B70D5E600BFB80E0020B0B102009F
:1038800038120020387700205C7F0020029B994589
:103890002DD253F80C3C029A06F18046033EA6EB6B
:1038A000630352F82300FFF7DFFC834655F8040D4D
:1038B000FFF7DAFC029B029A53F80C3C5844A6EB43
:1038C0006306430043F0010342F826303B78A5EB42
:1038D00009029210002B7FF4A4AE54F8043BC8F800
:1038E00010201E1203F07F035AF8233053E61823EA
:1038F0003B7096E6291DA1EB0903D82B02DD1A23A4
:103900003B708EE6029A52F826202A609A103B7885
:103910000BB10D4685E654F8043BC8F810201E1282
:1039200003F07F030D465AF8233034E6029A55F827
:10393000043D42F826303B78002B7FF472AE54F8F9
:10394000043BA5EB09021E1203F07F0392105AF804
:103950002330C8F810201EE6029B53F826004FEAD9
:10396000600B55F8040DFFF77FFC5844029B4000A4
:1039700040F0010043F826003B78002B7FF451AE65
:1039800054F8043BA5EB09021E1203F07F039210CA
:103990005AF82330C8F81020FDE5A5EB8605A945A7
:1039A000A5EB09060ED83A78B310002A7FF439AE99
:1039B00054F8042BC8F81030161202F07F025AF89F
:1039C0002230E8E5CC4802F067FF3A78B310002ACD
:1039D0007FF427AE54F8042BC8F81030161202F00A
:1039E0007F025AF82230D6E5002E04EB8604FFF65B
:1039F000E5AD3B78A5EB09029210002B7FF411AEE8
:103A000054F8043BC8F810201E1203F07F035AF844
:103A10002330C0E555F8043D042B04D1002E04EBFF
:103A20008604FFF6CBAD3B78A5EB09029210002B84
:103A30007FF4F7AD54F8043BC8F810201E1203F0D1
:103A40007F035AF82330A6E555F8043D042B04D033
:103A5000002E04EB8604FFF6B1AD3B78A5EB09021E
:103A60009210002B7FF4DDAD54F8043BC8F8102011
:103A70001E1203F07F035AF823308CE555F8040C2E
:103A8000C107A5F1040B0BD54010013800280ADB53
:103A9000400040F0010004EB8604CBF800008DE507
:103AA000FFF7E2FBF1E73B78ABEB090292100BB1B9
:103AB0005D46B6E554F8043BC8F810201E1203F02A
:103AC0007F035D465AF8233065E5029B05F10C0E35
:103AD000AEEB0902A3EB090BD82A4FEAAB0B02DDD0
:103AE0001A233B709DE5760006F4FF7646F001064A
:103AF0002E60D8F808302946E41A98F80250A4102D
:103B000045EA04254FEA4B0B4BF001036D008B6037
:103B100045F00105009B4D6088F80230397850F877
:103B20003C30C8F808307546921021B103F1080402
:103B3000CDF808E075E503F10C049B68CDF808E0CA
:103B40001E1203F07F03C8F810205AF8233022E534
:103B5000029B55F8046C99452DD1F2071ED4042E12
:103B600015D9336803F00F03042B19D1304602F046
:103B7000A3FE26F015FAB0F5487FA8BF4FF44870B1
:103B80000630643004F020FF78B9043C16E50AD012
:103B9000002E0CBF07204FF40070F2E70A20F0E778
:103BA0004FF40070EDE70720EBE798F8010031468D
:103BB00005F007F91BE5029B504953F80C2C504BBC
:103BC0003878A3EB6203029A42F8236002EB830584
:103BD00052F8083C5A1088F80220D2B2043551F845
:103BE0003210029AC8F8081052F8042C521009EB4F
:103BF0008202C3F355230292A5EB090201EB830471
:103C0000921000287FF40DAD51F82330C8F8102031
:103C10001E1203F07F0304345AF82330BBE455F836
:103C2000040CFFF721FB1E28A5EB86052DDCA5EB78
:103C3000090B00284FEAAB0B0DDC3B78002B7FF41F
:103C4000F0AC54F8043BC8F810B01E1203F07F0328
:103C50005AF823309FE4009002F0B0FB009B033B36
:103C60001E1802F0ABFB274B801B9842F9D23B7821
:103C7000002B7FF4D6AC54F8043BC8F810B01E12E9
:103C800003F07F035AF8233085E4012288F80020EE
:103C9000009002F093FB009B0A380344C8F80430FC
:103CA0008CE455F8040CFFF7DFFAA5EB8605061E39
:103CB00010DC3B78A5EB09029210002B7FF4B1AC2D
:103CC00054F8043BC8F810201E1203F07F035AF882
:103CD000233060E40C4B9E4202DD1D233B70A0E4C8
:103CE000012388F8003002F069FB4FF47A7303FB7C
:103CF00006000A38A8E400BF76B102006077002011
:103D0000FDFFFF3F8096980080EE3600002330468E
:103D1000A5EB8605CA4E1A462946FFF75FFB3168B8
:103D2000C84803F04FF8C84B31681860C54805F023
:103D300005FA3168C34805F01FFB3B78002B7FF480
:103D400070AC54F8043BA5EB09021E1203F07F038C
:103D500092105AF82330C8F810201CE43B78A5EBE9
:103D60008605002B7FF45DAC54F8043BA5EB0902FB
:103D70001E1203F07F0392105AF82330C8F8102067
:103D800009E4404604F07EFE3B78002B7FF449AC0A
:103D900054F8043BA5EB09021E1203F07F039210B6
:103DA0005AF82330C8F81020FFF7F5BB55F8043C4B
:103DB000002B47D155F80C0C10F0010B20D04FEA26
:103DC000600B4FEA4B0343F0010345F8083CBBF19D
:103DD000000F40F3968055F8080C4FEA4B03CBEBED
:103DE000600B55F80C0C43F0010345F8043CC30785
:103DF0002DD50BF1010B4FEA4B0343F0010331E0EA
:103E000004281BD9036803F00F02092A01D1406876
:103E1000D5E7042A09D102F04FFD0378002BD0D05A
:103E2000FFF7B2F90BF1010BF7E7032A06D1C3F351
:103E30000F1BC3F34173C3EB8B0BC2E719233B701A
:103E4000FFF7EFBB4FEA630B0BF1FF3BBFE7042823
:103E500053D9036803F00F03092B18D10BF1020BA0
:103E600050F82B30029A42F826303B78A5EB090235
:103E70009210002B7FF4D5AB54F8043BC8F8102007
:103E80001E1203F07F035AF82330FFF784BB042B84
:103E90002CD1029B03EB8603009302F00DFD0BF186
:103EA000010B0646BBF1010F10DC3046FFF76CF941
:103EB000821B1046039202F07DFF834668B102F038
:103EC000FBFC039A314625F0E9FE06E030780BF161
:103ED000FF3B30B912233B708346009BC3F800B010
:103EE000C3E73046FFF750F90646DBE7032B04D162
:103EF00083449BF804305B007FE719233B70FFF796
:103F000090BB0434B1E705EB8603A3EB0903D82B80
:103F100016DC0122002E06F1FF3315DC3B78A5EB01
:103F200009029210002B7FF47CAB54F8043BC8F8D4
:103F300010201E1203F07F035AF82330FFF72BBB2B
:103F40001A233B70FFF76DBB45F8042B1E46E1E7D3
:103F50002B1DA3EB0903D82B03DD1A233B70FFF7BE
:103F600060BB029B994530D255F8040CFFF77CF9F1
:103F7000002827DD029B53F80C3CB0EB630F4FEA9F
:103F800063021FDC801A00F18040029B043853F862
:103F90002020A5EB86031A60C6F1010605EB860515
:103FA0003B78A5EB09029210002B7FF43AAB54F852
:103FB000043BC8F810201E1203F07F035AF8233088
:103FC000FFF7E9BA20233B70E6E71823FBE71E4B17
:103FD0001A68A5EB8603C6F101061A603B7805EB6B
:103FE0008605002B7FF41DAB54F8043BA5EB0902BA
:103FF0001E1203F07F0392105AF82330C8F81020E5
:10400000FFF7C9BA55F8043C042BA5F104023B782C
:1040100008BF2A46A2EB090108BF04EB86048910F9
:1040200013B11546FFF7FDBA54F8043BC8F8101059
:104030001E1203F07F0315465AF82330FFF7ABBA80
:1040400030120020100F00204400002055F8043DDD
:10405000042B1CBF002345F8043B3B78A5EB090269
:1040600018BF04EB86049210002B7FF4DAAA54F8F0
:10407000043BC8F810201E1203F07F035AF82330C7
:10408000FFF789BA002EA5EB860119DC1C233B70D3
:104090000022C6F1010605EB86053B780A60A5EB18
:1040A00009029210002B7FF4BCAA54F8043BC8F814
:1040B00010201E1203F07F035AF82330FFF76BBA6B
:1040C0000B684FF0000C5B1051F82C0010F001024F
:1040D00002D10D233B70DCE7401083420CF1010C50
:1040E000A8BF03466645EFDC5B0043F00102D0E762
:1040F000002EA5EB860119DC1C233B700022C6F1C3
:10410000010605EB86053B780A60A5EB09029210D3
:10411000002B7FF486AA54F8043BC8F810201E1226
:1041200003F07F035AF82330FFF735BA0B684FF0DE
:10413000000C5B1051F82C0010F0010202D10D238D
:104140003B70DCE7401083420CF1010CB8BF034622
:104150006645EFDC5B0043F00102D0E755F8081C30
:1041600011F0010F4FEA860323D055F8042C12F00A
:10417000010F1ED05210B2EB610FA5EB0303CCBFB1
:10418000042200221A60C6F1010605EB86053B7881
:10419000A5EB09029210002B7FF443AA54F8043BCC
:1041A000C8F810201E1203F07F035AF82330FFF7DF
:1041B000F2B955F8042C6FF00100A5EB030BFEF7E4
:1041C000F7FFCBF80000DEE755F8081C11F0010FEF
:1041D0004FEA860323D055F8042C12F0010F1ED0AD
:1041E0005210B2EB610FA5EB0303ACBF0422002217
:1041F0001A60C6F1010605EB86053B78A5EB0902BE
:104200009210002B7FF40DAA54F8043BC8F810203C
:104210001E1203F07F035AF82330FFF7BCB955F89C
:10422000042C4FF0FF30A5EB030BFEF7C1FFCBF8DA
:104230000000DEE755E902014FEA860B8142A5EB5B
:104240000B0B18D10423CBF80030C6F1010605EBA7
:1042500086053B78A5EB09029210002B7FF4E1A9BB
:1042600054F8043BC8F810201E1203F07F035AF8DC
:104270002330FFF790B9042801D80023E3E7C207F1
:10428000FBD4036803F00F03042BF6D1CB07F4D45F
:104290000429F2D90B6803F00F03042BEDD1FFF7CB
:1042A00073F8002814BF04230023CCE755E902016A
:1042B0004FEA860B8142A5EB0B0B18D10023CBF8FC
:1042C0000030C6F1010605EB86053B78A5EB090237
:1042D0009210002B7FF4A5A954F8043BC8F81020D5
:1042E0001E1203F07F035AF82330FFF754B9042855
:1042F00001D80423E3E7C207FBD4036803F00F03EC
:10430000042BF6D1CB07F4D40429F2D90B6803F0BF
:104310000F03042BEDD1FFF737F8002814BF00235B
:104320000423CCE755F8081C11F0010F4FEA86036F
:1043300023D055F8042C12F0010F1ED05210B2EB0E
:10434000610FA5EB0303D4BF042200221A60C6F15B
:10435000010605EB86053B78A5EB09029210002BC0
:104360007FF45FA954F8043BC8F810201E1203F034
:104370007F035AF82330FFF70EB955F8042C0120BB
:10438000A5EB030BFEF714FFCBF80000DFE755F8B1
:10439000081C11F0010F4FEA860323D055F8042CB6
:1043A00012F0010F1ED05210B2EB610FA5EB030308
:1043B000B4BF042200221A60C6F1010605EB86058F
:1043C0003B78A5EB09029210002B7FF42AA954F840
:1043D000043BC8F810201E1203F07F035AF8233064
:1043E000FFF7D9B855F8042C0220A5EB030BFEF714
:1043F000DFFECBF80000DFE755F8043C042BA5EB0B
:1044000086030CBF00220422C6F101061A6005EBE8
:1044100086053B78A5EB09029210002B7FF401A9D9
:1044200054F8043BC8F810201E1203F07F035AF81A
:104430002330FFF7B0B855F8080CFEF715FF834698
:1044400055F8040CFEF710FF5844A5EB8603400016
:1044500040F0010018603B78C6F1010605EB8605C7
:10446000002B7FF4DEA854F8043BA5EB09021E12D2
:1044700003F07F0392105AF82330C8F81020FFF79A
:104480008AB855F8080CFEF7EFFE834655F8040C81
:10449000FEF7EAFEABEB0000A5EB8603400040F020
:1044A000010018603B78C6F1010605EB8605002B7C
:1044B0007FF4B7A854F8043BA5EB09021E1203F0E1
:1044C0007F0392105AF82330C8F81020FFF763B822
:1044D00055F8080CFEF7C8FE834655F8040CFEF7A5
:1044E000C3FE00FB0BF0A5EB8603400040F001008B
:1044F00018603B78C6F1010605EB8605002B7FF4BA
:1045000090A854F8043BA5EB09021E1203F07F03A8
:1045100092105AF82330C8F81020FFF73CB855F82D
:10452000040CFEF7A1FE8346D0B91F233B70A5EB18
:104530008603C6F10106186005EB86053B78A5EBFE
:1045400009029210002B7FF46CA854F8043BC8F8C1
:1045500010201E1203F07F035AF82330FFF71BB818
:1045600055F8080CFEF780FE90FBFBF0400040F091
:104570000100DCE7A5EB860BDBF80000FEF774FE1C
:104580000090DBF80400FEF76FFE009BC8B91F2304
:104590003B70C6F1010605EB86053B78CBF80000C1
:1045A000A5EB09029210002B7FF43BA854F8043BC2
:1045B000C8F810201E1203F07F035AF82330FEF7CC
:1045C000EABF80EAE072A2EBE07293FBF2F002FB3A
:1045D00010300028B8BF8018400040F00100D8E734
:1045E00055F8040CFEF740FE002855F8040C1DDDBC
:1045F000FEF73AFEA5EB8603400040F00100C6F14D
:104600000106186005EB86053B78A5EB09029210C0
:10461000002B7FF406A854F8043BC8F810201E12A3
:1046200003F07F035AF82330FEF7B5BFFEF71CFEF8
:104630004042DFE7012EA5EB860B35D1DBF8000009
:10464000FEF712FE0028ACBF01224FF0FF3282427B
:1046500002DD1346024618460130831A0392009386
:1046600025F0BEFB009B039A90FBF3F101FB1303C3
:104670001A445200C6F1010642F0010205EB86051C
:104680003B78CBF80020A5EB09029210002B7EF4BA
:10469000C8AF54F8043BC8F810201E1203F07F0383
:1046A0005AF82330FEF777BF022E0AD1DBF800005C
:1046B000FEF7DAFD0090DBF80400FEF7D5FD009A66
:1046C000C5E764200122C7E7A5EB860B30465946B3
:1046D00002F097FB3B78CBF80000C6F1010605EB32
:1046E0008605002B7EF49DAF54F8043BA5EB090230
:1046F0001E1203F07F0392105AF82330C8F81020DE
:10470000FEF749BF55F8080CFEF7AEFD834655F895
:10471000040CFEF7A9FD0BEA0000A5EB86034000A0
:1047200040F0010018603B78C6F1010605EB8605F4
:10473000002B7EF476AF54F8043BA5EB09021E1261
:1047400003F07F0392105AF82330C8F81020FEF7C8
:1047500022BF55F8080CFEF787FD834655F8040C78
:10476000FEF782FD4BEA0000A5EB8603400040F017
:10477000010018603B78C6F1010605EB8605002BA9
:104780007EF44FAF54F8043BA5EB09021E1203F070
:104790007F0392105AF82330C8F81020FEF7FBBEB2
:1047A00055F8080CFEF760FD834655F8040CFEF73B
:1047B0005BFD8BEA0000A5EB8603400040F00100A2
:1047C00018603B78C6F1010605EB8605002B7EF4E8
:1047D00028AF54F8043BA5EB09021E1203F07F0337
:1047E00092105AF82330C8F81020FEF7D4BE55F8BE
:1047F000040CFEF739FDC043A5EB8603400040F0F2
:10480000010018603B78C6F1010605EB8605002B18
:104810007EF407AF54F8043BA5EB09021E1203F027
:104820007F0392105AF82330C8F81020FEF7B3BE69
:1048300055F8080CFEF718FD834655F8040CFEF7F2
:1048400013FD0BFA00F0A5EB8603400040F00100D9
:1048500018603B78C6F1010605EB8605002B7EF457
:10486000E0AE54F8043BA5EB09021E1203F07F03EF
:1048700092105AF82330C8F81020FEF78CBE55F875
:10488000080CFEF7F1FC834655F8040CFEF7ECFC2F
:104890004BFA00F0A5EB8603400040F001001860E1
:1048A0003B78C6F1010605EB8605002B7EF4B9AE18
:1048B00054F8043BA5EB09021E1203F07F0392108B
:1048C0005AF82330C8F81020FEF765BE55F80C0CD6
:1048D000FEF7CAFC834655F8080CFEF7C5FC8BFBB7
:1048E000002355F8040CCDE90023FEF7BDFCDDE9FB
:1048F0000023C0F1200CB0F1200103FA0CFC22FAD5
:1049000000F040EA0C005CBF43FA01F10843A5EB5C
:10491000860E40003B7840F00100C6F10106CEF85B
:10492000000005EB8605002B7EF47BAE54F8043BBB
:10493000A5EB09021E1203F07F0392105AF82330F0
:10494000C8F81020FEF727BEA5EB860B3046594667
:10495000FDF702F93B78CBF80000C6F1010605EB44
:104960008605002B7EF45DAE54F8043BA5EB0902EE
:104970001E1203F07F0392105AF82330C8F810205B
:10498000FEF709BEA5EB860529463046FDF7FEF881
:104990003B78002B7EF445AE54F8043BA5EB0902AE
:1049A0001E1203F07F0392105AF82330C8F810202B
:1049B000FEF7F1BDA5EB860B30465946FDF72AF907
:1049C0003B78CBF80000C6F1010605EB8605002B0D
:1049D0007EF427AE54F8043BA5EB09021E1203F047
:1049E0007F0392105AF82330C8F81020FEF7D3BD89
:1049F000A5EB860529463046FDF7B2F93B78002B3A
:104A00007EF40FAE54F8043BA5EB09021E1203F02E
:104A10007F0392105AF82330C8F81020FEF7BBBD70
:104A2000A5EB860B30465946FDF72AFA3B78CBF8C2
:104A30000000C6F1010605EB8605002B7EF4F1AD02
:104A400054F8043BA5EB09021E1203F07F039210F9
:104A50005AF82330C8F81020FEF79DBD55F8040C15
:104A600001F02AFF55F8083CD9072ED4042B0CD9A5
:104A70001B6803F00F03013B082B10D8DFE803F09D
:104A800005252B270F0F0F0F2900C44925F076FAB3
:104A9000A5EB860300280CBF042200221A60C6F191
:104AA000010605EB86053B78A5EB09029210002B69
:104AB0007EF4B7AD54F8043BC8F810201E1203F082
:104AC0007F035AF82330FEF766BDB549DEE7B549E6
:104AD000DCE7B549DAE7B549D8E705F1040BABEBFC
:104AE0000906D82E03DD1A233B70FEF79ABD01F0AC
:104AF0006DFC3B78400040F001002860B21013B11B
:104B00005D46FEF78EBD54F8043BC8F810201E1217
:104B100003F07F035D465AF82330FEF73CBD05F1F4
:104B2000040BABEB0906D82E03DD1A233B70FEF70E
:104B300078BD01F043FC9E4B03EA40003B7840F017
:104B400001002860B21013B15D46FEF76ABD54F84B
:104B5000043BC8F810201E1203F07F035D465AF88C
:104B60002330FEF718BD05F1040BABEB0903D82B7E
:104B700003DD1A233B70FEF754BD01F027FC8D4B7B
:104B80001B6898423DBFC3F5830303F63713C01873
:104B9000C01A40003B7840F00100ABEB09022860EE
:104BA000921013B15D46FEF73CBD54F8043BC8F8C3
:104BB00010201E1203F07F035D465AF82330FEF7E3
:104BC000EABC01F003FC7B4B18603B78A5EB860543
:104BD000002B7EF426AD54F8043BA5EB09021E120F
:104BE00003F07F0392105AF82330C8F81020FEF724
:104BF000D2BC04F099F9B30090B9ED1A3B78A5EB5B
:104C000009029210002B7EF40CAD54F8043BC8F856
:104C100010201E1203F07F035AF82330FEF7BBBCAE
:104C20003046EF1A644E01231A463946FEF7D6FB8A
:104C30003068643003F0C8FE00283EF4A6AF98F850
:104C4000012031685D4804F0C1F8012388F8003084
:104C500001F0B4FB5A4A33681268063302FB0300C2
:104C6000C8F804003D46FEF7A9BC04F05DF9B100A8
:104C700090B96D1A3B78A5EB09029210002B7EF4D7
:104C8000D0AC54F8043BC8F810201E1203F07F0388
:104C90005AF82330FEF77FBC30466F1A464E012388
:104CA00000223946FEF79AFB3068643003F08CFE30
:104CB00000283EF46AAF414804F049F8C5E7FEF722
:104CC0002FFCA5EB860B3B78CBF80000C6F1010664
:104CD00005EB8605002B7EF4A4AC54F8043BA5EB51
:104CE00009021E1203F07F0392105AF82330C8F80D
:104CF0001020FEF750BC3B78A5EB8605002B7EF418
:104D000090AC54F8043BA5EB09021E1203F07F039C
:104D100092105AF82330C8F81020FEF73CBC012E40
:104D20004FEA86021ADC1C233B70AA1A0023136088
:104D3000C6F1010605EB86053B78A5EB090292104A
:104D4000002B7EF46EAC54F8043BC8F810201E1201
:104D500003F07F035AF82330FEF71DBC029B9945F0
:104D6000A5EB020202D355F8043CE0E755F8083CF5
:104D700055F8041C5B10002B0DDD029850F80C0C4C
:104D8000B3EB600F4FEA600CDFBFA3EB0C0302999B
:104D9000043B51F823101160CAE700BFCEAC0200FB
:104DA000D6AC0200DDAC0200E4AC0200E9AC0200CB
:104DB000FEFFFF7F4412002030120020100F002061
:104DC00040000020A5EB860B584601F037FB3B78EE
:104DD000CBF80000C6F1010605EB8605002B7EF43A
:104DE00020AC54F8043BA5EB09021E1203F07F032C
:104DF00092105AF82330C8F81020FEF7CCBBA5EB70
:104E0000860B584601F01CFB3B78CBF80000C6F13E
:104E1000010605EB8605002B7EF403AC54F8043B39
:104E2000A5EB09021E1203F07F0392105AF82330FB
:104E3000C8F81020FEF7AFBBA5EB860B30465946ED
:104E400001F0B4F93B78CBF80000C6F1010605EBA0
:104E50008605002B7EF4E5AB54F8043BA5EB090274
:104E60001E1203F07F0392105AF82330C8F8102066
:104E7000FEF791BBA5EB8605284601F0E3FA3B78E7
:104E8000002B7EF4CEAB54F8043BA5EB09021E12B6
:104E900003F07F0392105AF82330C8F81020FEF771
:104EA0007ABBA5EB860B3046594601F0BBF93B783F
:104EB000CBF80000C6F1010605EB8605002B7EF459
:104EC000B0AB54F8043BA5EB09021E1203F07F03BC
:104ED00092105AF82330C8F81020FEF75CBBA5EBFF
:104EE0008605284601F0A0FB3B78002B7EF499ABA9
:104EF00054F8043BA5EB09021E1203F07F03921045
:104F00005AF82330C8F81020FEF745BB012130467F
:104F100001F048FB3B78002B7EF483AB54F8043B54
:104F2000A5EB09021E1203F07F0392105AF82330FA
:104F3000C8F81020FEF72FBB0021304601F032FBED
:104F40003B78002B7EF46DAB54F8043BA5EB0902D3
:104F50001E1203F07F0392105AF82330C8F8102075
:104F6000FEF719BBA5EB860B584601F0DDFA3B783E
:104F7000CBF80000C6F1010605EB8605002B7EF498
:104F800050AB54F8043BA5EB09021E1203F07F035B
:104F900092105AF82330C8F81020FEF7FCBAA5EB9F
:104FA000860B584601F0D4FA3B78CBF80000C6F1E6
:104FB000010605EB8605002B7EF433AB54F8043B69
:104FC000A5EB09021E1203F07F0392105AF823305A
:104FD000C8F81020FEF7DFBAA5EB8605284601F0D9
:104FE00085FA3B78002B7EF41CAB54F8043BA5EB10
:104FF00009021E1203F07F0392105AF82330C8F8FA
:105000001020FEF7C8BAA5EB8605284604F006FE78
:105010003B78002B7EF405AB54F8043BA5EB09026A
:105020001E1203F07F0392105AF82330C8F81020A4
:10503000FEF7B1BAA5EB860B584604F0FFFE3B78AD
:10504000CBF80000C6F1010605EB8605002B7EF4C7
:10505000E8AA54F8043BA5EB09021E1203F07F03F3
:1050600092105AF82330C8F81020FEF794BAA5EB36
:105070008605284604F01CFD3B78002B7EF4D1AA5F
:1050800054F8043BA5EB09021E1203F07F039210B3
:105090005AF82330C8F81020FEF77DBAA5EB860B2E
:1050A000584604F023FD3B78CBF80000C6F101061A
:1050B00005EB8605002B7EF4B4AA54F8043BA5EB5F
:1050C00009021E1203F07F0392105AF82330C8F829
:1050D0001020FEF760BAA5EB86052946304602F09F
:1050E00099F93B78002B7EF49CAA54F8043BA5EB7D
:1050F00009021E1203F07F0392105AF82330C8F8F9
:105100001020FEF748BAA5EB86052946304601F087
:10511000CDFF3B78002B7EF484AA54F8043BA5EB2A
:1051200009021E1203F07F0392105AF82330C8F8C8
:105130001020FEF730BAA5EB86052946304602F06E
:1051400075F93B78002B7EF46CAA54F8043BA5EB70
:1051500009021E1203F07F0392105AF82330C8F898
:105160001020FEF718BAA5EB86052946304602F056
:105170007BF93B78002B7EF454AA54F8043BA5EB52
:1051800009021E1203F07F0392105AF82330C8F868
:105190001020FEF700BAA5EB860B3046594604F006
:1051A00069FF3B78CBF80000C6F1010605EB8605E8
:1051B000002B7EF436AA54F8043BA5EB09021E121C
:1051C00003F07F0392105AF82330C8F81020FEF73E
:1051D000E2B9A5EB860B3046594604F053FF3B7805
:1051E000CBF80000C6F1010605EB8605002B7EF426
:1051F00018AA54F8043BA5EB09021E1203F07F0322
:1052000092105AF82330C8F81020FEF7C4B9A5EB65
:10521000860B3046594604F04DFF3B78CBF8000032
:10522000C6F1010605EB8605002B7EF4FAA954F8B9
:10523000043BA5EB09021E1203F07F0392105AF8FB
:105240002330C8F81020FEF7A6B9A5EB860B304630
:10525000594604F003FB3B78CBF80000C6F1010689
:1052600005EB8605002B7EF4DCA954F8043BA5EB86
:1052700009021E1203F07F0392105AF82330C8F877
:105280001020FEF788B9A5EB86052946304602F0C6
:1052900095F93B78002B7EF4C4A954F8043BA5EBA8
:1052A00009021E1203F07F0392105AF82330C8F847
:1052B0001020FEF770B9A5EB86052946304602F0AE
:1052C00029F93B78002B7EF4ACA954F8043BA5EBFC
:1052D00009021E1203F07F0392105AF82330C8F817
:1052E0001020FEF758B9A5EB860B3046594602F060
:1052F000D9F83B78CBF80000C6F1010605EB86052E
:10530000002B7EF48EA954F8043BA5EB09021E1273
:1053100003F07F0392105AF82330C8F81020FEF7EC
:105320003AB9A5EB86052946304602F019F83B78D4
:10533000002B7EF476A954F8043BA5EB09021E125B
:1053400003F07F0392105AF82330C8F81020FEF7BC
:1053500022B9A5EB86052868FDF786FF1728834646
:1053600014DCA8B100232B603B78A5EB0902921056
:10537000002B7EF456A954F8043BC8F810201E12E6
:1053800003F07F035AF82330FEF705B97828E9DCEB
:105390000C229BFBF2F3591F02FB13B3C04A0029F6
:1053A00052F8233042DD0022013291424FEA43039A
:1053B000FADC68680093FDF757FF064603F0FEFA33
:1053C000032296FBF2F202EB420296424FF03C02BD
:1053D0000CBF42F228314FF47A6191FBF6F6564346
:1053E00096FBF0F6092E009BBCDDBBF1000F17D039
:1053F0004FF47A7BB3FBFBF35B004FF0FF3243F0DB
:10540000010305A902200592069300F085FEA54B35
:1054100001221A6000F0D2FFA34B0BFB06001860BC
:10542000A24B1E60FF233B7004239CE7C1D00022E7
:10543000013A91424FEA5303FADBBAE7A5EB86053E
:105440002868FDF711FF44F60C62A0F114019142A7
:1054500013D900232B603B78A5EB09029210002B97
:105460007EF4DFA854F8043BC8F810201E1203F0A5
:105470007F035AF82330FEF78EB800906868FDF776
:10548000F3FE09280646E4DD009B580040F00100C9
:105490004FF0FF3B069005A90220CDF814B000F0B4
:1054A0003BFE804B01221A6000F088FF4FF47A73B4
:1054B00003FB06007C4B87F800B018607B4B1E6036
:1054C0000423C7E7A5EB86052868C20706D404288D
:1054D00004D9036803F00F03042B15D00E233B708F
:1054E00000232B603B78A5EB09029210002B7EF481
:1054F00098A854F8043BC8F810201E1203F07F034C
:105500005AF82330FEF747B801F0D6F90678A6F12D
:105510004103052B23D81E46731CE1D0A868FDF774
:10552000A3FE42F2107398428346D9DC2B680593A0
:1055300005A96B6806930220FCF702FFBBF1090F77
:105540005B4A10DC002342F826305A4A012342F815
:105550002630564A1360FF233B700423C1E7613EA7
:10556000052ED9D9BCE7012342F8263000F026FFEA
:105570004FF47A7202FB0B004F4A42F826004D4A64
:10558000012342F82630494BC3F800B0E3E7A5EB0E
:1055900086052868C60706D4042804D9036803F0E2
:1055A0000F03042B15D00E233B7000232B603B7898
:1055B000A5EB09029210002B7EF433A854F8043BAB
:1055C000C8F810201E1203F07F035AF82330FDF7AD
:1055D000E2BF01F071F90678A6F14103052B24D84A
:1055E0001E46711CE1D0A868FDF73EFE42F2107322
:1055F00098428346D9DC2B68059305A96B6806930E
:105600000220FCF7E3FEBBF1090F294B11DC00225D
:1056100043F82620274B022243F82620234A012361
:105620001360FF233B700423C0E7613E052ED8D9E9
:10563000BBE7012243F8262000F0C0FE4FF47A7346
:1056400003FB0B001C4B43F826001A4B022243F8C5
:105650002620164BC3F800B0E3E7A5EB86052868C3
:10566000C20706D4042804D9036803F00F03042BEF
:1056700024D00E233B7000232B603B78A5EB09025E
:105680009210002B7DF4CDAF54F8043BC8F81020E5
:105690001E1203F07F035AF82330FDF77CBF00BFD2
:1056A000B0B30200C00E0020BC0E00203812002053
:1056B000C80E0020F80E0020E00E002001F0FCF8DB
:1056C0000678A6F14103052B24D81E46731CD2D0C0
:1056D000A868FDF7C9FD42F2107398428346CADC00
:1056E0002B68059305A96B6806930220FCF7DCFD87
:1056F000BBF1090FB14B11DC002243F82620B04B5F
:10570000032243F82620AF4A02231360FF233B7095
:105710000423B1E7613E052ED8D9ACE7012243F856
:10572000262000F04BFE4FF47A7303FB0B00A64BD0
:1057300043F82600A24B032243F82620A14BC3F8CE
:1057400000B0E3E7A5EB86052868C60706D4042861
:1057500004D9036803F00F03042B15D00E233B700C
:1057600000232B603B78A5EB09029210002B7DF4FF
:1057700058AF54F8043BC8F810201E1203F07F0302
:105780005AF82330FDF707BF01F096F80678A6F126
:105790004103052B27D81E46711CE1D02869FDF76F
:1057A00063FD42F2107398428346D9DC2B6805935F
:1057B0006B680693AB68079305A9EB680893042010
:1057C000FCF75EFEBBF1090F7C4B10DC002243F8B6
:1057D00026207B4A7B49042342F8263001220A60B6
:1057E000FF223A70BDE7613E052ED5D9B8E7012208
:1057F00043F8262000F0E2FD4FF47A7303FB0B0020
:10580000714B6F4A43F82600042342F826306D4A54
:10581000C2F800B0E4E7A5EB8605286810F0010B9C
:1058200006D1042804D9036803F00F03042B03D026
:105830000E233B70002325E001F03EF80678A6F128
:105840004103052B31D81E46721CF3D02B680593FB
:105850006B680693AB680793EB68089305A92B69FF
:1058600009930520FCF7BAFE544B002243F826208A
:10587000534B052243F82620524A01231360FF238D
:105880003B7004232B603B78A5EB09029210002BA0
:105890007DF4C7AE54F8043BC8F810201E1203F084
:1058A0007F035AF82330FDF776BE613E052ECBD933
:1058B000C0E7464B00221A60454A05236420136066
:1058C0001EF063FCA5EB8605424E83463060B0B9FE
:1058D000414803F03DFB3B78C5F800B0A5EB090259
:1058E0009210002B7DF49DAE54F8043BC8F81020B4
:1058F0001E1203F07F035AF82330FDF74CBE2A68CE
:10590000D30736D5354952101FF084FDD6F800B0C4
:10591000334E584624F044FB01213060584601F0D4
:1059200051FA05A90590012001F0BCFD284B059016
:105930001B685B0043F00103032005A90693079051
:1059400001F0E8FD274B01221A6000F037FD264BDD
:10595000326800F5C330A03018604FF4FA73534337
:10596000184A03F5C8731360FF233B704FF0040B14
:10597000B1E7104600F0A0FF3060C7E7002E40F30B
:10598000A480104A55F804BC4FF0FF33012E136079
:105990003B702BD11BF0010F35D1BBF1040F32D975
:1059A000DBF8002002F00F02042A2CD1584600F048
:1059B00083FFFDF77FFC034625E000BFC80E0020F3
:1059C000F80E002038120020E00E0020B40E002057
:1059D00048000020587F002086B10200ABB10200D1
:1059E000401200203C120020C40E0020022E0AD1DA
:1059F00055F8080CC10706D4042804D9026802F03F
:105A00000F02042AD3D05A1CA5EB86055DD0022EC6
:105A10003ED11BF0010F34D1BBF1040F31D9DBF8BB
:105A2000002002F00F02092A2BD1DBF804002E1F00
:105A3000C0F34700012181421DDD05EB8005A5EB88
:105A400009029210C8F8102023F0FF0212F5807F9F
:105A500020D11E02B6B2064341483312C6F3072CCA
:105A6000009300EBCC031B79032B3EF42EA80223FA
:105A70003B70FDF7D6BD01315BF8212046F8042FBD
:105A8000D9E70B233B70002345F8043BFDF7C9BD64
:105A90000020D4E7A5EB800529469847314B00222A
:105AA0001A6045F8040B3B78A5EB09029210002B15
:105AB0007DF4B7AD54F8043BC8F810201E1203F073
:105AC0007F035AF82330FDF766BD002345F8043BF9
:105AD0003B78A5EB09029210002B7DF4A2AD54F89F
