:1000000000000220A54B0200E54B0200294F020030
:10001000E94B0200EB4B0200ED4B02000000000038
:10002000000000000000000000000000295602004F
:10003000F14B02000000000049560200F54B02009F
:10004000D5580200E5890100E91C0200759E0000F8
:10005000699E0000F74B0200F74B0200F74B0200CD
:10006000F74B0200E55E0000F74B0200FD8901003E
:10007000F74B0200F1890100F74B0200F74B020039
:10008000F74B0200FD1F0200F74B0200F74B020086
:10009000F74B0200F74B0200F74B0200F74B020050
:1000A000F74B0200F74B0200F74B0200F74B020040
:1000B000F74B0200F74B02000000000000000000B8
:1000C000F74B0200F74B0200F74B0200F74B020020
:1000D000F74B0200F74B0200F74B0200F74B020010
:1000E000F74B0200000000000000000000000000CC
:1000F00000000000F74B020000000000F74B020078
:1001000000000000000000000000000000000000EF
:1001100000000000000000000000000000000000DF
:1001200000000000000000000000000000000000CF
:1001300000000000000000000000000000000000BF
:1001400000000000000000000000000000000000AF
:10015000000000000000000000000000000000009F
:10016000000000000000000000000000000000008F
:10017000000000000000000000000000000000007F
:10018000000000000000000000000000000000006F
:10019000000000000000000000000000000000005F
:1001A000000000000000000000000000000000004F
:1001B000000000000000000000000000000000003F
:1001C000000000000000000000000000000000002F
:1001D000000000000000000000000000000000001F
:1001E000000000000000000000000000000000000F
:1001F00000000000000000000000000000000000FF
:1002000010B5054C237833B9044B13B10448AFF350
:1002100000800123237010BD480200200000000070
:1002200000E2020008B5034B1BB103490348AFF3DA
:10023000008008BD000000004C02002000E2020027
:10024000A3F5803A704700BF174B002B08BF134B34
:100250009D46FFF7F5FF00218B460F461348144AD1
:10026000121A29F07BF80E4B002B00D098470D4B4B
:10027000002B00D098470020002104000D000D48FD
:10028000002802D00C48AFF3008028F0A5FF200022
:10029000290024F04BFC28F08BFF00BF0000080071
:1002A00000000000000000000000022048020020C2
:1002B000548C002000000000000000007047000087
:1002C00010B5064C20680BF0B0FB2068044ABDE86E
:1002D0001040002301210BF0CBBB00BF84020020A3
:1002E000C102000010B5044624F05AFC204610BD9F
:1002F00008B5064B1B6833B10BF072F904490AF0DC
:10030000E0F902F077FB002008BD00BF800200206A
:1003100038040020154A38B551681068144B154C44
:1003200003C30BF07DF905462060042024F034FC63
:10033000114B03600022014628460BF041FB206868
:1003400000210BF03AFB206801210BF02AFB20680A
:1003500000210BF02DFB094A2068002301210BF03E
:1003600087FB074B01221A7038BD00BF40A2020074
:100370003004002084020020CCA20200C102000050
:1003800020040020234B1B7870B50BB9FFF7C2FF88
:10039000214E3568002D3AD015F10B0148BF05F10B
:1003A0000E0100228910032006F0AEF8044620B9A1
:1003B000BDE870400A2002F085BEC30711D40428AE
:1003C0000FD9026802F00F03032B0AD105F00303D3
:1003D000C3F104035B0703F0C04322F0C0421343A0
:1003E00003600E4B0E491B7823710E4B1B78637113
:1003F0000D4B1A689B88C4F8062063812A4604F1D5
:100400000C0028F083FF00233360204670BD2C468B
:10041000FBE700BF20040020240400207C02002011
:1004200090020020280400208902002000F1080327
:1004300073B5044603600D46E1B1084629F0E8F8BB
:100440000F2805EB0006019007D9002201A92046DC
:1004500025F05EFA019B2060A360206832462946A1
:1004600025F089FA019B2268636000212046D1545F
:1004700002B070BD014825F041FA00BF49A2020058
:1004800070B5002888B033DD086810F001022FD164
:1004900004282DD9036803F00F03042B28D10192FF
:1004A00005F086FE054602F083FA0BF099F8124C2F
:1004B00020600AF0DAFA114920680AF0E1FB2668A8
:1004C000294602A8FFF7B2FF02A930460AF06EFCE7
:1004D00002A825F03FFA206820210AF016F92068CA
:1004E00020210AF015F9019A206811460AF014F942
:1004F000002008B070BD00BF80020020380400203A
:1005000008B5084B1B780BB9FFF704FF064B1878AA
:1005100030B100221A70054B1868400040F001000D
:1005200008BD00BF20040020880200202C04002009
:100530002DE9F043084691B00C4609F0C1FE0028B1
:1005400038D0214604A8002209F014FF5B4804A912
:100550000CF0F8FB002878D021460AA809F081FFAA
:100560000B9B102B6ED10A9D2868696802AB03C3F0
:10057000534BDDE90267D3E900239F4208BF96424F
:1005800060D050490B685A1E02F01F0C4E4A9C4521
:1005900049D002EBC300D0E900894F4508BF46456A
:1005A00050D00133584200F01F0003F01F0358BF22
:1005B0004342ECE70190204609F048FE019A0028EA
:1005C00043D0214604A809F01AFF404804A90CF0C2
:1005D000B9FB019A002838D021460AA809F066FF25
:1005E0000B9B0D2B2ED10A9D6968286802AB03C3B3
:1005F00034490B68DDE902675A1E02F01F0C324ACB
:100600009C4550D002EBC300D0E900894F4508BF9C
:10061000464517D00133584200F01F0003F01F0376
:1006200058BF4342ECE702EBCC02C2E90067EB7B28
:10063000274AC1F800C0303B00D5FF231360254B8B
:1006400001221A700AA825F085F9234D2B683BBBBF
:10065000204609F04EFE6428CCBF64232860204663
:10066000C8BF2B6009F043FE2A6801461B4828F0EA
:100670004DFE204609F05DFD194B404218702146A1
:100680000AA809F04BFD0AA809F011FD154B1870D6
:100690000AA809F00BFD144B02681A6082889A8040
:1006A00011B0BDE8F08302EBCC02C2E90067084B51
:1006B000EA79C1F800C01A60C1E700BF3804002021
:1006C0003004002050050020500400206402002067
:1006D0002C04002088020020240400209002002026
:1006E0007C0200202804002089020020024A0348DE
:1006F000042107F061BC00BF0CA3020073A202003A
:100700007FB50C496846FFF791FE69460A480CF030
:100710003CFA684625F01EF908496846FFF786FE50
:10072000694607480CF031FA684625F013F907B01E
:100730005DF804FB77A20200640200209CA2020084
:1007400038040020C30711D404280FD9026802F02E
:100750000F03032B0AD101F00301C1F104035B076E
:1007600003F0C04322F0C0421343036070470246C7
:1007700010F001000FD1042A0ED91368C3F30F1033
:1007800050B1431E9800031D0432115C21B10130A9
:100790008342FAD1704700207047037883B11A066C
:1007A00001D40130704703F0C003C02B08BF0130F3
:1007B000024610460132037803F0C003802BF8D0C4
:1007C000704708B5002103780BB9084608BDFFF74C
:1007D000E4FF0131F7E7014600787F2829DDDF28B3
:1007E00007DC8301487803F4F86300F03F00184306
:1007F0007047EF2808DC4A780303920102F47C6218
:100800009BB288781343F0E7F72810DC4A7883041A
:100810001203C87802F47C3203F4E01300F03F00C6
:10082000134303438878800100F47C60DFE74FF0D6
:10083000FF30704738B5002204460D46411C0920A0
:1008400005F062FE40B16300024643F0010342F846
:10085000043F0023A34200DB38BD55F8231042F8C3
:10086000041F0133F6E7002838B504DC1C20BDE87E
:10087000384002F027BC0C68E20701D40D20F6E7EF
:1008800001281ED04A68D307F8D5B2F5007F4FEA99
:10089000620301D31320EAE71A0442EA03621A430F
:1008A00042EA0322641024EAE474E11C8910032064
:1008B00005F02AFE054610B12146FFF743FF284602
:1008C00038BD0022EEE7012838B504DC1C20BDE865
:1008D000384002F0F7BB0C68E20701D41120F6E7BC
:1008E0004868C30706D4042804D9036803F00F033B
:1008F000042B01D00E20EAE705F05AFC6410002C0E
:10090000054603DDFFF75DFFA04205DA1220DEE7B2
:10091000FFF743FF013C0546012C2846F8D1FFF7BD
:100920005AFF400040F0010038BD01282DE9F3478F
:100930008246884605DC1C2002B0BDE8F04702F084
:10094000C1BB4C6814F0010901D10D20F4E7022865
:1009500002D08B68DA07F8D5D8F80070FB0700F1F1
:10096000B180042F40F2AE803D686410012C05F088
:100970000F02B8BF0124092A2CD17B68BAF1020FFB
:1009800018BFD8F808704FEA63030CBF1F467F10EA
:100990009F42A8BF1F463D1B0135012225EAE57590
:1009A000A918092005F0B0FD064648B16D000346C0
:1009B00045F00105D8F8002043F8045FBC4203DD90
:1009C000304602B0BDE8F087013452F8241043F8F5
:1009D000041FF3E7042A43D1384605F0E9FBFFF78B
:1009E000F0FEBAF1020F16BFD8F80860064676107E
:1009F0008642A8BF0646B44205DD002002B0BDE82D
:100A0000F04705F0FDBD384605F0D2FB05464C45E4
:100A10001FD1384605F0CCFB0746284609F10109ED
:100A2000FFF7BBFE4E45F9DA441B204605F0E8FD12
:100A300006460028C4D005F0BBFB8146D8F800006C
:100A400005F0B6FBED1B41192246484628F05EFC36
:100A5000B6E72846FFF7A1FE09F101090546D6E7EA
:100A6000032A2FD1BAF1020FC5F30F12C5F3417556
:100A7000C5EB820216BFD8F8085015466D10954296
:100A8000A8BF1546AC4207DD00221146032002B084
:100A9000BDE8F04705F038BD2D1B291D48BFE91DF5
:100AA00000228910032005F02FFD0646002887D07C
:100AB0006A1C11460192FFF745FEE11C019A394478
:100AC0000430C3E7212037E70028F8B504DC1C20F8
:100AD000BDE8F84002F0F6BA0D6815F0010713D032
:100AE000B5F5007F4FEA650601D31320F0E7002239
:100AF0000121032005F008FD044618B10121FFF78C
:100B000021FE06712046F8BD042DEED92B6803F0B6
:100B10000F03042B1AD12846FFF729FEC11C48BF3A
:100B2000811D064600228910032005F0EDFC0446D5
:100B30000028E7D03146FFF705FE284605F038FBD0
:100B400032460146201D28F0E1FBDBE7092B1FD1CF
:100B50006E687610F11C48BFB11D00228910032079
:100B600005F0D2FC04460028CCD03146FFF7EAFD60
:100B70000435021DB742C5DA55F8043FD90705D53B
:100B8000B3F5007F4FEA6301AFD2D1550137F1E7EA
:100B9000032BAAD12C46B5E7486838B5C3070D46E4
:100BA00006D4042804D9026802F00F03092B04D0EC
:100BB000BDE838400B2002F085BA4368C2F30F123B
:100BC000511EB1EB630F4FEA630411D80B2C4FF0A9
:100BD000030304DD94FBF3F3642BA8BF642399188B
:100BE00005F0D0FC0368C3F30F13013B9C4208D20D
:100BF000A31C013464002A6840F8232044F0010457
:100C00004460002038BD01282DE9F84304DC1C2095
:100C1000BDE8F84302F056BA02284E680CD08C6842
:100C2000E20709D56410012CB8BF0124F30705D5EC
:100C30004FF0FF30BDE8F8830124F7E7042EF7D921
:100C400033680D6803F00F02042A30D1EF0706D491
:100C5000042D04D92B6803F00F03042B01D00E20C0
:100C6000D6E73046FFF783FDA042E1DB304605F0D2
:100C70009FFA0646284605F09BFA03780146002BAA
:100C8000D6D0601E304428F0DEFC04460028CFD0C9
:100C9000012133780BB1A64203D3480040F0010094
:100CA000C8E73046FFF779FD06460131F1E7092A2A
:100CB00038D17368B4EB630F4FEA6309B8DCE80717
:100CC00028D4042D26D92B6803F00F03042B21D13F
:100CD000284605F06DFA80462746013456F8240070
:100CE000854201D17800D9E7C1070ED404280CD978
:100CF000036803F00F03042B07D105F059FA0146EE
:100D0000404628F073FC0028ECD04C45E4DD8FE72A
:100D10004C458DDC2046013456F82430AB42F7D1E7
:100D20004000BBE7032A83D1C3F30F18C3F3417319
:100D3000C3EB880844453FF77BAFEA0706F104039D
:100D400027D4042D39D92B6803F00F02032A16D1BA
:100D5000C3F30F10C3F341732F1DC3EB8000A8EB47
:100D600000083B18013C033644453FF761AF311999
:100D70003A469A42104622D328D1601CD0E7042A72
:100D80001BD1284605F014FA07462846FFF7EFFC6A
:100D9000E5E7B5F5007F4FEA650201D3282037E784
:100DA000013C44453FF744AF195D914204F1010411
:100DB000F7D1640044F001003CE70F2028E711F868
:100DC000015F0078854202F10102D2D00134CBE705
:100DD00001282DE9F047884604DC1C20BDE8F047D7
:100DE00002F070B90868C20706D4042804D9036861
:100DF00003F00F03042B01D00E20EFE74B6813F034
:100E00000109F9D1042BF7D91B6803F00F03042B58
:100E1000F2D105F0CDF90446D8F8040005F0C8F980
:100E2000074628F0F5FB064678B92046FFF7C9FCCF
:100E300005460122A918092005F066FB374B18600A
:100E40009A4690B90020BDE8F0873946204628F040
:100E5000FAFB231A5D425D41204639463044013594
:100E600028F0F1FB0028F8D1E3E76B0043F0010321
:100E70004360D6B92046FFF790FC4D45064602DC9C
:100E8000DAF80000DFE7311B204605F0C1FB00283F
:100E9000D8D0DAF8003003EB890334469860304646
:100EA000FFF77BFC09F10109E7E7012D03D1D8F831
:100EB00000308360C7E73946204628F0C4FB4FF076
:100EC00001088146B9F1000F16D04545D8DBA9EBE2
:100ED0000401204605F09CFB0028B3D0DAF800306E
:100EE00008F1010809EB060443F8280039462046BA
:100EF00028F0A9FB8146E5E74545C1DB204628F0FF
:100F000087FB0146204605F083FB00289AD0DAF8DB
:100F1000003008F1010843F82800B1E7B41B0020B5
:100F200008B505F029F9400040F0010008BD7F290F
:100F300002DC00F8011B7047B1F5006F0CDA0346C4
:100F40008A1162F03F0203F8022B01F03F0161F0C9
:100F50007F01417018467047B1F5803F0FDA0B13DF
:100F600063F01F030370C1F3851301F03F0163F0C9
:100F70007F0361F07F014370817003307047B1F5EA
:100F8000883F0DDAF0230370902343708B1101F03A
:100F90003F0163F07F0361F07F018370C170043013
:100FA0007047000010B5094C002220600221092082
:100FB00005F0AAFA226820B9BDE810400A2002F024
:100FC00081B80321C0E9011210BD00BFB41B00208D
:100FD00038B5C30709D5B0F5007F4FEA600507D3E0
:100FE0001320BDE8384002F06DB8051E18BF01257A
:100FF00000220121032005F087FA08B90A20F0E752
:101000000121FFF79FFB057138BD07B510F0010105
:1010100004D04110084603B05DF804FB042813D93E
:10102000026802F00F02042A09D1019105F0C0F80C
:1010300001990A2203B05DF804EB28F0A1BB032A52
:1010400002D10A220430F5E70D20019102F03AF8AE
:101050000199DFE70128F8B507460E4604DC1C209D
:10106000BDE8F84002F02EB80868FFF7CEFF05464D
:101070007068FFF7CAFF022F044606D0B068FFF77A
:10108000C4FF061E02DC2920EAE70126A542D5BFDF
:10109000641B2C1BB4FBF6F4B4FBF6F4D4BF013490
:1010A00001344FF0000204F101014FF00900C8BF04
:1010B000764205F029FA80B16300024643F001034D
:1010C00042F8043F6D00730002EB840445F0010117
:1010D00042F8041F94421D44F8D1F8BD00282DE9C0
:1010E000F3410F4603DC1C2001F0ECFF16E00C6816
:1010F00014F0010506D1042C1DD9236803F00F0359
:10110000042B0DD12046FFF780FF6C460146204698
:10111000FFF70DFF011B204605F07AFA044634E084
:10112000092B08D166684FF001087610B04504DD40
:1011300001F0CEFFE0B12A20D6E708F1010854F80B
:101140002800FFF762FF7F280CDDB0F5006F0BDB96
:10115000B0F5803F0ADBB0F5883FACBF0023042325
:101160001D44E3E70123FBE70223F9E70323F7E745
:10117000284605F045FA044638B1D7F8008005F056
:1011800017F801270546B74203DD204602B0BDE847
:10119000F081013758F82700FFF737FF014628464E
:1011A000FFF7C5FE0546EEE710B5044611F0010055
:1011B00011D104290ED90A6802F00F02042A09D1BC
:1011C000084604F0F5FF0146204628F00FFAB0FA71
:1011D00080F0400910BD0020FCE700000128F8B5B0
:1011E0000E4604DC1C20BDE8F84001F06BBF4D68E2
:1011F000EA0706D4042D04D92B6803F00F02092A4C
:1012000001D00B20EFE76A680968C3F30F13B3EB53
:10121000620F4FEA620498BF03F1FF3411F0010737
:101220000DD0481000283CDD84423ADB2B1D84425F
:1012300019DD013053F8202045F82020F7E71A483F
:10124000FFF7B2FF40B10123BC4201DA0020F8BD34
:10125000013745F82730F7E731681448FFF7A4FF56
:1012600050B1002CF2D00122631C013C9440144385
:1012700045F823206C60E9E73068C3070FD40428E1
:101280000DD9036803F00F03042B08D1FFF7BDFE4F
:101290000028C8D131680648FFF786FF08B9112039
:1012A000A1E712209FE700BF2CA3020030A3020099
:1012B000C2BC0200002310B50B70C3070C4606D554
:1012C0000E4942102046BDE8104023F0D7BB28B994
:1012D0000B492046BDE8104028F06CB9042801D124
:1012E0000849F6E709D9036803F00F03042B04D17A
:1012F00004F05EFF04490246E4E710BD41A9020084
:10130000C2BC0200A3B0020035A302002DE9F043E5
:1013100001288FB080460E4607DC1C2001F0D2FE6B
:10132000054628460FB0BDE8F0830B6813F00104B2
:1013300040F0AE80042B40F2E2801B6803F00F0304
:10134000092B48D1274656F8273013F0010906D15A
:10135000042B04D9186800F00F00092803D02220BC
:10136000DCE71F46EFE75B6804EB63047B1C9845F2
:10137000F7D10122A11805F0C7F8054608B90025E4
:10138000CFE7640044F001044460494600F10804DA
:1013900056F821301868D3F804C0C0F30F10B0EB32
:1013A0006C0F4FEA6C0203F1040398BF00F1FF32A7
:1013B0000020824209DC22EAE2728F4204EB8204BE
:1013C00001F10103ADDD1946E2E753F804CF44F81B
:1013D00020C00130EDE7032B40F09180274656F8FE
:1013E0002700C507BBD40428B9D9036803F00F024E
:1013F000032A3CD1C3F30F12C3F34173C3EB82033F
:101400001C447B1C984530D1E11C48BFA11D002223
:101410008910032005F078F805460028AFD0214652
:10142000FFF790F94FF0000800F1040956F8284042
:10143000E10723D4042C21D9206800F00F03032BEB
:101440001CD1C0F30F13C0F34170C0EB8300033411
:101450000023834216DB0028A8BF8144474508F1DA
:1014600001037FF75EAF9846E0E71F46B7E7042A1F
:101470007FF475AFFFF77BF90444C2E72046FFF71E
:1014800076F9E4E714F8012F09F803200133E0E7C7
:1014900000252C4656F82500C20732D4042830D93E
:1014A000036803F00F02042A32D1FFF760F9044405
:1014B0000135A845EED1204605F0A2F805460028E2
:1014C0003FF45DAF041DB14606EB880859F8046B84
:1014D000F30728D4042E26D9336803F00F02042A18
:1014E00034D13046FFF743F90746304604F060FE3A
:1014F0003A460146204627F009FF3C4421E02546B4
:10150000C8E701A9FFF7D6FE01A828F081F8CEE7C9
:10151000032A7FF424AFC3F30F12C3F34173C3EB69
:1015200082031C44C4E701A93046FFF7C3FE01A8AB
:1015300028F06EF801A906460246204627F0E6FE8E
:101540003444C845C2D100232370EAE6032AF8D107
:10155000C3F30F17C3F34173C3EB87073A46311D3B
:10156000C8E700002DE9F04F002893B00E4607DCD5
:101570001C2001F0A7FD0446204613B0BDE8F08F03
:101580000C6814F0010906D1042C04D9236803F077
:101590000F03092B01D00B20EBE763684FEA6308C8
:1015A000B8F1000F03DC484605F02AF8E3E701280C
:1015B00027D04868C20724D4042822D9036803F03E
:1015C0000F03042B1DD104F0F3FD0546284628F037
:1015D0001FF8043408F1FF330746019303FB00FBB7
:1015E00004EB880A54F8040FC3076BD4042869D9A4
:1015F000026802F00F01042905D1FFF7B8F883440F
:101600000AE0354DE2E7032963D1C2F30F11C2F3BB
:101610004172C2EB81029344A245E3D1584604F0E3
:10162000EFFF04460028A7D0D6F800A01FB17068CD
:1016300004F0BEFD0546204604F0BAFD0AF1040A96
:1016400006465AF804BF584604F0B2FD1BF00103E9
:101650000146029302D1BBF1040F04D805A95846F4
:10166000FFF728FE05A90846039127F0D1FFDDE921
:10167000023102468BB9BBF1040F0ED9DBF8000032
:1016800000F00F0CBCF1030F01BFC0F30F12C0F349
:1016900041700BF10401C0EB82023046029227F048
:1016A00035FE029A164447B1019B4B4505DD304695
:1016B0003A46294627F02AFE3E4409F10109C84569
:1016C000BFD159E705A9FFF7F5FD05A827F0A0FF51
:1016D00095E704F06DFDF9E7A1C502002DE9F041A1
:1016E000012888B003DC1C2001F0ECFC5EE00C68F3
:1016F000E30730D4042C30D9266806F00F0648687A
:1017000004F056FDB349074627F070FFB2490028A0
:1017100038460CBF01254FF0FF3527F067FFAF4972
:101720000028384608BF022527F060FFAC49002892
:10173000384608BF042527F059FFAA490028384633
:1017400008BF092527F052FF002800F0EA816F1C2E
:1017500005D13020C8E70226D1E70126CFE7013EB8
:10176000082E17D8DFE816F0090024007301530093
:101770001600160016001600CF00023D072D09D8EE
:10178000DFE805F004410C080808083D042C0CBFF4
:1017900003240124204608B0BDE8F0819248934B11
:1017A0000121042C18BF184604F032FF0446F1E76B
:1017B000013D082DEED801A353F825F0E1170000F4
:1017C0009517000007180000E917000095170000A2
:1017D000951700009517000095170000FF170000EF
:1017E000630835D00424D5E781496210684623F0A8
:1017F00045F9684627F00CFF01466846D4E72046C5
:10180000FFF7D0FBD2E72046FFF7E2FBCEE7013D32
:10181000082DBFD801A353F825F000BF41180000E0
:1018200055180000C118000095170000951700001A
:101830009517000095170000951700006318000029
:10184000204604F0B5FC694927F0D0FE0028C9D134
:1018500000249FE72046FFF7D8FB400040F001043A
:1018600098E7204604F0A4FCFEF7ABFF614D411C55
:101870000646002209202C6004F046FE044608B902
:101880000A2031E70746730043F00103286847F850
:10189000043F04F08DFC4FF00008054646457FF7F5
:1018A00079AF2846FEF797FF400040F0010047F867
:1018B000040F2846FEF771FF08F101080546EDE721
:1018C000204604F075FC27F0A3FE4A4DC11C0646D5
:1018D0000022891003202C6004F016FE0446002824
:1018E000CED02D683146FEF72DFF284604F060FC6F
:1018F000E21C00239E427FF74DAFC15C02F8011F3E
:101900000133F7E7032566686B1E7610032B3FF65D
:1019100041AFDFE803F00212713A012E0BD1A46847
:10192000E00708D4042C7FF635AF236803F00F03DB
:10193000012B3FF42FAF2D20D6E6012E03D1A46852
:10194000E1073FF527AF2C20CEE6013754F82700FA
:10195000FFF75BFB7F2812DDB0F5006F11DBB0F500
:10196000803F10DBB0F5883FB4BF2B46002398447E
:10197000BE42EADA01F0ACFB58B12A20B4E60123FA
:10198000F5E70223F3E70323F1E701274FF000080F
:10199000EEE7184D40462C6004F032FE2F680446F6
:1019A00000283FF455AF04F003FC0125AE42FFF6DA
:1019B000F1AE013557F82530DA0701D4272093E638
:1019C000B3F5081F4FEA630101D331208CE6FFF71E
:1019D000AEFAEBE73EA3020046A302004DA30200CD
:1019E00054A3020059A30200A3B00200C2BC02002B
:1019F00041A90200B41B0020F11C48BFB11D554D88
:101A00000022891003202C6004F07EFD044600288B
:101A10003FF436AF31462D68FEF794FE021D6FF09D
:101A2000030005F10803001B11188E427FF7B2AEC8
:101A300053F8041BCD07C1D5B1F5007F4FEA61050E
:101A400001D3132050E602F8015BEDE73546266826
:101A5000013DC6F30F13C6F34176C6EB8306082D8E
:101A60003FF698AE01A353F825F000BF911A00008D
:101A7000A11A000095170000AB1A0000951700008E
:101A8000951700009517000095170000DF1A000059
:101A9000012E7FF450AF2379002B7FF4A3AED7E65D
:101AA000012E7FF450AF2079D7E62A4D30462C60C6
:101AB00004F0A6FD2B68044600283FF4E1AE1A1D91
:101AC000C3F1FF2303F57F03C11CFC33D018B042E0
:101AD000BFF660AE12F8010B01F8010FF6E71D4DDD
:101AE0000022711C09202C6004F00EFD2B680446B6
:101AF00000283FF4C5AE0146720042F0010241F8F1
:101B0000042F6FF00202D81CD21A13189E427FF7DE
:101B100041AE10F8013F5B0043F0010341F8043F80
:101B2000F3E7731E082B3FF635AE01A252F823F0FF
:101B300007180000071800004D1A0000C118000027
:101B400095170000951700009517000095170000E5
:101B500005190000B41B0020021E10B513DD0B6830
:101B600013F001041CBF5C1024EAE474012A00D0C5
:101B70004A68611C092004F0C7FC18B1640044F0F5
:101B80000104446010BD00240122F2E70A6812F04B
:101B9000010038B53AD1042A38D91368496803F0EE
:101BA0000F04092C1AD15568C3F30F13B3EB650F5B
:101BB0004FEA650498BF03F1FF34151D844205DC2C
:101BC00001330220984205DB002038BD45F8041F90
:101BD0000130F3E742F820100130F3E7032C15D170
:101BE000C80704D4BDE83840132001F06BBAB1F542
:101BF000007F4FEA6100F5D20432C3F30F1302EB0A
:101C000083039A42E0D202F8010BFAE70B2001F0BD
:101C100059FAD9E72DE9F0414E6816F001078846D8
:101C20002BD1042E29D9326802F00F03092B14D1CD
:101C30007368C2F30F12B2EB630F4FEA630500D86B
:101C4000551ED8F8008018F0010F1AD04FEA68042A
:101C5000002C1CDDA54223DA19E0042B04D1304608
:101C6000FEF785FD0546ECE7032B08D1C2F30F1301
:101C7000C2F34172C2EB8305E3E70025E1E73D468D
:101C8000DFE734484146FFF78FFAC0B10DB91220A3
:101C90002FE027F0DDFB90FBF5F303FB15035C1C45
:101CA000002F54D1042E52D9336803F00F03092BAF
:101CB00025D1013456F824402046BDE8F08126485D
:101CC0004146FFF771FAC0B9B8F1040F10D9D8F83E
:101CD000003003F00F03042B0AD14046FFF795F9BB
:101CE000041EB6D11D484146FFF75EFA0028CED14A
:101CF0001120BDE8F04101F0E5B92C46D0E7042BF6
:101D00001DD1304604F054FA012C05460FDCFEF7D5
:101D100044FD461B304604F073FC04460028CBD03B
:101D200004F046FA3246294627F0F0FAC4E72B7849
:101D3000013C002BABD02846FEF72FFDE4E7032B38
:101D400005D13444E478640044F00104B4E70B2086
:101D5000CFE700BF64A3020030A30200C2BC0200B0
:101D60002DE9F0414C6814F00106884632D1042C6C
:101D700030D923688F6803F00F02092A15D16268F1
:101D8000C3F30F13B3EB620F4FEA620500D85D1E79
:101D9000D8F800103748FFF707FA98B3236803F024
:101DA0000F03092B20D1012319E0032A12D1FA07CE
:101DB00004D41320BDE8F04101F084B9B7F5007FE9
:101DC0004FEA6706F5D2C3F30F15C3F34173C3EBB4
:101DD0008505DDE70B20EDE7013344F823709D42D4
:101DE000FADA0020BDE8F081032BFAD1E31CC4F13C
:101DF000FF2404F57F04FE34E218AA42F1DC03F864
:101E0000016FF9E7D8F8008018F0010F0ED04FEA03
:101E10006800002822DD854220DB236803F00F03E1
:101E2000092B21D1013044F82070DAE712484146ED
:101E3000FFF7BAF9B0B9B8F1040F11D9D8F80030EA
:101E400003F00F03042B0BD14046FFF7DEF8002808
:101E5000E0D10A484146FFF7A7F908B11220A9E7E7
:101E60001120A7E72846D8E7032B04BF2418E67003
:101E7000B7E700BF2CA3020030A30200C2BC0200DF
:101E8000086808B5C3071BD4042819D9036803F0F0
:101E90000F02092A01D1406808BD032A09D1C3F302
:101EA0000F12C3F34170C0EB8200400040F001000C
:101EB000F2E7042A04D104F07BF9FEF782FCF4E790
:101EC0000120E9E7024A03480F2106F075B800BF78
:101ED00000A402006BA302001FB500210E2003F036
:101EE000D1FE01210D2003F0CDFE01210F2003F0D2
:101EF000C9FE0A4808F044F84FF0805301930023CC
:101F0000039302238DF8083004AB13E90E00034855
:101F100005B05DF804EB08F049B800BF3C30002084
:101F2000086810B50C46C10706D4042804D9036814
:101F300003F00F03042B04D0BDE810400E2001F085
:101F4000C1B804F035F90278A2F14103052B03D999
:101F5000A2F16103052B01D85A1C01D1206810BDE4
:101F6000054AD25C0E2A01BF044AD05C400040F012
:101F7000010018BF0120F2E70400002060050020E6
:101F8000086810B50C46C10706D4042804D90368B4
:101F900003F00F03042B04D0BDE810400E2001F025
:101FA00091B804F005F90278A2F14103052B03D999
:101FB000A2F16103052B01D85A1C01D1206810BD84
:101FC000034A32F81300400040F00100F7E700BF79
:101FD0005405002010B500220621032004F094FAD5
:101FE00020B9BDE810400A2001F06CB8C30709D43D
:101FF000042807D9036803F00F02032A04BF43F043
:10200000C0430360054AC31C00F1180112F8014BDC
:1020100003F8014F8B42F9D110BD00BFEA05002043
:102020002DE9F04102230F4683420EDA57F82320B0
:10203000D50707EB830405D40D2001F043F8206891
:10204000BDE8F0810133DBB2EEE7386810F001063D
:1020500006D1042804D9036803F00F03042B04D02D
:10206000BDE8F0410E2001F02DB804F0A1F805788C
:10207000A5F14103052B77D81D46681C77D0484B46
:102080005B5D0A2B40F08A80464A15236B43D118CA
:10209000E320D0544D70BC686410C4EB042414F1E8
:1020A000630F904665DB642394FBF3F4FF2CA8BF19
:1020B000FF24FA685210C2EB022212F1630F5ADBBE
:1020C000642392FBF3F2FF2AA8BFFF223B695B1057
:1020D000C3EB032313F1630F4FDB642193FBF1F395
:1020E000FF2BA8BFFF237868C10748D4042846D92E
:1020F000016801F00F01042941D1152101FB05817F
:10210000E4B2D2B2DBB28C70CA700B714C718A71BE
:10211000CB710C724A728B72CC720A734B730121B1
:10212000102023F0B3F80021102023F0EDF81E4C0E
:10213000FFF7D2FE152303FB058515F8011B20468A
:10214000013607F040FF152EF7D1174807F03AFF88
:102150000121102023F0D8F8144B4FF47A5043F0AB
:102160000103984704206BE7613D052D85D9386848
:1021700066E700249DE70022A8E70023B3E74110AB
:10218000013903293FF65CAF01EB4100152101FB4A
:10219000058101448C70CA700B71C0E700204FE7C5
:1021A00004000020660500203C300020F0A402005E
:1021B00010B5FC23064A0370811D034612F8014B3B
:1021C00003F8014F8B42F9D1024B1B7DC37110BD47
:1021D00004000020EA05002070B50121102023F042
:1021E00055F80021102023F08FF8FFF775FE0E48F8
:1021F0000E4DE22107F0E7FE0124295D0A48013473
:1022000007F0E1FE152CF8D1074807F0DBFE10209F
:10221000012123F079F8064BBDE870404FF47A5065
:1022200043F00103184700BF3C300020100000209D
:10223000F0A402004B68D80710B50C4604D40D205A
:1022400000F040FF606810BD0868C10706D404288C
:1022500004D9036803F00F03042B04D0BDE8104039
:102260000E2000F02FBF03F0A3FF0278A2F141037C
:10227000052B03D9A2F16103052B01D85A1C01D10A
:102280002068E0E70A4AD25C082A0ED1094A616850
:1022900003EB4303134400225A709A70A1F34802DF
:1022A000DA70FFF799FF0420CDE70020CBE700BFED
:1022B00004000020100000204B68D80710B50C4621
:1022C00004D40D2000F0FEFE606810BD0868C10750
:1022D00006D4042804D9036803F00F03042B04D0A8
:1022E000BDE810400E2000F0EDBE03F061FF027863
:1022F000A2F14103052B03D9A2F16103052B01D8FB
:102300005A1C01D12068E0E70A4AD25C013A052A4A
:102310000ED8094A616803EB4303134400225A7044
:102320009A70A1F34802DA70FFF756FF0420CCE759
:102330000020CAE704000020100000204B68D807E6
:1023400010B50C4604D40D2000F0BCFE606810BD32
:102350000868C10706D4042804D9036803F00F03F2
:10236000042B04D0BDE810400E2000F0ABBE03F0FB
:102370001FFF0278A2F14103052B03D9A2F16103EB
:10238000052B01D85A1C01D12068E0E7104AD25C25
:10239000013A052A1AD8626852100BD0642A6FF0ED
:1023A0006301A8BF64228A42B8BF0A46032192FB98
:1023B000F1F25A32074903EB43030B4400215970F1
:1023C0009970DA70FFF708FF0420C0E70020BEE72D
:1023D000040000201000002038B54B68DC070D46D3
:1023E00005D58B68D80702D5CB68D90704D40D2052
:1023F00000F068FE002055E0286810F0010406D1C6
:10240000042804D9036803F00F03042B04D0BDE8AB
:1024100038400E2000F056BE03F0CAFE0378A3F148
:102420004102052A3AD813465A1C3AD0686840102F
:10243000C0EB002010F1630F35DB642290FBF2F05B
:10244000FF28A8BFFF20AA685210C2EB022212F197
:10245000630F2ADB642192FBF1F2FF2AA8BFFF225F
:10246000E9684910C1EB012111F1630F05DB642418
:1024700091FBF4F4FF2CA8BFFF240D49C95C072988
:1024800001D00929B6D10B4903EB43030B44587023
:102490009A70DC70FFF7A0FE042003E0613B052B7F
:1024A000C2D9286838BD0020CDE70022D8E700BF98
:1024B000040000201000002000EB400303481844F3
:1024C000002343708370C370FFF786BE10000020A6
:1024D0002DE9F04F7F4B804C18689B887F4E89B068
:1024E000012100901020ADF8043022F0CFFE002131
:1024F000102022F009FFFFF7EFFC7848DE2107F0FB
:1025000062FD01252070FF21304607F05CFD60551B
:102510000135152DF7D17148714D724F07F052FDFD
:102520001020012122F0F0FE6F4BE2781A706279E0
:102530005A70E2799A70627ADA70E27A1A71627B82
:102540005A716A48002303269C46018815F8012B1E
:1025500002EB4102B2F53C7FB2FBF6F420F8024BED
:1025600020DD0DF803C00133062BEED16049614E2A
:1025700008786A463546002412F8017B95F800C0B9
:1025800005F8017B67451CBF01240020013BF3D106
:1025900004B108700B78132B14D801330B7009B0F9
:1025A000BDE8F08F0122D15D01F1060E744505DC16
:1025B00006398C4202DB0DF80320D4E701321A2AD7
:1025C000F1D1D0E7142BEAD1152202AC0A702046D3
:1025D000002126F0C3FEE1238DF808304648474924
:1025E00000231D461F464FF0010C4FF0050E4FF023
:1025F00004084FF003094FF0060A16F8012B0AB140
:102600001F2A37D10F700270012510F8012B02F13B
:10261000FF3BBBF1010F03F1010334D804F803C001
:10262000062B01F10101E8D1002DB8D001211020C5
:1026300022F02CFE0021102022F066FEFFF74CFC59
:10264000264E002514F8011B3046013507F0BBFC6F
:10265000152DF7D1214807F0B5FC0121102022F0FB
:1026600053FE274B4FF47A5043F0010309B0BDE805
:10267000F04F184791F800B0BBF1000FC5D10270C0
:1026800081F800C0C0E7A2F1030BBBF1030F02D831
:1026900004F803A0C4E7072A01D0092A03D14FF0A8
:1026A0000202E254BCE70A2A02D104F80390B7E719
:1026B000A2F10B0BBBF10A0F02D804F80380AFE7BD
:1026C000082A02D0163A032A02D804F803E0A7E742
:1026D000E754A5E778A40200EA0500203C3000207A
:1026E000F8050020D4A40200600500205405002055
:1026F000FF0500200A00002004000020E40500205F
:10270000F0A40200F0B587B01522FF21684626F03C
:1027100025FEDF23012110208DF8003022F0B6FDC8
:102720000021102022F0F0FDFFF7D6FB0D4E6C4685
:102730001525002714F8011B0B4807F044FC013D48
:1027400006F8017BF6D1084807F03CFC0121102077
:1027500022F0DAFD054B4FF01F321A609A8007B065
:10276000F0BD00BF100000203C3000200A00002017
:10277000024A0348082105F01FBC00BF94A40200D0
:10278000CFB70200014A1360704700BF3C0E002023
:10279000704710B5044622F003FA204610BD000031
:1027A00008B5084609F08DFB0022114607F0B4FF7A
:1027B000034B4FF6FF721A80024B00221A6008BDCD
:1027C000260000200406002010B50846144609F033
:1027D00078FB08F041F9034B228C1A80024B01224E
:1027E0001A6010BD2600002004060020F0B5104E2F
:1027F00085B0002201A808F0B1FB3468BDF80A508A
:10280000019FC4F50062954204DD0A480368013364
:102810000360154608482A463946204426F076FDCE
:102820002C443846346020F0EAFF05B0F0BD00BF0C
:10283000340E0020440E00200806002010B5034B83
:102840000360044608F0CAFA204610BDA0A50200A5
:1028500010B50446FFF7F2FF204622F0A1F920460A
:1028600010BD10B5044603F0FBF9044403F0F8F979
:10287000A04207D206F052F904F03EFB01201FF0FF
:102880005DFBF3E710BD00F1080373B50360044678
:1028900008460D4626F0BCFE0F2805EB0006019009
:1028A00007D9002201A9204623F032F8019B2060BD
:1028B000A36020683246294623F05DF8019B226818
:1028C000636000212046D15402B070BD4FF08052A9
:1028D000136E4371190A0171190C1B0EC1708370BC
:1028E000536E43701B0A03707047000037B5002415
:1028F00068460094ADF80440FFF7E8FFBDF80430E7
:102900000E495BBA1A209BB2B3FBF0F200FB123304
:102910004133B2FBF0F50B7000FB1522B5FBF0F371
:1029200000FB1350413088700548CC7041324A702A
:1029300003B0BDE8304026F063BE00BF00060020B3
:10294000090E0020F8B5134E33780BB3124D134C1B
:1029500028682188124F132209F0B5FA4FF6FF7349
:102960002380104B286800241C600F4B1C7009F05A
:10297000A8FA08F071F839682868224609F0FCFCCA
:10298000204608F049FF094B2C603C601C60347005
:10299000F8BD00BF080E0020400E002026000020D9
:1029A000480E002004060020300E0020380E0020C3
:1029B00010B50E4C20688CB0B0B109F082FA08F066
:1029C0004BF8206809F07DFA094904466846FFF78C
:1029D0005AFF694606A80AF0D8F8204606A907F06B
:1029E00070FE684622F0B6FF0CB010BD400E00200D
:1029F000F6A4020010B5154B1B6886B01BB308F097
:102A0000EFFD044608F031F81149204608F054F96A
:102A100010496846FFF737FF6946204608F0C6F9B7
:102A2000684622F097FF6421204607F06EFEC82119
:102A3000204607F06DFE084B1B7823B1002211469B
:102A4000204607F069FE06B010BD00BF400E002012
:102A5000F6A40200090E0020300E0020F0B53E4D15
:102A60002B7887B0002B75D1FFF740FF3B493C4ED8
:102A70003C4F6846FFF707FF684608F03DFE684692
:102A800022F068FF08F090FD04463060042022F038
:102A900083F8354B036001460122204609F01CFAF9
:102AA00032493068324E09F034FC1022314930602E
:102AB0004FF400730AF028F82F4B044618600420E6
:102AC00022F06AF801460760204608F08FFB4FF4B9
:102AD00000730422294930680AF016F804460420DD
:102AE00022F05AF801460760204608F07FFB306864
:102AF0001A4F09F09BFE224A01232B701370FFF737
:102B000079FF164826F084FD03260546041FA542DA
:102B10001CD00121381903F07BFD6946009001208B
:102B200004F0E8F86946CDE900060320029604F0B7
:102B300019F94FF42F70FFF794FE6946002003F057
:102B4000DDFE6420FFF78DFE0134E0E769460020DA
:102B500003F0D4FE07B0F0BD080E0020090E0020DF
:102B6000400E0020A0A5020070A50200F6A40200FD
:102B7000480E00201BA50200380E002040A50200D0
:102B8000300E0020014B1868704700BF040600207B
:102B9000012070472DE9F043464D2B6887B006466B
:102BA0000C46002B49D044481EF094FF022862DDF9
:102BB00005201FF0C3F940481EF08CFF1428024680
:102BC00001A9A8BF14223C481EF037FF01AB002228
:102BD000023890424FDD13F8011BFA2902F101027D
:102BE000F7D119781A29F4D15F78002FF1D1DFF8E5
:102BF000D890DFF8D880B9F80010D8F80000132278
:102C000009F061F94FF6FF73A9F800302B4BD8F8A3
:102C1000000019683A4609F0AFFB294B2F601F707E
:102C200025481EF057FF844222463146A8BF02467F
:102C300021481EF002FF044637E0DFF8848098F850
:102C40000030002BECD105F02BFD074698B9DFF8DA
:102C50007C90D9F8000070B1184B196809F06EFB30
:102C6000D9F8000009F02DF93A46394607F054FD2D
:102C7000012388F800302B68002BD1D0114F3D681C
:102C8000AC42A8BF2C4684B1DFF8448022464146BE
:102C900030462D1B26F03AFB002D05DD2A4608EBB9
:102CA0000401404626F032FB3D60204607B0BDE8F7
:102CB000F08300BF04060020505A0020480E002078
:102CC000300E0020340E002026000020400E002090
:102CD000080600200B462DE9F341D41A1B4B1B6854
:102CE000411833B91A48224602B0BDE8F0411EF03F
:102CF0000DBE184D019102F0B3FF2B680199984267
:102D00003CBF00232B602B68C31A132B06461BD92C
:102D1000002C19DDFA2CDFF844800F4FD8F80000A2
:102D2000A8BFFA24002322463B6008F067FAD8F8CF
:102D3000000008F057FA3B682E60002B18BF0024F3
:102D4000204602B0BDE8F0810024F9E70406002027
:102D5000505A00202C0E00203C0E0020380E00207F
:102D600008B505481EF08EFEBDE8084002484FF445
:102D7000E1311EF075BE00BF505A0020037883B1C8
:102D80001A0601D40130704703F0C003C02B08BFFE
:102D90000130024610460132037803F0C003802B55
:102DA000F8D0704773B50646084611F00101144685
:102DB00027D1042842D9036803F00F03042B3DD127
:102DC000D30714D4042A39D9136803F00F03042B52
:102DD00034D103F0EDF90546204603F0E9F9014648
:102DE000284626F003FC002830DB21D129E00191A0
:102DF00003F0DEF901990A2226F0C2FC05466410B0
:102E000013E012F0010117D1042A17D9136803F057
:102E10000F03042B12D145101046019103F0C8F99D
:102E200001990A2226F0ACFC0446A5420EDB08DD1F
:102E3000002E09DC00200CE04510E0E7064B0F22D5
:102E40001A700136022EF5D8042002E0701700F047
:102E5000040002B070BD00BF700E002007B510F076
:102E6000010104D04110084603B05DF804FB0428BA
:102E700013D9026802F00F02042A09D1019103F06C
:102E800097F901990A2203B05DF804EB26F078BCAB
:102E9000032A02D10A220430F5E7024B0D221A70F0
:102EA000E1E700BF700E00202DE9F843054605F06C
:102EB00097F8044608B1BDE8F883284626F0A8FB39
:102EC0002C4E07463379032B0AD00134FF2C06F130
:102ED0000806F7D1284B1B221A704FF0FF30EAE7A3
:102EE0003A462946E0B205F0F9F8034600283DD1FC
:102EF00032685068111D9842E7D051F804CFBCF1F8
:102F0000F00F03F10103F6D19B000833D00702EB69
:102F10000301DAD40429D8D9D35803F00F02042AC4
:102F2000D3D1C3F30F130133CA0701EB8300CCD411
:102F30000428CAD951F8233003F00F03042BC4D15D
:102F400003F036F94FF0030980460921404626F088
:102F500040FB0028B9D0B9F1010900F10108F4D112
:102F60002946404626F06FFB8045AED164F0FF0055
:102F7000A1E700BFA8760020700E002010F001022B
:102F800010B516D1042802D90268C2F30F1211F04D
:102F9000010310D1042902D90B68C3F30F13934224
:102FA00014D1043000EB83030331834205D80120A0
:102FB00010BD0022EBE70023F1E710F8014B11F8F8
:102FC000012F54EA020CF2D09442EED00020EFE739
:102FD0002DE9F04F85B0CDE90113314F314E8046D8
:102FE0008AB102233B70012333603368DFF8C89055
:102FF000DFF8C8A0DFF8C8B00024FC54444504DB67
:1030000005B0BDE8F08F3260EFE7019B316853F8FF
:103010002400C30707EB0105C1F5487105D5224A15
:103020004310284621F03EFD04E0A8B91F4A284677
:1030300021F038FD1A4826F0EBFA029B30604BB1C4
:1030400008F1FF33A34205DD431C20223A5400223D
:10305000FA5433600134D1E7042801D1144AE6E779
:103060001BD9026802F00F03042B06D1039103F071
:103070009FF8104A03990346D3E7092B03D143680D
:103080005A465B10CDE7032B08D1C2F30F13C2F3EE
:103090004172C2EB83035246C3E701234A46C0E7AD
:1030A000C40E0020E411002041A90200C4A50200C2
:1030B000CAA5020063DC0200E9A50200DEA5020049
:1030C000CFA50200014B187000207047700E002041
:1030D000024B1878003818BF01207047700E00208E
:1030E000024B1860024BFF221A707047EC1100204F
:1030F000700E002008B500231A46FFF769FF034B46
:103100000348196805F0F2FC002008BDE411002016
:10311000C40E002010B502F0AFFD084C231D01467F
:103120001F22184626F07CFA26F072FA031D9B082F
:103130001B0143F004032360204610BD4C0E002009
:103140002DE9F04F804608F11809D8F81410C74F40
:10315000D8F810508BB009EB8101D0E90230029110
:103160003978AA0003EB800409EB8505002952D1C8
:1031700053F8203092101E12C8F8102003F07F037D
:10318000BB4A52F823300434924643F001031847F7
:10319000D8F8082098F8023098F80100A21A921086
:1031A00043EA022205F0B2F9002388F800303B70B0
:1031B000D8F80830E41A029BA5EB0905A3EB09092E
:1031C000A410AD104FEAA903C8F80C40C8F810507D
:1031D000C8F814300BB0BDE8F08F98F8010005F086
:1031E0008FF9002388F80030E2E73B789BB954F868
:1031F000043BA5EB09021E1203F07F0392105AF85C
:103200002330C8F81020C0E72A1DA2EB0903D82BF1
:1032100017DD1A233B703978FF29B9D1954E002369
:103220003B703368002BC3DD012388F8003002F0C7
:103230000FFD33684FF47A7202FB0300C8F80400F4
:10324000B6E7294615469A103B780E60002BE2D16E
:1032500054F8043BC8F810201E1203F07F035AF8FC
:10326000233092E72A1DA2EB0903D82B02DD1A2393
:103270003B70D0E721462846154651F8042B0260E2
:103280009A103B780BB10C46C5E76368C8F810206C
:103290001E1203F07F0308345AF8233075E72A1D05
:1032A000A2EB0903D82B02DD1A233B70B3E72946B2
:1032B00015469A103B7804EB86060E60002BAAD1C7
:1032C00054F8043BC8F810201E1203F07F035AF88C
:1032D00023305AE72A1DA2EB0903D82B02DD1A235B
:1032E0003B7098E729461546634A52F826200A6043
:1032F0009A103B78002B8ED154F8043BC8F810206C
:103300001E1203F07F035AF823303EE75A4B55F85C
:10331000042D43F826203B78002B7FF47CAF54F833
:10332000043BA5EB09021E1203F07F0392105AF82A
:103330002330C8F8102028E7DFF83CB15BF82600FE
:10334000FFF78CFD3A78002A7FF465AF009055F8BE
:10335000040DFFF783FD009B184440003B7840F0CC
:103360000100A5EB09024BF826009210002B7FF418
:1033700052AF54F8043BC8F810201E1203F07F032C
:103380005AF8233001E72A1DA2EB0903D82B02DDEE
:103390001A233B703FE7029B2946994534BF53F8F7
:1033A0000C3C01230B603B781546A2EB09029210FE
:1033B000002B7FF430AF54F8043BC8F810201E12E5
:1033C00003F07F035AF82330DFE62A1DA2EB09033E
:1033D000D82B02DD1A233B701DE7029989451BD2C9
:1033E00029461546029A06F1804652F80C0C033E17
:1033F000A6EB600652F826200A609A103B78002B54
:103400007FF409AF54F8043BC8F810201E1203F0F3
:103410007F035AF82330B8E618233B7000232B6053
:103420001546F8E6029B99451CD2029A55F8043DD0
:1034300052F80C0C06F18046033EA6EB600642F8FB
:1034400026303B78A5EB09029210002B7FF4E3AE07
:1034500054F8043BC8F810201E1203F07F035AF8FA
:10346000233092E618233B70D5E600BF700E002093
:103470000CA60200EC110020A07E0020029B9945C2
:103480002DD253F80C3C029A06F18046033EA6EB7F
:10349000630352F82300FFF7E1FC834655F8040D5F
:1034A000FFF7DCFC029B029A53F80C3C5844A6EB55
:1034B0006306430043F0010342F826303B78A5EB56
:1034C00009029210002B7FF4A6AE54F8043BC8F812
:1034D00010201E1203F07F035AF8233055E61823FC
:1034E0003B7098E62A1DA2EB0903D82B02DD1A23B4
:1034F0003B7090E629461546029A52F826200A604B
:103500009A103B78002B7FF486AE54F8043BC8F841
:1035100010201E1203F07F035AF8233035E6029A7A
:1035200055F8043D42F826303B78002B7FF473AE0B
:1035300054F8043BA5EB09021E1203F07F0392101E
:103540005AF82330C8F810201FE6029B53F82600D3
:103550004FEA600B55F8040DFFF780FC5844029BBE
:10356000400040F0010043F826003B78002B7FF438
:1035700052AE54F8043BA5EB09021E1203F07F0380
:1035800092105AF82330C8F81020FEE5A5EB860506
:10359000A945A5EB09060ED83A78B310002A7FF4A6
:1035A0003AAE54F8042BC8F81030161202F07F021D
:1035B0005AF82230E9E5CC4802F0EAFD3A78B31037
:1035C000002A7FF428AE54F8042BC8F810301612E5
:1035D00002F07F025AF82230D7E5002E04EB860471
:1035E000FFF6E6AD3B78A5EB09029210002B7FF4C5
:1035F00012AE54F8043BC8F810201E1203F07F03EB
:103600005AF82330C1E555F8043D042B04D1002EAF
:1036100004EB8604FFF6CCAD3B78A5EB09029210D3
:10362000002B7FF4F8AD54F8043BC8F810201E12AC
:1036300003F07F035AF82330A7E555F8043D042B27
:1036400004D0002E04EB8604FFF6B2AD3B78A5EB68
:1036500009029210002B7FF4DEAD54F8043BC8F849
:1036600010201E1203F07F035AF823308DE555F821
:10367000040CC107A5F1040B0BD54010013800283C
:103680000ADB400040F0010004EB8604CBF80000A8
:103690008EE5FFF7E3FBF1E73B78ABEB0902921015
:1036A0000BB15D46B7E554F8043BC8F810201E1274
:1036B00003F07F035D465AF8233066E5029B05F16F
:1036C0000C0EAEEB0901A3EB0903D8294FEAA303C3
:1036D00002DD1A233B709EE5760006F4FF7646F085
:1036E00001062E60AB46D8F80850641B98F80250CB
:1036F000A41045EA04256D005B0045F0010543F088
:103700000103CBF80450CBF8083088F802203A784F
:1037100050F83C30C8F808307546891022B103F1E2
:103720000804CDF808E076E503F10C049B68CDF8B9
:1037300008E01E1203F07F03C8F810105AF8233077
:1037400023E5029B55F8046C99452DD1F2071ED450
:10375000042E15D9336803F00F03042B19D130461A
:1037600002F026FD25F054FFB0F5487FA8BF4FF4C6
:1037700048700630643004F0E3FC78B9043C17E587
:103780000AD0002E0CBF07204FF40070F2E70A2089
:10379000F0E74FF40070EDE70720EBE798F8010041
:1037A000314604F0CAFE1CE5029B504953F80C2C2C
:1037B0004F4B3878A3EB6203029A42F8236002EB86
:1037C000830552F8083C5A1088F80220D2B204351A
:1037D00051F83210029AC8F8081052F8042C52100E
:1037E00009EB8202C3F355230292A5EB090201EB18
:1037F0008304921000287FF40EAD51F82330C8F8EE
:1038000010201E1203F07F0304345AF82330BCE466
:1038100055F8040CFFF722FB1E28A5EB86052DDCCE
:10382000A5EB090B00284FEAAB0B0DDC3B78002B16
:103830007FF4F1AC54F8043BC8F810B01E1203F04A
:103840007F035AF82330A0E4009002F001FA009BB5
:10385000033B1E1802F0FCF9264B801B9842F9D25C
:103860003B78002B7FF4D7AC54F8043BC8F810B079
:103870001E1203F07F035AF8233086E4012288F8F1
:103880000020009002F0E4F9009B0A380344C8F8D5
:1038900004308DE455F8040CFFF7E0FAA5EB86053B
:1038A000061E10DC3B78A5EB09029210002B7FF47A
:1038B000B2AC54F8043BC8F810201E1203F07F038A
:1038C0005AF8233061E40C4B9E4202DD1D233B700D
:1038D000A1E4012388F8003002F0BAF94FF47A73BA
:1038E00003FB06000A38A9E4FBA50200A876002025
:1038F000FDFFFF3F8096980080EE360000233046A3
:10390000A5EB8605CA4E1A462946FFF761FB3168CA
:10391000C84802F07DFEC84B31681860C54804F005
:10392000C9FF3168C34805F0E1F83B78002B7FF40C
:1039300072AC54F8043BA5EB09021E1203F07F039E
:1039400092105AF82330C8F810201EE43B78A5EBFB
:103950008605002B7FF45FAC54F8043BA5EB09020D
:103960001E1203F07F0392105AF82330C8F810207B
:103970000BE4404604F042FC3B78002B7FF44BAC58
:1039800054F8043BA5EB09021E1203F07F039210CA
:103990005AF82330C8F81020FFF7F7BB55F8043C5D
:1039A000002B47D155F80C0C10F0010B20D04FEA3A
:1039B000600B4FEA4B0343F0010345F8083CBBF1B1
:1039C000000F40F3968055F8080C4FEA4B03CBEB01
:1039D000600B55F80C0C43F0010345F8043CC30799
:1039E0002DD50BF1010B4FEA4B0343F0010331E0FE
:1039F00004281BD9036803F00F02092A01D140688B
:103A0000D5E7042A09D102F0D3FB0378002BD0D0EC
:103A1000FFF7B4F90BF1010BF7E7032A06D1C3F363
:103A20000F1BC3F34173C3EB8B0BC2E719233B702E
:103A3000FFF7F1BB4FEA630B0BF1FF3BBFE7042835
:103A400053D9036803F00F03092B18D10BF1020BB4
:103A500050F82B30029A42F826303B78A5EB090249
:103A60009210002B7FF4D7AB54F8043BC8F8102019
:103A70001E1203F07F035AF82330FFF786BB042B96
:103A80002CD1029B03EB8603009302F091FB0BF118
:103A9000010B0646BBF1010F10DC3046FFF76EF953
:103AA000821B1046039202F0ABFD834668B102F020
:103AB0007FFB039A314625F029FC06E030780BF1B4
:103AC000FF3B30B912233B708346009BC3F800B024
:103AD000C3E73046FFF752F90646DBE7032B04D174
:103AE00083449BF804305B007FE719233B70FFF7AA
:103AF00092BB0434B1E705EB8603A3EB0903D82B93
:103B000016DC0122002E06F1FF3315DC3B78A5EB15
:103B100009029210002B7FF47EAB54F8043BC8F8E6
:103B200010201E1203F07F035AF82330FFF72DBB3D
:103B30001A233B70FFF76FBB45F8042B1E46E1E7E5
:103B40002B1DA3EB0903D82B03DD1A233B70FFF7D2
:103B500062BB029B994530D255F8040CFFF77EF901
:103B6000002827DD029B53F80C3CB0EB630F4FEAB3
:103B700063021FDC801A00F18040029B043853F876
:103B80002020A5EB86031A60C6F1010605EB860529
:103B90003B78A5EB09029210002B7FF43CAB54F864
:103BA000043BC8F810201E1203F07F035AF823309C
:103BB000FFF7EBBA20233B70E6E71823FBE71E4B29
:103BC0001A68A5EB8603C6F101061A603B7805EB7F
:103BD0008605002B7FF41FAB54F8043BA5EB0902CC
:103BE0001E1203F07F0392105AF82330C8F81020F9
:103BF000FFF7CBBA55F8043C042BA5F104023B783F
:103C000008BF2A46A2EB090108BF04EB860489100D
:103C100013B11546FFF7FFBA54F8043BC8F810106B
:103C20001E1203F07F0315465AF82330FFF7ADBA92
:103C3000E4110020C40E00203000002055F8043D9F
:103C4000042B1CBF002345F8043B3B78A5EB09027D
:103C500018BF04EB86049210002B7FF4DCAA54F802
:103C6000043BC8F810201E1203F07F035AF82330DB
:103C7000FFF78BBA002EA5EB860119DC1C233B70E5
:103C80000022C6F1010605EB86053B780A60A5EB2C
:103C900009029210002B7FF4BEAA54F8043BC8F826
:103CA00010201E1203F07F035AF82330FFF76DBA7D
:103CB0000B684FF0000C5B1051F82C0010F0010263
:103CC00002D10D233B70DCE7401083420CF1010C64
:103CD000A8BF03466645EFDC5B0043F00102D0E776
:103CE000002EA5EB860119DC1C233B700022C6F1D7
:103CF000010605EB86053B780A60A5EB09029210E8
:103D0000002B7FF488AA54F8043BC8F810201E1238
:103D100003F07F035AF82330FFF737BA0B684FF0F0
:103D2000000C5B1051F82C0010F0010202D10D23A1
:103D30003B70DCE7401083420CF1010CB8BF034636
:103D40006645EFDC5B0043F00102D0E755F8081C44
:103D500011F0010F4FEA860323D055F8042C12F01E
:103D6000010F1ED05210B2EB610FA5EB0303CCBFC5
:103D7000042200221A60C6F1010605EB86053B7895
:103D8000A5EB09029210002B7FF445AA54F8043BDE
:103D9000C8F810201E1203F07F035AF82330FFF7F3
:103DA000F4B955F8042C6FF00100A5EB030BFEF7F6
:103DB000F9FFCBF80000DEE755F8081C11F0010F01
:103DC0004FEA860323D055F8042C12F0010F1ED0C1
:103DD0005210B2EB610FA5EB0303ACBF042200222B
:103DE0001A60C6F1010605EB86053B78A5EB0902D2
:103DF0009210002B7FF40FAA54F8043BC8F810204F
:103E00001E1203F07F035AF82330FFF7BEB955F8AE
:103E1000042C4FF0FF30A5EB030BFEF7C3FFCBF8EC
:103E20000000DEE755E902014FEA860B8142A5EB6F
:103E30000B0B18D10423CBF80030C6F1010605EBBB
:103E400086053B78A5EB09029210002B7FF4E3A9CD
:103E500054F8043BC8F810201E1203F07F035AF8F0
:103E60002330FFF792B9042801D80023E3E7C20703
:103E7000FBD4036803F00F03042BF6D1CB07F4D473
:103E80000429F2D90B6803F00F03042BEDD1FFF7DF
:103E900075F8002814BF04230023CCE755E902017C
:103EA0004FEA860B8142A5EB0B0B18D10023CBF810
:103EB0000030C6F1010605EB86053B78A5EB09024B
:103EC0009210002B7FF4A7A954F8043BC8F81020E7
:103ED0001E1203F07F035AF82330FFF756B9042867
:103EE00001D80423E3E7C207FBD4036803F00F0300
:103EF000042BF6D1CB07F4D40429F2D90B6803F0D4
:103F00000F03042BEDD1FFF739F8002814BF00236D
:103F10000423CCE755F8081C11F0010F4FEA860383
:103F200023D055F8042C12F0010F1ED05210B2EB22
:103F3000610FA5EB0303D4BF042200221A60C6F16F
:103F4000010605EB86053B78A5EB09029210002BD4
:103F50007FF461A954F8043BC8F810201E1203F046
:103F60007F035AF82330FFF710B955F8042C0120CD
:103F7000A5EB030BFEF716FFCBF80000DFE755F8C3
:103F8000081C11F0010F4FEA860323D055F8042CCA
:103F900012F0010F1ED05210B2EB610FA5EB03031C
:103FA000B4BF042200221A60C6F1010605EB8605A3
:103FB0003B78A5EB09029210002B7FF42CA954F852
:103FC000043BC8F810201E1203F07F035AF8233078
:103FD000FFF7DBB855F8042C0220A5EB030BFEF726
:103FE000E1FECBF80000DFE755F8043C042BA5EB1D
:103FF00086030CBF00220422C6F101061A6005EBFD
:1040000086053B78A5EB09029210002B7FF403A9EB
:1040100054F8043BC8F810201E1203F07F035AF82E
:104020002330FFF7B2B855F8080CFEF717FF8346A8
:1040300055F8040CFEF712FF5844A5EB8603400028
:1040400040F0010018603B78C6F1010605EB8605DB
:10405000002B7FF4E0A854F8043BA5EB09021E12E4
:1040600003F07F0392105AF82330C8F81020FFF7AE
:104070008CB855F8080CFEF7F1FE834655F8040C91
:10408000FEF7ECFEABEB0000A5EB8603400040F032
:10409000010018603B78C6F1010605EB8605002B90
:1040A0007FF4B9A854F8043BA5EB09021E1203F0F3
:1040B0007F0392105AF82330C8F81020FFF765B834
:1040C00055F8080CFEF7CAFE834655F8040CFEF7B7
:1040D000C5FE00FB0BF0A5EB8603400040F001009D
:1040E00018603B78C6F1010605EB8605002B7FF4CE
:1040F00092A854F8043BA5EB09021E1203F07F03BB
:1041000092105AF82330C8F81020FFF73EB855F83F
:10411000040CFEF7A3FE8346D0B91F233B70A5EB2A
:104120008603C6F10106186005EB86053B78A5EB12
:1041300009029210002B7FF46EA854F8043BC8F8D3
:1041400010201E1203F07F035AF82330FFF71DB82A
:1041500055F8080CFEF782FE90FBFBF0400040F0A3
:104160000100DCE7A5EB860BDBF80000FEF776FE2E
:104170000090DBF80400FEF771FE009BC8B91F2316
:104180003B70C6F1010605EB86053B78CBF80000D5
:10419000A5EB09029210002B7FF43DA854F8043BD4
:1041A000C8F810201E1203F07F035AF82330FEF7E0
:1041B000ECBF80EAE072A2EBE07293FBF2F002FB4C
:1041C00010300028B8BF8018400040F00100D8E748
:1041D00055F8040CFEF742FE002855F8040C1DDDCE
:1041E000FEF73CFEA5EB8603400040F00100C6F15F
:1041F0000106186005EB86053B78A5EB09029210D5
:10420000002B7FF408A854F8043BC8F810201E12B5
:1042100003F07F035AF82330FEF7B7BFFEF71EFE08
:104220004042DFE7012EA5EB860B35D1DBF800001D
:10423000FEF714FE0028ACBF01224FF0FF3282428D
:1042400002DD1346024618460130831A039200939A
:1042500025F0FEF8009B039A90FBF3F101FB13039A
:104260001A445200C6F1010642F0010205EB860530
:104270003B78CBF80020A5EB09029210002B7EF4CE
:10428000CAAF54F8043BC8F810201E1203F07F0395
:104290005AF82330FEF779BF022E0AD1DBF800006E
:1042A000FEF7DCFD0090DBF80400FEF7D7FD009A76
:1042B000C5E764200122C7E7A5EB860B30465946C7
:1042C00002F0C5F93B78CBF80000C6F1010605EB1A
:1042D0008605002B7EF49FAF54F8043BA5EB090242
:1042E0001E1203F07F0392105AF82330C8F81020F2
:1042F000FEF74BBF55F8080CFEF7B0FD834655F8A6
:10430000040CFEF7ABFD0BEA0000A5EB86034000B2
:1043100040F0010018603B78C6F1010605EB860508
:10432000002B7EF478AF54F8043BA5EB09021E1273
:1043300003F07F0392105AF82330C8F81020FEF7DC
:1043400024BF55F8080CFEF789FD834655F8040C88
:10435000FEF784FD4BEA0000A5EB8603400040F029
:10436000010018603B78C6F1010605EB8605002BBD
:104370007EF451AF54F8043BA5EB09021E1203F082
:104380007F0392105AF82330C8F81020FEF7FDBEC4
:1043900055F8080CFEF762FD834655F8040CFEF74D
:1043A0005DFD8BEA0000A5EB8603400040F00100B4
:1043B00018603B78C6F1010605EB8605002B7EF4FC
:1043C0002AAF54F8043BA5EB09021E1203F07F0349
:1043D00092105AF82330C8F81020FEF7D6BE55F8D0
:1043E000040CFEF73BFDC043A5EB8603400040F004
:1043F000010018603B78C6F1010605EB8605002B2D
:104400007EF409AF54F8043BA5EB09021E1203F039
:104410007F0392105AF82330C8F81020FEF7B5BE7B
:1044200055F8080CFEF71AFD834655F8040CFEF704
:1044300015FD0BFA00F0A5EB8603400040F00100EB
:1044400018603B78C6F1010605EB8605002B7EF46B
:10445000E2AE54F8043BA5EB09021E1203F07F0301
:1044600092105AF82330C8F81020FEF78EBE55F887
:10447000080CFEF7F3FC834655F8040CFEF7EEFC3F
:104480004BFA00F0A5EB8603400040F001001860F5
:104490003B78C6F1010605EB8605002B7EF4BBAE2A
:1044A00054F8043BA5EB09021E1203F07F0392109F
:1044B0005AF82330C8F81020FEF767BE55F80C0CE8
:1044C000FEF7CCFC834655F8080CFEF7C7FC8BFBC7
:1044D000002355F8040CCDE90023FEF7BFFCDDE90D
:1044E0000023C0F1200CB0F1200103FA0CFC22FAE9
:1044F00000F040EA0C005CBF43FA01F10843A5EB71
:10450000860E40003B7840F00100C6F10106CEF86F
:10451000000005EB8605002B7EF47DAE54F8043BCD
:10452000A5EB09021E1203F07F0392105AF8233004
:10453000C8F81020FEF729BEA5EB860B3046594679
:10454000FDF70AFB3B78CBF80000C6F1010605EB4E
:104550008605002B7EF45FAE54F8043BA5EB090200
:104560001E1203F07F0392105AF82330C8F810206F
:10457000FEF70BBEA5EB860529463046FDF706FB88
:104580003B78002B7EF447AE54F8043BA5EB0902C0
:104590001E1203F07F0392105AF82330C8F810203F
:1045A000FEF7F3BDA5EB860B30465946FDF732FB0F
:1045B0003B78CBF80000C6F1010605EB8605002B21
:1045C0007EF429AE54F8043BA5EB09021E1203F059
:1045D0007F0392105AF82330C8F81020FEF7D5BD9B
:1045E000A5EB860529463046FDF7BAFB3B78002B44
:1045F0007EF411AE54F8043BA5EB09021E1203F041
:104600007F0392105AF82330C8F81020FEF7BDBD82
:10461000A5EB860B30465946FDF732FC3B78CBF8CC
:104620000000C6F1010605EB8605002B7EF4F3AD14
:1046300054F8043BA5EB09021E1203F07F0392100D
:104640005AF82330C8F81020FEF79FBD55F8040C27
:1046500001F0AEFD55F8083CD9072ED4042B0CD937
:104660001B6803F00F03013B082B10D8DFE803F0B1
:1046700005252B270F0F0F0F2900D24924F0B6FF75
:10468000A5EB860300280CBF042200221A60C6F1A5
:10469000010605EB86053B78A5EB09029210002B7D
:1046A0007EF4B9AD54F8043BC8F810201E1203F094
:1046B0007F035AF82330FEF768BDC349DEE7C349DC
:1046C000DCE7C349DAE7C349D8E705F1040BABEBF4
:1046D0000906D82E03DD1A233B70FEF79CBD01F0BE
:1046E000BFFA2B46400040F0010018603B785D4661
:1046F000B210002B7EF48FAD54F8043BC8F81020A4
:104700001E1203F07F035AF82330FEF73EBD05F179
:10471000040BABEB0906D82E03DD1A233B70FEF722
:104720007ABD01F095FAAC4B2A4603EA40003B788B
:1047300040F0010010605D46B210002B7EF46BADBE
:1047400054F8043BC8F810201E1203F07F035AF8F7
:104750002330FEF71ABD2E1DA6EB0903D82B03DD6F
:104760001A233B70FEF757BD01F07AFA9B4B1B688A
:1047700098423DBFC3F5830303F63713C018C01A30
:1047800040002B4640F0010018603B78A6EB090280
:1047900035469210002B7EF43EAD54F8043BC8F829
:1047A00010201E1203F07F035AF82330FEF7EDBCF1
:1047B00001F056FA894B18603B78A5EB8605002B73
:1047C0007EF429AD54F8043BA5EB09021E1203F058
:1047D0007F0392105AF82330C8F81020FEF7D5BC9A
:1047E00003F05EFFB30090B9ED1A3B78A5EB090228
:1047F0009210002B7EF40FAD54F8043BC8F8102043
:104800001E1203F07F035AF82330FEF7BEBC304679
:10481000EF1A734E01231A463946FEF7D9FB30686A
:10482000643003F08DFC00283EF4A8AF98F8012016
:1048300031686C4803F086FE012388F8003001F0EF
:1048400007FA694A33681268063302FB0300C8F8A6
:1048500004003D46FEF7ACBC03F022FFB10090B966
:104860006D1A3B78A5EB09029210002B7EF4D3ACB5
:1048700054F8043BC8F810201E1203F07F035AF8C6
:104880002330FEF782BC30466F1A554E01230022BA
:104890003946FEF79DFB3068643003F051FC002878
:1048A0003EF46CAF4F4803F00EFEC5E7FEF732FC56
:1048B000A5EB860B3B78CBF80000C6F1010605EBB3
:1048C0008605002B7EF4A7AC54F8043BA5EB090247
:1048D0001E1203F07F0392105AF82330C8F81020FC
:1048E000FEF753BC3B78A5EB8605002B7EF493AC1A
:1048F00054F8043BA5EB09021E1203F07F0392104B
:104900005AF82330C8F81020FEF73FBC012E4FEABA
:1049100086021ADC1C233B70AA1A00231360C6F11E
:10492000010605EB86053B78A5EB09029210002BEA
:104930007EF471AC54F8043BC8F810201E1203F04A
:104940007F035AF82330FEF720BC029B9945A5EB64
:10495000020202D355F8043CE0E755F8083C55F84C
:10496000041C5B10002B0DDD029850F80C0CB3EB0F
:10497000600F4FEA600CDFBFA3EB0C030299043B0E
:1049800051F823101160CAE7A5EB860B584601F0D9
:104990009FF93B78CBF80000C6F1010605EB8605D0
:1049A000002B7EF438AC54F8043BA5EB09021E1230
:1049B00003F07F0392105AF82330C8F81020FEF756
:1049C000E4BB00BF3EA3020046A302004DA30200C9
:1049D00054A3020059A30200FEFFFF7FF011002044
:1049E000E4110020C40E00202C000020A5EB860B53
:1049F000584601F06FF93B78CBF80000C6F101068C
:104A000005EB8605002B7EF406AC54F8043BA5EBC1
:104A100009021E1203F07F0392105AF82330C8F8DF
:104A20001020FEF7B2BBA5EB860B3046594601F0CD
:104A300007F83B78CBF80000C6F1010605EB8605C8
:104A4000002B7EF4E8AB54F8043BA5EB09021E12E0
:104A500003F07F0392105AF82330C8F81020FEF7B5
:104A600094BBA5EB8605284601F036F93B78002B70
:104A70007EF4D1AB54F8043BA5EB09021E1203F0FF
:104A80007F0392105AF82330C8F81020FEF77DBB40
:104A9000A5EB860B3046594601F00EF83B78CBF873
:104AA0000000C6F1010605EB8605002B7EF4B3ABD2
:104AB00054F8043BA5EB09021E1203F07F03921089
:104AC0005AF82330C8F81020FEF75FBBA5EB860527
:104AD000284601F0F3F93B78002B7EF49CAB54F8A8
:104AE000043BA5EB09021E1203F07F0392105AF853
:104AF0002330C8F81020FEF748BB0121304601F0F2
:104B00009BF93B78002B7EF486AB54F8043BA5EB75
:104B100009021E1203F07F0392105AF82330C8F8DE
:104B20001020FEF732BB0021304601F085F93B78BA
:104B3000002B7EF470AB54F8043BA5EB09021E1267
:104B400003F07F0392105AF82330C8F81020FEF7C4
:104B50001CBBA5EB860B584601F030F93B78CBF82F
:104B60000000C6F1010605EB8605002B7EF453AB71
:104B700054F8043BA5EB09021E1203F07F039210C8
:104B80005AF82330C8F81020FEF7FFBAA5EB860BC1
:104B9000584601F027F93B78CBF80000C6F1010632
:104BA00005EB8605002B7EF436AB54F8043BA5EBF1
:104BB00009021E1203F07F0392105AF82330C8F83E
:104BC0001020FEF7E2BAA5EB8605284601F0D8F8DA
:104BD0003B78002B7EF41FAB54F8043BA5EB090295
:104BE0001E1203F07F0392105AF82330C8F81020E9
:104BF000FEF7CBBAA5EB8605284604F0BDFB3B7853
:104C0000002B7EF408AB54F8043BA5EB09021E12FE
:104C100003F07F0392105AF82330C8F81020FEF7F3
:104C2000B4BAA5EB860B584604F0B6FC3B78CBF83B
:104C30000000C6F1010605EB8605002B7EF4EBAA09
:104C400054F8043BA5EB09021E1203F07F039210F7
:104C50005AF82330C8F81020FEF797BAA5EB86055E
:104C6000284604F0D3FA3B78002B7EF4D4AA54F8FB
:104C7000043BA5EB09021E1203F07F0392105AF8C1
:104C80002330C8F81020FEF780BAA5EB860B5846F3
:104C900004F0DAFA3B78CBF80000C6F1010605EB28
:104CA0008605002B7EF4B7AA54F8043BA5EB090255
:104CB0001E1203F07F0392105AF82330C8F8102018
:104CC000FEF763BAA5EB86052946304601F0CAFF18
:104CD0003B78002B7EF49FAA54F8043BA5EB090215
:104CE0001E1203F07F0392105AF82330C8F81020E8
:104CF000FEF74BBAA5EB86052946304601F0FEFDCE
:104D00003B78002B7EF487AA54F8043BA5EB0902FC
:104D10001E1203F07F0392105AF82330C8F81020B7
:104D2000FEF733BAA5EB86052946304601F0A6FF0B
:104D30003B78002B7EF46FAA54F8043BA5EB0902E4
:104D40001E1203F07F0392105AF82330C8F8102087
:104D5000FEF71BBAA5EB86052946304601F0ACFFED
:104D60003B78002B7EF457AA54F8043BA5EB0902CC
:104D70001E1203F07F0392105AF82330C8F8102057
:104D8000FEF703BAA5EB860B3046594604F020FD2A
:104D90003B78CBF80000C6F1010605EB8605002B39
:104DA0007EF439AA54F8043BA5EB09021E1203F065
:104DB0007F0392105AF82330C8F81020FEF7E5B9A7
:104DC000A5EB860B3046594604F00AFD3B78CBF83C
:104DD0000000C6F1010605EB8605002B7EF41BAA38
:104DE00054F8043BA5EB09021E1203F07F03921056
:104DF0005AF82330C8F81020FEF7C7B9A5EB860B88
:104E00003046594604F0F4FC3B78CBF80000C6F17C
:104E1000010605EB8605002B7EF4FDA954F8043B42
:104E2000A5EB09021E1203F07F0392105AF82330FB
:104E3000C8F81020FEF7A9B9A5EB860B30465946F5
:104E400004F0BAF83B78CBF80000C6F1010605EB98
:104E50008605002B7EF4DFA954F8043BA5EB09027C
:104E60001E1203F07F0392105AF82330C8F8102066
:104E7000FEF78BB9A5EB86052946304601F0C6FF43
:104E80003B78002B7EF4C7A954F8043BA5EB09023C
:104E90001E1203F07F0392105AF82330C8F8102036
:104EA000FEF773B9A5EB86052946304601F05AFF97
:104EB0003B78002B7EF4AFA954F8043BA5EB090224
:104EC0001E1203F07F0392105AF82330C8F8102006
:104ED000FEF75BB9A5EB860B3046594601F00AFF99
:104EE0003B78CBF80000C6F1010605EB8605002BE8
:104EF0007EF491A954F8043BA5EB09021E1203F0BD
:104F00007F0392105AF82330C8F81020FEF73DB9FD
:104F1000A5EB86052946304601F04AFE3B78002B7A
:104F20007EF479A954F8043BA5EB09021E1203F0A4
:104F30007F0392105AF82330C8F81020FEF725B9E5
:104F4000A5EB86052868FDF789FF44F61662A0F1F7
:104F50000A019142009021D86868FDF77FFF092877
:104F600006461BDD009B580040F001004FF0FF3B60
:104F7000069005A90220CDF814B000F017FDBF4B34
:104F800001221A6000F064FE4FF47A7303FB0600FE
:104F9000BB4B87F800B01860BA4B1E6000232B6033
:104FA0003B78A5EB09029210002B7EF434A954F84B
:104FB000043BC8F810201E1203F07F035AF8233078
:104FC000FEF7E3B8A5EB86052868C20706D40428D7
:104FD00004D9036803F00F03042B02D00E233B70A7
:104FE00028E001F0E5F80678A6F14103052B1ED86C
:104FF0001E46731C1ED0A868FDF730FF42F21073E6
:105000009842834616DC2B68059305A96B680693C6
:105010000220FDF751F9BBF1090F9B4A1EDC00236A
:1050200042F82630994B012243F8262002E0613EE7
:10503000052EDED900232B603B78A5EB09029210E8
:10504000002B7EF4E8A854F8043BC8F810201E1288
:1050500003F07F035AF82330FEF797B8012342F894
:10506000263000F0F5FD4FF47A7202FB0B00884AFF
:1050700042F82600854A012342F82630814BC3F8C6
:1050800000B0FF23ABE7A5EB86052868C60706D46A
:10509000042804D9036803F00F03042B02D00E2365
:1050A0003B7028E001F084F80678A6F14103052B57
:1050B0001ED81E46711C1ED0A868FDF7CFFE42F216
:1050C00010739842834616DC2B68059305A96B681C
:1050D00006930220FDF732F9BBF1090F6A4A6B4BC8
:1050E0001DDC002142F82610022243F8262002E0AF
:1050F000613E052EDED900232B603B78A5EB09022B
:105100009210002B7EF487A854F8043BC8F81020B6
:105110001E1203F07F035AF82330FEF736B8012140
:1051200042F8261000F094FD4FF47A7202FB0B0057
:10513000574A564B42F82600022243F82620514B8C
:10514000C3F800B0FF23ABE7A5EB86052868C207CC
:1051500006D4042804D9036803F00F03042B02D0FB
:105160000E233B7028E001F023F80678A6F14103F6
:10517000052B1ED81E46731C1ED0A868FDF76EFEB8
:1051800042F210739842834616DC2B68059305A9FA
:105190006B6806930220FDF74DF8BBF1090F3A4A00
:1051A0003A4B1DDC002142F82610032243F826204A
:1051B00002E0613E052EDED900232B603B78A5EB93
:1051C00009029210002B7EF426A854F8043BC8F87C
:1051D00010201E1203F07F035AF82330FDF7D5BFCD
:1051E000012142F8261000F033FD4FF47A7202FBE1
:1051F0000B00274A254B42F82600032243F82620BD
:10520000204BC3F800B0FF23ABE7A5EB8605286869
:10521000C60706D4042804D9036803F00F03042B3F
:1052200002D00E233B7038E000F0C2FF0678A6F1F2
:105230004103052B2ED81E46711C2ED02869FDF780
:105240000DFE42F210739842834626DC2B680593CC
:105250006B680693AB68079305A9EB680893042075
:10526000FDF7BAF8BBF1090F074A084B29DC00210A
:1052700042F82610042243F826200EE0780E002083
:10528000740E0020EC1100207C0E0020AC0E0020DB
:10529000940E0020613E052ECED900232B603B7872
:1052A000A5EB09029210002B7DF4B5AF54F8043B36
:1052B000C8F810201E1203F07F035AF82330FDF7C0
:1052C00064BF012142F8261000F0C2FC4FF47A724C
:1052D00002FB0B00A64AA74B42F82600042243F823
:1052E0002620A54BC3F800B0FF239BE7A5EB86055E
:1052F0002868C20706D4042804D9036803F00F0302
:10530000042B02D00E233B7031E000F051FF0678F1
:10531000A6F14103052B27D81E46731C27D0286908
:10532000FDF79CFD42F21073984283461FDC2B6808
:1053300092480593032101F06BF96B680793AB6802
:105340000690089305A9EB6809930520FCF768FE11
:10535000BBF1090F8A4A874B1DDC002142F8261059
:10536000052243F8262002E0613E052ED5D9002310
:105370002B603B78A5EB09029210002B7DF44BAF1C
:1053800054F8043BC8F810201E1203F07F035AF8AB
:105390002330FDF7FABE012142F8261000F058FC38
:1053A0004FF47A7202FB0B00714A724B42F82600EE
:1053B000052243F82620704BC3F800B0FF23A2E774
:1053C000002E40F38A806C4A55F804BC4FF0FF333E
:1053D000012E13603B7012D11BF0010F1CD1BBF1E9
:1053E000040F19D9DBF8002002F00F02042A13D1B0
:1053F000584600F0DDFEFDF757FD03460CE0022E97
:105400000AD155F8080CC10706D4042804D902684B
:1054100002F00F02042AECD05A1CA5EB86055CD0E2
:10542000022E3DD11BF0010F33D1BBF1040F30D957
:10543000DBF8002002F00F02092A2AD1DBF8040071
:105440002E1FC0F34700012181421CDD05EB8005C2
:10545000A5EB09029210C8F8102023F0FF0212F504
:10546000807F1FD11E02B6B206434648C6F3072C02
:1054700000EBCC0332121B79032B3EF41FA902234D
:105480003B70FDF7C8BE01315BF8212046F8042FC0
:10549000DAE70B233B70002345F8043BFDF7BBBE66
:1054A0000020D5E7A5EB800529469847364A00231A
:1054B000136045F8040B3B78A5EB09029210002B12
:1054C0007DF4A9AE54F8043BC8F810201E1203F076
:1054D0007F035AF82330FDF758BE002345F8043BFC
:1054E0003B78A5EB09029210002B7DF494AE54F8A2
:1054F000043BC8F810201E1203F07F035AF8233033
:10550000FDF743BEA5EB86052946304603F002F9B8
:105510003B78002B7DF47FAE54F8043BA5EB0902E9
:105520001E1203F07F0392105AF82330C8F810209F
:10553000FDF72BBEA5EB860B3046594603F0EAF883
:105540003B78CBF80000C6F1010605EB8605002B81
:105550007DF461AE54F8043BA5EB09021E1203F082
:105560007F0392105AF82330C8F81020FDF70DBEC3
:10557000940E0020AC0E0020EC1100202CA30200A1
:105580007C0E0020A8760020B41B00202DE9F04FEF
:1055900089B000F05DFB00901CF0C8FC00274FF0C4
:1055A000FF33DFF8EC9206930190FF2564243B461D
:1055B000002B03F1FF3B72DA1CF0B8FC019BC01A10
:1055C000B0F5FA7F09D904A8FCF7F2FD082104A878
:1055D00003F08CFA1CF0AAFC0190FDF7D3FA002826
:1055E00000F08280002F7FD11CF0A0FC0127044630
:1055F0001CF09CFC001BC82840F2E8801CF096FCC4
:1056000040F29323044606A90220079300F0CEF946
:1056100001259B4E33686BB100F01AFB994B1B6858
:10562000984207D9012306A90220079300F0BEF98A
:10563000002333604FF0000BDFF858A2DFF85882E8
:105640005E465AF8041B81B100F002FB58F82B109B
:1056500088420AD98C4B53F82B10042900F3E580BB
:10566000012900F3E48000F0E5800BF1010BBBF1B0
:10567000060FE6D101F040FC03F052F903F060FAA6
:1056800000F0E6FA009BC01A41F28833984204D930
:10569000FCF71EFF00F0DCFA00904FF0190B4FF002
:1056A000000A5046794B1A6852451BDDD9F8003084
:1056B000DFF8E88101339342A8BF0023C9F8003026
:1056C000D9F80030F0225A4308EB020118F8022002
:1056D0004646002A00F0D080022A40F0AE800846FC
:1056E000FDF72EFD5B4663E7FDF74CFA0646F0B981
:1056F000EFB11CF01BFC40F29743044606A90220C0
:10570000079300F053F90A2537461CF00FFC001BE5
:1057100064287FF67EAF1CF009FC40F2DD330446BE
:1057200006A9022007930B2500F040F971E7002D30
:105730003FF45EAF012D11D11CF0F8FB001B642873
:105740007FF667AF1CF0F2FB40F21743044606A950
:1057500002200793022500F029F95AE7022D11D102
:105760001CF0E4FB001B64287FF653AF1CF0DEFB4B
:1057700040F29743044606A928460793032500F004
:1057800015F946E7032D11D11CF0D0FB001B64284E
:105790007FF63FAF1CF0CAFB40F2C953044606A98E
:1057A00002200793042500F001F932E7042D0FD100
:1057B0001CF0BCFB001B64287FF62BAF012306A95D
:1057C00002200793FF2500F0F1F822E7002520E7EB
:1057D0000A2D9AD00B2D11D11CF0A8FB001B6428B8
:1057E0007FF617AF1CF0A2FB40F21133044606A966
:1057F000022007930C2500F0D9F80AE70C2D11D1EF
:105800001CF094FB001B64287FF603AF1CF08EFB9A
:1058100040F20D23044606A9022007930D2500F04F
:10582000C5F8F6E60D2DC3D0F3E605291BE758466B
:10583000FCF742FE4AF8046C17E7012A15D128B993
:10584000CDE9023100F004FADDE902314FF0F00C4D
:105850000CFB03FC06EB0C02DFF844E05268821AF2
:1058600072453CBF022208F80C20F022534318F87E
:105870000330022B3FF433AF0AF1010A12E700BFF5
:10588000780E0020740E0020AC0E0020E8110020DD
:10589000280000207C0E0020940E0020486D00207F
:1058A0008096980020B1034B800143F00103184714
:1058B000704700BF00A902000A4B4FF400721A6043
:1058C000094B01211964D3F840250532C3F8482556
:1058D000C3F84C254FF44022C3F80423034B19703E
:1058E000704700BF00E100E0009000403712002048
:1058F00004207047F8B5D1E9003513F0010031D02C
:1059000015F001002ED0392B4FEA630444D8234F01
:105910006D1041F288363B5DAE42A8BF2E46012B8A
:1059200005D0012120461FF0B1FC01233B551C4B43
:105930001B780BB9FFF7C0FF002D1A4B13DC1A4977
:10594000002240F2DC50FF2513F8016BB44208BF7F
:1059500021F8120002F1010208BF03F8015C082AD5
:10596000F2D10420F8BD19461846002210F8015B58
:10597000AC4203D10C4B23F81260F2E70132082A43
:10598000F4D1002211F8010BFF2801D19C54F1E75A
:105990000132082AF6D1E4E70020E3E718120020DC
:1059A000371200204C0000203600002070B5D1E9ED
:1059B000003513F0010020D015F001001DD0392B67
:1059C0004FEA6304174E88BF1B24335D012B05D0BB
:1059D000012120461FF05AFC01233355124B6D1054
:1059E000A5F110029A42114B08D94FF0FF32002165
:1059F00020461A601FF088FC042070BD1C600C4B10
:105A00000C4890FBF5F018800B4B1B780BB9FFF797
:105A100053FF0A4B01229A64D3F848251044C3F877
:105A20004805E9E718120020908601004800002090
:105A30003400002020A10700371200200090004011
:105A40000B68DA0773B505460C4604D40D20FDF744
:105A500039FB012007E05B10062B06D103F006FCA2
:105A6000400040F0010002B070BD0A2B1DD01D2B7C
:105A7000F4D0062BEDD80E4A0E4E52F82300335CBC
:105A800033B1002101901FF001FC01980023335431
:105A9000012D07DD6368042B04D1022101901FF062
:105AA000F5FB01981FF0ECFADAE70523E3E700BF06
:105AB000D8A80200181200200B68DA0770B504D4C9
:105AC0000D20FDF7FFFA012070BD392B4FEA63046A
:105AD00014D8012814DD4B68042B14BF00250225BF
