:10000000000002204551020085510200C95402003F
:10001000895102008B5102008D5102000000000046
:10002000000000000000000000000000C95B0200AA
:100030009151020000000000E95B020095510200AE
:10004000755E02007D8F01008922020011A400006C
:1000500005A4000097510200975102009751020039
:10006000975102009D62000097510200958F010098
:1000700097510200898F01009751020097510200A9
:10008000975102009D2502009751020097510200EE
:1000900097510200975102009751020097510200B8
:1000A00097510200975102009751020097510200A8
:1000B000975102009751020000000000000000006C
:1000C0009751020097510200975102009751020088
:1000D0009751020097510200975102009751020078
:1000E0009751020000000000000000000000000026
:1000F000000000009751020000000000975102002C
:1001000000000000000000000000000000000000EF
:1001100000000000000000000000000000000000DF
:1001200000000000000000000000000000000000CF
:1001300000000000000000000000000000000000BF
:1001400000000000000000000000000000000000AF
:10015000000000000000000000000000000000009F
:10016000000000000000000000000000000000008F
:10017000000000000000000000000000000000007F
:10018000000000000000000000000000000000006F
:10019000000000000000000000000000000000005F
:1001A000000000000000000000000000000000004F
:1001B000000000000000000000000000000000003F
:1001C000000000000000000000000000000000002F
:1001D000000000000000000000000000000000001F
:1001E000000000000000000000000000000000000F
:1001F00000000000000000000000000000000000FF
:1002000010B5054C237833B9044B13B10448AFF350
:1002100000800123237010BD600200200000000058
:1002200030E8020008B5034B1BB103490348AFF3A4
:10023000008008BD000000006402002030E80200D9
:10024000A3F5803A704700BF174B002B08BF134B34
:100250009D46FFF7F5FF00218B460F461348144AD1
:10026000121A29F04BFB0E4B002B00D098470D4B78
:10027000002B00D098470020002104000D000D48FD
:10028000002802D00C48AFF3008029F075FA200056
:10029000290024F01BFF29F05BFA00BF00000800D2
:1002A00000000000000000000000022060020020AA
:1002B000EC8C0020000000000000000070470000EF
:1002C00010B5064C20680BF07EFE2068044ABDE89D
:1002D0001040002301210BF099BE00BF9C020020BA
:1002E000C102000010B5044624F02AFF204610BDCC
:1002F00008B5064B1B6833B10BF040FC04490AF00B
:10030000AEFC02F0EFFB002008BD00BF9802002009
:1003100050040020154A38B551681068144B154C2C
:1003200003C30BF04BFC05462060042024F004FFBF
:10033000114B03600022014628460BF00FFE206897
:1003400000210BF008FE206801210BF0F8FD206869
:1003500000210BF0FBFD094A2068002301210BF06E
:1003600055FE074B01221A7038BD00BFE0A70200FE
:10037000480400209C0200206CA80200C10200007A
:1003800038040020234B1B7870B50BB9FFF7C2FF70
:10039000214E3568002D3AD015F10B0148BF05F10B
:1003A0000E0100228910032006F06EFA044620B9DF
:1003B000BDE870400A2002F009BFC30711D4042829
:1003C0000FD9026802F00F03032B0AD105F00303D3
:1003D000C3F104035B0703F0C04322F0C0421343A0
:1003E00003600E4B0E491B7823710E4B1B78637113
:1003F0000D4B1A689B88C4F8062063812A4604F1D5
:100400000C0029F053FA00233360204670BD2C46BF
:10041000FBE700BF380400203C04002094020020C9
:10042000A802002040040020A102002000F10803DF
:1004300073B5044603600D46E1B1084629F0B8FBE8
:100440000F2805EB0006019007D9002201A92046DC
:1004500025F02EFD019B2060A360206832462946CE
:1004600025F059FD019B2268636000212046D1548C
:1004700002B070BD014825F011FD00BFE9A70200E0
:1004800070B5002888B033DD086810F001022FD164
:1004900004282DD9036803F00F03042B28D10192FF
:1004A00006F030F8054602F0FBFA0BF067FB124C41
:1004B00020600AF0A8FD114920680AF0AFFE266806
:1004C000294602A8FFF7B2FF02A930460AF03CFF16
:1004D00002A825F00FFD206820210AF0E4FB206827
:1004E00020210AF0E3FB019A206811460AF0E2FBA2
:1004F000002008B070BD00BF98020020500400200A
:1005000008B5084B1B780BB9FFF704FF064B1878AA
:1005100030B100221A70054B1868400040F001000D
:1005200008BD00BF38040020A002002044040020C1
:100530002DE9F043084691B00C460AF08FF90028E7
:1005400038D0214604A800220AF0E2F95B4804A949
:100550000CF0C6FE002878D021460AA80AF04FFA0F
:100560000B9B102B6ED10A9D2868696802AB03C3F0
:10057000534BDDE90267D3E900239F4208BF96424F
:1005800060D050490B685A1E02F01F0C4E4A9C4521
:1005900049D002EBC300D0E900894F4508BF46456A
:1005A00050D00133584200F01F0003F01F0358BF22
:1005B0004342ECE7019020460AF016F9019A002820
:1005C00043D0214604A80AF0E8F9404804A90CF0F9
:1005D00087FE019A002838D021460AA80AF034FA8A
:1005E0000B9B0D2B2ED10A9D6968286802AB03C3B3
:1005F00034490B68DDE902675A1E02F01F0C324ACB
:100600009C4550D002EBC300D0E900894F4508BF9C
:10061000464517D00133584200F01F0003F01F0376
:1006200058BF4342ECE702EBCC02C2E90067EB7B28
:10063000274AC1F800C0303B00D5FF231360254B8B
:1006400001221A700AA825F055FC234D2B683BBBEC
:1006500020460AF01CF96428CCBF64232860204699
:10066000C8BF2B600AF011F92A6801461B4829F01F
:100670001DF920460AF02BF8194B4042187021460C
:100680000AA80AF019F80AA809F0DFFF154B18703C
:100690000AA809F0D9FF144B02681A6082889A8070
:1006A00011B0BDE8F08302EBCC02C2E90067084B51
:1006B000EA79C1F800C01A60C1E700BF5004002009
:1006C0004804002068050020680400207C02002007
:1006D00044040020A00200203C040020A8020020C6
:1006E0009402002040040020A1020020024A034896
:1006F000042107F061BE00BFACA8020013A80200ED
:100700007FB50C496846FFF791FE69460A480CF030
:100710000AFD684625F0EEFB08496846FFF786FEAD
:10072000694607480CF0FFFC684625F0E3FB07B07C
:100730005DF804FB17A802007C0200203CA8020020
:1007400050040020C30711D404280FD9026802F016
:100750000F03032B0AD101F00301C1F104035B076E
:1007600003F0C04322F0C0421343036070470246C7
:1007700010F001000FD1042A0ED91368C3F30F1033
:1007800050B1431E9800031D0432115C21B10130A9
:100790008342FAD1704700207047037883B11A066C
:1007A00001D40130704703F0C003C02B08BF0130F3
:1007B000024610460132037803F0C003802BF8D0C4
:1007C000704708B5002103780BB9084608BDFFF74C
:1007D000E4FF0131F7E7014600787F2829DDDF28B3
:1007E00007DC8301487803F4F86300F03F00184306
:1007F0007047EF2808DC4A780303920102F47C6218
:100800009BB288781343F0E7F72810DC4A7883041A
:100810001203C87802F47C3203F4E01300F03F00C6
:10082000134303438878800100F47C60DFE74FF0D6
:10083000FF30704738B5002204460D46411C0920A0
:1008400006F022F840B16300024643F0010342F88B
:10085000043F0023A34200DB38BD55F8231042F8C3
:10086000041F0133F6E7002838B504DC1C20BDE87E
:10087000384002F0ABBC0C68E20701D40D20F6E76B
:1008800001281ED04A68D307F8D5B2F5007F4FEA99
:10089000620301D31320EAE71A0442EA03621A430F
:1008A00042EA0322641024EAE474E11C8910032064
:1008B00005F0EAFF054610B12146FFF743FF284641
:1008C00038BD0022EEE7012838B504DC1C20BDE865
:1008D000384002F07BBC0C68E20701D41120F6E737
:1008E0004868C30706D4042804D9036803F00F033B
:1008F000042B01D00E20EAE705F004FE6410002C62
:10090000054603DDFFF75DFFA04205DA1220DEE7B2
:10091000FFF743FF013C0546012C2846F8D1FFF7BD
:100920005AFF400040F0010038BD01282DE9F3478F
:100930008246884605DC1C2002B0BDE8F04702F084
:1009400045BC4C6814F0010901D10D20F4E70228E0
:1009500002D08B68DA07F8D5D8F80070FB0700F1F1
:10096000B180042F40F2AE803D686410012C05F088
:100970000F02B8BF0124092A2CD17B68BAF1020FFB
:1009800018BFD8F808704FEA63030CBF1F467F10EA
:100990009F42A8BF1F463D1B0135012225EAE57590
:1009A000A918092005F070FF064648B16D000346FE
:1009B00045F00105D8F8002043F8045FBC4203DD90
:1009C000304602B0BDE8F087013452F8241043F8F5
:1009D000041FF3E7042A43D1384605F093FDFFF7DF
:1009E000F0FEBAF1020F16BFD8F80860064676107E
:1009F0008642A8BF0646B44205DD002002B0BDE82D
:100A0000F04705F0FDBF384605F07CFD05464C4536
:100A10001FD1384605F076FD0746284609F1010941
:100A2000FFF7BBFE4E45F9DA441B204605F0E8FF10
:100A300006460028C4D005F065FD8146D8F80000C0
:100A400005F060FDED1B41192246484628F02EFFB7
:100A5000B6E72846FFF7A1FE09F101090546D6E7EA
:100A6000032A2FD1BAF1020FC5F30F12C5F3417556
:100A7000C5EB820216BFD8F8085015466D10954296
:100A8000A8BF1546AC4207DD00221146032002B084
:100A9000BDE8F04705F0F8BE2D1B291D48BFE91D34
:100AA00000228910032005F0EFFE0646002887D0BB
:100AB0006A1C11460192FFF745FEE11C019A394478
:100AC0000430C3E7212037E70028F8B504DC1C20F8
:100AD000BDE8F84002F07ABB0D6815F0010713D0AD
:100AE000B5F5007F4FEA650601D31320F0E7002239
:100AF0000121032005F0C8FE044618B10121FFF7CB
:100B000021FE06712046F8BD042DEED92B6803F0B6
:100B10000F03042B1AD12846FFF729FEC11C48BF3A
:100B2000811D064600228910032005F0ADFE044613
:100B30000028E7D03146FFF705FE284605F0E2FC25
:100B400032460146201D28F0B1FEDBE7092B1FD1FC
:100B50006E687610F11C48BFB11D00228910032079
:100B600005F092FE04460028CCD03146FFF7EAFD9E
:100B70000435021DB742C5DA55F8043FD90705D53B
:100B8000B3F5007F4FEA6301AFD2D1550137F1E7EA
:100B9000032BAAD12C46B5E7486838B5C3070D46E4
:100BA00006D4042804D9026802F00F03092B04D0EC
:100BB000BDE838400B2002F009BB4368C2F30F12B6
:100BC000511EB1EB630F4FEA630411D80B2C4FF0A9
:100BD000030304DD94FBF3F3642BA8BF642399188B
:100BE00005F0D0FE0368C3F30F13013B9C4208D20B
:100BF000A31C013464002A6840F8232044F0010457
:100C00004460002038BD01282DE9F84304DC1C2095
:100C1000BDE8F84302F0DABA02284E680CD08C68BE
:100C2000E20709D56410012CB8BF0124F30705D5EC
:100C30004FF0FF30BDE8F8830124F7E7042EF7D921
:100C400033680D6803F00F02042A30D1EF0706D491
:100C5000042D04D92B6803F00F03042B01D00E20C0
:100C6000D6E73046FFF783FDA042E1DB304605F0D2
:100C700049FC0646284605F045FC03780146002B52
:100C8000D6D0601E304428F0AEFF04460028CFD0F6
:100C9000012133780BB1A64203D3480040F0010094
:100CA000C8E73046FFF779FD06460131F1E7092A2A
:100CB00038D17368B4EB630F4FEA6309B8DCE80717
:100CC00028D4042D26D92B6803F00F03042B21D13F
:100CD000284605F017FC80462746013456F82400C4
:100CE000854201D17800D9E7C1070ED404280CD978
:100CF000036803F00F03042B07D105F003FC014642
:100D0000404628F043FF0028ECD04C45E4DD8FE757
:100D10004C458DDC2046013456F82430AB42F7D1E7
:100D20004000BBE7032A83D1C3F30F18C3F3417319
:100D3000C3EB880844453FF77BAFEA0706F104039D
:100D400027D4042D39D92B6803F00F02032A16D1BA
:100D5000C3F30F10C3F341732F1DC3EB8000A8EB47
:100D600000083B18013C033644453FF761AF311999
:100D70003A469A42104622D328D1601CD0E7042A72
:100D80001BD1284605F0BEFB07462846FFF7EFFCBF
:100D9000E5E7B5F5007F4FEA650201D3282037E784
:100DA000013C44453FF744AF195D914204F1010411
:100DB000F7D1640044F001003CE70F2028E711F868
:100DC000015F0078854202F10102D2D00134CBE705
:100DD00001282DE9F047884604DC1C20BDE8F047D7
:100DE00002F0F4B90868C20706D4042804D90368DD
:100DF00003F00F03042B01D00E20EFE74B6813F034
:100E00000109F9D1042BF7D91B6803F00F03042B58
:100E1000F2D105F077FB0446D8F8040005F072FB28
:100E2000074628F0C5FE064678B92046FFF7C9FCFC
:100E300005460122A918092005F026FD374B186048
:100E40009A4690B90020BDE8F0873946204628F040
:100E5000CAFE231A5D425D412046394630440135C1
:100E600028F0C1FE0028F8D1E3E76B0043F001034E
:100E70004360D6B92046FFF790FC4D45064602DC9C
:100E8000DAF80000DFE7311B204605F0C1FD00283D
:100E9000D8D0DAF8003003EB890334469860304646
:100EA000FFF77BFC09F10109E7E7012D03D1D8F831
:100EB00000308360C7E73946204628F094FE4FF0A3
:100EC00001088146B9F1000F16D04545D8DBA9EBE2
:100ED0000401204605F09CFD0028B3D0DAF800306C
:100EE00008F1010809EB060443F8280039462046BA
:100EF00028F079FE8146E5E74545C1DB204628F02C
:100F000057FE0146204605F083FD00289AD0DAF806
:100F1000003008F1010843F82800B1E7E01B002089
:100F200008B505F0D3FA400040F0010008BD7F2964
:100F300002DC00F8011B7047B1F5006F0CDA0346C4
:100F40008A1162F03F0203F8022B01F03F0161F0C9
:100F50007F01417018467047B1F5803F0FDA0B13DF
:100F600063F01F030370C1F3851301F03F0163F0C9
:100F70007F0361F07F014370817003307047B1F5EA
:100F8000883F0DDAF0230370902343708B1101F03A
:100F90003F0163F07F0361F07F018370C170043013
:100FA0007047000010B5094C002220600221092082
:100FB00005F06AFC226820B9BDE810400A2002F062
:100FC00005B90321C0E9011210BD00BFE01B0020DC
:100FD00038B5C30709D5B0F5007F4FEA600507D3E0
:100FE0001320BDE8384002F0F1B8051E18BF0125F6
:100FF00000220121032005F047FC08B90A20F0E790
:101000000121FFF79FFB057138BD07B510F0010105
:1010100004D04110084603B05DF804FB042813D93E
:10102000026802F00F02042A09D1019105F06AFA60
:1010300001990A2203B05DF804EB28F071BE032A7F
:1010400002D10A220430F5E70D20019102F0BEF82A
:101050000199DFE70128F8B507460E4604DC1C209D
:10106000BDE8F84002F0B2B80868FFF7CEFF0546C9
:101070007068FFF7CAFF022F044606D0B068FFF77A
:10108000C4FF061E02DC2920EAE70126A542D5BFDF
:10109000641B2C1BB4FBF6F4B4FBF6F4D4BF013490
:1010A00001344FF0000204F101014FF00900C8BF04
:1010B000764205F0E9FB80B16300024643F001038C
:1010C00042F8043F6D00730002EB840445F0010117
:1010D00042F8041F94421D44F8D1F8BD00282DE9C0
:1010E000F3410F4603DC1C2002F070F816E00C6898
:1010F00014F0010506D1042C1DD9236803F00F0359
:10110000042B0DD12046FFF780FF6C460146204698
:10111000FFF70DFF011B204605F07AFC044634E082
:10112000092B08D166684FF001087610B04504DD40
:1011300002F052F8E0B12A20D6E708F1010854F88D
:101140002800FFF762FF7F280CDDB0F5006F0BDB96
:10115000B0F5803F0ADBB0F5883FACBF0023042325
:101160001D44E3E70123FBE70223F9E70323F7E745
:10117000284605F045FC044638B1D7F8008005F054
:10118000C1F901270546B74203DD204602B0BDE89C
:10119000F081013758F82700FFF737FF014628464E
:1011A000FFF7C5FE0546EEE710B5044611F0010055
:1011B00011D104290ED90A6802F00F02042A09D1BC
:1011C000084605F09FF90146204628F0DFFCB0FAFA
:1011D00080F0400910BD0020FCE700000128F8B5B0
:1011E0000E4604DC1C20BDE8F84001F0EFBF4D685E
:1011F000EA0706D4042D04D92B6803F00F02092A4C
:1012000001D00B20EFE76A680968C3F30F13B3EB53
:10121000620F4FEA620498BF03F1FF3411F0010737
:101220000DD0481000283CDD84423ADB2B1D84425F
:1012300019DD013053F8202045F82020F7E71A483F
:10124000FFF7B2FF40B10123BC4201DA0020F8BD34
:10125000013745F82730F7E731681448FFF7A4FF56
:1012600050B1002CF2D00122631C013C9440144385
:1012700045F823206C60E9E73068C3070FD40428E1
:101280000DD9036803F00F03042B08D1FFF7BDFE4F
:101290000028C8D131680648FFF786FF08B9112039
:1012A000A1E712209FE700BFCCA80200D0A802004F
:1012B000E6C20200002310B50B70C3070C4606D52A
:1012C0000E4942102046BDE8104023F0A7BE28B9C1
:1012D0000B492046BDE8104028F03CBC042801D151
:1012E0000849F6E709D9036803F00F03042B04D17A
:1012F00005F008F904490246E4E710BD61AF0200B9
:10130000E6C20200C3B60200D5A802002DE9F043F0
:1013100001288FB080460E4607DC1C2001F056FFE6
:10132000054628460FB0BDE8F0830B6813F00104B2
:1013300040F0AE80042B40F2E2801B6803F00F0304
:10134000092B48D1274656F8273013F0010906D15A
:10135000042B04D9186800F00F00092803D02220BC
:10136000DCE71F46EFE75B6804EB63047B1C9845F2
:10137000F7D10122A11805F087FA054608B9002522
:10138000CFE7640044F001044460494600F10804DA
:1013900056F821301868D3F804C0C0F30F10B0EB32
:1013A0006C0F4FEA6C0203F1040398BF00F1FF32A7
:1013B0000020824209DC22EAE2728F4204EB8204BE
:1013C00001F10103ADDD1946E2E753F804CF44F81B
:1013D00020C00130EDE7032B40F09180274656F8FE
:1013E0002700C507BBD40428B9D9036803F00F024E
:1013F000032A3CD1C3F30F12C3F34173C3EB82033F
:101400001C447B1C984530D1E11C48BFA11D002223
:101410008910032005F038FA05460028AFD0214690
:10142000FFF790F94FF0000800F1040956F8284042
:10143000E10723D4042C21D9206800F00F03032BEB
:101440001CD1C0F30F13C0F34170C0EB8300033411
:101450000023834216DB0028A8BF8144474508F1DA
:1014600001037FF75EAF9846E0E71F46B7E7042A1F
:101470007FF475AFFFF77BF90444C2E72046FFF71E
:1014800076F9E4E714F8012F09F803200133E0E7C7
:1014900000252C4656F82500C20732D4042830D93E
:1014A000036803F00F02042A32D1FFF760F9044405
:1014B0000135A845EED1204605F0A2FA05460028E0
:1014C0003FF45DAF041DB14606EB880859F8046B84
:1014D000F30728D4042E26D9336803F00F02042A18
:1014E00034D13046FFF743F90746304605F00AF895
:1014F0003A460146204628F0D9F93C4421E02546E9
:10150000C8E701A9FFF7D6FE01A828F051FBCEE7F6
:10151000032A7FF424AFC3F30F12C3F34173C3EB69
:1015200082031C44C4E701A93046FFF7C3FE01A8AB
:1015300028F03EFB01A906460246204628F0B6F9EF
:101540003444C845C2D100232370EAE6032AF8D107
:10155000C3F30F17C3F34173C3EB87073A46311D3B
:10156000C8E700002DE9F04F002893B00E4607DCD5
:101570001C2001F02BFE0446204613B0BDE8F08F7E
:101580000C6814F0010906D1042C04D9236803F077
:101590000F03092B01D00B20EBE763684FEA6308C8
:1015A000B8F1000F03DC484605F02AFAE3E701280A
:1015B00027D04868C20724D4042822D9036803F03E
:1015C0000F03042B1DD104F09DFF0546284628F08B
:1015D000EFFA043408F1FF330746019303FB00FBE5
:1015E00004EB880A54F8040FC3076BD4042869D9A4
:1015F000026802F00F01042905D1FFF7B8F883440F
:101600000AE0354DE2E7032963D1C2F30F11C2F3BB
:101610004172C2EB81029344A245E3D1584605F0E2
:10162000EFF904460028A7D0D6F800A01FB17068D3
:1016300004F068FF0546204604F064FF0AF1040A3E
:1016400006465AF804BF584604F05CFF1BF001033D
:101650000146029302D1BBF1040F04D805A95846F4
:10166000FFF728FE05A90846039128F0A1FADDE955
:10167000023102468BB9BBF1040F0ED9DBF8000032
:1016800000F00F0CBCF1030F01BFC0F30F12C0F349
:1016900041700BF10401C0EB82023046029228F047
:1016A00005F9029A164447B1019B4B4505DD3046CA
:1016B0003A46294628F0FAF83E4409F10109C8459E
:1016C000BFD159E705A9FFF7F5FD05A828F070FA85
:1016D00095E704F017FFF9E7C5CB02002DE9F041CB
:1016E000012888B003DC1C2001F070FD5EE00C686E
:1016F000E30730D4042C30D9266806F00F0648687A
:1017000004F000FFB349074628F040FAB249002828
:1017100038460CBF01254FF0FF3528F037FAAF49A6
:101720000028384608BF022528F030FAAC490028C6
:10173000384608BF042528F029FAAA490028384667
:1017400008BF092528F022FA002800F0EA816F1C62
:1017500005D13020C8E70226D1E70126CFE7013EB8
:10176000082E17D8DFE816F0090024007301530093
:101770001600160016001600CF00023D072D09D8EE
:10178000DFE805F004410C080808083D042C0CBFF4
:1017900003240124204608B0BDE8F0819248934B11
:1017A0000121042C18BF184605F032F90446F1E770
:1017B000013D082DEED801A353F825F0E1170000F4
:1017C0009517000007180000E917000095170000A2
:1017D000951700009517000095170000FF170000EF
:1017E000630835D00424D5E781496210684623F0A8
:1017F00015FC684628F0DCF901466846D4E7204627
:10180000FFF7D0FBD2E72046FFF7E2FBCEE7013D32
:10181000082DBFD801A353F825F000BF41180000E0
:1018200055180000C118000095170000951700001A
:101830009517000095170000951700006318000029
:10184000204604F05FFE694928F0A0F90028C9D1BC
:1018500000249FE72046FFF7D8FB400040F001043A
:1018600098E7204604F04EFEFEF7ABFF614D411CA9
:101870000646002209202C6005F006F8044608B947
:101880000A2031E70746730043F00103286847F850
:10189000043F04F037FE4FF00008054646457FF749
:1018A00079AF2846FEF797FF400040F0010047F867
:1018B000040F2846FEF771FF08F101080546EDE721
:1018C000204604F01FFE28F073F94A4DC11C06465D
:1018D0000022891003202C6004F0D6FF0446002863
:1018E000CED02D683146FEF72DFF284604F00AFEC3
:1018F000E21C00239E427FF74DAFC15C02F8011F3E
:101900000133F7E7032566686B1E7610032B3FF65D
:1019100041AFDFE803F00212713A012E0BD1A46847
:10192000E00708D4042C7FF635AF236803F00F03DB
:10193000012B3FF42FAF2D20D6E6012E03D1A46852
:10194000E1073FF527AF2C20CEE6013754F82700FA
:10195000FFF75BFB7F2812DDB0F5006F11DBB0F500
:10196000803F10DBB0F5883FB4BF2B46002398447E
:10197000BE42EADA01F030FC58B12A20B4E6012375
:10198000F5E70223F3E70323F1E701274FF000080F
:10199000EEE7184D40462C6005F032F82F680446FB
:1019A00000283FF455AF04F0ADFD0125AE42FFF62F
:1019B000F1AE013557F82530DA0701D4272093E638
:1019C000B3F5081F4FEA630101D331208CE6FFF71E
:1019D000AEFAEBE7DEA80200E6A80200EDA80200DE
:1019E000F4A80200F9A80200C3B60200E6C2020091
:1019F00061AF0200E01B0020F11C48BFB11D554D36
:101A00000022891003202C6004F03EFF04460028C9
:101A10003FF436AF31462D68FEF794FE021D6FF09D
:101A2000030005F10803001B11188E427FF7B2AEC8
:101A300053F8041BCD07C1D5B1F5007F4FEA61050E
:101A400001D3132050E602F8015BEDE73546266826
:101A5000013DC6F30F13C6F34176C6EB8306082D8E
:101A60003FF698AE01A353F825F000BF911A00008D
:101A7000A11A000095170000AB1A0000951700008E
:101A8000951700009517000095170000DF1A000059
:101A9000012E7FF450AF2379002B7FF4A3AED7E65D
:101AA000012E7FF450AF2079D7E62A4D30462C60C6
:101AB00004F0A6FF2B68044600283FF4E1AE1A1D8F
:101AC000C3F1FF2303F57F03C11CFC33D018B042E0
:101AD000BFF660AE12F8010B01F8010FF6E71D4DDD
:101AE0000022711C09202C6004F0CEFE2B680446F5
:101AF00000283FF4C5AE0146720042F0010241F8F1
:101B0000042F6FF00202D81CD21A13189E427FF7DE
:101B100041AE10F8013F5B0043F0010341F8043F80
:101B2000F3E7731E082B3FF635AE01A252F823F0FF
:101B300007180000071800004D1A0000C118000027
:101B400095170000951700009517000095170000E5
:101B500005190000E01B0020021E10B513DD0B6804
:101B600013F001041CBF5C1024EAE474012A00D0C5
:101B70004A68611C092004F087FE18B1640044F033
:101B80000104446010BD00240122F2E70A6812F04B
:101B9000010038B53AD1042A38D91368496803F0EE
:101BA0000F04092C1AD15568C3F30F13B3EB650F5B
:101BB0004FEA650498BF03F1FF34151D844205DC2C
:101BC00001330220984205DB002038BD45F8041F90
:101BD0000130F3E742F820100130F3E7032C15D170
:101BE000C80704D4BDE83840132001F0EFBAB1F5BE
:101BF000007F4FEA6100F5D20432C3F30F1302EB0A
:101C000083039A42E0D202F8010BFAE70B2001F0BD
:101C1000DDFAD9E72DE9F0414E6816F00107884654
:101C20002BD1042E29D9326802F00F03092B14D1CD
:101C30007368C2F30F12B2EB630F4FEA630500D86B
:101C4000551ED8F8008018F0010F1AD04FEA68042A
:101C5000002C1CDDA54223DA19E0042B04D1304608
:101C6000FEF785FD0546ECE7032B08D1C2F30F1301
:101C7000C2F34172C2EB8305E3E70025E1E73D468D
:101C8000DFE734484146FFF78FFAC0B10DB91220A3
:101C90002FE027F0ADFE90FBF5F303FB15035C1C72
:101CA000002F54D1042E52D9336803F00F03092BAF
:101CB00025D1013456F824402046BDE8F08126485D
:101CC0004146FFF771FAC0B9B8F1040F10D9D8F83E
:101CD000003003F00F03042B0AD14046FFF795F9BB
:101CE000041EB6D11D484146FFF75EFA0028CED14A
:101CF0001120BDE8F04101F069BA2C46D0E7042B71
:101D00001DD1304604F0FEFB012C05460FDCFEF72A
:101D100044FD461B304604F073FE04460028CBD039
:101D200004F0F0FB3246294627F0C0FDC4E72B78CB
:101D3000013C002BABD02846FEF72FFDE4E7032B38
:101D400005D13444E478640044F00104B4E70B2086
:101D5000CFE700BF04A90200D0A80200E6C202003B
:101D60002DE9F0414C6814F00106884632D1042C6C
:101D700030D923688F6803F00F02092A15D16268F1
:101D8000C3F30F13B3EB620F4FEA620500D85D1E79
:101D9000D8F800103748FFF707FA98B3236803F024
:101DA0000F03092B20D1012319E0032A12D1FA07CE
:101DB00004D41320BDE8F04101F008BAB7F5007F64
:101DC0004FEA6706F5D2C3F30F15C3F34173C3EBB4
:101DD0008505DDE70B20EDE7013344F823709D42D4
:101DE000FADA0020BDE8F081032BFAD1E31CC4F13C
:101DF000FF2404F57F04FE34E218AA42F1DC03F864
:101E0000016FF9E7D8F8008018F0010F0ED04FEA03
:101E10006800002822DD854220DB236803F00F03E1
:101E2000092B21D1013044F82070DAE712484146ED
:101E3000FFF7BAF9B0B9B8F1040F11D9D8F80030EA
:101E400003F00F03042B0BD14046FFF7DEF8002808
:101E5000E0D10A484146FFF7A7F908B11220A9E7E7
:101E60001120A7E72846D8E7032B04BF2418E67003
:101E7000B7E700BFCCA80200D0A80200E6C202006B
:101E8000086808B5C3071BD4042819D9036803F0F0
:101E90000F02092A01D1406808BD032A09D1C3F302
:101EA0000F12C3F34170C0EB8200400040F001000C
:101EB000F2E7042A04D104F025FBFEF782FCF4E7E4
:101EC0000120E9E7024A03480F2106F075BA00BF76
:101ED000A0A902000BA902001FB500210E2004F0EA
:101EE000ADF801210D2004F0A9F801210F2004F024
:101EF000A5F80A4808F012FB4FF080530193002325
:101F0000039302238DF8083004AB13E90E00034855
:101F100005B05DF804EB08F017BB00BFA43000204B
:101F2000086810B50C46C10706D4042804D9036814
:101F300003F00F03042B04D0BDE810400E2001F085
:101F400045B904F0DFFA0278A2F14103052B03D969
:101F5000A2F16103052B01D85A1C01D1206810BDE4
:101F6000054AD25C0E2A01BF044AD05C400040F012
:101F7000010018BF0120F2E70400002078050020CE
:101F8000086810B50C46C10706D4042804D90368B4
:101F900003F00F03042B04D0BDE810400E2001F025
:101FA00015B904F0AFFA0278A2F14103052B03D969
:101FB000A2F16103052B01D85A1C01D1206810BD84
:101FC000034A32F81300400040F00100F7E700BF79
:101FD0006C0500200868C30710B50C4604D40D201A
:101FE00001F0F4F8206810BD4010B0F5FA6FA8BFFA
:101FF0004FF4FA601428B8BF142006F001FB042047
:10200000F1E708B506F002FB400040F0010008BD12
:1020100008B506F0E7FA400040F0010008BD08B539
:1020200006F0E6FA400040F0010008BD08B506F0F1
:1020300087FA400040F0010008BD000010B5002202
:102040000621032004F020FC20B9BDE810400A203E
:1020500001F0BCB8C30709D4042807D9036803F00A
:102060000F02032A04BF43F0C0430360054AC31CA8
:1020700000F1180112F8014B03F8014F8B42F9D11E
:1020800010BD00BF030600202DE9F04102230F46DA
:1020900083420EDA57F82320D50707EB830405D4D3
:1020A0000D2001F093F82068BDE8F0810133DBB228
:1020B000EEE7386810F0010606D1042804D9036859
:1020C00003F00F03042B04D0BDE8F0410E2001F013
:1020D0007DB804F017FA0578A5F14103052B77D8F0
:1020E0001D46681C77D0484B5B5D0A2B40F08A8008
:1020F000464A15236B43D118E320D0544D70BC6879
:102100006410C4EB042414F1630F904665DB642370
:1021100094FBF3F4FF2CA8BFFF24FA685210C2EB23
:10212000022212F1630F5ADB642392FBF3F2FF2ABF
:10213000A8BFFF223B695B10C3EB032313F1630FBE
:102140004FDB642193FBF1F3FF2BA8BFFF237868DB
:10215000C10748D4042846D9016801F00F010429B9
:1021600041D1152101FB0581E4B2D2B2DBB28C7002
:10217000CA700B714C718A71CB710C724A728B727E
:10218000CC720A734B730121102023F04FFB002106
:10219000102023F089FB1E4CFFF79EFE152303FB46
:1021A000058515F8011B2046013608F0DAF9152ED1
:1021B000F7D1174808F0D4F90121102023F074FB5F
:1021C000144B4FF4FA4043F00103984704206BE7A7
:1021D000613D052D85D9386866E700249DE700221A
:1021E000A8E70023B3E74110013903293FF65CAFAC
:1021F00001EB4100152101FB058101448C70CA707F
:102200000B71C0E700204FE7040000207E0500208E
:10221000A4300020E0AA020010B5FC23064A037097
:10222000811D034612F8014B03F8014F8B42F9D18F
:10223000024B1B7DC37110BD04000020030600206B
:1022400070B50121102023F0F1FA0021102023F0B5
:102250002BFBFFF741FE0E480E4DE22108F081F9FD
:102260000124295D0A48013408F07BF9152CF8D1C6
:10227000074808F075F91020012123F015FB064BE3
:10228000BDE870404FF4FA4043F00103184700BF27
:10229000A430002010000020E0AA02004B68D807FC
:1022A00010B50C4604D40D2000F090FF606810BDFE
:1022B0000868C10706D4042804D9036803F00F0393
:1022C000042B04D0BDE810400E2000F07FBF04F0C6
:1022D00019F90278A2F14103052B03D9A2F1610398
:1022E000052B01D85A1C01D12068E0E70A4AD25CCC
:1022F000082A0ED1094A616803EB43031344002204
:102300005A709A70A1F34802DA70FFF799FF04201F
:10231000CDE70020CBE700BF040000201000002024
:102320004B68D80710B50C4604D40D2000F04EFFC2
:10233000606810BD0868C10706D4042804D9036882
:1023400003F00F03042B04D0BDE810400E2000F072
:102350003DBF04F0D7F80278A2F14103052B03D961
:10236000A2F16103052B01D85A1C01D12068E0E7D6
:102370000A4AD25C013A052A0ED8094A616803EB81
:102380004303134400225A709A70A1F34802DA7092
:10239000FFF756FF0420CCE70020CAE70400002026
:1023A000100000204B68D80710B50C4604D40D204F
:1023B00000F00CFF606810BD0868C10706D404284F
:1023C00004D9036803F00F03042B04D0BDE81040C8
:1023D0000E2000F0FBBE04F095F80278A2F1410354
:1023E000052B03D9A2F16103052B01D85A1C01D199
:1023F0002068E0E7104AD25C013A052A1AD86268E0
:1024000052100BD0642A6FF06301A8BF64228A4285
:10241000B8BF0A46032192FBF1F25A32074903EB97
:1024200043030B44002159709970DA70FFF708FFDD
:102430000420C0E70020BEE70400002010000020B8
:1024400038B54B68DC070D4605D58B68D80702D533
:10245000CB68D90704D40D2000F0B8FE002055E069
:10246000286810F0010406D1042804D9036803F099
:102470000F03042B04D0BDE838400E2000F0A6BEA8
:1024800004F040F80378A3F14102052A3AD8134634
:102490005A1C3AD06A685210C2EB022212F1630F42
:1024A00035DB642192FBF1F2FF2AA8BFFF22A86866
:1024B0004010C0EB002010F1630F2ADB642190FB79
:1024C000F1F0FF28A8BFFF20E9684910C1EB012106
:1024D00011F1630F05DB642491FBF4F4FF2CA8BF1A
:1024E000FF240D49C95C072901D00929B6D10B4940
:1024F00003EB43030B4458709A70DC70FFF7A0FEA7
:10250000042003E0613B052BC2D9286838BD0022B6
:10251000CDE70020D8E700BF040000201000002015
:1025200000EB400303481844002343708370C370DA
:10253000FFF786BE100000202DE9F3479D4B9E4C0F
:10254000186800909B88ADF804300121102023F01A
:102550006DF90021102023F0A7F9FFF7BDFC974883
:10256000964EDE2107F0FDFF01252070FF21304649
:1025700007F0F7FF60550135152DF7D18F48904EC4
:1025800007F0EEFF1020012123F08EF98D4BE27849
:102590001A7062795A70E2799A70627ADA70E27A25
:1025A0001A71627B5A718848DFF840C20023032702
:1025B0009E46018816F8012B02EB4102B2F53C7FE2
:1025C000B2FBF7F520F8025B51DD0DF803E00133B3
:1025D000062BEED17D4ADFF818C2107869466746AF
:1025E0001E46002511F801EB97F8008007F801EB73
:1025F000C6451CBF01250020013EF3D105B1107076
:102600001178132944D801311170714E3378002BA1
:1026100040F0B7806F4F3A7832B30121102023F099
:1026200005F90021102023F03FF9FFF755FC6A4D12
:10263000DFF88881002415F8011B4046013407F0BB
:1026400090FF152CF7D15D4807F08AFF012110207B
:1026500023F02AF9614B4FF4FA4043F00103984705
:102660000123337000233B7002B0BDE8F0870122E4
:1026700012F80C1001F10608454505DC06398D42BB
:1026800002DB0DF80320A2E701321A2AF0D19EE7FF
:102690001429BAD1152111704E49514D91F800E01D
:1026A000504800222F4690464FF0010917F801AB21
:1026B0001CF8016BB24508D00EB11F2E33D180F843
:1026C000008007F8016C01229646013B00F10100F1
:1026D000ECD10AB181F800E00B78002B95D03E4B8D
:1026E00015220021184627F009F9E1220270002284
:1026F0000221052617464FF0040C4FF0030E4FF051
:1027000006084FF0010915F8013B03F1FF3ABAF151
:10271000010F02F1010210D880F80190062A00F1A1
:102720000100F0D171E790F800A0BAF1000FCCD110
:1027300007F8016C80F80090C5E7A3F1030ABAF12D
:10274000030F02D880F80180E8E7072B01D0092B9E
:1027500001D14170E2E70A2B02D180F801E0DDE708
:10276000A3F10B0ABAF10A0F02D880F801C0D5E72D
:10277000082B02D0163B032B01D84670CEE74770DA
:10278000CCE7DFF85490DFF84C80174F0025013577
:1027900015F8092014F815309A4205D0012338465F
:1027A00088F8003006F0FCF9062DF0D100233370D4
:1027B00030E700BF2CAA020003060020A43000204E
:1027C00011060020780500206C0500201906002065
:1027D000020600201806002025000020E0AA0200C2
:1027E00004000020FC05002018AA0200B8AA02007C
:1027F0000A000020F0B587B01522FF21684627F0B7
:102800007DF8DF23012110208DF8003023F00EF831
:102810000021102023F048F8FFF75EFB0D4E6C46B8
:102820001525002714F8011B0B4807F09AFE013DFF
:1028300006F8017BF6D1084807F092FE012110202E
:1028400023F032F8054B4FF01F321A609A8007B020
:10285000F0BD00BF10000020A43000200A000020BE
:10286000024A03480D2105F0A7BD00BF50AA02008F
:10287000F4BD0200014A1360704700BF580E0020EB
:10288000704710B5044622F05BFC204610BD0000E6
:1028900008B5084609F0E3FD0022114608F00AFADF
:1028A000034B4FF6FF721A80024B00221A6008BDDC
:1028B0003A0000202006002010B50846144609F012
:1028C000CEFD08F097FB034B228C1A80024B0122AD
:1028D0001A6010BD3A00002020060020F0B5104E0E
:1028E00085B0002201A808F007FE3468BDF80A5040
:1028F000019FC4F50062954204DD0A480368013374
:102900000360154608482A463946204426F0CEFF83
:102910002C443846346021F042FA05B0F0BD00BFC7
:10292000500E0020600E00202406002010B5034B3E
:102930000360044608F020FD204610BD90AB020065
:1029400010B50446FFF7F2FF204622F0F9FB2046BF
:1029500010BD10B5044603F05FFB044403F05CFBBC
:10296000A04207D206F048FB04F0C6FC01201FF08D
:10297000B5FDF3E710BD00F1080373B5036004462D
:1029800008460D4627F014F90F2805EB00060190C4
:1029900007D9002201A9204623F08AFA019B206072
:1029A000A36020683246294623F0B5FA019B2268CD
:1029B000636000212046D15402B070BD4FF08052B8
:1029C000136E4371190A0171190C1B0EC1708370CB
:1029D000536E43701B0A03707047000037B5002424
:1029E00068460094ADF80440FFF7E8FFBDF80430F6
:1029F0000E495BBA1A209BB2B3FBF0F200FB123314
:102A00004133B2FBF0F50B7000FB1522B5FBF0F380
:102A100000FB1350413088700548CC7041324A7039
:102A200003B0BDE8304027F0BBB800BF1A06002055
:102A3000250E0020F8B5134E33780BB3124D134C0E
:102A400028682188124F132209F00BFD4FF6FF73FF
:102A50002380104B286800241C600F4B1C7009F069
:102A6000FEFC08F0C7FA39682868224609F052FFD0
:102A7000204609F09FF9094B2C603C601C603470C3
:102A8000F8BD00BF240E00205C0E00203A0000209C
:102A9000640E0020200600204C0E0020540E002062
:102AA00010B50E4C20688CB0B0B109F0D8FC08F01D
:102AB000A1FA206809F0D3FC094904466846FFF7EB
:102AC0005AFF694606A80AF02EFB204606A908F020
:102AD000C6F8684623F00EFA0CB010BD5C0E00205C
:102AE000E6AA020010B5154B1B6886B01BB309F0AF
:102AF00045F8044608F087FA1149204608F0AAFB79
:102B000010496846FFF737FF6946204608F01CFC6D
:102B1000684623F0EFF96421204608F0C4F8C82184
:102B2000204608F0C3F8084B1B7823B10022114659
:102B3000204608F0BFF806B010BD00BF5C0E0020B4
:102B4000E6AA0200250E00204C0E00202DE9F041DF
:102B5000434D2B7886B0002B7ED1FFF73FFF4149D4
:102B6000414E424FDFF8FC806846FFF704FF68469D
:102B700009F090F8684623F0BDF908F0E3FF044639
:102B80003060042022F0D8FA394B0360014601225C
:102B9000204609F06FFC37493068374E09F087FE50
:102BA0001022364930604FF400730AF07BFA344B40
:102BB00004461860042022F0BFFA01460760204650
:102BC00008F0E2FD4FF4007304222E4930680AF049
:102BD00069FA0446042022F0AFFA01460760204655
:102BE00008F0D2FD30680AF0EFF8274A01232B7075
:102BF0001370FFF777FF1B4826F0DAFF0324054622
:102C00002E1F0327B5421DD0012108EB060003F05B
:102C1000FFFE69460090012004F06CFA6946CDE998
:102C200000070320029704F09DFA4FF42F70FFF77E
:102C300090FE6946002004F061F86420FFF789FEE9
:102C40000136DFE74FF47A70FFF783FE013CD7D1FE
:102C50006946204604F052F806B0BDE8F08100BF96
:102C6000240E0020250E00205C0E002090AB0200F8
:102C700060AB0200E6AA0200640E00200BAB02006B
:102C8000540E002030AB02004C0E0020014B18689F
:102C9000704700BF20060020012070472DE9F04357
:102CA000464D2B6887B006460C46002B49D0444859
:102CB0001FF0E0F9022862DD05201FF00FFC4048FC
:102CC0001FF0D8F91428024601A9A8BF14223C48D5
:102CD0001FF07FF901AB0022023890424FDD13F85C
:102CE000011BFA2902F10102F7D119781A29F4D14E
:102CF0005F78002FF1D1DFF8D890DFF8D880B9F8ED
:102D00000010D8F80000132209F0ABFB4FF6FF7358
:102D1000A9F800302B4BD8F8000019683A4609F0A2
:102D2000F9FD294B2F601F7025481FF0A3F984423D
:102D300022463146A8BF024621481FF04AF9044600
:102D400037E0DFF8848098F80030002BECD105F0F4
:102D500013FF074698B9DFF87C90D9F8000070B1EE
:102D6000184B196809F0B8FDD9F8000009F077FB95
:102D70003A46394607F09EFF012388F800302B6859
:102D8000002BD1D0114F3D68AC42A8BF2C4684B176
:102D9000DFF844802246414630462D1B26F086FD52
:102DA000002D05DD2A4608EB0401404626F07EFD95
:102DB0003D60204607B0BDE8F08300BF200600203C
:102DC000B85A0020640E00204C0E0020500E002047
:102DD0003A0000205C0E0020240600200B462DE95E
:102DE000F341D41A1B4B1B68411833B91A482246C9
:102DF00002B0BDE8F0411FF055B8184D019103F045
:102E00000BF92B68019998423CBF00232B602B687B
:102E1000C31A132B06461BD9002C19DDFA2CDFF838
:102E200044800F4FD8F80000A8BFFA2400232246A0
:102E30003B6008F0B1FCD8F8000008F0A1FC3B684A
:102E40002E60002B18BF0024204602B0BDE8F081A0
:102E50000024F9E720060020B85A0020480E002080
:102E6000580E0020540E002008B505481FF0DAF86F
:102E7000BDE8084002484FF4E1311FF0BDB800BF83
:102E8000B85A0020037883B11A0601D40130704784
:102E900003F0C003C02B08BF0130024610460132C8
:102EA000037803F0C003802BF8D0704773B5064653
:102EB000084611F00101144627D1042842D90368BD
:102EC00003F00F03042B3DD1D30714D4042A39D9BE
:102ED000136803F00F03042B34D103F013FB0546F2
:102EE000204603F00FFB0146284626F04FFE00283F
:102EF00030DB21D129E0019103F004FB01990A2282
:102F000026F00EFF0546641013E012F0010117D100
:102F1000042A17D9136803F00F03042B12D14510AC
:102F20001046019103F0EEFA01990A2226F0F8FE0C
:102F30000446A5420EDB08DD002E09DC00200CE073
:102F40004510E0E7064B0F221A700136022EF5D825
:102F5000042002E0701700F0040002B070BD00BF52
:102F6000900E002007B510F0010104D04110084672
:102F700003B05DF804FB042813D9026802F00F02C5
:102F8000042A09D1019103F0BDFA01990A2203B084
:102F90005DF804EB26F0C4BE032A02D10A220430F5
:102FA000F5E7024B0D221A70E1E700BF900E0020FA
:102FB0002DE9F843054605F013FA044608B1BDE8CB
:102FC000F883284626F0F4FD2C4E07463379032B70
:102FD0000AD00134FF2C06F10806F7D1284B1B223A
:102FE0001A704FF0FF30EAE73A462946E0B205F0A2
:102FF00075FA034600283DD132685068111D984289
:10300000E7D051F804CFBCF1F00F03F10103F6D182
:103010009B000833D00702EB0301DAD40429D8D986
:10302000D35803F00F02042AD3D1C3F30F13013393
:10303000CA0701EB8300CCD40428CAD951F8233045
:1030400003F00F03042BC4D103F05CFA4FF0030923
:1030500080460921404626F08CFD0028B9D0B9F100
:10306000010900F10108F4D12946404626F0BBFDD4
:103070008045AED164F0FF00A1E700BF38770020A3
:10308000900E002010F0010210B516D1042802D9CC
:103090000268C2F30F1211F0010310D1042902D902
:1030A0000B68C3F30F13934214D1043000EB830376
:1030B0000331834205D8012010BD0022EBE7002335
:1030C000F1E710F8014B11F8012F54EA020CF2D08D
:1030D0009442EED00020EFE72DE9F04F85B0CDE926
:1030E0000113314F314E80468AB102233B700123D8
:1030F00033603368DFF8C890DFF8C8A0DFF8C8B0E5
:103100000024FC54444504DB05B0BDE8F08F326078
:10311000EFE7019B316853F82400C30707EB010573
:10312000C1F5487105D5224A4310284621F08AFF8F
:1031300004E0A8B91F4A284621F084FF1A4826F067
:1031400037FD029B30604BB108F1FF33A34205DD30
:10315000431C20223A540022FA5433600134D1E750
:10316000042801D1144AE6E71BD9026802F00F03D4
:10317000042B06D1039103F0C5F9104A03990346C5
:10318000D3E7092B03D143685A465B10CDE7032BE5
:1031900008D1C2F30F13C2F34172C2EB830352464C
:1031A000C3E701234A46C0E7E80E002008120020CA
:1031B00061AF0200B4AB0200BAAB020095E20200BC
:1031C000D9AB0200CEAB0200BFAB0200014B1870BE
:1031D00000207047900E0020024B1878003818BF6E
:1031E00001207047900E0020024B1860024BFF2216
:1031F0001A70704710120020900E002008B50023AE
:103200001A46FFF769FF034B0348196805F0DCFE17
:10321000002008BD08120020E80E002010B502F0C2
:1032200007FF084C231D01461F22184626F0C8FC44
:1032300026F0BEFC031D9B081B0143F00403236022
:10324000204610BD680E00202DE9F04F804608F1A1
:103250001809D8F81410C74FD8F810508BB009EBE4
:103260008101D0E9023002913978AA0003EB800491
:1032700009EB8505002952D153F8203092101E1217
:10328000C8F8102003F07F03BB4A52F823300434FF
:10329000924643F001031847D8F8082098F8023006
:1032A00098F80100A21A921043EA022205F09AFB54
:1032B000002388F800303B70D8F80830E41A029BED
:1032C000A5EB0905A3EB0909A410AD104FEAA9036A
:1032D000C8F80C40C8F81050C8F814300BB0BDE85E
:1032E000F08F98F8010005F077FB002388F8003094
:1032F000E2E73B789BB954F8043BA5EB09021E12A8
:1033000003F07F0392105AF82330C8F81020C0E76A
:10331000291DA1EB0903D82B17DD1A233B7039783F
:10332000FF29B9D1954E00233B703368002BC3DDD4
:10333000012388F8003002F067FE33684FF47A7298
:1033400002FB0300C8F80400B6E79A103B782E6031
:103350000BB10D46E3E754F8043BC8F810201E12E9
:1033600003F07F030D465AF8233092E7291DA1EBA5
:103370000903D82B02DD1A233B70D0E7204650F812
:10338000042B2A609A103B7813B10D460446C6E719
:103390006368C8F810201E1203F07F030D465AF828
:1033A0002330083475E7291DA1EB0903D82B02DD72
:1033B0001A233B70B3E79A103B7804EB86062E6025
:1033C0000BB10D46ABE754F8043BC8F810201E12B1
:1033D00003F07F030D465AF823305AE72A1DA2EB6B
:1033E0000903D82B02DD1A233B7098E7632ECABF6E
:1033F00063496449643E51F82610296015469A10C5
:103400003B78002B8BD154F8043BC8F810201E12D7
:1034100003F07F035AF823303BE75A4B55F8042D4D
:1034200043F826203B78002B7FF479AF54F8043B17
:10343000A5EB09021E1203F07F0392105AF8233005
:10344000C8F8102025E7DFF83CB15BF82600FFF74D
:1034500089FD3A78002A7FF462AF009055F8040D98
:10346000FFF780FD009B184440003B7840F00100CE
:10347000A5EB09024BF826009210002B7FF44FAF0A
:1034800054F8043BC8F810201E1203F07F035AF8CA
:103490002330FEE62A1DA2EB0903D82B02DD1A23F6
:1034A0003B703CE7029B994534BF53F80C3C012329
:1034B0002B603B78A2EB090189100BB115462EE772
:1034C00054F8043BC8F810101E1203F07F03154691
:1034D0005AF82330DDE62A1DA2EB0903D82B02DDC2
:1034E0001A233B701BE7029989450ED251F80C0C48
:1034F00006F18046033EA6EB600651F826102960CF
:1035000099103B783BB1154609E718233B7000231F
:103510002B60154603E754F8043BC8F810101E1240
:1035200003F07F0315465AF82330B2E6029B994513
:103530001CD2029A55F8043D52F80C0C06F1804654
:10354000033EA6EB600642F826303B78A5EB090265
:103550009210002B7FF4E3AE54F8043BC8F810201F
:103560001E1203F07F035AF8233092E618233B70B3
:10357000D5E600BF900E0020FCAB02001012002028
:1035800010770020347F0020029B99452DD253F8FC
:103590000C3C029A06F18046033EA6EB630352F808
:1035A0002300FFF7DFFC834655F8040DFFF7DAFC34
:1035B000029B029A53F80C3C5844A6EB6306430066
:1035C00043F0010342F826303B78A5EB0902921044
:1035D000002B7FF4A4AE54F8043BC8F810201E1250
:1035E00003F07F035AF8233053E618233B7096E626
:1035F000291DA1EB0903D82B02DD1A233B708EE6AF
:10360000029A52F826202A609A103B780BB10D4698
:1036100085E654F8043BC8F810201E1203F07F031F
:103620000D465AF8233034E6029A55F8043D42F824
:1036300026303B78002B7FF472AE54F8043BA5EBA8
:1036400009021E1203F07F0392105AF82330C8F8C3
:1036500010201EE6029B53F826004FEA600B55F837
:10366000040DFFF77FFC5844029B400040F001002E
:1036700043F826003B78002B7FF451AE54F8043B0E
:10368000A5EB09021E1203F07F0392105AF82330B3
:10369000C8F81020FDE5A5EB8605A945A5EB0906B0
:1036A0000ED83A78B310002A7FF439AE54F8042BC0
:1036B000C8F81030161202F07F025AF82230E8E5FE
:1036C000CC4802F00FFF3A78B310002A7FF427AEFF
:1036D00054F8042BC8F81030161202F07F025AF882
:1036E0002230D6E5002E04EB8604FFF6E5AD3B78EC
:1036F000A5EB09029210002B7FF411AE54F8043BA5
:10370000C8F810201E1203F07F035AF82330C0E5DA
:1037100055F8043D042B04D1002E04EB8604FFF67B
:10372000CBAD3B78A5EB09029210002B7FF4F7ADEF
:1037300054F8043BC8F810201E1203F07F035AF817
:103740002330A6E555F8043D042B04D0002E04EBED
:103750008604FFF6B1AD3B78A5EB09029210002B71
:103760007FF4DDAD54F8043BC8F810201E1203F0BE
:103770007F035AF823308CE555F8040CC107A5F1F6
:10378000040B0BD54010013800280ADB400040F044
:10379000010004EB8604CBF800008DE5FFF7E2FBA7
:1037A000F1E73B78ABEB090292100BB15D46B6E551
:1037B00054F8043BC8F810201E1203F07F035D4646
:1037C0005AF8233065E5029B05F10C0EAEEB0901BA
:1037D000A3EB0903D8294FEAA30302DD1A233B70A8
:1037E0009DE5760006F4FF7646F001062E60AB46B6
:1037F000D8F80850641B98F80250A41045EA042534
:103800006D005B0045F0010543F00103CBF8045067
:10381000CBF8083088F802203A7850F83C30C8F8E5
:1038200008307546891022B103F10804CDF808E08C
:1038300075E503F10C049B68CDF808E01E1203F057
:103840007F03C8F810105AF8233022E5029B55F880
:10385000046C99452DD1F2071ED4042E15D9336876
:1038600003F00F03042B19D1304602F04BFE26F073
:103870009FF9B0F5487FA8BF4FF448700630643018
:1038800004F0CAFE78B9043C16E50AD0002E0CBF3D
:1038900007204FF40070F2E70A20F0E74FF40070C1
:1038A000EDE70720EBE798F80100314605F0B1F8A5
:1038B0001BE5029B504953F80C2C504B3878A3EB76
:1038C0006203029A42F8236002EB830552F8083C37
:1038D0005A1088F80220D2B2043551F83210029AF8
:1038E000C8F8081052F8042C521009EB8202C3F3F6
:1038F00055230292A5EB090201EB830492100028E4
:103900007FF40DAD51F82330C8F810201E1203F0DB
:103910007F0304345AF82330BBE455F8040CFFF756
:1039200021FB1E28A5EB86052DDCA5EB090B002845
:103930004FEAAB0B0DDC3B78002B7FF4F0AC54F876
:10394000043BC8F810B01E1203F07F035AF823306E
:103950009FE4009002F058FB009B033B1E1802F00E
:1039600053FB274B801B9842F9D23B78002B7FF406
:10397000D6AC54F8043BC8F810B01E1203F07F0315
:103980005AF8233085E4012288F80020009002F0E4
:103990003BFB009B0A380344C8F804308CE455F81C
:1039A000040CFFF7DFFAA5EB8605061E10DC3B785A
:1039B000A5EB09029210002B7FF4B1AC54F8043B44
:1039C000C8F810201E1203F07F035AF8233060E479
:1039D0000C4B9E4202DD1D233B70A0E4012388F8BE
:1039E000003002F011FB4FF47A7303FB06000A3833
:1039F000A8E400BFEBAB020038770020FDFFFF3FDB
:103A00008096980080EE360000233046A5EB8605B0
:103A1000CA4E1A462946FFF75FFB3168C84802F0D4
:103A2000F7FFC84B31681860C54805F0AFF9316839
:103A3000C34805F0C9FA3B78002B7FF470AC54F80A
:103A4000043BA5EB09021E1203F07F0392105AF803
:103A50002330C8F810201CE43B78A5EB8605002B2A
:103A60007FF45DAC54F8043BA5EB09021E1203F091
:103A70007F0392105AF82330C8F8102009E440461A
:103A800004F028FE3B78002B7FF449AC54F8043B4B
:103A9000A5EB09021E1203F07F0392105AF823309F
:103AA000C8F81020FFF7F5BB55F8043C002B47D1B0
:103AB00055F80C0C10F0010B20D04FEA600B4FEAC8
:103AC0004B0343F0010345F8083CBBF1000F40F302
:103AD000968055F8080C4FEA4B03CBEB600B55F87A
:103AE0000C0C43F0010345F8043CC3072DD50BF142
:103AF000010B4FEA4B0343F0010331E004281BD9CB
:103B0000036803F00F02092A01D14068D5E7042AAF
:103B100009D102F0F7FC0378002BD0D0FFF7B2F9FF
:103B20000BF1010BF7E7032A06D1C3F30F1BC3F315
:103B30004173C3EB8B0BC2E719233B70FFF7EFBB5D
:103B40004FEA630B0BF1FF3BBFE7042853D903682F
:103B500003F00F03092B18D10BF1020B50F82B3097
:103B6000029A42F826303B78A5EB09029210002B0E
:103B70007FF4D5AB54F8043BC8F810201E1203F0B4
:103B80007F035AF82330FFF784BB042B2CD1029B10
:103B900003EB8603009302F0B5FC0BF1010B064624
:103BA000BBF1010F10DC3046FFF76CF9821B1046A9
:103BB000039202F025FF834668B102F0A3FC039A4A
:103BC000314625F073FE06E030780BF1FF3B30B94B
:103BD00012233B708346009BC3F800B0C3E7304616
:103BE000FFF750F90646DBE7032B04D183449BF82B
:103BF00004305B007FE719233B70FFF790BB043470
:103C0000B1E705EB8603A3EB0903D82B16DC0122F1
:103C1000002E06F1FF3315DC3B78A5EB090292106C
:103C2000002B7FF47CAB54F8043BC8F810201E1224
:103C300003F07F035AF82330FFF72BBB1A233B70A6
:103C4000FFF76DBB45F8042B1E46E1E72B1DA3EBE8
:103C50000903D82B03DD1A233B70FFF760BB029BDF
:103C6000994530D255F8040CFFF77CF9002827DD80
:103C7000029B53F80C3CB0EB630F4FEA63021FDC6E
:103C8000801A00F18040029B043853F82020A5EBF5
:103C900086031A60C6F1010605EB86053B78A5EBA5
:103CA00009029210002B7FF43AAB54F8043BC8F899
:103CB00010201E1203F07F035AF82330FFF7E9BAF1
:103CC00020233B70E6E71823FBE71E4B1A68A5EBA1
:103CD0008603C6F101061A603B7805EB8605002BCA
:103CE0007FF41DAB54F8043BA5EB09021E1203F050
:103CF0007F0392105AF82330C8F81020FFF7C9BA92
:103D000055F8043C042BA5F104023B7808BF2A4671
:103D1000A2EB090108BF04EB8604891013B1154614
:103D2000FFF7FDBA54F8043BC8F810101E1203F058
:103D30007F0315465AF82330FFF7ABBA081200206C
:103D4000E80E00204400002055F8043D042B1CBF61
:103D5000002345F8043B3B78A5EB090218BF04EBB0
:103D600086049210002B7FF4DAAA54F8043BC8F8BA
:103D700010201E1203F07F035AF82330FFF789BA90
:103D8000002EA5EB860119DC1C233B700022C6F136
:103D9000010605EB86053B780A60A5EB0902921047
:103DA000002B7FF4BCAA54F8043BC8F810201E1264
:103DB00003F07F035AF82330FFF76BBA0B684FF01C
:103DC000000C5B1051F82C0010F0010202D10D2301
:103DD0003B70DCE7401083420CF1010CA8BF0346A6
:103DE0006645EFDC5B0043F00102D0E7002EA5EB57
:103DF000860119DC1C233B700022C6F1010605EB8D
:103E000086053B780A60A5EB09029210002B7FF42F
:103E100086AA54F8043BC8F810201E1203F07F0352
:103E20005AF82330FFF735BA0B684FF0000C5B10DF
:103E300051F82C0010F0010202D10D233B70DCE799
:103E4000401083420CF1010CB8BF03466645EFDC1D
:103E50005B0043F00102D0E755F8081C11F0010F98
:103E60004FEA860323D055F8042C12F0010F1ED020
:103E70005210B2EB610FA5EB0303CCBF042200226A
:103E80001A60C6F1010605EB86053B78A5EB090231
:103E90009210002B7FF443AA54F8043BC8F810207A
:103EA0001E1203F07F035AF82330FFF7F2B955F8DA
:103EB000042C6FF00100A5EB030BFEF7F7FFCBF826
:103EC0000000DEE755F8081C11F0010F4FEA8603E9
:103ED00023D055F8042C12F0010F1ED05210B2EB73
:103EE000610FA5EB0303ACBF042200221A60C6F1E8
:103EF000010605EB86053B78A5EB09029210002B25
:103F00007FF40DAA54F8043BC8F810201E1203F0E9
:103F10007F035AF82330FFF7BCB955F8042C4FF053
:103F2000FF30A5EB030BFEF7C1FFCBF80000DEE787
:103F300055E902014FEA860B8142A5EB0B0B18D124
:103F40000423CBF80030C6F1010605EB86053B786B
:103F5000A5EB09029210002B7FF4E1A954F8043B71
:103F6000C8F810201E1203F07F035AF82330FFF721
:103F700090B9042801D80023E3E7C207FBD4036803
:103F800003F00F03042BF6D1CB07F4D40429F2D9A4
:103F90000B6803F00F03042BEDD1FFF773F8002833
:103FA00014BF04230023CCE755E902014FEA860B36
:103FB0008142A5EB0B0B18D10023CBF80030C6F1E2
:103FC000010605EB86053B78A5EB09029210002B54
:103FD0007FF4A5A954F8043BC8F810201E1203F082
:103FE0007F035AF82330FFF754B9042801D804237B
:103FF000E3E7C207FBD4036803F00F03042BF6D1F9
:10400000CB07F4D40429F2D90B6803F00F03042B77
:10401000EDD1FFF737F8002814BF00230423CCE7C5
:1040200055F8081C11F0010F4FEA860323D055F80C
:10403000042C12F0010F1ED05210B2EB610FA5EB51
:104040000303D4BF042200221A60C6F1010605EB67
:1040500086053B78A5EB09029210002B7FF45FA93F
:1040600054F8043BC8F810201E1203F07F035AF8DE
:104070002330FFF70EB955F8042C0120A5EB030BF4
:10408000FEF714FFCBF80000DFE755F8081C11F02D
:10409000010F4FEA860323D055F8042C12F0010FCC
:1040A0001ED05210B2EB610FA5EB0303B4BF042284
:1040B00000221A60C6F1010605EB86053B78A5EBE8
:1040C00009029210002B7FF42AA954F8043BC8F887
:1040D00010201E1203F07F035AF82330FFF7D9B8DF
:1040E00055F8042C0220A5EB030BFEF7DFFECBF8FE
:1040F0000000DFE755F8043C042BA5EB86030CBF5A
:1041000000220422C6F101061A6005EB86053B7801
:10411000A5EB09029210002B7FF401A954F8043B8F
:10412000C8F810201E1203F07F035AF82330FFF75F
:10413000B0B855F8080CFEF715FF834655F8040C87
:10414000FEF710FF5844A5EB8603400040F0010045
:1041500018603B78C6F1010605EB8605002B7FF45D
:10416000DEA854F8043BA5EB09021E1203F07F03FE
:1041700092105AF82330C8F81020FFF78AB855F883
:10418000080CFEF7EFFE834655F8040CFEF7EAFE36
:10419000ABEB0000A5EB8603400040F00100186087
:1041A0003B78C6F1010605EB8605002B7FF4B7A826
:1041B00054F8043BA5EB09021E1203F07F03921092
:1041C0005AF82330C8F81020FFF763B855F8080CE8
:1041D000FEF7C8FE834655F8040CFEF7C3FE00FB4D
:1041E0000BF0A5EB8603400040F0010018603B781F
:1041F000C6F1010605EB8605002B7FF490A854F864
:10420000043BA5EB09021E1203F07F0392105AF83B
:104210002330C8F81020FFF73CB855F8040CFEF71F
:10422000A1FE8346D0B91F233B70A5EB8603C6F1E0
:104230000106186005EB86053B78A5EB0902921094
:10424000002B7FF46CA854F8043BC8F810201E1211
:1042500003F07F035AF82330FFF71BB855F8080C1A
:10426000FEF780FE90FBFBF0400040F00100DCE731
:10427000A5EB860BDBF80000FEF774FE0090DBF880
:104280000400FEF76FFE009BC8B91F233B70C6F108
:10429000010605EB86053B78CBF80000A5EB09028B
:1042A0009210002B7FF43BA854F8043BC8F8102070
:1042B0001E1203F07F035AF82330FEF7EABF80EAAC
:1042C000E072A2EBE07293FBF2F002FB10300028E8
:1042D000B8BF8018400040F00100D8E755F8040C42
:1042E000FEF740FE002855F8040C1DDDFEF73AFEEF
:1042F000A5EB8603400040F00100C6F101061860FE
:1043000005EB86053B78A5EB09029210002B7FF4A4
:1043100006A854F8043BC8F810201E1203F07F03CF
:104320005AF82330FEF7B5BFFEF71CFE4042DFE728
:10433000012EA5EB860B35D1DBF80000FEF712FE4F
:104340000028ACBF01224FF0FF32824202DD13464B
:10435000024618460130831A0392009325F048FB69
:10436000009B039A90FBF3F101FB13031A445200E4
:10437000C6F1010642F0010205EB86053B78CBF859
:104380000020A5EB09029210002B7EF4C8AF54F870
:10439000043BC8F810201E1203F07F035AF82330A4
:1043A000FEF777BF022E0AD1DBF80000FEF7DAFD38
:1043B0000090DBF80400FEF7D5FD009AC5E7642005
:1043C0000122C7E7A5EB860B3046594602F03FFBBA
:1043D0003B78CBF80000C6F1010605EB8605002B03
:1043E0007EF49DAF54F8043BA5EB09021E1203F0C6
:1043F0007F0392105AF82330C8F81020FEF749BF07
:1044000055F8080CFEF7AEFD834655F8040CFEF790
:10441000A9FD0BEA0000A5EB8603400040F0010077
:1044200018603B78C6F1010605EB8605002B7EF48B
:1044300076AF54F8043BA5EB09021E1203F07F038C
:1044400092105AF82330C8F81020FEF722BF55F812
:10445000080CFEF787FD834655F8040CFEF782FD35
:104460004BEA0000A5EB8603400040F00100186015
:104470003B78C6F1010605EB8605002B7EF44FAFB5
:1044800054F8043BA5EB09021E1203F07F039210BF
:104490005AF82330C8F81020FEF7FBBE55F8080C78
:1044A000FEF760FD834655F8040CFEF75BFD8BEAD2
:1044B0000000A5EB8603400040F0010018603B7847
:1044C000C6F1010605EB8605002B7EF428AF54F8F3
:1044D000043BA5EB09021E1203F07F0392105AF869
:1044E0002330C8F81020FEF7D4BE55F8040CFEF7B0
:1044F00039FDC043A5EB8603400040F00100186081
:104500003B78C6F1010605EB8605002B7EF407AF6C
:1045100054F8043BA5EB09021E1203F07F0392102E
:104520005AF82330C8F81020FEF7B3BE55F8080C2F
:10453000FEF718FD834655F8040CFEF713FD0BFA41
:1045400000F0A5EB8603400040F0010018603B78C6
:10455000C6F1010605EB8605002B7EF4E0AE54F8AB
:10456000043BA5EB09021E1203F07F0392105AF8D8
:104570002330C8F81020FEF78CBE55F8080CFEF763
:10458000F1FC834655F8040CFEF7ECFC4BFA00F006
:10459000A5EB8603400040F0010018603B78C6F1AF
:1045A000010605EB8605002B7EF4B9AE54F8043BFA
:1045B000A5EB09021E1203F07F0392105AF8233074
:1045C000C8F81020FEF765BE55F80C0CFEF7CAFCC3
:1045D000834655F8080CFEF7C5FC8BFB002355F805
:1045E000040CCDE90023FEF7BDFCDDE90023C0F19A
:1045F000200CB0F1200103FA0CFC22FA00F040EA92
:104600000C005CBF43FA01F10843A5EB860E4000A5
:104610003B7840F00100C6F10106CEF8000005EB42
:104620008605002B7EF47BAE54F8043BA5EB090213
:104630001E1203F07F0392105AF82330C8F810209E
:10464000FEF727BEA5EB860B30465946FDF784FAE8
:104650003B78CBF80000C6F1010605EB8605002B80
:104660007EF45DAE54F8043BA5EB09021E1203F084
:104670007F0392105AF82330C8F81020FEF709BEC5
:10468000A5EB860529463046FDF780FA3B78002BDE
:104690007EF445AE54F8043BA5EB09021E1203F06C
:1046A0007F0392105AF82330C8F81020FEF7F1BDAE
:1046B000A5EB860B30465946FDF7ACFA3B78CBF8B4
:1046C0000000C6F1010605EB8605002B7EF427AE3F
:1046D00054F8043BA5EB09021E1203F07F0392106D
:1046E0005AF82330C8F81020FEF7D3BDA5EB860595
:1046F00029463046FDF734FB3B78002B7EF40FAEA5
:1047000054F8043BA5EB09021E1203F07F0392103C
:104710005AF82330C8F81020FEF7BBBDA5EB860B76
:1047200030465946FDF7ACFB3B78CBF80000C6F1AC
:10473000010605EB8605002B7EF4F1AD54F8043B31
:10474000A5EB09021E1203F07F0392105AF82330E2
:10475000C8F81020FEF79DBD55F8040C01F0D2FEFC
:1047600055F8083CD9072ED4042B0CD91B6803F04C
:104770000F03013B082B10D8DFE803F005252B279A
:104780000F0F0F0F2900C44925F000FAA5EB86038F
:1047900000280CBF042200221A60C6F1010605EBB6
:1047A00086053B78A5EB09029210002B7EF4B7AD8D
:1047B00054F8043BC8F810201E1203F07F035AF887
:1047C0002330FEF766BDB549DEE7B549DCE7B549FC
:1047D000DAE7B549D8E705F1040BABEB0906D82EAB
:1047E00003DD1A233B70FEF79ABD01F015FC3B7800
:1047F000400040F001002860B21013B15D46FEF7A2
:104800008EBD54F8043BC8F810201E1203F07F033D
:104810005D465AF82330FEF73CBD05F1040BABEBC7
:104820000906D82E03DD1A233B70FEF778BD01F090
:10483000EBFB9E4B03EA40003B7840F00100286010
:10484000B21013B15D46FEF76ABD54F8043BC8F8D8
:1048500010201E1203F07F035D465AF82330FEF746
:1048600018BD05F1040BABEB0903D82B03DD1A23AC
:104870003B70FEF754BD01F0CFFB8D4B1B68984297
:104880003DBFC3F5830303F63713C018C01A4000B9
:104890003B7840F00100ABEB09022860921013B1A5
:1048A0005D46FEF73CBD54F8043BC8F810201E12CC
:1048B00003F07F035D465AF82330FEF7EABC01F0AF
:1048C000ABFB7B4B18603B78A5EB8605002B7EF499
:1048D00026AD54F8043BA5EB09021E1203F07F033A
:1048E00092105AF82330C8F81020FEF7D2BC04F01A
:1048F00043F9B30090B9ED1A3B78A5EB0902921089
:10490000002B7EF40CAD54F8043BC8F810201E12A6
:1049100003F07F035AF82330FEF7BBBC3046EF1A92
:10492000644E01231A463946FEF7D6FB30686430E0
:1049300003F072FE00283EF4A6AF98F8012031681B
:104940005D4804F06BF8012388F8003001F05CFB4F
:104950005A4A33681268063302FB0300C8F80400A1
:104960003D46FEF7A9BC04F007F9B10090B96D1AF5
:104970003B78A5EB09029210002B7EF4D0AC54F8E2
:10498000043BC8F810201E1203F07F035AF82330AE
:10499000FEF77FBC30466F1A464E0123002239468F
:1049A000FEF79AFB3068643003F036FE00283EF4D0
:1049B0006AAF414803F0F3FFC5E7FEF72FFCA5EB14
:1049C000860B3B78CBF80000C6F1010605EB8605A7
:1049D000002B7EF4A4AC54F8043BA5EB09021E1294
:1049E00003F07F0392105AF82330C8F81020FEF726
:1049F00050BC3B78A5EB8605002B7EF490AC54F8B8
:104A0000043BA5EB09021E1203F07F0392105AF833
:104A10002330C8F81020FEF73CBC012E4FEA860276
:104A20001ADC1C233B70AA1A00231360C6F101068E
:104A300005EB86053B78A5EB09029210002B7EF46E
:104A40006EAC54F8043BC8F810201E1203F07F032C
:104A50005AF82330FEF71DBC029B9945A5EB0202D4
:104A600002D355F8043CE0E755F8083C55F8041C1F
:104A70005B10002B0DDD029850F80C0CB3EB600FAF
:104A80004FEA600CDFBFA3EB0C030299043B51F823
:104A900023101160CAE700BFDEA80200E6A80200EA
:104AA000EDA80200F4A80200F9A80200FEFFFF7FB3
:104AB0001C12002008120020E80E002040000020F8
:104AC000A5EB860B584601F0DFFA3B78CBF80000E7
:104AD000C6F1010605EB8605002B7EF420AC54F8E8
:104AE000043BA5EB09021E1203F07F0392105AF853
:104AF0002330C8F81020FEF7CCBBA5EB860B584638
:104B000001F0C4FA3B78CBF80000C6F1010605EBD2
:104B10008605002B7EF403AC54F8043BA5EB090298
:104B20001E1203F07F0392105AF82330C8F81020A9
:104B3000FEF7AFBBA5EB860B3046594601F05CF99A
:104B40003B78CBF80000C6F1010605EB8605002B8B
:104B50007EF4E5AB54F8043BA5EB09021E1203F00A
:104B60007F0392105AF82330C8F81020FEF791BB4B
:104B7000A5EB8605284601F08BFA3B78002B7EF4E6
:104B8000CEAB54F8043BA5EB09021E1203F07F03E1
:104B900092105AF82330C8F81020FEF77ABBA5EB24
:104BA000860B3046594601F063F93B78CBF800009C
:104BB000C6F1010605EB8605002B7EF4B0AB54F878
:104BC000043BA5EB09021E1203F07F0392105AF872
:104BD0002330C8F81020FEF75CBBA5EB86052846FD
:104BE00001F048FB3B78002B7EF499AB54F8043B72
:104BF000A5EB09021E1203F07F0392105AF823302E
:104C0000C8F81020FEF745BB0121304601F0F0FA4C
:104C10003B78002B7EF483AB54F8043BA5EB0902F0
:104C20001E1203F07F0392105AF82330C8F81020A8
:104C3000FEF72FBB0021304601F0DAFA3B78002B5B
:104C40007EF46DAB54F8043BA5EB09021E1203F091
:104C50007F0392105AF82330C8F81020FEF719BBD2
:104C6000A5EB860B584601F085FA3B78CBF800009F
:104C7000C6F1010605EB8605002B7EF450AB54F817
:104C8000043BA5EB09021E1203F07F0392105AF8B1
:104C90002330C8F81020FEF7FCBAA5EB860B584667
:104CA00001F07CFA3B78CBF80000C6F1010605EB79
:104CB0008605002B7EF433AB54F8043BA5EB0902C8
:104CC0001E1203F07F0392105AF82330C8F8102008
:104CD000FEF7DFBAA5EB8605284601F02DFA3B78F2
:104CE000002B7EF41CAB54F8043BA5EB09021E120A
:104CF00003F07F0392105AF82330C8F81020FEF713
:104D0000C8BAA5EB8605284604F0B0FD3B78002B19
:104D10007EF405AB54F8043BA5EB09021E1203F028
:104D20007F0392105AF82330C8F81020FEF7B1BA6A
:104D3000A5EB860B584604F0A9FE3B78CBF80000A3
:104D4000C6F1010605EB8605002B7EF4E8AA54F8AF
:104D5000043BA5EB09021E1203F07F0392105AF8E0
:104D60002330C8F81020FEF794BAA5EB8605284634
:104D700004F0C6FC3B78002B7EF4D1AA54F8043B27
:104D8000A5EB09021E1203F07F0392105AF823309C
:104D9000C8F81020FEF77DBAA5EB860B584604F044
:104DA000CDFC3B78CBF80000C6F1010605EB86058B
:104DB000002B7EF4B4AA54F8043BA5EB09021E12A2
:104DC00003F07F0392105AF82330C8F81020FEF742
:104DD00060BAA5EB86052946304602F043F93B78D8
:104DE000002B7EF49CAA54F8043BA5EB09021E128A
:104DF00003F07F0392105AF82330C8F81020FEF712
:104E000048BAA5EB86052946304601F077FF3B7886
:104E1000002B7EF484AA54F8043BA5EB09021E1271
:104E200003F07F0392105AF82330C8F81020FEF7E1
:104E300030BAA5EB86052946304602F01FF93B78CB
:104E4000002B7EF46CAA54F8043BA5EB09021E1259
:104E500003F07F0392105AF82330C8F81020FEF7B1
:104E600018BAA5EB86052946304602F025F93B78AD
:104E7000002B7EF454AA54F8043BA5EB09021E1241
:104E800003F07F0392105AF82330C8F81020FEF781
:104E900000BAA5EB860B3046594604F013FF3B7869
:104EA000CBF80000C6F1010605EB8605002B7EF469
:104EB00036AA54F8043BA5EB09021E1203F07F0347
:104EC00092105AF82330C8F81020FEF7E2B9A5EB8B
:104ED000860B3046594604F0FDFE3B78CBF80000C7
:104EE000C6F1010605EB8605002B7EF418AA54F8DE
:104EF000043BA5EB09021E1203F07F0392105AF83F
:104F00002330C8F81020FEF7C4B9A5EB860B304655
:104F1000594604F0E7FE3B78CBF80000C6F10106E5
:104F200005EB8605002B7EF4FAA954F8043BA5EBAB
:104F300009021E1203F07F0392105AF82330C8F8BA
:104F40001020FEF7A6B9A5EB860B3046594604F0B3
:104F5000ADFA3B78CBF80000C6F1010605EB8605FB
:104F6000002B7EF4DCA954F8043BA5EB09021E12C9
:104F700003F07F0392105AF82330C8F81020FEF790
:104F800088B9A5EB86052946304602F03FF93B7803
:104F9000002B7EF4C4A954F8043BA5EB09021E12B1
:104FA00003F07F0392105AF82330C8F81020FEF760
:104FB00070B9A5EB86052946304602F0D3F83B7858
:104FC000002B7EF4ACA954F8043BA5EB09021E1299
:104FD00003F07F0392105AF82330C8F81020FEF730
:104FE00058B9A5EB860B3046594602F083F83B785A
:104FF000CBF80000C6F1010605EB8605002B7EF418
:105000008EA954F8043BA5EB09021E1203F07F039E
:1050100092105AF82330C8F81020FEF73AB9A5EBE1
:1050200086052946304601F0C3FF3B78002B7EF40D
:1050300076A954F8043BA5EB09021E1203F07F0386
:1050400092105AF82330C8F81020FEF722B9A5EBC9
:1050500086052868FDF786FF1728834614DCA8B16B
:1050600000232B603B78A5EB09029210002B7EF405
:1050700056A954F8043BC8F810201E1203F07F0311
:105080005AF82330FEF705B97828E9DC0C229BFB9F
:10509000F2F3591F02FB13B3BD4A002952F8233023
:1050A00042DD0022013291424FEA4303FADC686894
:1050B0000093FDF757FF064603F0A8FA032296FB7C
:1050C000F2F202EB420296424FF03C020CBF42F277
:1050D00028314FF47A6191FBF6F6564396FBF0F6D1
:1050E000092E009BBCDDBBF1000F17D04FF47A7B7B
:1050F000B3FBFBF35B004FF0FF3243F0010305A964
:1051000002200592069300F02DFEA24B01221A60A8
:1051100000F07AFFA04B0BFB060018609F4B1E604F
:10512000FF233B7004239CE7C1D00022013A914247
:105130004FEA5303FADBBAE7A5EB86052868FDF7CB
:1051400011FF44F60C62A0F11401914213D900231F
:105150002B603B78A5EB09029210002B7EF4DFA8B0
:1051600054F8043BC8F810201E1203F07F035AF8CD
:105170002330FEF78EB800906868FDF7F3FE09282B
:105180000646E4DD009B580040F001004FF0FF3B75
:10519000069005A90220CDF814B000F0E3FD7D4B88
:1051A00001221A6000F030FF4FF47A7303FB06000F
:1051B000794B87F800B01860784B1E600423C7E76E
:1051C000A5EB86052868C20706D4042804D903681D
:1051D00003F00F03042B15D00E233B7000232B602C
:1051E0003B78A5EB09029210002B7EF498A854F8A6
:1051F000043BC8F810201E1203F07F035AF8233036
:10520000FEF747B801F07EF90678A6F14103052BB9
:105210001FD81E46731CE1D0A868FDF7A3FE42F21A
:10522000107398428346D9DC2B68059305A96B68F7
:1052300006930220FDF774F8BBF1090F584A0CDC05
:10524000002342F82630574B012243F8262004233E
:10525000C5E7613E052EDDD9C0E7012342F82630BF
:1052600000F0D2FE4FF47A7202FB0B004E4A42F875
:1052700026004C4A012342F82630484BC3F800B0C0
:10528000FF233B70E3E7A5EB86052868C60706D435
:10529000042804D9036803F00F03042B15D00E2350
:1052A0003B7000232B603B78A5EB09029210002B8A
:1052B0007EF435A854F8043BC8F810201E1203F001
:1052C0007F035AF82330FDF7E4BF01F01BF906789D
:1052D000A6F14103052B1FD81E46711CE1D0A8681A
:1052E000FDF740FE42F2107398428346D9DC2B68EA
:1052F000059305A96B6806930220FDF753F8BBF1EF
:10530000090F274A274B0BDC002142F82610022206
:1053100043F826200423C5E7613E052EDDD9C0E70A
:10532000012142F8261000F06FFE4FF47A7202FB62
:105330000B001D4A1B4B42F82600022243F8262090
:10534000164BC3F800B0FF233B70E3E7A5EB8605DF
:105350002868C20706D4042804D9036803F00F03A1
:10536000042B23D00E233B7000232B603B78A5EB4E
:1053700009029210002B7DF4D2AF54F8043BC8F818
:1053800010201E1203F07F035AF82330FDF781BF6F
:10539000FCAD0200980E0020940E00201012002098
:1053A000A00E0020D00E0020B80E002001F0AAF8B8
:1053B0000678A6F14103052B1FD81E46731CD3D0D7
:1053C000A868FDF7CFFD42F2107398428346CBDC0C
:1053D0002B68059305A96B6806930220FCF75EFF16
:1053E000BBF1090FAD4AAE4B0BDC002142F8261091
:1053F000032243F826200423B7E7613E052EDDD9BA
:10540000B2E7012142F8261000F0FEFD4FF47A7257
:1054100002FB0B00A34AA24B42F82600032243F8EA
:105420002620A14BC3F800B0FF233B70E3E7A5EBB8
:1054300086052868C60706D4042804D9036803F043
:105440000F03042B15D00E233B7000232B603B78F9
:10545000A5EB09029210002B7DF461AF54F8043BD8
:10546000C8F810201E1203F07F035AF82330FDF70E
:1054700010BF01F047F80678A6F14103052B22D8AA
:105480001E46711CE1D02869FDF76CFD42F21073D5
:1054900098428346D9DC2B6805936B680693AB680A
:1054A000079305A9EB6808930420FCF7C9FFBBF13B
:1054B000090F7A4B7A4A0ADC002143F826100423AC
:1054C00042F82630C2E7613E052EDAD9BDE7012158
:1054D00043F8261000F098FD4FF47A7303FB0B009D
:1054E000704B6F4A43F82600042342F826306E4A78
:1054F000C2F800B0FF223A70A8E7A5EB860528683D
:10550000C20706D4042804D9036803F00F03042B50
:1055100002D00E233B7031E000F0F4FF0678A6F1D4
:105520004103052B27D81E46731C27D02869FDF799
:1055300019FD42F21073984283461FDC2B685B48CA
:105540000593032101F064FA6B680793AB6806903A
:10555000089305A9EB6809930520FCF795FDBBF1BD
:10556000090F4E4A4E4B1DDC002142F82610052241
:1055700043F8262002E0613E052ED5D900232B609A
:105580003B78A5EB09029210002B7DF4C8AE54F8CD
:10559000043BC8F810201E1203F07F035AF8233092
:1055A000FDF777BE012142F8261000F02DFD4FF4E3
:1055B0007A7202FB0B003B4A394B42F82600052267
:1055C00043F82620384BC3F800B0FF23A2E7384A3F
:1055D000DFF8F0B0A5EB86050023136028680523EB
:1055E000CBF8003000F08EFF324B0646186024F0F6
:1055F000DFFA314B01211860304601F009FA05A9A4
:105600000590012001F076FDDBF8003005905B008D
:1056100043F00103032005A90693079001F0A2FDC2
:10562000264B01221A6000F0EFFC254B00F5C33039
:10563000A030186004232B603B78002B7DF46FAE04
:1056400054F8043BA5EB09021E1203F07F039210ED
:105650005AF82330C8F81020FDF71BBE002E40F387
:10566000A180114A55F804BC4FF0FF33012E13609E
:105670003B7029D11BF0010F33D1BBF1040F30D99E
:10568000DBF8002002F00F02042A2AD1584600F06D
:1056900039FFFDF78DFC034623E000BFA00E00207C
:1056A000D00E0020B80E002010120020CCA802005E
:1056B0008C0E0020307F00201812002014120020D1
:1056C0009C0E002048000020022E0AD155F8080C3C
:1056D000C10706D4042804D9026802F00F02042A84
:1056E000D5D05A1CA5EB86055CD0022E3DD11BF00F
:1056F000010F33D1BBF1040F30D9DBF8002002F0E9
:105700000F02092A2AD1DBF804002E1FC0F347003C
:10571000012181421CDD05EB8005A5EB09029210F9
:10572000C8F8102023F0FF0212F5807F1FD11E025F
:10573000B6B206434148C6F3072C00EBCC03321245
:105740001B79032B3EF43FA802233B70FDF7E7BD16
:1057500001315BF8212046F8042FDAE70B233B7078
:10576000002345F8043BFDF7DABD0020D5E7A5EBA3
:10577000800529469847324A0023136045F8040BF8
:105780003B78A5EB09029210002B7DF4C8AD54F8CC
:10579000043BC8F810201E1203F07F035AF8233090
:1057A000FDF777BD002345F8043B3B78A5EB0902E4
:1057B0009210002B7DF4B3AD54F8043BC8F81020D0
:1057C0001E1203F07F035AF82330FDF762BDA5EBEC
:1057D00086052946304603F009FA3B78002B7DF414
:1057E0009EAD54F8043BA5EB09021E1203F07F03A3
:1057F00092105AF82330C8F81020FDF74ABDA5EBE7
:10580000860B3046594603F0F1F93B78CBF800009F
:10581000C6F1010605EB8605002B7DF480AD54F83A
:10582000043BA5EB09021E1203F07F0392105AF805
:105830002330C8F81020FDF72CBD00BF38770020BA
:10584000E01B00202DE9F04F8DB000F0DDFB009053
:105850001CF03CFE00274FF0FF33DFF8A0930793C6
:105860000190FF2564243B46002B03F1FF3B80F2AF
:1058700096801CF02BFE019BC01AB0F5FA7F0CD964
:10588000FDF704FA48B105A8FCF7C6FC082105A8F5
:1058900003F09AFB1CF01AFE0190FDF7F7F90028BF
:1058A00000F0A280002F40F09F801CF00FFE044605
:1058B00002F09EFE02F044FE01271CF007FE001BD2
:1058C000C82840F203811CF001FE40F293230446F5
:1058D00007A90220089300F045FA0125BF4E33685E
:1058E0006BB100F091FBBE4B1B68984207D90123B6
:1058F00007A90220089300F035FA002333604FF027
:10590000000BB84EDFF8F882DA4656F8041B81B176
:1059100000F07AFB58F82B1088420AD9B24B53F8A2
:105920002B10042900F30181012900F3008100F00C
:1059300001810BF1010BBBF1060FE6D1AB4E3368D1
:10594000012B15D1DFF8BCA200F05EFBDAF80030C5
:1059500098420DD9DFF8B082A54AD8F80030126815
:105960009342C0F2EA80002009A9306001F0C6F934
:1059700001F0C2FC03F040FA02F0EAFD03F04EFB36
:1059800000F042FB009BC01A41F28833984204D9D0
:10599000FCF7D2FD00F038FB00904FF0190B4FF0F0
:1059A000000A5046934B1A6852451BDDD9F8003067
:1059B000DFF8588201339342A8BF0023C9F80030B2
:1059C000D9F80030F0225A4308EB020118F80220FF
:1059D0004646002A00F03D81022A40F01B8108461D
:1059E000FDF732FC5B463FE7FDF750F90646F0B99C
:1059F000EFB11CF06BFD40F29743044607A902206B
:105A0000089300F0AFF90A2537461CF05FFD001B34
:105A100064287FF663AF1CF059FD40F2DD33044685
:105A200007A9022008930B2500F09CF956E7002DEA
:105A30003FF443AF012D11D11CF048FD001B642839
:105A40007FF64CAF1CF042FD40F21743044607A915
:105A500002200893022500F085F93FE7022D11D1BD
:105A60001CF034FD001B64287FF638AF1CF02EFDBF
:105A700040F29743044607A928460893032500F0FF
:105A800071F92BE7032D11D11CF020FD001B6428B8
:105A90007FF624AF1CF01AFD40F2C953044607A953
:105AA00002200893042500F05DF917E7042D0FD1BB
:105AB0001CF00CFD001B64287FF610AF012307A922
:105AC00002200893FF2500F04DF907E7002505E7C0
:105AD0000A2D9AD00B2D11D11CF0F8FC001B642864
