:1000000000000220B54F0200F54F020039530200F4
:10001000F94F0200FB4F0200FD4F020000000000FC
:10002000000000000000000000000000395A02003B
:100030000150020000000000595A02000550020061
:10004000E55C0200ED8D0100F920020081A20000B4
:1000500075A200000750020007500200075002007E
:10006000075002000D61000007500200058E0100DC
:1000700007500200F98D01000750020007500200EE
:10008000075002000D240200075002000750020032
:1000900007500200075002000750020007500200FC
:1000A00007500200075002000750020007500200EC
:1000B000075002000750020000000000000000008E
:1000C00007500200075002000750020007500200CC
:1000D00007500200075002000750020007500200BC
:1000E00007500200000000000000000000000000B7
:1000F000000000000750020000000000075002004E
:1001000000000000000000000000000000000000EF
:1001100000000000000000000000000000000000DF
:1001200000000000000000000000000000000000CF
:1001300000000000000000000000000000000000BF
:1001400000000000000000000000000000000000AF
:10015000000000000000000000000000000000009F
:10016000000000000000000000000000000000008F
:10017000000000000000000000000000000000007F
:10018000000000000000000000000000000000006F
:10019000000000000000000000000000000000005F
:1001A000000000000000000000000000000000004F
:1001B000000000000000000000000000000000003F
:1001C000000000000000000000000000000000002F
:1001D000000000000000000000000000000000001F
:1001E000000000000000000000000000000000000F
:1001F00000000000000000000000000000000000FF
:1002000010B5054C237833B9044B13B10448AFF350
:1002100000800123237010BD600200200000000058
:10022000A0E6020008B5034B1BB103490348AFF336
:10023000008008BD0000000064020020A0E602006B
:10024000A3F5803A704700BF174B002B08BF134B34
:100250009D46FFF7F5FF00218B460F461348144AD1
:10026000121A29F083FA0E4B002B00D098470D4B41
:10027000002B00D098470020002104000D000D48FD
:10028000002802D00C48AFF3008029F0ADF920001F
:10029000290024F053FE29F093F900BF0000080064
:1002A00000000000000000000000022060020020AA
:1002B000D48C002000000000000000007047000007
:1002C00010B5064C20680BF0B6FD2068044ABDE866
:1002D0001040002301210BF0D1BD00BF9C02002083
:1002E000C102000010B5044624F062FE204610BD95
:1002F00008B5064B1B6833B10BF078FB04490AF0D4
:10030000E6FB02F0EFFB002008BD00BF98020020D2
:1003100050040020154A38B551681068144B154C2C
:1003200003C30BF083FB05462060042024F03CFE51
:10033000114B03600022014628460BF047FD206860
:1003400000210BF040FD206801210BF030FD2068FA
:1003500000210BF033FD094A2068002301210BF036
:100360008DFD074B01221A7038BD00BF50A6020058
:10037000480400209C020020DCA60200C10200000C
:1003800038040020234B1B7870B50BB9FFF7C2FF70
:10039000214E3568002D3AD015F10B0148BF05F10B
:1003A0000E0100228910032006F0A6F9044620B9A8
:1003B000BDE870400A2002F009BFC30711D4042829
:1003C0000FD9026802F00F03032B0AD105F00303D3
:1003D000C3F104035B0703F0C04322F0C0421343A0
:1003E00003600E4B0E491B7823710E4B1B78637113
:1003F0000D4B1A689B88C4F8062063812A4604F1D5
:100400000C0029F08BF900233360204670BD2C4688
:10041000FBE700BF380400203C04002094020020C9
:10042000A802002040040020A102002000F10803DF
:1004300073B5044603600D46E1B1084629F0F0FAB1
:100440000F2805EB0006019007D9002201A92046DC
:1004500025F066FC019B2060A36020683246294697
:1004600025F091FC019B2268636000212046D15455
:1004700002B070BD014825F049FC00BF59A602003A
:1004800070B5002888B033DD086810F001022FD164
:1004900004282DD9036803F00F03042B28D10192FF
:1004A00005F068FF054602F0FBFA0BF09FFA124CCC
:1004B00020600AF0E0FC114920680AF0E7FD266898
:1004C000294602A8FFF7B2FF02A930460AF074FEDF
:1004D00002A825F047FC206820210AF01CFB2068B8
:1004E00020210AF01BFB019A206811460AF01AFB32
:1004F000002008B070BD00BF98020020500400200A
:1005000008B5084B1B780BB9FFF704FF064B1878AA
:1005100030B100221A70054B1868400040F001000D
:1005200008BD00BF38040020A002002044040020C1
:100530002DE9F043084691B00C460AF0C7F80028B0
:1005400038D0214604A800220AF01AF95B4804A911
:100550000CF0FEFD002878D021460AA80AF087F9A1
:100560000B9B102B6ED10A9D2868696802AB03C3F0
:10057000534BDDE90267D3E900239F4208BF96424F
:1005800060D050490B685A1E02F01F0C4E4A9C4521
:1005900049D002EBC300D0E900894F4508BF46456A
:1005A00050D00133584200F01F0003F01F0358BF22
:1005B0004342ECE7019020460AF04EF8019A0028E9
:1005C00043D0214604A80AF020F9404804A90CF0C1
:1005D000BFFD019A002838D021460AA80AF06CF91C
:1005E0000B9B0D2B2ED10A9D6968286802AB03C3B3
:1005F00034490B68DDE902675A1E02F01F0C324ACB
:100600009C4550D002EBC300D0E900894F4508BF9C
:10061000464517D00133584200F01F0003F01F0376
:1006200058BF4342ECE702EBCC02C2E90067EB7B28
:10063000274AC1F800C0303B00D5FF231360254B8B
:1006400001221A700AA825F08DFB234D2B683BBBB5
:1006500020460AF054F86428CCBF64232860204662
:10066000C8BF2B600AF049F82A6801461B4829F0E8
:1006700055F8204609F063FF194B40421870214697
:100680000AA809F051FF0AA809F017FF154B1870C6
:100690000AA809F011FF144B02681A6082889A8038
:1006A00011B0BDE8F08302EBCC02C2E90067084B51
:1006B000EA79C1F800C01A60C1E700BF5004002009
:1006C0004804002068050020680400207C02002007
:1006D00044040020A00200203C040020A8020020C6
:1006E0009402002040040020A1020020024A034896
:1006F000042107F099BD00BF1CA7020083A60200D9
:100700007FB50C496846FFF791FE69460A480CF030
:1007100042FC684625F026FB08496846FFF786FE3E
:10072000694607480CF037FC684625F01BFB07B00C
:100730005DF804FB87A602007C020020ACA6020044
:1007400050040020C30711D404280FD9026802F016
:100750000F03032B0AD101F00301C1F104035B076E
:1007600003F0C04322F0C0421343036070470246C7
:1007700010F001000FD1042A0ED91368C3F30F1033
:1007800050B1431E9800031D0432115C21B10130A9
:100790008342FAD1704700207047037883B11A066C
:1007A00001D40130704703F0C003C02B08BF0130F3
:1007B000024610460132037803F0C003802BF8D0C4
:1007C000704708B5002103780BB9084608BDFFF74C
:1007D000E4FF0131F7E7014600787F2829DDDF28B3
:1007E00007DC8301487803F4F86300F03F00184306
:1007F0007047EF2808DC4A780303920102F47C6218
:100800009BB288781343F0E7F72810DC4A7883041A
:100810001203C87802F47C3203F4E01300F03F00C6
:10082000134303438878800100F47C60DFE74FF0D6
:10083000FF30704738B5002204460D46411C0920A0
:1008400005F05AFF40B16300024643F0010342F84D
:10085000043F0023A34200DB38BD55F8231042F8C3
:10086000041F0133F6E7002838B504DC1C20BDE87E
:10087000384002F0ABBC0C68E20701D40D20F6E76B
:1008800001281ED04A68D307F8D5B2F5007F4FEA99
:10089000620301D31320EAE71A0442EA03621A430F
:1008A00042EA0322641024EAE474E11C8910032064
:1008B00005F022FF054610B12146FFF743FF284609
:1008C00038BD0022EEE7012838B504DC1C20BDE865
:1008D000384002F07BBC0C68E20701D41120F6E737
:1008E0004868C30706D4042804D9036803F00F033B
:1008F000042B01D00E20EAE705F03CFD6410002C2B
:10090000054603DDFFF75DFFA04205DA1220DEE7B2
:10091000FFF743FF013C0546012C2846F8D1FFF7BD
:100920005AFF400040F0010038BD01282DE9F3478F
:100930008246884605DC1C2002B0BDE8F04702F084
:1009400045BC4C6814F0010901D10D20F4E70228E0
:1009500002D08B68DA07F8D5D8F80070FB0700F1F1
:10096000B180042F40F2AE803D686410012C05F088
:100970000F02B8BF0124092A2CD17B68BAF1020FFB
:1009800018BFD8F808704FEA63030CBF1F467F10EA
:100990009F42A8BF1F463D1B0135012225EAE57590
:1009A000A918092005F0A8FE064648B16D000346C7
:1009B00045F00105D8F8002043F8045FBC4203DD90
:1009C000304602B0BDE8F087013452F8241043F8F5
:1009D000041FF3E7042A43D1384605F0CBFCFFF7A8
:1009E000F0FEBAF1020F16BFD8F80860064676107E
:1009F0008642A8BF0646B44205DD002002B0BDE82D
:100A0000F04705F035BF384605F0B4FC05464C45C7
:100A10001FD1384605F0AEFC0746284609F101090A
:100A2000FFF7BBFE4E45F9DA441B204605F020FFD8
:100A300006460028C4D005F09DFC8146D8F8000089
:100A400005F098FCED1B41192246484628F066FE49
:100A5000B6E72846FFF7A1FE09F101090546D6E7EA
:100A6000032A2FD1BAF1020FC5F30F12C5F3417556
:100A7000C5EB820216BFD8F8085015466D10954296
:100A8000A8BF1546AC4207DD00221146032002B084
:100A9000BDE8F04705F030BE2D1B291D48BFE91DFC
:100AA00000228910032005F027FE0646002887D083
:100AB0006A1C11460192FFF745FEE11C019A394478
:100AC0000430C3E7212037E70028F8B504DC1C20F8
:100AD000BDE8F84002F07ABB0D6815F0010713D0AD
:100AE000B5F5007F4FEA650601D31320F0E7002239
:100AF0000121032005F000FE044618B10121FFF793
:100B000021FE06712046F8BD042DEED92B6803F0B6
:100B10000F03042B1AD12846FFF729FEC11C48BF3A
:100B2000811D064600228910032005F0E5FD0446DC
:100B30000028E7D03146FFF705FE284605F01AFCED
:100B400032460146201D28F0E9FDDBE7092B1FD1C5
:100B50006E687610F11C48BFB11D00228910032079
:100B600005F0CAFD04460028CCD03146FFF7EAFD67
:100B70000435021DB742C5DA55F8043FD90705D53B
:100B8000B3F5007F4FEA6301AFD2D1550137F1E7EA
:100B9000032BAAD12C46B5E7486838B5C3070D46E4
:100BA00006D4042804D9026802F00F03092B04D0EC
:100BB000BDE838400B2002F009BB4368C2F30F12B6
:100BC000511EB1EB630F4FEA630411D80B2C4FF0A9
:100BD000030304DD94FBF3F3642BA8BF642399188B
:100BE00005F008FE0368C3F30F13013B9C4208D2D3
:100BF000A31C013464002A6840F8232044F0010457
:100C00004460002038BD01282DE9F84304DC1C2095
:100C1000BDE8F84302F0DABA02284E680CD08C68BE
:100C2000E20709D56410012CB8BF0124F30705D5EC
:100C30004FF0FF30BDE8F8830124F7E7042EF7D921
:100C400033680D6803F00F02042A30D1EF0706D491
:100C5000042D04D92B6803F00F03042B01D00E20C0
:100C6000D6E73046FFF783FDA042E1DB304605F0D2
:100C700081FB0646284605F07DFB03780146002BE4
:100C8000D6D0601E304428F0E6FE04460028CFD0BF
:100C9000012133780BB1A64203D3480040F0010094
:100CA000C8E73046FFF779FD06460131F1E7092A2A
:100CB00038D17368B4EB630F4FEA6309B8DCE80717
:100CC00028D4042D26D92B6803F00F03042B21D13F
:100CD000284605F04FFB80462746013456F824008D
:100CE000854201D17800D9E7C1070ED404280CD978
:100CF000036803F00F03042B07D105F03BFB01460B
:100D0000404628F07BFE0028ECD04C45E4DD8FE720
:100D10004C458DDC2046013456F82430AB42F7D1E7
:100D20004000BBE7032A83D1C3F30F18C3F3417319
:100D3000C3EB880844453FF77BAFEA0706F104039D
:100D400027D4042D39D92B6803F00F02032A16D1BA
:100D5000C3F30F10C3F341732F1DC3EB8000A8EB47
:100D600000083B18013C033644453FF761AF311999
:100D70003A469A42104622D328D1601CD0E7042A72
:100D80001BD1284605F0F6FA07462846FFF7EFFC88
:100D9000E5E7B5F5007F4FEA650201D3282037E784
:100DA000013C44453FF744AF195D914204F1010411
:100DB000F7D1640044F001003CE70F2028E711F868
:100DC000015F0078854202F10102D2D00134CBE705
:100DD00001282DE9F047884604DC1C20BDE8F047D7
:100DE00002F0F4B90868C20706D4042804D90368DD
:100DF00003F00F03042B01D00E20EFE74B6813F034
:100E00000109F9D1042BF7D91B6803F00F03042B58
:100E1000F2D105F0AFFA0446D8F8040005F0AAFABA
:100E2000074628F0FDFD064678B92046FFF7C9FCC5
:100E300005460122A918092005F05EFC374B186011
:100E40009A4690B90020BDE8F0873946204628F040
:100E500002FE231A5D425D41204639463044013589
:100E600028F0F9FD0028F8D1E3E76B0043F0010317
:100E70004360D6B92046FFF790FC4D45064602DC9C
:100E8000DAF80000DFE7311B204605F0F9FC002806
:100E9000D8D0DAF8003003EB890334469860304646
:100EA000FFF77BFC09F10109E7E7012D03D1D8F831
:100EB00000308360C7E73946204628F0CCFD4FF06C
:100EC00001088146B9F1000F16D04545D8DBA9EBE2
:100ED0000401204605F0D4FC0028B3D0DAF8003035
:100EE00008F1010809EB060443F8280039462046BA
:100EF00028F0B1FD8146E5E74545C1DB204628F0F5
:100F00008FFD0146204605F0BBFC00289AD0DAF898
:100F1000003008F1010843F82800B1E7D01B002099
:100F200008B505F00BFA400040F0010008BD7F292C
:100F300002DC00F8011B7047B1F5006F0CDA0346C4
:100F40008A1162F03F0203F8022B01F03F0161F0C9
:100F50007F01417018467047B1F5803F0FDA0B13DF
:100F600063F01F030370C1F3851301F03F0163F0C9
:100F70007F0361F07F014370817003307047B1F5EA
:100F8000883F0DDAF0230370902343708B1101F03A
:100F90003F0163F07F0361F07F018370C170043013
:100FA0007047000010B5094C002220600221092082
:100FB00005F0A2FB226820B9BDE810400A2002F02B
:100FC00005B90321C0E9011210BD00BFD01B0020EC
:100FD00038B5C30709D5B0F5007F4FEA600507D3E0
:100FE0001320BDE8384002F0F1B8051E18BF0125F6
:100FF00000220121032005F07FFB08B90A20F0E759
:101000000121FFF79FFB057138BD07B510F0010105
:1010100004D04110084603B05DF804FB042813D93E
:10102000026802F00F02042A09D1019105F0A2F929
:1010300001990A2203B05DF804EB28F0A9BD032A48
:1010400002D10A220430F5E70D20019102F0BEF82A
:101050000199DFE70128F8B507460E4604DC1C209D
:10106000BDE8F84002F0B2B80868FFF7CEFF0546C9
:101070007068FFF7CAFF022F044606D0B068FFF77A
:10108000C4FF061E02DC2920EAE70126A542D5BFDF
:10109000641B2C1BB4FBF6F4B4FBF6F4D4BF013490
:1010A00001344FF0000204F101014FF00900C8BF04
:1010B000764205F021FB80B16300024643F0010354
:1010C00042F8043F6D00730002EB840445F0010117
:1010D00042F8041F94421D44F8D1F8BD00282DE9C0
:1010E000F3410F4603DC1C2002F070F816E00C6898
:1010F00014F0010506D1042C1DD9236803F00F0359
:10110000042B0DD12046FFF780FF6C460146204698
:10111000FFF70DFF011B204605F0B2FB044634E04B
:10112000092B08D166684FF001087610B04504DD40
:1011300002F052F8E0B12A20D6E708F1010854F88D
:101140002800FFF762FF7F280CDDB0F5006F0BDB96
:10115000B0F5803F0ADBB0F5883FACBF0023042325
:101160001D44E3E70123FBE70223F9E70323F7E745
:10117000284605F07DFB044638B1D7F8008005F01D
:10118000F9F801270546B74203DD204602B0BDE865
:10119000F081013758F82700FFF737FF014628464E
:1011A000FFF7C5FE0546EEE710B5044611F0010055
:1011B00011D104290ED90A6802F00F02042A09D1BC
:1011C000084605F0D7F80146204628F017FCB0FA8B
:1011D00080F0400910BD0020FCE700000128F8B5B0
:1011E0000E4604DC1C20BDE8F84001F0EFBF4D685E
:1011F000EA0706D4042D04D92B6803F00F02092A4C
:1012000001D00B20EFE76A680968C3F30F13B3EB53
:10121000620F4FEA620498BF03F1FF3411F0010737
:101220000DD0481000283CDD84423ADB2B1D84425F
:1012300019DD013053F8202045F82020F7E71A483F
:10124000FFF7B2FF40B10123BC4201DA0020F8BD34
:10125000013745F82730F7E731681448FFF7A4FF56
:1012600050B1002CF2D00122631C013C9440144385
:1012700045F823206C60E9E73068C3070FD40428E1
:101280000DD9036803F00F03042B08D1FFF7BDFE4F
:101290000028C8D131680648FFF786FF08B9112039
:1012A000A1E712209FE700BF3CA7020040A7020071
:1012B00056C10200002310B50B70C3070C4606D5BB
:1012C0000E4942102046BDE8104023F0DFBD28B98A
:1012D0000B492046BDE8104028F074BB042801D11A
:1012E0000849F6E709D9036803F00F03042B04D17A
:1012F00005F040F804490246E4E710BDD1AD020014
:1013000056C1020033B5020045A702002DE9F043A3
:1013100001288FB080460E4607DC1C2001F056FFE6
:10132000054628460FB0BDE8F0830B6813F00104B2
:1013300040F0AE80042B40F2E2801B6803F00F0304
:10134000092B48D1274656F8273013F0010906D15A
:10135000042B04D9186800F00F00092803D02220BC
:10136000DCE71F46EFE75B6804EB63047B1C9845F2
:10137000F7D10122A11805F0BFF9054608B90025EB
:10138000CFE7640044F001044460494600F10804DA
:1013900056F821301868D3F804C0C0F30F10B0EB32
:1013A0006C0F4FEA6C0203F1040398BF00F1FF32A7
:1013B0000020824209DC22EAE2728F4204EB8204BE
:1013C00001F10103ADDD1946E2E753F804CF44F81B
:1013D00020C00130EDE7032B40F09180274656F8FE
:1013E0002700C507BBD40428B9D9036803F00F024E
:1013F000032A3CD1C3F30F12C3F34173C3EB82033F
:101400001C447B1C984530D1E11C48BFA11D002223
:101410008910032005F070F905460028AFD0214659
:10142000FFF790F94FF0000800F1040956F8284042
:10143000E10723D4042C21D9206800F00F03032BEB
:101440001CD1C0F30F13C0F34170C0EB8300033411
:101450000023834216DB0028A8BF8144474508F1DA
:1014600001037FF75EAF9846E0E71F46B7E7042A1F
:101470007FF475AFFFF77BF90444C2E72046FFF71E
:1014800076F9E4E714F8012F09F803200133E0E7C7
:1014900000252C4656F82500C20732D4042830D93E
:1014A000036803F00F02042A32D1FFF760F9044405
:1014B0000135A845EED1204605F0DAF905460028A9
:1014C0003FF45DAF041DB14606EB880859F8046B84
:1014D000F30728D4042E26D9336803F00F02042A18
:1014E00034D13046FFF743F90746304604F042FF57
:1014F0003A460146204628F011F93C4421E02546B1
:10150000C8E701A9FFF7D6FE01A828F089FACEE7BF
:10151000032A7FF424AFC3F30F12C3F34173C3EB69
:1015200082031C44C4E701A93046FFF7C3FE01A8AB
:1015300028F076FA01A906460246204628F0EEF881
:101540003444C845C2D100232370EAE6032AF8D107
:10155000C3F30F17C3F34173C3EB87073A46311D3B
:10156000C8E700002DE9F04F002893B00E4607DCD5
:101570001C2001F02BFE0446204613B0BDE8F08F7E
:101580000C6814F0010906D1042C04D9236803F077
:101590000F03092B01D00B20EBE763684FEA6308C8
:1015A000B8F1000F03DC484605F062F9E3E70128D3
:1015B00027D04868C20724D4042822D9036803F03E
:1015C0000F03042B1DD104F0D5FE0546284628F054
:1015D00027FA043408F1FF330746019303FB00FBAD
:1015E00004EB880A54F8040FC3076BD4042869D9A4
:1015F000026802F00F01042905D1FFF7B8F883440F
:101600000AE0354DE2E7032963D1C2F30F11C2F3BB
:101610004172C2EB81029344A245E3D1584605F0E2
:1016200027F904460028A7D0D6F800A01FB170689B
:1016300004F0A0FE0546204604F09CFE0AF1040AD0
:1016400006465AF804BF584604F094FE1BF0010306
:101650000146029302D1BBF1040F04D805A95846F4
:10166000FFF728FE05A90846039128F0D9F9DDE91E
:10167000023102468BB9BBF1040F0ED9DBF8000032
:1016800000F00F0CBCF1030F01BFC0F30F12C0F349
:1016900041700BF10401C0EB82023046029228F047
:1016A0003DF8029A164447B1019B4B4505DD304693
:1016B0003A46294628F032F83E4409F10109C84566
:1016C000BFD159E705A9FFF7F5FD05A828F0A8F94E
:1016D00095E704F04FFEF9E735CA02002DE9F04125
:1016E000012888B003DC1C2001F070FD5EE00C686E
:1016F000E30730D4042C30D9266806F00F0648687A
:1017000004F038FEB349074628F078F9B2490028BA
:1017100038460CBF01254FF0FF3528F06FF9AF496F
:101720000028384608BF022528F068F9AC4900288F
:10173000384608BF042528F061F9AA490028384630
:1017400008BF092528F05AF9002800F0EA816F1C2B
:1017500005D13020C8E70226D1E70126CFE7013EB8
:10176000082E17D8DFE816F0090024007301530093
:101770001600160016001600CF00023D072D09D8EE
:10178000DFE805F004410C080808083D042C0CBFF4
:1017900003240124204608B0BDE8F0819248934B11
:1017A0000121042C18BF184605F06AF80446F1E739
:1017B000013D082DEED801A353F825F0E1170000F4
:1017C0009517000007180000E917000095170000A2
:1017D000951700009517000095170000FF170000EF
:1017E000630835D00424D5E781496210684623F0A8
:1017F0004DFB684628F014F901466846D4E72046B8
:10180000FFF7D0FBD2E72046FFF7E2FBCEE7013D32
:10181000082DBFD801A353F825F000BF41180000E0
:1018200055180000C118000095170000951700001A
:101830009517000095170000951700006318000029
:10184000204604F097FD694928F0D8F80028C9D14E
:1018500000249FE72046FFF7D8FB400040F001043A
:1018600098E7204604F086FDFEF7ABFF614D411C72
:101870000646002209202C6004F03EFF044608B909
:101880000A2031E70746730043F00103286847F850
:10189000043F04F06FFD4FF00008054646457FF712
:1018A00079AF2846FEF797FF400040F0010047F867
:1018B000040F2846FEF771FF08F101080546EDE721
:1018C000204604F057FD28F0ABF84A4DC11C0646EF
:1018D0000022891003202C6004F00EFF044600282B
:1018E000CED02D683146FEF72DFF284604F042FD8C
:1018F000E21C00239E427FF74DAFC15C02F8011F3E
:101900000133F7E7032566686B1E7610032B3FF65D
:1019100041AFDFE803F00212713A012E0BD1A46847
:10192000E00708D4042C7FF635AF236803F00F03DB
:10193000012B3FF42FAF2D20D6E6012E03D1A46852
:10194000E1073FF527AF2C20CEE6013754F82700FA
:10195000FFF75BFB7F2812DDB0F5006F11DBB0F500
:10196000803F10DBB0F5883FB4BF2B46002398447E
:10197000BE42EADA01F030FC58B12A20B4E6012375
:10198000F5E70223F3E70323F1E701274FF000080F
:10199000EEE7184D40462C6004F06AFF2F680446BD
:1019A00000283FF455AF04F0E5FC0125AE42FFF6F8
:1019B000F1AE013557F82530DA0701D4272093E638
:1019C000B3F5081F4FEA630101D331208CE6FFF71E
:1019D000AEFAEBE74EA7020056A702005DA7020091
:1019E00064A7020069A7020033B5020056C10200D5
:1019F000D1AD0200D01B0020F11C48BFB11D554DD8
:101A00000022891003202C6004F076FE0446002892
:101A10003FF436AF31462D68FEF794FE021D6FF09D
:101A2000030005F10803001B11188E427FF7B2AEC8
:101A300053F8041BCD07C1D5B1F5007F4FEA61050E
:101A400001D3132050E602F8015BEDE73546266826
:101A5000013DC6F30F13C6F34176C6EB8306082D8E
:101A60003FF698AE01A353F825F000BF911A00008D
:101A7000A11A000095170000AB1A0000951700008E
:101A8000951700009517000095170000DF1A000059
:101A9000012E7FF450AF2379002B7FF4A3AED7E65D
:101AA000012E7FF450AF2079D7E62A4D30462C60C6
:101AB00004F0DEFE2B68044600283FF4E1AE1A1D58
:101AC000C3F1FF2303F57F03C11CFC33D018B042E0
:101AD000BFF660AE12F8010B01F8010FF6E71D4DDD
:101AE0000022711C09202C6004F006FE2B680446BD
:101AF00000283FF4C5AE0146720042F0010241F8F1
:101B0000042F6FF00202D81CD21A13189E427FF7DE
:101B100041AE10F8013F5B0043F0010341F8043F80
:101B2000F3E7731E082B3FF635AE01A252F823F0FF
:101B300007180000071800004D1A0000C118000027
:101B400095170000951700009517000095170000E5
:101B500005190000D01B0020021E10B513DD0B6814
:101B600013F001041CBF5C1024EAE474012A00D0C5
:101B70004A68611C092004F0BFFD18B1640044F0FC
:101B80000104446010BD00240122F2E70A6812F04B
:101B9000010038B53AD1042A38D91368496803F0EE
:101BA0000F04092C1AD15568C3F30F13B3EB650F5B
:101BB0004FEA650498BF03F1FF34151D844205DC2C
:101BC00001330220984205DB002038BD45F8041F90
:101BD0000130F3E742F820100130F3E7032C15D170
:101BE000C80704D4BDE83840132001F0EFBAB1F5BE
:101BF000007F4FEA6100F5D20432C3F30F1302EB0A
:101C000083039A42E0D202F8010BFAE70B2001F0BD
:101C1000DDFAD9E72DE9F0414E6816F00107884654
:101C20002BD1042E29D9326802F00F03092B14D1CD
:101C30007368C2F30F12B2EB630F4FEA630500D86B
:101C4000551ED8F8008018F0010F1AD04FEA68042A
:101C5000002C1CDDA54223DA19E0042B04D1304608
:101C6000FEF785FD0546ECE7032B08D1C2F30F1301
:101C7000C2F34172C2EB8305E3E70025E1E73D468D
:101C8000DFE734484146FFF78FFAC0B10DB91220A3
:101C90002FE027F0E5FD90FBF5F303FB15035C1C3B
:101CA000002F54D1042E52D9336803F00F03092BAF
:101CB00025D1013456F824402046BDE8F08126485D
:101CC0004146FFF771FAC0B9B8F1040F10D9D8F83E
:101CD000003003F00F03042B0AD14046FFF795F9BB
:101CE000041EB6D11D484146FFF75EFA0028CED14A
:101CF0001120BDE8F04101F069BA2C46D0E7042B71
:101D00001DD1304604F036FB012C05460FDCFEF7F2
:101D100044FD461B304604F0ABFD04460028CBD002
:101D200004F028FB3246294627F0F8FCC4E72B785C
:101D3000013C002BABD02846FEF72FFDE4E7032B38
:101D400005D13444E478640044F00104B4E70B2086
:101D5000CFE700BF74A7020040A7020056C10200EF
:101D60002DE9F0414C6814F00106884632D1042C6C
:101D700030D923688F6803F00F02092A15D16268F1
:101D8000C3F30F13B3EB620F4FEA620500D85D1E79
:101D9000D8F800103748FFF707FA98B3236803F024
:101DA0000F03092B20D1012319E0032A12D1FA07CE
:101DB00004D41320BDE8F04101F008BAB7F5007F64
:101DC0004FEA6706F5D2C3F30F15C3F34173C3EBB4
:101DD0008505DDE70B20EDE7013344F823709D42D4
:101DE000FADA0020BDE8F081032BFAD1E31CC4F13C
:101DF000FF2404F57F04FE34E218AA42F1DC03F864
:101E0000016FF9E7D8F8008018F0010F0ED04FEA03
:101E10006800002822DD854220DB236803F00F03E1
:101E2000092B21D1013044F82070DAE712484146ED
:101E3000FFF7BAF9B0B9B8F1040F11D9D8F80030EA
:101E400003F00F03042B0BD14046FFF7DEF8002808
:101E5000E0D10A484146FFF7A7F908B11220A9E7E7
:101E60001120A7E72846D8E7032B04BF2418E67003
:101E7000B7E700BF3CA7020040A7020056C102001E
:101E8000086808B5C3071BD4042819D9036803F0F0
:101E90000F02092A01D1406808BD032A09D1C3F302
:101EA0000F12C3F34170C0EB8200400040F001000C
:101EB000F2E7042A04D104F05DFAFEF782FCF4E7AD
:101EC0000120E9E7024A03480F2106F0ADB900BF3F
:101ED00010A802007BA702001FB500210E2003F00E
:101EE000E5FF01210D2003F0E1FF01210F2003F0A8
:101EF000DDFF0A4808F04AFA4FF0805301930023AF
:101F0000039302238DF8083004AB13E90E00034855
:101F100005B05DF804EB08F04FBA00BF9430002024
:101F2000086810B50C46C10706D4042804D9036814
:101F300003F00F03042B04D0BDE810400E2001F085
:101F400045B904F017FA0278A2F14103052B03D931
:101F5000A2F16103052B01D85A1C01D1206810BDE4
:101F6000054AD25C0E2A01BF044AD05C400040F012
:101F7000010018BF0120F2E70400002078050020CE
:101F8000086810B50C46C10706D4042804D90368B4
:101F900003F00F03042B04D0BDE810400E2001F025
:101FA00015B904F0E7F90278A2F14103052B03D932
:101FB000A2F16103052B01D85A1C01D1206810BD84
:101FC000034A32F81300400040F00100F7E700BF79
:101FD0006C0500200868C30710B50C4604D40D201A
:101FE00001F0F4F8206810BD4010B0F5FA6FA8BFFA
:101FF0004FF4FA601428B8BF142006F039FA042010
:10200000F1E708B506F03AFA400040F0010008BDDB
:1020100008B506F01FFA400040F0010008BD08B501
:1020200006F01EFA400040F0010008BD08B506F0B9
:10203000BFF9400040F0010008BD000010B50022CB
:102040000621032004F058FB20B9BDE810400A2007
:1020500001F0BCB8C30709D4042807D9036803F00A
:102060000F02032A04BF43F0C0430360054AC31CA8
:1020700000F1180112F8014B03F8014F8B42F9D11E
:1020800010BD00BF030600202DE9F04102230F46DA
:1020900083420EDA57F82320D50707EB830405D4D3
:1020A0000D2001F093F82068BDE8F0810133DBB228
:1020B000EEE7386810F0010606D1042804D9036859
:1020C00003F00F03042B04D0BDE8F0410E2001F013
:1020D0007DB804F04FF90578A5F14103052B77D8B9
:1020E0001D46681C77D0484B5B5D0A2B40F08A8008
:1020F000464A15236B43D118E320D0544D70BC6879
:102100006410C4EB042414F1630F904665DB642370
:1021100094FBF3F4FF2CA8BFFF24FA685210C2EB23
:10212000022212F1630F5ADB642392FBF3F2FF2ABF
:10213000A8BFFF223B695B10C3EB032313F1630FBE
:102140004FDB642193FBF1F3FF2BA8BFFF237868DB
:10215000C10748D4042846D9016801F00F010429B9
:1021600041D1152101FB0581E4B2D2B2DBB28C7002
:10217000CA700B714C718A71CB710C724A728B727E
:10218000CC720A734B730121102023F087FA0021CF
:10219000102023F0C1FA1E4CFFF79EFE152303FB0F
:1021A000058515F8011B2046013608F012F9152E99
:1021B000F7D1174808F00CF90121102023F0ACFAF0
:1021C000144B4FF4FA4043F00103984704206BE7A7
:1021D000613D052D85D9386866E700249DE700221A
:1021E000A8E70023B3E74110013903293FF65CAFAC
:1021F00001EB4100152101FB058101448C70CA707F
:102200000B71C0E700204FE7040000207E0500208E
:102210009430002050A9020010B5FC23064A037038
:10222000811D034612F8014B03F8014F8B42F9D18F
:10223000024B1B7DC37110BD04000020030600206B
:1022400070B50121102023F029FA0021102023F07D
:1022500063FAFFF741FE0E480E4DE22108F0B9F88F
:102260000124295D0A48013408F0B3F8152CF8D18F
:10227000074808F0ADF81020012123F04DFA064B75
:10228000BDE870404FF4FA4043F00103184700BF27
:10229000943000201000002050A902004B68D8079D
:1022A00010B50C4604D40D2000F090FF606810BDFE
:1022B0000868C10706D4042804D9036803F00F0393
:1022C000042B04D0BDE810400E2000F07FBF04F0C6
:1022D00051F80278A2F14103052B03D9A2F1610361
:1022E000052B01D85A1C01D12068E0E70A4AD25CCC
:1022F000082A0ED1094A616803EB43031344002204
:102300005A709A70A1F34802DA70FFF799FF04201F
:10231000CDE70020CBE700BF040000201000002024
:102320004B68D80710B50C4604D40D2000F04EFFC2
:10233000606810BD0868C10706D4042804D9036882
:1023400003F00F03042B04D0BDE810400E2000F072
:102350003DBF04F00FF80278A2F14103052B03D929
:10236000A2F16103052B01D85A1C01D12068E0E7D6
:102370000A4AD25C013A052A0ED8094A616803EB81
:102380004303134400225A709A70A1F34802DA7092
:10239000FFF756FF0420CCE70020CAE70400002026
:1023A000100000204B68D80710B50C4604D40D204F
:1023B00000F00CFF606810BD0868C10706D404284F
:1023C00004D9036803F00F03042B04D0BDE81040C8
:1023D0000E2000F0FBBE03F0CDFF0278A2F1410316
:1023E000052B03D9A2F16103052B01D85A1C01D199
:1023F0002068E0E7104AD25C013A052A1AD86268E0
:1024000052100BD0642A6FF06301A8BF64228A4285
:10241000B8BF0A46032192FBF1F25A32074903EB97
:1024200043030B44002159709970DA70FFF708FFDD
:102430000420C0E70020BEE70400002010000020B8
:1024400038B54B68DC070D4605D58B68D80702D533
:10245000CB68D90704D40D2000F0B8FE002055E069
:10246000286810F0010406D1042804D9036803F099
:102470000F03042B04D0BDE838400E2000F0A6BEA8
:1024800003F078FF0378A3F14102052A3AD81346F6
:102490005A1C3AD06A685210C2EB022212F1630F42
:1024A00035DB642192FBF1F2FF2AA8BFFF22A86866
:1024B0004010C0EB002010F1630F2ADB642190FB79
:1024C000F1F0FF28A8BFFF20E9684910C1EB012106
:1024D00011F1630F05DB642491FBF4F4FF2CA8BF1A
:1024E000FF240D49C95C072901D00929B6D10B4940
:1024F00003EB43030B4458709A70DC70FFF7A0FEA7
:10250000042003E0613B052BC2D9286838BD0022B6
:10251000CDE70020D8E700BF040000201000002015
:1025200000EB400303481844002343708370C370DA
:10253000FFF786BE100000202DE9F3479D4B9E4C0F
:10254000186800909B88ADF804300121102023F01A
:10255000A5F80021102023F0DFF8FFF7BDFC974815
:10256000964EDE2107F035FF01252070FF21304611
:1025700007F02FFF60550135152DF7D18F48904E8C
:1025800007F026FF1020012123F0C6F88D4BE278DA
:102590001A7062795A70E2799A70627ADA70E27A25
:1025A0001A71627B5A718848DFF840C20023032702
:1025B0009E46018816F8012B02EB4102B2F53C7FE2
:1025C000B2FBF7F520F8025B51DD0DF803E00133B3
:1025D000062BEED17D4ADFF818C2107869466746AF
:1025E0001E46002511F801EB97F8008007F801EB73
:1025F000C6451CBF01250020013EF3D105B1107076
:102600001178132944D801311170714E3378002BA1
:1026100040F0B7806F4F3A7832B30121102023F099
:102620003DF80021102023F077F8FFF755FC6A4DA4
:10263000DFF88881002415F8011B4046013407F0BB
:10264000C8FE152CF7D15D4807F0C2FE012110200D
:1026500023F062F8614B4FF4FA4043F001039847CE
:102660000123337000233B7002B0BDE8F0870122E4
:1026700012F80C1001F10608454505DC06398D42BB
:1026800002DB0DF80320A2E701321A2AF0D19EE7FF
:102690001429BAD1152111704E49514D91F800E01D
:1026A000504800222F4690464FF0010917F801AB21
:1026B0001CF8016BB24508D00EB11F2E33D180F843
:1026C000008007F8016C01229646013B00F10100F1
:1026D000ECD10AB181F800E00B78002B95D03E4B8D
:1026E00015220021184627F041F8E122027000224D
:1026F0000221052617464FF0040C4FF0030E4FF051
:1027000006084FF0010915F8013B03F1FF3ABAF151
:10271000010F02F1010210D880F80190062A00F1A1
:102720000100F0D171E790F800A0BAF1000FCCD110
:1027300007F8016C80F80090C5E7A3F1030ABAF12D
:10274000030F02D880F80180E8E7072B01D0092B9E
:1027500001D14170E2E70A2B02D180F801E0DDE708
:10276000A3F10B0ABAF10A0F02D880F801C0D5E72D
:10277000082B02D0163B032B01D84670CEE74770DA
:10278000CCE7DFF85490DFF84C80174F0025013577
:1027900015F8092014F815309A4205D0012338465F
:1027A00088F8003006F034F9062DF0D1002333709C
:1027B00030E700BF9CA802000306002094300020F0
:1027C00011060020780500206C0500201906002065
:1027D00002060020180600202500002050A9020053
:1027E00004000020FC05002088A8020028A902009F
:1027F0000A000020F0B587B01522FF21684626F0B8
:10280000B5FFDF23012110208DF8003022F046FFB4
:102810000021102022F080FFFFF75EFB0D4E6C467A
:102820001525002714F8011B0B4807F0D2FD013DC8
:1028300006F8017BF6D1084807F0CAFD01211020F7
:1028400022F06AFF054B4FF01F321A609A8007B0E2
:10285000F0BD00BF10000020943000200A000020CE
:10286000024A03480D2105F0DFBC00BFC0A80200EA
:1028700064BC0200014A1360704700BF580E00207C
:10288000704710B5044622F093FB204610BD0000AF
:1028900008B5084609F01BFD0022114608F042F970
:1028A000034B4FF6FF721A80024B00221A6008BDDC
:1028B0003A0000202006002010B50846144609F012
:1028C00006FD08F0CFFA034B228C1A80024B01223E
:1028D0001A6010BD3A00002020060020F0B5104E0E
:1028E00085B0002201A808F03FFD3468BDF80A5009
:1028F000019FC4F50062954204DD0A480368013374
:102900000360154608482A463946204426F006FF4B
:102910002C443846346021F07AF905B0F0BD00BF90
:10292000500E0020600E00202406002010B5034B3E
:102930000360044608F058FC204610BD00AA0200BF
:1029400010B50446FFF7F2FF204622F031FB204687
:1029500010BD10B5044603F097FA044403F094FA4E
:10296000A04207D206F080FA04F0FEFB01201FF01F
:10297000EDFCF3E710BD00F1080373B503600446F6
:1029800008460D4627F04CF80F2805EB000601908D
:1029900007D9002201A9204623F0C2F9019B20603B
:1029A000A36020683246294623F0EDF9019B226896
:1029B000636000212046D15402B070BD4FF08052B8
:1029C000136E4371190A0171190C1B0EC1708370CB
:1029D000536E43701B0A03707047000037B5002424
:1029E00068460094ADF80440FFF7E8FFBDF80430F6
:1029F0000E495BBA1A209BB2B3FBF0F200FB123314
:102A00004133B2FBF0F50B7000FB1522B5FBF0F380
:102A100000FB1350413088700548CC7041324A7039
:102A200003B0BDE8304026F0F3BF00BF1A06002017
:102A3000250E0020F8B5134E33780BB3124D134C0E
:102A400028682188124F132209F043FC4FF6FF73C8
:102A50002380104B286800241C600F4B1C7009F069
:102A600036FC08F0FFF939682868224609F08AFE2A
:102A7000204609F0D7F8094B2C603C601C6034708C
:102A8000F8BD00BF240E00205C0E00203A0000209C
:102A9000640E0020200600204C0E0020540E002062
:102AA00010B50E4C20688CB0B0B109F010FC08F0E5
:102AB000D9F9206809F00BFC094904466846FFF77C
:102AC0005AFF694606A80AF066FA204606A907F0EA
:102AD000FEFF684623F046F90CB010BD5C0E0020E6
:102AE00056A9020010B5154B1B6886B01BB308F041
:102AF0007DFF044608F0BFF91149204608F0E2FACC
:102B000010496846FFF737FF6946204608F054FB36
:102B1000684623F027F96421204607F0FCFFC8210E
:102B2000204607F0FBFF084B1B7823B1002211461B
:102B3000204607F0F7FF06B010BD00BF5C0E002076
:102B400056A90200250E00204C0E00202DE9F04170
:102B5000434D2B7886B0002B7ED1FFF73FFF4149D4
:102B6000414E424FDFF8FC806846FFF704FF68469D
:102B700008F0C8FF684623F0F5F808F01BFF04468C
:102B80003060042022F010FA394B03600146012224
:102B9000204609F0A7FB37493068374E09F0BFFDE2
:102BA0001022364930604FF400730AF0B3F9344B09
:102BB00004461860042022F0F7F901460760204619
:102BC00008F01AFD4FF4007304222E4930680AF011
:102BD000A1F90446042022F0E7F9014607602046E7
:102BE00008F00AFD30680AF027F8274A01232B7005
:102BF0001370FFF777FF1B4826F012FF03240546EA
:102C00002E1F0327B5421DD0012108EB060003F05B
:102C100037FE69460090012004F0A4F96946CDE929
:102C200000070320029704F0D5F94FF42F70FFF747
:102C300090FE6946002003F099FF6420FFF789FEAB
:102C40000136DFE74FF47A70FFF783FE013CD7D1FE
:102C50006946204603F08AFF06B0BDE8F08100BF58
:102C6000240E0020250E00205C0E002000AA020089
:102C7000D0A9020056A90200640E00207BA9020020
:102C8000540E0020A0A902004C0E0020014B186831
:102C9000704700BF20060020012070472DE9F04357
:102CA000464D2B6887B006460C46002B49D0444859
:102CB0001FF018F9022862DD05201FF047FB40488D
:102CC0001FF010F91428024601A9A8BF14223C489D
:102CD0001FF0B7F801AB0022023890424FDD13F825
:102CE000011BFA2902F10102F7D119781A29F4D14E
:102CF0005F78002FF1D1DFF8D890DFF8D880B9F8ED
:102D00000010D8F80000132209F0E3FA4FF6FF7321
:102D1000A9F800302B4BD8F8000019683A4609F0A2
:102D200031FD294B2F601F7025481FF0DBF88442CE
:102D300022463146A8BF024621481FF082F80446C9
:102D400037E0DFF8848098F80030002BECD105F0F4
:102D50004BFE074698B9DFF87C90D9F8000070B1B7
:102D6000184B196809F0F0FCD9F8000009F0AFFA27
:102D70003A46394607F0D6FE012388F800302B6822
:102D8000002BD1D0114F3D68AC42A8BF2C4684B176
:102D9000DFF844802246414630462D1B26F0BEFC1B
:102DA000002D05DD2A4608EB0401404626F0B6FC5E
:102DB0003D60204607B0BDE8F08300BF200600203C
:102DC000A85A0020640E00204C0E0020500E002057
:102DD0003A0000205C0E0020240600200B462DE95E
:102DE000F341D41A1B4B1B68411833B91A482246C9
:102DF00002B0BDE8F0411EF08DBF184D019103F007
:102E000043F82B68019998423CBF00232B602B6844
:102E1000C31A132B06461BD9002C19DDFA2CDFF838
:102E200044800F4FD8F80000A8BFFA2400232246A0
:102E30003B6008F0E9FBD8F8000008F0D9FB3B68DC
:102E40002E60002B18BF0024204602B0BDE8F081A0
:102E50000024F9E720060020A85A0020480E002090
:102E6000580E0020540E002008B505481FF012F837
:102E7000BDE8084002484FF4E1311EF0F5BF00BF45
:102E8000A85A0020037883B11A0601D40130704794
:102E900003F0C003C02B08BF0130024610460132C8
:102EA000037803F0C003802BF8D0704773B5064653
:102EB000084611F00101144627D1042842D90368BD
:102EC00003F00F03042B3DD1D30714D4042A39D9BE
:102ED000136803F00F03042B34D103F04BFA0546BB
:102EE000204603F047FA0146284626F087FD0028D1
:102EF00030DB21D129E0019103F03CFA01990A224B
:102F000026F046FE0546641013E012F0010117D1C9
:102F1000042A17D9136803F00F03042B12D14510AC
:102F20001046019103F026FA01990A2226F030FE9C
:102F30000446A5420EDB08DD002E09DC00200CE073
:102F40004510E0E7064B0F221A700136022EF5D825
:102F5000042002E0701700F0040002B070BD00BF52
:102F60008C0E002007B510F0010104D04110084676
:102F700003B05DF804FB042813D9026802F00F02C5
:102F8000042A09D1019103F0F5F901990A2203B04D
:102F90005DF804EB26F0FCBD032A02D10A220430BE
:102FA000F5E7024B0D221A70E1E700BF8C0E0020FE
:102FB0002DE9F843054605F04BF9044608B1BDE894
:102FC000F883284626F02CFD2C4E07463379032B38
:102FD0000AD00134FF2C06F10806F7D1284B1B223A
:102FE0001A704FF0FF30EAE73A462946E0B205F0A2
:102FF000ADF9034600283DD132685068111D984252
:10300000E7D051F804CFBCF1F00F03F10103F6D182
:103010009B000833D00702EB0301DAD40429D8D986
:10302000D35803F00F02042AD3D1C3F30F13013393
:10303000CA0701EB8300CCD40428CAD951F8233045
:1030400003F00F03042BC4D103F094F94FF00309EC
:1030500080460921404626F0C4FC0028B9D0B9F1C9
:10306000010900F10108F4D12946404626F0F3FC9D
:103070008045AED164F0FF00A1E700BF28770020B3
:103080008C0E002010F0010210B516D1042802D9D0
:103090000268C2F30F1211F0010310D1042902D902
:1030A0000B68C3F30F13934214D1043000EB830376
:1030B0000331834205D8012010BD0022EBE7002335
:1030C000F1E710F8014B11F8012F54EA020CF2D08D
:1030D0009442EED00020EFE72DE9F04F85B0CDE926
:1030E0000113314F314E80468AB102233B700123D8
:1030F00033603368DFF8C890DFF8C8A0DFF8C8B0E5
:103100000024FC54444504DB05B0BDE8F08F326078
:10311000EFE7019B316853F82400C30707EB010573
:10312000C1F5487105D5224A4310284621F0C2FE58
:1031300004E0A8B91F4A284621F0BCFE1A4826F030
:103140006FFC029B30604BB108F1FF33A34205DDF9
:10315000431C20223A540022FA5433600134D1E750
:10316000042801D1144AE6E71BD9026802F00F03D4
:10317000042B06D1039103F0FDF8104A039903468E
:10318000D3E7092B03D143685A465B10CDE7032BE5
:1031900008D1C2F30F13C2F34172C2EB830352464C
:1031A000C3E701234A46C0E7E00E002000120020DA
:1031B000D1AD020024AA02002AAA020005E1020001
:1031C00049AA02003EAA02002FAA0200014B187071
:1031D000002070478C0E0020024B1878003818BF72
:1031E000012070478C0E0020024B1860024BFF221A
:1031F0001A707047081200208C0E002008B50023BA
:103200001A46FFF769FF034B0348196805F014FEDF
:10321000002008BD00120020E00E002010B502F0D2
:103220003FFE084C231D01461F22184626F000FCD5
:1032300026F0F6FB031D9B081B0143F004032360EB
:10324000204610BD680E00202DE9F04F804608F1A1
:103250001809D8F81410C84FD8F810508BB009EBE3
:103260008101D0E9023002913978AA0003EB800491
:1032700009EB8505002952D153F8203092101E1217
:10328000C8F8102003F07F03BC4A52F823300434FE
:10329000924643F001031847D8F8082098F8023006
:1032A00098F80100A21A921043EA022205F0D2FA1D
:1032B000002388F800303B70D8F80830E41A029BED
:1032C000A5EB0905A3EB0909A410AD104FEAA9036A
:1032D000C8F80C40C8F81050C8F814300BB0BDE85E
:1032E000F08F98F8010005F0AFFA002388F800305D
:1032F000E2E73B789BB954F8043BA5EB09021E12A8
:1033000003F07F0392105AF82330C8F81020C0E76A
:103310002A1DA2EB0903D82B17DD1A233B7039783D
:10332000FF29B9D1964E00233B703368002BC3DDD3
:10333000012388F8003002F09FFD33684FF47A7261
:1033400002FB0300C8F80400B6E7294615469A10A8
:103350003B780E60002BE2D154F8043BC8F81020F3
:103360001E1203F07F035AF8233092E72A1DA2EBC6
:103370000903D82B02DD1A233B70D0E721462846EB
:10338000154651F8042B02609A103B780BB10C469D
:10339000C5E76368C8F810201E1203F07F030834E5
:1033A0005AF8233075E72A1DA2EB0903D82B02DD5A
:1033B0001A233B70B3E7294615469A103B7804EB75
:1033C00086060E60002BAAD154F8043BC8F81020E2
:1033D0001E1203F07F035AF823305AE72A1DA2EB8E
:1033E0000903D82B02DD1A233B7098E7632ECABF6E
:1033F00064496549643E51F82610296015469A10C3
:103400003B78002B8BD154F8043BC8F810201E12D7
:1034100003F07F035AF823303BE75B4B55F8042D4C
:1034200043F826203B78002B7FF479AF54F8043B17
:10343000A5EB09021E1203F07F0392105AF8233005
:10344000C8F8102025E7DFF840B15BF82600FFF749
:1034500089FD3A78002A7FF462AF009055F8040D98
:10346000FFF780FD009B184440003B7840F00100CE
:10347000A5EB09024BF826009210002B7FF44FAF0A
:1034800054F8043BC8F810201E1203F07F035AF8CA
:103490002330FEE62A1DA2EB0903D82B02DD1A23F6
:1034A0003B703CE7029B2946994534BF53F80C3CDE
:1034B00001230B603B781546A2EB09029210002B0A
:1034C0007FF42DAF54F8043BC8F810201E1203F00F
:1034D0007F035AF82330DCE62A1DA2EB0903D82B20
:1034E00002DD1A233B701AE7029989451BD229464F
:1034F0001546029A06F1804652F80C0C033EA6EBE4
:10350000600652F826200A609A103B78002B7FF460
:1035100006AF54F8043BC8F810201E1203F07F03D6
:103520005AF82330B5E618233B7000232B6015466C
:10353000F5E6029B99451CD2029A55F8043D52F8D3
:103540000C0C06F18046033EA6EB600642F82630DE
:103550003B78A5EB09029210002B7FF4E0AE54F803
:10356000043BC8F810201E1203F07F035AF82330E2
:103570008FE618233B70D2E68C0E00206CAA020066
:103580000812002000770020207F0020029B994530
:103590002DD253F80C3C029A06F18046033EA6EB6E
:1035A000630352F82300FFF7DDFC834655F8040D52
:1035B000FFF7D8FC029B029A53F80C3C5844A6EB48
:1035C0006306430043F0010342F826303B78A5EB45
:1035D00009029210002B7FF4A2AE54F8043BC8F805
:1035E00010201E1203F07F035AF8233051E61823EF
:1035F0003B7094E62A1DA2EB0903D82B02DD1A23A7
:103600003B708CE629461546029A52F826200A603D
:103610009A103B78002B7FF482AE54F8043BC8F834
:1036200010201E1203F07F035AF8233031E6029A6D
:1036300055F8043D42F826303B78002B7FF46FAEFE
:1036400054F8043BA5EB09021E1203F07F0392100D
:103650005AF82330C8F810201BE6029B53F82600C6
:103660004FEA600B55F8040DFFF77CFC5844029BB1
:10367000400040F0010043F826003B78002B7FF427
:103680004EAE54F8043BA5EB09021E1203F07F0373
:1036900092105AF82330C8F81020FAE5A5EB8605F9
:1036A000A945A5EB09060ED83A78B310002A7FF495
:1036B00036AE54F8042BC8F81030161202F07F0210
:1036C0005AF82230E5E5CC4802F044FE3A78B310CF
:1036D000002A7FF424AE54F8042BC8F810301612D8
:1036E00002F07F025AF82230D3E5002E04EB860464
:1036F000FFF6E2AD3B78A5EB09029210002B7FF4B8
:103700000EAE54F8043BC8F810201E1203F07F03DD
:103710005AF82330BDE555F8043D042B04D1002EA2
:1037200004EB8604FFF6C8AD3B78A5EB09029210C6
:10373000002B7FF4F4AD54F8043BC8F810201E129F
:1037400003F07F035AF82330A3E555F8043D042B1A
:1037500004D0002E04EB8604FFF6AEAD3B78A5EB5B
:1037600009029210002B7FF4DAAD54F8043BC8F83C
:1037700010201E1203F07F035AF8233089E555F814
:10378000040CC107A5F1040B0BD54010013800282B
:103790000ADB400040F0010004EB8604CBF8000097
:1037A0008AE5FFF7DFFBF1E73B78ABEB090292100C
:1037B0000BB15D46B3E554F8043BC8F810201E1267
:1037C00003F07F035D465AF8233062E5029B05F162
:1037D0000C0EAEEB0901A3EB0903D8294FEAA303B2
:1037E00002DD1A233B709AE5760006F4FF7646F078
:1037F00001062E60AB46D8F80850641B98F80250BA
:10380000A41045EA04256D005B0045F0010543F076
:103810000103CBF80450CBF8083088F802203A783E
:1038200050F83C30C8F808307546891022B103F1D1
:103830000804CDF808E072E503F10C049B68CDF8AC
:1038400008E01E1203F07F03C8F810105AF8233066
:103850001FE5029B55F8046C99452DD1F2071ED443
:10386000042E15D9336803F00F03042B19D1304609
:1038700002F080FD26F0D4F8B0F5487FA8BF4FF4E1
:1038800048700630643004F0FFFD78B9043C13E55D
:103890000AD0002E0CBF07204FF40070F2E70A2078
:1038A000F0E74FF40070EDE70720EBE798F8010030
:1038B000314604F0E6FF18E5029B504953F80C2C02
:1038C0004F4B3878A3EB6203029A42F8236002EB75
:1038D000830552F8083C5A1088F80220D2B2043509
:1038E00051F83210029AC8F8081052F8042C5210FD
:1038F00009EB8202C3F355230292A5EB090201EB07
:103900008304921000287FF40AAD51F82330C8F8E0
:1039100010201E1203F07F0304345AF82330B8E459
:1039200055F8040CFFF71EFB1E28A5EB86052DDCC1
:10393000A5EB090B00284FEAAB0B0DDC3B78002B05
:103940007FF4EDAC54F8043BC8F810B01E1203F03D
:103950007F035AF823309CE4009002F08DFA009B1C
:10396000033B1E1802F088FA264B801B9842F9D2BE
:103970003B78002B7FF4D3AC54F8043BC8F810B06C
:103980001E1203F07F035AF8233082E4012288F8E4
:103990000020009002F070FA009B0A380344C8F837
:1039A000043089E455F8040CFFF7DCFAA5EB860532
:1039B000061E10DC3B78A5EB09029210002B7FF469
:1039C000AEAC54F8043BC8F810201E1203F07F037D
:1039D0005AF823305DE40C4B9E4202DD1D233B7000
:1039E0009DE4012388F8003002F046FA4FF47A7320
:1039F00003FB06000A38A5E45BAA02002877002032
:103A0000FDFFFF3F8096980080EE36000023304691
:103A1000A5EB8605CA4E1A462946FFF75DFB3168BD
:103A2000C84802F02DFFC84B31681860C54805F042
:103A3000E5F83168C34805F0FFF93B78002B7FF4C7
:103A40006EAC54F8043BA5EB09021E1203F07F0391
:103A500092105AF82330C8F810201AE43B78A5EBEE
:103A60008605002B7FF45BAC54F8043BA5EB090200
:103A70001E1203F07F0392105AF82330C8F810206A
:103A800007E4404604F05EFD3B78002B7FF447AC32
:103A900054F8043BA5EB09021E1203F07F039210B9
:103AA0005AF82330C8F81020FFF7F3BB55F8043C50
:103AB000002B47D155F80C0C10F0010B20D04FEA29
:103AC000600B4FEA4B0343F0010345F8083CBBF1A0
:103AD000000F40F3968055F8080C4FEA4B03CBEBF0
:103AE000600B55F80C0C43F0010345F8043CC30788
:103AF0002DD50BF1010B4FEA4B0343F0010331E0ED
:103B000004281BD9036803F00F02092A01D1406879
:103B1000D5E7042A09D102F02DFC0378002BD0D080
:103B2000FFF7B0F90BF1010BF7E7032A06D1C3F356
:103B30000F1BC3F34173C3EB8B0BC2E719233B701D
:103B4000FFF7EDBB4FEA630B0BF1FF3BBFE7042828
:103B500053D9036803F00F03092B18D10BF1020BA3
:103B600050F82B30029A42F826303B78A5EB090238
:103B70009210002B7FF4D3AB54F8043BC8F810200C
:103B80001E1203F07F035AF82330FFF782BB042B89
:103B90002CD1029B03EB8603009302F0EBFB0BF1AD
:103BA000010B0646BBF1010F10DC3046FFF76AF946
:103BB000821B1046039202F05BFE834668B102F05E
:103BC000D9FB039A314625F0A9FD06E030780BF1C8
:103BD000FF3B30B912233B708346009BC3F800B013
:103BE000C3E73046FFF74EF90646DBE7032B04D167
:103BF00083449BF804305B007FE719233B70FFF799
:103C00008EBB0434B1E705EB8603A3EB0903D82B85
:103C100016DC0122002E06F1FF3315DC3B78A5EB04
:103C200009029210002B7FF47AAB54F8043BC8F8D9
:103C300010201E1203F07F035AF82330FFF729BB30
:103C40001A233B70FFF76BBB45F8042B1E46E1E7D8
:103C50002B1DA3EB0903D82B03DD1A233B70FFF7C1
:103C60005EBB029B994530D255F8040CFFF77AF9F8
:103C7000002827DD029B53F80C3CB0EB630F4FEAA2
:103C800063021FDC801A00F18040029B043853F865
:103C90002020A5EB86031A60C6F1010605EB860518
:103CA0003B78A5EB09029210002B7FF438AB54F857
:103CB000043BC8F810201E1203F07F035AF823308B
:103CC000FFF7E7BA20233B70E6E71823FBE71E4B1C
:103CD0001A68A5EB8603C6F101061A603B7805EB6E
:103CE0008605002B7FF41BAB54F8043BA5EB0902BF
:103CF0001E1203F07F0392105AF82330C8F81020E8
:103D0000FFF7C7BA55F8043C042BA5F104023B7831
:103D100008BF2A46A2EB090108BF04EB86048910FC
:103D200013B11546FFF7FBBA54F8043BC8F810105E
:103D30001E1203F07F0315465AF82330FFF7A9BA85
:103D400000120020E00E00204400002055F8043D41
:103D5000042B1CBF002345F8043B3B78A5EB09026C
:103D600018BF04EB86049210002B7FF4D8AA54F8F5
:103D7000043BC8F810201E1203F07F035AF82330CA
:103D8000FFF787BA002EA5EB860119DC1C233B70D8
:103D90000022C6F1010605EB86053B780A60A5EB1B
:103DA00009029210002B7FF4BAAA54F8043BC8F819
:103DB00010201E1203F07F035AF82330FFF769BA70
:103DC0000B684FF0000C5B1051F82C0010F0010252
:103DD00002D10D233B70DCE7401083420CF1010C53
:103DE000A8BF03466645EFDC5B0043F00102D0E765
:103DF000002EA5EB860119DC1C233B700022C6F1C6
:103E0000010605EB86053B780A60A5EB09029210D6
:103E1000002B7FF484AA54F8043BC8F810201E122B
:103E200003F07F035AF82330FFF733BA0B684FF0E3
:103E3000000C5B1051F82C0010F0010202D10D2390
:103E40003B70DCE7401083420CF1010CB8BF034625
:103E50006645EFDC5B0043F00102D0E755F8081C33
:103E600011F0010F4FEA860323D055F8042C12F00D
:103E7000010F1ED05210B2EB610FA5EB0303CCBFB4
:103E8000042200221A60C6F1010605EB86053B7884
:103E9000A5EB09029210002B7FF441AA54F8043BD1
:103EA000C8F810201E1203F07F035AF82330FFF7E2
:103EB000F0B955F8042C6FF00100A5EB030BFEF7E9
:103EC000F5FFCBF80000DEE755F8081C11F0010FF4
:103ED0004FEA860323D055F8042C12F0010F1ED0B0
:103EE0005210B2EB610FA5EB0303ACBF042200221A
:103EF0001A60C6F1010605EB86053B78A5EB0902C1
:103F00009210002B7FF40BAA54F8043BC8F8102041
:103F10001E1203F07F035AF82330FFF7BAB955F8A1
:103F2000042C4FF0FF30A5EB030BFEF7BFFFCBF8DF
:103F30000000DEE755E902014FEA860B8142A5EB5E
:103F40000B0B18D10423CBF80030C6F1010605EBAA
:103F500086053B78A5EB09029210002B7FF4DFA9C0
:103F600054F8043BC8F810201E1203F07F035AF8DF
:103F70002330FFF78EB9042801D80023E3E7C207F6
:103F8000FBD4036803F00F03042BF6D1CB07F4D462
:103F90000429F2D90B6803F00F03042BEDD1FFF7CE
:103FA00071F8002814BF04230023CCE755E902016F
:103FB0004FEA860B8142A5EB0B0B18D10023CBF8FF
:103FC0000030C6F1010605EB86053B78A5EB09023A
:103FD0009210002B7FF4A3A954F8043BC8F81020DA
:103FE0001E1203F07F035AF82330FFF752B904285A
:103FF00001D80423E3E7C207FBD4036803F00F03EF
:10400000042BF6D1CB07F4D40429F2D90B6803F0C2
:104010000F03042BEDD1FFF735F8002814BF002360
:104020000423CCE755F8081C11F0010F4FEA860372
:1040300023D055F8042C12F0010F1ED05210B2EB11
:10404000610FA5EB0303D4BF042200221A60C6F15E
:10405000010605EB86053B78A5EB09029210002BC3
:104060007FF45DA954F8043BC8F810201E1203F039
:104070007F035AF82330FFF70CB955F8042C0120C0
:10408000A5EB030BFEF712FFCBF80000DFE755F8B6
:10409000081C11F0010F4FEA860323D055F8042CB9
:1040A00012F0010F1ED05210B2EB610FA5EB03030B
:1040B000B4BF042200221A60C6F1010605EB860592
:1040C0003B78A5EB09029210002B7FF428A954F845
:1040D000043BC8F810201E1203F07F035AF8233067
:1040E000FFF7D7B855F8042C0220A5EB030BFEF719
:1040F000DDFECBF80000DFE755F8043C042BA5EB10
:1041000086030CBF00220422C6F101061A6005EBEB
:1041100086053B78A5EB09029210002B7FF4FFA8DF
:1041200054F8043BC8F810201E1203F07F035AF81D
:104130002330FFF7AEB855F8080CFEF713FF83469F
:1041400055F8040CFEF70EFF5844A5EB860340001B
:1041500040F0010018603B78C6F1010605EB8605CA
:10416000002B7FF4DCA854F8043BA5EB09021E12D7
:1041700003F07F0392105AF82330C8F81020FFF79D
:1041800088B855F8080CFEF7EDFE834655F8040C88
:10419000FEF7E8FEABEB0000A5EB8603400040F025
:1041A000010018603B78C6F1010605EB8605002B7F
:1041B0007FF4B5A854F8043BA5EB09021E1203F0E6
:1041C0007F0392105AF82330C8F81020FFF761B827
:1041D00055F8080CFEF7C6FE834655F8040CFEF7AA
:1041E000C1FE00FB0BF0A5EB8603400040F0010090
:1041F00018603B78C6F1010605EB8605002B7FF4BD
:104200008EA854F8043BA5EB09021E1203F07F03AD
:1042100092105AF82330C8F81020FFF73AB855F832
:10422000040CFEF79FFE8346D0B91F233B70A5EB1D
:104230008603C6F10106186005EB86053B78A5EB01
:1042400009029210002B7FF46AA854F8043BC8F8C6
:1042500010201E1203F07F035AF82330FFF719B81D
:1042600055F8080CFEF77EFE90FBFBF0400040F096
:104270000100DCE7A5EB860BDBF80000FEF772FE21
:104280000090DBF80400FEF76DFE009BC8B91F2309
:104290003B70C6F1010605EB86053B78CBF80000C4
:1042A000A5EB09029210002B7FF439A854F8043BC7
:1042B000C8F810201E1203F07F035AF82330FEF7CF
:1042C000E8BF80EAE072A2EBE07293FBF2F002FB3F
:1042D00010300028B8BF8018400040F00100D8E737
:1042E00055F8040CFEF73EFE002855F8040C1DDDC1
:1042F000FEF738FEA5EB8603400040F00100C6F152
:104300000106186005EB86053B78A5EB09029210C3
:10431000002B7FF404A854F8043BC8F810201E12A8
:1043200003F07F035AF82330FEF7B3BFFEF71AFEFF
:104330004042DFE7012EA5EB860B35D1DBF800000C
:10434000FEF710FE0028ACBF01224FF0FF32824280
:1043500002DD1346024618460130831A0392009389
:1043600025F07EFA009B039A90FBF3F101FB130307
:104370001A445200C6F1010642F0010205EB86051F
:104380003B78CBF80020A5EB09029210002B7EF4BD
:10439000C6AF54F8043BC8F810201E1203F07F0388
:1043A0005AF82330FEF775BF022E0AD1DBF8000061
:1043B000FEF7D8FD0090DBF80400FEF7D3FD009A6D
:1043C000C5E764200122C7E7A5EB860B30465946B6
:1043D00002F075FA3B78CBF80000C6F1010605EB58
:1043E0008605002B7EF49BAF54F8043BA5EB090235
:1043F0001E1203F07F0392105AF82330C8F81020E1
:10440000FEF747BF55F8080CFEF7ACFD834655F89C
:10441000040CFEF7A7FD0BEA0000A5EB86034000A5
:1044200040F0010018603B78C6F1010605EB8605F7
:10443000002B7EF474AF54F8043BA5EB09021E1266
:1044400003F07F0392105AF82330C8F81020FEF7CB
:1044500020BF55F8080CFEF785FD834655F8040C7F
:10446000FEF780FD4BEA0000A5EB8603400040F01C
:10447000010018603B78C6F1010605EB8605002BAC
:104480007EF44DAF54F8043BA5EB09021E1203F075
:104490007F0392105AF82330C8F81020FEF7F9BEB7
:1044A00055F8080CFEF75EFD834655F8040CFEF740
:1044B00059FD8BEA0000A5EB8603400040F00100A7
:1044C00018603B78C6F1010605EB8605002B7EF4EB
:1044D00026AF54F8043BA5EB09021E1203F07F033C
:1044E00092105AF82330C8F81020FEF7D2BE55F8C3
:1044F000040CFEF737FDC043A5EB8603400040F0F7
:10450000010018603B78C6F1010605EB8605002B1B
:104510007EF405AF54F8043BA5EB09021E1203F02C
:104520007F0392105AF82330C8F81020FEF7B1BE6E
:1045300055F8080CFEF716FD834655F8040CFEF7F7
:1045400011FD0BFA00F0A5EB8603400040F00100DE
:1045500018603B78C6F1010605EB8605002B7EF45A
:10456000DEAE54F8043BA5EB09021E1203F07F03F4
:1045700092105AF82330C8F81020FEF78ABE55F87A
:10458000080CFEF7EFFC834655F8040CFEF7EAFC36
:104590004BFA00F0A5EB8603400040F001001860E4
:1045A0003B78C6F1010605EB8605002B7EF4B7AE1D
:1045B00054F8043BA5EB09021E1203F07F0392108E
:1045C0005AF82330C8F81020FEF763BE55F80C0CDB
:1045D000FEF7C8FC834655F8080CFEF7C3FC8BFBBE
:1045E000002355F8040CCDE90023FEF7BBFCDDE900
:1045F0000023C0F1200CB0F1200103FA0CFC22FAD8
:1046000000F040EA0C005CBF43FA01F10843A5EB5F
:10461000860E40003B7840F00100C6F10106CEF85E
:10462000000005EB8605002B7EF479AE54F8043BC0
:10463000A5EB09021E1203F07F0392105AF82330F3
:10464000C8F81020FEF725BEA5EB860B304659466C
:10465000FDF782FA3B78CBF80000C6F1010605EBC6
:104660008605002B7EF45BAE54F8043BA5EB0902F3
:104670001E1203F07F0392105AF82330C8F810205E
:10468000FEF707BEA5EB860529463046FDF77EFA04
:104690003B78002B7EF443AE54F8043BA5EB0902B3
:1046A0001E1203F07F0392105AF82330C8F810202E
:1046B000FEF7EFBDA5EB860B30465946FDF7AAFA8B
:1046C0003B78CBF80000C6F1010605EB8605002B10
:1046D0007EF425AE54F8043BA5EB09021E1203F04C
:1046E0007F0392105AF82330C8F81020FEF7D1BD8E
:1046F000A5EB860529463046FDF732FB3B78002BBB
:104700007EF40DAE54F8043BA5EB09021E1203F033
:104710007F0392105AF82330C8F81020FEF7B9BD75
:10472000A5EB860B30465946FDF7AAFB3B78CBF844
:104730000000C6F1010605EB8605002B7EF4EFAD07
:1047400054F8043BA5EB09021E1203F07F039210FC
:104750005AF82330C8F81020FEF79BBD55F8040C1A
:1047600001F008FE55F8083CD9072ED4042B0CD9CB
:104770001B6803F00F03013B082B10D8DFE803F0A0
:1047800005252B270F0F0F0F2900D24925F036F9E9
:10479000A5EB860300280CBF042200221A60C6F194
:1047A000010605EB86053B78A5EB09029210002B6C
:1047B0007EF4B5AD54F8043BC8F810201E1203F087
:1047C0007F035AF82330FEF764BDC349DEE7C349CF
:1047D000DCE7C349DAE7C349D8E705F1040BABEBE3
:1047E0000906D82E03DD1A233B70FEF798BD01F0B1
:1047F0004BFB2B46400040F0010018603B785D46C3
:10480000B210002B7EF48BAD54F8043BC8F8102096
:104810001E1203F07F035AF82330FEF73ABD05F16C
:10482000040BABEB0906D82E03DD1A233B70FEF711
:1048300076BD01F021FBAC4B2A4603EA40003B78F1
:1048400040F0010010605D46B210002B7EF467ADB1
:1048500054F8043BC8F810201E1203F07F035AF8E6
:104860002330FEF716BD2E1DA6EB0903D82B03DD62
:104870001A233B70FEF753BD01F006FB9B4B1B68F0
:1048800098423DBFC3F5830303F63713C018C01A1F
:1048900040002B4640F0010018603B78A6EB09026F
:1048A00035469210002B7EF43AAD54F8043BC8F81C
:1048B00010201E1203F07F035AF82330FEF7E9BCE4
:1048C00001F0E2FA894B18603B78A5EB8605002BD6
:1048D0007EF425AD54F8043BA5EB09021E1203F04B
:1048E0007F0392105AF82330C8F81020FEF7D1BC8D
:1048F00004F07AF8B30090B9ED1A3B78A5EB090201
:104900009210002B7EF40BAD54F8043BC8F8102035
:104910001E1203F07F035AF82330FEF7BABC30466C
:10492000EF1A734E01231A463946FEF7D5FB30685D
:10493000643003F0A9FD00283EF4A8AF98F80120E8
:1049400031686C4803F0A2FF012388F8003001F0C1
:1049500093FA694A33681268063302FB0300C8F809
:1049600004003D46FEF7A8BC04F03EF8B10090B943
:104970006D1A3B78A5EB09029210002B7EF4CFACA8
:1049800054F8043BC8F810201E1203F07F035AF8B5
:104990002330FEF77EBC30466F1A554E01230022AD
:1049A0003946FEF799FB3068643003F06DFD00284E
:1049B0003EF46CAF4F4803F02AFFC5E7FEF72EFC2C
:1049C000A5EB860B3B78CBF80000C6F1010605EBA2
:1049D0008605002B7EF4A3AC54F8043BA5EB09023A
:1049E0001E1203F07F0392105AF82330C8F81020EB
:1049F000FEF74FBC3B78A5EB8605002B7EF48FAC11
:104A000054F8043BA5EB09021E1203F07F03921039
:104A10005AF82330C8F81020FEF73BBC012E4FEAAD
:104A200086021ADC1C233B70AA1A00231360C6F10D
:104A3000010605EB86053B78A5EB09029210002BD9
:104A40007EF46DAC54F8043BC8F810201E1203F03D
:104A50007F035AF82330FEF71CBC029B9945A5EB57
:104A6000020202D355F8043CE0E755F8083C55F83B
:104A7000041C5B10002B0DDD029850F80C0CB3EBFE
:104A8000600F4FEA600CDFBFA3EB0C030299043BFD
:104A900051F823101160CAE7A5EB860B584601F0C8
:104AA0002BFA3B78CBF80000C6F1010605EB860532
:104AB000002B7EF434AC54F8043BA5EB09021E1223
:104AC00003F07F0392105AF82330C8F81020FEF745
:104AD000E0BB00BF4EA7020056A702005DA7020080
:104AE00064A7020069A70200FEFFFF7F0C120020EE
:104AF00000120020E00E002040000020A5EB860BF5
:104B0000584601F0FBF93B78CBF80000C6F10106EE
:104B100005EB8605002B7EF402AC54F8043BA5EBB4
:104B200009021E1203F07F0392105AF82330C8F8CE
:104B30001020FEF7AEBBA5EB860B3046594601F0C0
:104B400093F83B78CBF80000C6F1010605EB86052B
:104B5000002B7EF4E4AB54F8043BA5EB09021E12D3
:104B600003F07F0392105AF82330C8F81020FEF7A4
:104B700090BBA5EB8605284601F0C2F93B78002BD7
:104B80007EF4CDAB54F8043BA5EB09021E1203F0F2
:104B90007F0392105AF82330C8F81020FEF779BB33
:104BA000A5EB860B3046594601F09AF83B78CBF8D6
:104BB0000000C6F1010605EB8605002B7EF4AFABC5
:104BC00054F8043BA5EB09021E1203F07F03921078
:104BD0005AF82330C8F81020FEF75BBBA5EB86051A
:104BE000284601F07FFA3B78002B7EF498AB54F80E
:104BF000043BA5EB09021E1203F07F0392105AF842
:104C00002330C8F81020FEF744BB0121304601F0E4
:104C100027FA3B78002B7EF482AB54F8043BA5EBDB
:104C200009021E1203F07F0392105AF82330C8F8CD
:104C30001020FEF72EBB0021304601F011FA3B7820
:104C4000002B7EF46CAB54F8043BA5EB09021E125A
:104C500003F07F0392105AF82330C8F81020FEF7B3
:104C600018BBA5EB860B584601F0BCF93B78CBF896
:104C70000000C6F1010605EB8605002B7EF44FAB64
:104C800054F8043BA5EB09021E1203F07F039210B7
:104C90005AF82330C8F81020FEF7FBBAA5EB860BB4
:104CA000584601F0B3F93B78CBF80000C6F1010695
:104CB00005EB8605002B7EF432AB54F8043BA5EBE4
:104CC00009021E1203F07F0392105AF82330C8F82D
:104CD0001020FEF7DEBAA5EB8605284601F064F940
:104CE0003B78002B7EF41BAB54F8043BA5EB090288
:104CF0001E1203F07F0392105AF82330C8F81020D8
:104D0000FEF7C7BAA5EB8605284604F0E7FC3B781A
:104D1000002B7EF404AB54F8043BA5EB09021E12F1
:104D200003F07F0392105AF82330C8F81020FEF7E2
:104D3000B0BAA5EB860B584604F0E0FD3B78CBF803
:104D40000000C6F1010605EB8605002B7EF4E7AAFC
:104D500054F8043BA5EB09021E1203F07F039210E6
:104D60005AF82330C8F81020FEF793BAA5EB860551
:104D7000284604F0FDFB3B78002B7EF4D0AA54F8C3
:104D8000043BA5EB09021E1203F07F0392105AF8B0
:104D90002330C8F81020FEF77CBAA5EB860B5846E6
:104DA00004F004FC3B78CBF80000C6F1010605EBEB
:104DB0008605002B7EF4B3AA54F8043BA5EB090248
:104DC0001E1203F07F0392105AF82330C8F8102007
:104DD000FEF75FBAA5EB86052946304602F07AF861
:104DE0003B78002B7EF49BAA54F8043BA5EB090208
:104DF0001E1203F07F0392105AF82330C8F81020D7
:104E0000FEF747BAA5EB86052946304601F0AEFE0F
:104E10003B78002B7EF483AA54F8043BA5EB0902EF
:104E20001E1203F07F0392105AF82330C8F81020A6
:104E3000FEF72FBAA5EB86052946304602F056F854
:104E40003B78002B7EF46BAA54F8043BA5EB0902D7
:104E50001E1203F07F0392105AF82330C8F8102076
:104E6000FEF717BAA5EB86052946304602F05CF836
:104E70003B78002B7EF453AA54F8043BA5EB0902BF
:104E80001E1203F07F0392105AF82330C8F8102046
:104E9000FEF7FFB9A5EB860B3046594604F04AFEF3
:104EA0003B78CBF80000C6F1010605EB8605002B28
:104EB0007EF435AA54F8043BA5EB09021E1203F058
:104EC0007F0392105AF82330C8F81020FEF7E1B99A
:104ED000A5EB860B3046594604F034FE3B78CBF800
:104EE0000000C6F1010605EB8605002B7EF417AA2B
:104EF00054F8043BA5EB09021E1203F07F03921045
:104F00005AF82330C8F81020FEF7C3B9A5EB860B7A
:104F10003046594604F01EFE3B78CBF80000C6F13F
:104F2000010605EB8605002B7EF4F9A954F8043B35
:104F3000A5EB09021E1203F07F0392105AF82330EA
:104F4000C8F81020FEF7A5B9A5EB860B30465946E8
:104F500004F0E4F93B78CBF80000C6F1010605EB5C
:104F60008605002B7EF4DBA954F8043BA5EB09026F
:104F70001E1203F07F0392105AF82330C8F8102055
:104F8000FEF787B9A5EB86052946304602F076F88C
:104F90003B78002B7EF4C3A954F8043BA5EB09022F
:104FA0001E1203F07F0392105AF82330C8F8102025
:104FB000FEF76FB9A5EB86052946304602F00AF8E0
:104FC0003B78002B7EF4ABA954F8043BA5EB090217
:104FD0001E1203F07F0392105AF82330C8F81020F5
:104FE000FEF757B9A5EB860B3046594601F0BAFFDC
:104FF0003B78CBF80000C6F1010605EB8605002BD7
:105000007EF48DA954F8043BA5EB09021E1203F0AF
:105010007F0392105AF82330C8F81020FEF739B9F0
:10502000A5EB86052946304601F0FAFE3B78002BB9
:105030007EF475A954F8043BA5EB09021E1203F097
:105040007F0392105AF82330C8F81020FEF721B9D8
:10505000A5EB86052868FDF785FF1728834614DC35
:10506000A8B100232B603B78A5EB09029210002B1E
:105070007EF455A954F8043BC8F810201E1203F022
:105080007F035AF82330FEF704B97828E9DC0C22B4
:105090009BFBF2F3591F02FB13B3BE4A002952F8DF
:1050A000233042DD0022013291424FEA4303FADC11
:1050B00068680093FDF756FF064603F0DFF9032208
:1050C00096FBF2F202EB420296424FF03C020CBF1A
:1050D00042F228314FF47A6191FBF6F6564396FB83
:1050E000F0F6092E009BBCDDBBF1000F17D04FF48A
:1050F0007A7BB3FBFBF35B004FF0FF3243F001031D
:1051000005A902200592069300F064FDA24B01223E
:105110001A6000F0B1FEA14B0BFB06001860A04B1B
:105120001E60FF233B7004239CE7C1D00022013A9C
:1051300091424FEA5303FADBBAE7A5EB86052868EC
:10514000FDF710FF44F60C62A0F11401914213D94F
:1051500000232B603B78A5EB09029210002B7EF414
:10516000DEA854F8043BC8F810201E1203F07F0399
:105170005AF82330FEF78DB800906868FDF7F2FE0C
:1051800009280646E4DD009B580040F001004FF07E
:10519000FF3B069005A90220CDF814B000F01AFDDF
:1051A0007D4B01221A6000F067FE4FF47A7303FB17
:1051B00006007A4B87F800B01860794B1E60042314
:1051C000C7E7A5EB86052868C20706D4042804D9DA
:1051D000036803F00F03042B15D00E233B7000234C
:1051E0002B603B78A5EB09029210002B7EF497A868
:1051F00054F8043BC8F810201E1203F07F035AF83D
:105200002330FEF746B801F0B5F80678A6F1410361
:10521000052B1FD81E46731CE1D0A868FDF7A2FE1F
:1052200042F2107398428346D9DC2B68059305A996
:105230006B6806930220FDF773F8BBF1090F594A1A
:105240000CDC002342F82630574B012243F826207D
:105250000423C5E7613E052EDDD9C0E7012342F8EE
:10526000263000F009FE4FF47A7202FB0B004F4A21
:1052700042F826004C4A012342F82630484BC3F836
:1052800000B0FF233B70E3E7A5EB86052868C6075F
:1052900006D4042804D9036803F00F03042B15D0A7
:1052A0000E233B7000232B603B78A5EB0902921084
:1052B000002B7EF434A854F8043BC8F810201E12CA
:1052C00003F07F035AF82330FDF7E3BF01F052F8F3
:1052D0000678A6F14103052B1FD81E46711CE1D0AC
:1052E000A868FDF73FFE42F2107398428346D9DC6E
:1052F0002B68059305A96B6806930220FDF752F809
:10530000BBF1090F274A284B0BDC002142F826107D
:10531000022243F826200423C5E7613E052EDDD98D
:10532000C0E7012142F8261000F0A6FD4FF47A7282
:1053300002FB0B001D4A1C4B42F82600022243F8D8
:105340002620174BC3F800B0FF233B70E3E7A5EB23
:1053500086052868C20706D4042804D9036803F028
:105360000F03042B24D00E233B7000232B603B78CB
:10537000A5EB09029210002B7DF4D1AF54F8043B49
:10538000C8F810201E1203F07F035AF82330FDF7EF
:1053900080BF00BF6CAC0200940E0020900E002075
:1053A00008120020980E0020C80E0020B00E002029
:1053B00000F0E0FF0678A6F14103052B1FD81E463A
:1053C000731CD2D0A868FDF7CDFD42F2107398424D
:1053D0008346CADC2B68059305A96B6806930220F7
:1053E000FCF75CFFBBF1090FC04AC14B0BDC00218D
:1053F00042F82610032243F826200423B6E7613E34
:10540000052EDDD9B1E7012142F8261000F034FD68
:105410004FF47A7202FB0B00B64AB54B42F82600F5
:10542000032243F82620B44BC3F800B0FF233B709F
:10543000E3E7A5EB86052868C60706D4042804D947
:10544000036803F00F03042B15D00E233B700023D9
:105450002B603B78A5EB09029210002B7DF45FAF27
:1054600054F8043BC8F810201E1203F07F035AF8CA
:105470002330FDF70EBF00F07DFF0678A6F1410353
:10548000052B22D81E46711CE1D02869FDF76AFD64
:1054900042F2107398428346D9DC2B6805936B68FF
:1054A0000693AB68079305A9EB6808930420FCF703
:1054B000C7FFBBF1090F8D4B8D4A0ADC002143F871
:1054C0002610042342F82630C2E7613E052EDAD9C1
:1054D000BDE7012143F8261000F0CEFC4FF47A73AB
:1054E00003FB0B00834B824A43F82600042342F857
:1054F0002630814AC2F800B0FF223A70A8E7A5EB37
:1055000086052868C20706D4042804D9036803F076
:105510000F03042B02D00E233B7031E000F02AFF72
:105520000678A6F14103052B27D81E46731C27D009
:105530002869FDF717FD42F21073984283461FDC7D
:105540002B686E480593032101F09AF96B68079365
:10555000AB680690089305A9EB6809930520FCF752
:1055600093FDBBF1090F614A614B1DDC002142F83C
:105570002610052243F8262002E0613E052ED5D9EB
:1055800000232B603B78A5EB09029210002B7DF4E1
:10559000C6AE54F8043BC8F810201E1203F07F0377
:1055A0005AF82330FDF775BE012142F8261000F0AD
:1055B00063FC4FF47A7202FB0B004E4A4C4B42F8EC
:1055C0002600052243F826204B4BC3F800B0FF23EA
:1055D000A2E7002E40F39880474A55F804BC4FF0EC
:1055E000FF33012E13603B7012D11BF0010F1CD151
:1055F000BBF1040F19D9DBF8002002F00F02042AD6
:1056000013D1584600F0B6FEFDF7D2FC03460CE07D
:10561000022E0AD155F8080CC10706D4042804D973
:10562000026802F00F02042AECD05A1CA5EB860592
:105630006AD0022E3DD11BF0010F33D1BBF1040F14
:1056400030D9DBF8002002F00F02092A2AD1DBF85A
:1056500004002E1FC0F34700012181421CDD05EB31
:105660008005A5EB09029210C8F8102023F0FF0274
:1056700012F5807F1FD11E02B6B206432048C6F342
:10568000072C00EBCC0332121B79032B3EF49EA8AF
:1056900002233B70FDF743BE01315BF8212046F841
:1056A000042FDAE70B233B70002345F8043BFDF79A
:1056B00036BE0020D5E7A5EB800529469847114A5C
:1056C0000023136045F8040B3B78A5EB0902921008
:1056D000002B7DF424AE54F8043BC8F810201E12B1
:1056E00003F07F035AF82330FDF7D3BD980E002056
:1056F000C80E0020B00E0020081200203CA70200B7
:1057000028770020D01B0020002345F8043B3B787D
:10571000A5EB09029210002B7DF401AE54F8043B76
:10572000C8F810201E1203F07F035AF82330FDF74B
:10573000B0BDA5EB86052946304603F08FF93B78CE
:10574000002B7DF4ECAD54F8043BA5EB09021E12CE
:1057500003F07F0392105AF82330C8F81020FDF7A9
:1057600098BDA5EB860B3046594603F077F93B7898
:10577000CBF80000C6F1010605EB8605002B7DF491
:10578000CEAD54F8043BA5EB09021E1203F07F03D3
:1057900092105AF82330C8F81020FDF77ABD00BFE8
:1057A0002DE9F04F89B000F067FB00901CF0C6FDBA
:1057B00000274FF0FF33DFF8009306930190FF2599
:1057C00064243B46002B03F1FF3B7CDA1CF0B6FD62
:1057D000019BC01AB0F5FA7F0CD9FDF757FA48B112
:1057E00004A8FCF719FD082104A803F025FB1CF010
:1057F000A5FD0190FDF74AFA002800F08980002FEE
:1058000040F086801CF09AFD044602F029FE02F06A
:10581000CFFD01271CF092FD001BC82840F2EA8052
:105820001CF08CFD40F29323044606A90220079346
:1058300000F0D0F901259C4E33686BB100F01CFBE1
:105840009A4B1B68984207D9012306A902200793A7
:1058500000F0C0F9002333604FF0000BDFF85CA2CA
:10586000DFF85C825E465AF8041B81B100F004FB4D
:1058700058F82B1088420AD98D4B53F82B10042965
:1058800000F3E780012900F3E68000F0E7800BF1E8
:10589000010BBBF1060FE6D101F066FC03F0E4F961
:1058A00002F08EFD03F0F2FA00F0E6FA009BC01A57
:1058B00041F28833984204D9FCF73EFE00F0DCFA4E
:1058C00000904FF0190B4FF0000A5046794B1A68C0
:1058D00052451BDDD9F80030DFF8E88101339342EF
:1058E000A8BF0023C9F80030D9F80030F0225A438D
:1058F00008EB020118F802204646002A00F0D0808A
:10590000022A40F0AE800846FDF79EFC5B4659E750
:10591000FDF7BCF90646F0B9EFB11CF00FFD40F2FF
:105920009743044606A90220079300F053F90A257D
:1059300037461CF003FD001B64287FF67CAF1CF08B
:10594000FDFC40F2DD33044606A9022007930B2537
:1059500000F040F96FE7002D3FF45CAF012D11D14D
:105960001CF0ECFC001B64287FF665AF1CF0E6FC25
:1059700040F21743044606A902200793022500F0CF
:1059800029F958E7022D11D11CF0D8FC001B64281E
:105990007FF651AF1CF0D2FC40F29743044606A9B3
:1059A00028460793032500F015F944E7032D11D18C
:1059B0001CF0C4FC001B64287FF63DAF1CF0BEFC4D
:1059C00040F2C953044606A902200793042500F0BB
:1059D00001F930E7042D0FD11CF0B0FC001B642846
:1059E0007FF629AF012306A902200793FF2500F0C7
:1059F000F1F820E700251EE70A2D9AD00B2D11D1D2
:105A00001CF09CFC001B64287FF615AF1CF096FC74
:105A100040F21133044606A9022007930C2500F03A
:105A2000D9F808E70C2D11D11CF088FC001B642864
:105A30007FF601AF1CF082FC40F20D23044606A95C
:105A4000022007930D2500F0C5F8F4E60D2DC3D014
:105A5000F1E6052919E75846FCF762FD4AF8046C9F
:105A600015E7012A15D128B9CDE9023100F004FA71
:105A7000DDE902314FF0F00C0CFB03FC06EB0C02ED
:105A8000DFF844E05268821A72453CBF022208F8EF
:105A90000C20F022534318F80330022B3FF433AFAD
:105AA0000AF1010A12E700BF940E0020900E0020B8
:105AB000C80E0020041200203C000020980E002098
:105AC000B00E0020A06D00208096980020B1034BFE
:105AD000800143F001031847704700BF90AD0200FA
