:1000000000000220454C0200854C0200C94F02004E
:10001000894C02008B4C02008D4C02000000000055
:10002000000000000000000000000000C9560200AF
:10003000914C020000000000E9560200954C0200BD
:1000400075590200858A0100891D0200159F000074
:10005000099F0000974C0200974C0200974C020049
:10006000974C0200895F0000974C02009D8A0100B6
:10007000974C0200918A0100974C0200974C0200B5
:10008000974C02009D200200974C0200974C020002
:10009000974C0200974C0200974C0200974C0200CC
:1000A000974C0200974C0200974C0200974C0200BC
:1000B000974C0200974C0200000000000000000076
:1000C000974C0200974C0200974C0200974C02009C
:1000D000974C0200974C0200974C0200974C02008C
:1000E000974C02000000000000000000000000002B
:1000F00000000000974C020000000000974C020036
:1001000000000000000000000000000000000000EF
:1001100000000000000000000000000000000000DF
:1001200000000000000000000000000000000000CF
:1001300000000000000000000000000000000000BF
:1001400000000000000000000000000000000000AF
:10015000000000000000000000000000000000009F
:10016000000000000000000000000000000000008F
:10017000000000000000000000000000000000007F
:10018000000000000000000000000000000000006F
:10019000000000000000000000000000000000005F
:1001A000000000000000000000000000000000004F
:1001B000000000000000000000000000000000003F
:1001C000000000000000000000000000000000002F
:1001D000000000000000000000000000000000001F
:1001E000000000000000000000000000000000000F
:1001F00000000000000000000000000000000000FF
:1002000010B5054C237833B9044B13B10448AFF350
:1002100000800123237010BD580200200000000060
:10022000C0E2020008B5034B1BB103490348AFF31A
:10023000008008BD000000005C020020C0E2020057
:10024000A3F5803A704700BF174B002B08BF134B34
:100250009D46FFF7F5FF00218B460F461348144AD1
:10026000121A29F0CBF80E4B002B00D098470D4BFB
:10027000002B00D098470020002104000D000D48FD
:10028000002802D00C48AFF3008028F0F5FF2000D2
:10029000290024F09BFC28F0DBFF00BF00000800D1
:1002A00000000000000000000000022058020020B2
:1002B0006C8C00200000000000000000704700006F
:1002C00010B5064C20680BF000FC2068044ABDE81D
:1002D0001040002301210BF01BBC00BF9402002042
:1002E000C102000010B5044624F0AAFC204610BD4F
:1002F00008B5064B1B6833B10BF0C2F904490AF08C
:1003000030FA02F0BBFB002008BD00BF90020020C5
:1003100048040020154A38B551681068144B154C34
:1003200003C30BF0CDF905462060042024F084FCC3
:10033000114B03600022014628460BF091FB206818
:1003400000210BF08AFB206801210BF07AFB20686A
:1003500000210BF07DFB094A2068002301210BF0EE
:10036000D7FB074B01221A7038BD00BFE0A2020084
:1003700040040020940200206CA30200C10200008F
:1003800030040020234B1B7870B50BB9FFF7C2FF78
:10039000214E3568002D3AD015F10B0148BF05F10B
:1003A0000E0100228910032006F000F9044620B94E
:1003B000BDE870400A2002F0D5BEC30711D404285E
:1003C0000FD9026802F00F03032B0AD105F00303D3
:1003D000C3F104035B0703F0C04322F0C0421343A0
:1003E00003600E4B0E491B7823710E4B1B78637113
:1003F0000D4B1A689B88C4F8062063812A4604F1D5
:100400000C0028F0D3FF00233360204670BD2C463B
:10041000FBE700BF30040020340400208C020020E1
:10042000A0020020380400209902002000F10803F7
:1004300073B5044603600D46E1B1084629F038F96A
:100440000F2805EB0006019007D9002201A92046DC
:1004500025F0AEFA019B2060A36020683246294651
:1004600025F0D9FA019B2268636000212046D1540F
:1004700002B070BD014825F091FA00BFE9A2020068
:1004800070B5002888B033DD086810F001022FD164
:1004900004282DD9036803F00F03042B28D10192FF
:1004A00005F0D8FE054602F0C7FA0BF0E9F8124C49
:1004B00020600AF02AFB114920680AF031FC266806
:1004C000294602A8FFF7B2FF02A930460AF0BEFC97
:1004D00002A825F08FFA206820210AF066F920682A
:1004E00020210AF065F9019A206811460AF064F9A2
:1004F000002008B070BD00BF90020020480400201A
:1005000008B5084B1B780BB9FFF704FF064B1878AA
:1005100030B100221A70054B1868400040F001000D
:1005200008BD00BF30040020980200203C040020D9
:100530002DE9F043084691B00C4609F011FF002860
:1005400038D0214604A8002209F064FF5B4804A9C2
:100550000CF048FC002878D021460AA809F0D1FF09
:100560000B9B102B6ED10A9D2868696802AB03C3F0
:10057000534BDDE90267D3E900239F4208BF96424F
:1005800060D050490B685A1E02F01F0C4E4A9C4521
:1005900049D002EBC300D0E900894F4508BF46456A
:1005A00050D00133584200F01F0003F01F0358BF22
:1005B0004342ECE70190204609F098FE019A00289A
:1005C00043D0214604A809F06AFF404804A90CF072
:1005D00009FC019A002838D021460AA809F0B6FF84
:1005E0000B9B0D2B2ED10A9D6968286802AB03C3B3
:1005F00034490B68DDE902675A1E02F01F0C324ACB
:100600009C4550D002EBC300D0E900894F4508BF9C
:10061000464517D00133584200F01F0003F01F0376
:1006200058BF4342ECE702EBCC02C2E90067EB7B28
:10063000274AC1F800C0303B00D5FF231360254B8B
:1006400001221A700AA825F0D5F9234D2B683BBB6F
:10065000204609F09EFE6428CCBF64232860204613
:10066000C8BF2B6009F093FE2A6801461B4828F09A
:100670009DFE204609F0ADFD194B40421870214601
:100680000AA809F09BFD0AA809F061FD154B187036
:100690000AA809F05BFD144B02681A6082889A80F0
:1006A00011B0BDE8F08302EBCC02C2E90067084B51
:1006B000EA79C1F800C01A60C1E700BF4804002011
:1006C0004004002060050020600400207402002027
:1006D0003C0400209802002034040020A0020020E6
:1006E0008C0200203804002099020020024A0348AE
:1006F000042107F0B1BC00BFACA3020013A30200A9
:100700007FB50C496846FFF791FE69460A480CF030
:100710008CFA684625F06EF908496846FFF786FEB0
:10072000694607480CF081FA684625F063F907B07E
:100730005DF804FB17A30200740200203CA3020032
:1007400048040020C30711D404280FD9026802F01E
:100750000F03032B0AD101F00301C1F104035B076E
:1007600003F0C04322F0C0421343036070470246C7
:1007700010F001000FD1042A0ED91368C3F30F1033
:1007800050B1431E9800031D0432115C21B10130A9
:100790008342FAD1704700207047037883B11A066C
:1007A00001D40130704703F0C003C02B08BF0130F3
:1007B000024610460132037803F0C003802BF8D0C4
:1007C000704708B5002103780BB9084608BDFFF74C
:1007D000E4FF0131F7E7014600787F2829DDDF28B3
:1007E00007DC8301487803F4F86300F03F00184306
:1007F0007047EF2808DC4A780303920102F47C6218
:100800009BB288781343F0E7F72810DC4A7883041A
:100810001203C87802F47C3203F4E01300F03F00C6
:10082000134303438878800100F47C60DFE74FF0D6
:10083000FF30704738B5002204460D46411C0920A0
:1008400005F0B4FE40B16300024643F0010342F8F4
:10085000043F0023A34200DB38BD55F8231042F8C3
:10086000041F0133F6E7002838B504DC1C20BDE87E
:10087000384002F077BC0C68E20701D40D20F6E79F
:1008800001281ED04A68D307F8D5B2F5007F4FEA99
:10089000620301D31320EAE71A0442EA03621A430F
:1008A00042EA0322641024EAE474E11C8910032064
:1008B00005F07CFE054610B12146FFF743FF2846B0
:1008C00038BD0022EEE7012838B504DC1C20BDE865
:1008D000384002F047BC0C68E20701D41120F6E76B
:1008E0004868C30706D4042804D9036803F00F033B
:1008F000042B01D00E20EAE705F0ACFC6410002CBC
:10090000054603DDFFF75DFFA04205DA1220DEE7B2
:10091000FFF743FF013C0546012C2846F8D1FFF7BD
:100920005AFF400040F0010038BD01282DE9F3478F
:100930008246884605DC1C2002B0BDE8F04702F084
:1009400011BC4C6814F0010901D10D20F4E7022814
:1009500002D08B68DA07F8D5D8F80070FB0700F1F1
:10096000B180042F40F2AE803D686410012C05F088
:100970000F02B8BF0124092A2CD17B68BAF1020FFB
:1009800018BFD8F808704FEA63030CBF1F467F10EA
:100990009F42A8BF1F463D1B0135012225EAE57590
:1009A000A918092005F002FE064648B16D0003466D
:1009B00045F00105D8F8002043F8045FBC4203DD90
:1009C000304602B0BDE8F087013452F8241043F8F5
:1009D000041FF3E7042A43D1384605F03BFCFFF738
:1009E000F0FEBAF1020F16BFD8F80860064676107E
:1009F0008642A8BF0646B44205DD002002B0BDE82D
:100A0000F04705F04FBE384605F024FC05464C453E
:100A10001FD1384605F01EFC0746284609F101099A
:100A2000FFF7BBFE4E45F9DA441B204605F03AFEBF
:100A300006460028C4D005F00DFC8146D8F8000019
:100A400005F008FCED1B41192246484628F0AEFC93
:100A5000B6E72846FFF7A1FE09F101090546D6E7EA
:100A6000032A2FD1BAF1020FC5F30F12C5F3417556
:100A7000C5EB820216BFD8F8085015466D10954296
:100A8000A8BF1546AC4207DD00221146032002B084
:100A9000BDE8F04705F08ABD2D1B291D48BFE91DA3
:100AA00000228910032005F081FD0646002887D02A
:100AB0006A1C11460192FFF745FEE11C019A394478
:100AC0000430C3E7212037E70028F8B504DC1C20F8
:100AD000BDE8F84002F046BB0D6815F0010713D0E1
:100AE000B5F5007F4FEA650601D31320F0E7002239
:100AF0000121032005F05AFD044618B10121FFF73A
:100B000021FE06712046F8BD042DEED92B6803F0B6
:100B10000F03042B1AD12846FFF729FEC11C48BF3A
:100B2000811D064600228910032005F03FFD044682
:100B30000028E7D03146FFF705FE284605F08AFB7E
:100B400032460146201D28F031FCDBE7092B1FD17E
:100B50006E687610F11C48BFB11D00228910032079
:100B600005F024FD04460028CCD03146FFF7EAFD0D
:100B70000435021DB742C5DA55F8043FD90705D53B
:100B8000B3F5007F4FEA6301AFD2D1550137F1E7EA
:100B9000032BAAD12C46B5E7486838B5C3070D46E4
:100BA00006D4042804D9026802F00F03092B04D0EC
:100BB000BDE838400B2002F0D5BA4368C2F30F12EB
:100BC000511EB1EB630F4FEA630411D80B2C4FF0A9
:100BD000030304DD94FBF3F3642BA8BF642399188B
:100BE00005F022FD0368C3F30F13013B9C4208D2BA
:100BF000A31C013464002A6840F8232044F0010457
:100C00004460002038BD01282DE9F84304DC1C2095
:100C1000BDE8F84302F0A6BA02284E680CD08C68F2
:100C2000E20709D56410012CB8BF0124F30705D5EC
:100C30004FF0FF30BDE8F8830124F7E7042EF7D921
:100C400033680D6803F00F02042A30D1EF0706D491
:100C5000042D04D92B6803F00F03042B01D00E20C0
:100C6000D6E73046FFF783FDA042E1DB304605F0D2
:100C7000F1FA0646284605F0EDFA03780146002B06
:100C8000D6D0601E304428F02EFD04460028CFD078
:100C9000012133780BB1A64203D3480040F0010094
:100CA000C8E73046FFF779FD06460131F1E7092A2A
:100CB00038D17368B4EB630F4FEA6309B8DCE80717
:100CC00028D4042D26D92B6803F00F03042B21D13F
:100CD000284605F0BFFA80462746013456F824001E
:100CE000854201D17800D9E7C1070ED404280CD978
:100CF000036803F00F03042B07D105F0ABFA01469C
:100D0000404628F0C3FC0028ECD04C45E4DD8FE7DA
:100D10004C458DDC2046013456F82430AB42F7D1E7
:100D20004000BBE7032A83D1C3F30F18C3F3417319
:100D3000C3EB880844453FF77BAFEA0706F104039D
:100D400027D4042D39D92B6803F00F02032A16D1BA
:100D5000C3F30F10C3F341732F1DC3EB8000A8EB47
:100D600000083B18013C033644453FF761AF311999
:100D70003A469A42104622D328D1601CD0E7042A72
:100D80001BD1284605F066FA07462846FFF7EFFC18
:100D9000E5E7B5F5007F4FEA650201D3282037E784
:100DA000013C44453FF744AF195D914204F1010411
:100DB000F7D1640044F001003CE70F2028E711F868
:100DC000015F0078854202F10102D2D00134CBE705
:100DD00001282DE9F047884604DC1C20BDE8F047D7
:100DE00002F0C0B90868C20706D4042804D9036811
:100DF00003F00F03042B01D00E20EFE74B6813F034
:100E00000109F9D1042BF7D91B6803F00F03042B58
:100E1000F2D105F01FFA0446D8F8040005F01AFADA
:100E2000074628F045FC064678B92046FFF7C9FC7E
:100E300005460122A918092005F0B8FB374B1860B8
:100E40009A4690B90020BDE8F0873946204628F040
:100E50004AFC231A5D425D41204639463044013543
:100E600028F041FC0028F8D1E3E76B0043F00103D0
:100E70004360D6B92046FFF790FC4D45064602DC9C
:100E8000DAF80000DFE7311B204605F013FC0028EC
:100E9000D8D0DAF8003003EB890334469860304646
:100EA000FFF77BFC09F10109E7E7012D03D1D8F831
:100EB00000308360C7E73946204628F014FC4FF025
:100EC00001088146B9F1000F16D04545D8DBA9EBE2
:100ED0000401204605F0EEFB0028B3D0DAF800301C
:100EE00008F1010809EB060443F8280039462046BA
:100EF00028F0F9FB8146E5E74545C1DB204628F0AF
:100F0000D7FB0146204605F0D5FB00289AD0DAF839
:100F1000003008F1010843F82800B1E7C81B0020A1
:100F200008B505F07BF9400040F0010008BD7F29BD
:100F300002DC00F8011B7047B1F5006F0CDA0346C4
:100F40008A1162F03F0203F8022B01F03F0161F0C9
:100F50007F01417018467047B1F5803F0FDA0B13DF
:100F600063F01F030370C1F3851301F03F0163F0C9
:100F70007F0361F07F014370817003307047B1F5EA
:100F8000883F0DDAF0230370902343708B1101F03A
:100F90003F0163F07F0361F07F018370C170043013
:100FA0007047000010B5094C002220600221092082
:100FB00005F0FCFA226820B9BDE810400A2002F0D2
:100FC000D1B80321C0E9011210BD00BFC81B002029
:100FD00038B5C30709D5B0F5007F4FEA600507D3E0
:100FE0001320BDE8384002F0BDB8051E18BF01252A
:100FF00000220121032005F0D9FA08B90A20F0E700
:101000000121FFF79FFB057138BD07B510F0010105
:1010100004D04110084603B05DF804FB042813D93E
:10102000026802F00F02042A09D1019105F012F9B9
:1010300001990A2203B05DF804EB28F0F1BB032A02
:1010400002D10A220430F5E70D20019102F08AF85E
:101050000199DFE70128F8B507460E4604DC1C209D
:10106000BDE8F84002F07EB80868FFF7CEFF0546FD
:101070007068FFF7CAFF022F044606D0B068FFF77A
:10108000C4FF061E02DC2920EAE70126A542D5BFDF
:10109000641B2C1BB4FBF6F4B4FBF6F4D4BF013490
:1010A00001344FF0000204F101014FF00900C8BF04
:1010B000764205F07BFA80B16300024643F00103FB
:1010C00042F8043F6D00730002EB840445F0010117
:1010D00042F8041F94421D44F8D1F8BD00282DE9C0
:1010E000F3410F4603DC1C2002F03CF816E00C68CC
:1010F00014F0010506D1042C1DD9236803F00F0359
:10110000042B0DD12046FFF780FF6C460146204698
:10111000FFF70DFF011B204605F0CCFA044634E032
:10112000092B08D166684FF001087610B04504DD40
:1011300002F01EF8E0B12A20D6E708F1010854F8C1
:101140002800FFF762FF7F280CDDB0F5006F0BDB96
:10115000B0F5803F0ADBB0F5883FACBF0023042325
:101160001D44E3E70123FBE70223F9E70323F7E745
:10117000284605F097FA044638B1D7F8008005F004
:1011800069F801270546B74203DD204602B0BDE8F5
:10119000F081013758F82700FFF737FF014628464E
:1011A000FFF7C5FE0546EEE710B5044611F0010055
:1011B00011D104290ED90A6802F00F02042A09D1BC
:1011C000084605F047F80146204628F05FFAB0FAD5
:1011D00080F0400910BD0020FCE700000128F8B5B0
:1011E0000E4604DC1C20BDE8F84001F0BBBF4D6892
:1011F000EA0706D4042D04D92B6803F00F02092A4C
:1012000001D00B20EFE76A680968C3F30F13B3EB53
:10121000620F4FEA620498BF03F1FF3411F0010737
:101220000DD0481000283CDD84423ADB2B1D84425F
:1012300019DD013053F8202045F82020F7E71A483F
:10124000FFF7B2FF40B10123BC4201DA0020F8BD34
:10125000013745F82730F7E731681448FFF7A4FF56
:1012600050B1002CF2D00122631C013C9440144385
:1012700045F823206C60E9E73068C3070FD40428E1
:101280000DD9036803F00F03042B08D1FFF7BDFE4F
:101290000028C8D131680648FFF786FF08B9112039
:1012A000A1E712209FE700BFCCA30200D0A3020059
:1012B00082BD0200002310B50B70C3070C4606D593
:1012C0000E4942102046BDE8104023F027BC28B943
:1012D0000B492046BDE8104028F0BCB9042801D1D4
:1012E0000849F6E709D9036803F00F03042B04D17A
:1012F00004F0B0FF04490246E4E710BD01AA020071
:1013000082BD020063B10200D5A302002DE9F043C3
:1013100001288FB080460E4607DC1C2001F022FF1A
:10132000054628460FB0BDE8F0830B6813F00104B2
:1013300040F0AE80042B40F2E2801B6803F00F0304
:10134000092B48D1274656F8273013F0010906D15A
:10135000042B04D9186800F00F00092803D02220BC
:10136000DCE71F46EFE75B6804EB63047B1C9845F2
:10137000F7D10122A11805F019F9054608B9002591
:10138000CFE7640044F001044460494600F10804DA
:1013900056F821301868D3F804C0C0F30F10B0EB32
:1013A0006C0F4FEA6C0203F1040398BF00F1FF32A7
:1013B0000020824209DC22EAE2728F4204EB8204BE
:1013C00001F10103ADDD1946E2E753F804CF44F81B
:1013D00020C00130EDE7032B40F09180274656F8FE
:1013E0002700C507BBD40428B9D9036803F00F024E
:1013F000032A3CD1C3F30F12C3F34173C3EB82033F
:101400001C447B1C984530D1E11C48BFA11D002223
:101410008910032005F0CAF805460028AFD0214600
:10142000FFF790F94FF0000800F1040956F8284042
:10143000E10723D4042C21D9206800F00F03032BEB
:101440001CD1C0F30F13C0F34170C0EB8300033411
:101450000023834216DB0028A8BF8144474508F1DA
:1014600001037FF75EAF9846E0E71F46B7E7042A1F
:101470007FF475AFFFF77BF90444C2E72046FFF71E
:1014800076F9E4E714F8012F09F803200133E0E7C7
:1014900000252C4656F82500C20732D4042830D93E
:1014A000036803F00F02042A32D1FFF760F9044405
:1014B0000135A845EED1204605F0F4F80546002890
:1014C0003FF45DAF041DB14606EB880859F8046B84
:1014D000F30728D4042E26D9336803F00F02042A18
:1014E00034D13046FFF743F90746304604F0B2FEE8
:1014F0003A460146204627F059FF3C4421E0254664
:10150000C8E701A9FFF7D6FE01A828F0D1F8CEE779
:10151000032A7FF424AFC3F30F12C3F34173C3EB69
:1015200082031C44C4E701A93046FFF7C3FE01A8AB
:1015300028F0BEF801A906460246204627F036FFED
:101540003444C845C2D100232370EAE6032AF8D107
:10155000C3F30F17C3F34173C3EB87073A46311D3B
:10156000C8E700002DE9F04F002893B00E4607DCD5
:101570001C2001F0F7FD0446204613B0BDE8F08FB3
:101580000C6814F0010906D1042C04D9236803F077
:101590000F03092B01D00B20EBE763684FEA6308C8
:1015A000B8F1000F03DC484605F07CF8E3E70128BA
:1015B00027D04868C20724D4042822D9036803F03E
:1015C0000F03042B1DD104F045FE0546284628F0E4
:1015D0006FF8043408F1FF330746019303FB00FB67
:1015E00004EB880A54F8040FC3076BD4042869D9A4
:1015F000026802F00F01042905D1FFF7B8F883440F
:101600000AE0354DE2E7032963D1C2F30F11C2F3BB
:101610004172C2EB81029344A245E3D1584605F0E2
:1016200041F804460028A7D0D6F800A01FB1706882
:1016300004F010FE0546204604F00CFE0AF1040AF0
:1016400006465AF804BF584604F004FE1BF0010396
:101650000146029302D1BBF1040F04D805A95846F4
:10166000FFF728FE05A90846039128F021F8DDE9D7
:10167000023102468BB9BBF1040F0ED9DBF8000032
:1016800000F00F0CBCF1030F01BFC0F30F12C0F349
:1016900041700BF10401C0EB82023046029227F048
:1016A00085FE029A164447B1019B4B4505DD304645
:1016B0003A46294627F07AFE3E4409F10109C84519
:1016C000BFD159E705A9FFF7F5FD05A827F0F0FF01
:1016D00095E704F0BFFDF9E761C602002DE9F0418E
:1016E000012888B003DC1C2001F03CFD5EE00C68A2
:1016F000E30730D4042C30D9266806F00F0648687A
:1017000004F0A8FDB349074627F0C0FFB2490028FE
:1017100038460CBF01254FF0FF3527F0B7FFAF4922
:101720000028384608BF022527F0B0FFAC49002842
:10173000384608BF042527F0A9FFAA4900283846E3
:1017400008BF092527F0A2FF002800F0EA816F1CDE
:1017500005D13020C8E70226D1E70126CFE7013EB8
:10176000082E17D8DFE816F0090024007301530093
:101770001600160016001600CF00023D072D09D8EE
:10178000DFE805F004410C080808083D042C0CBFF4
:1017900003240124204608B0BDE8F0819248934B11
:1017A0000121042C18BF184604F084FF0446F1E719
:1017B000013D082DEED801A353F825F0E1170000F4
:1017C0009517000007180000E917000095170000A2
:1017D000951700009517000095170000FF170000EF
:1017E000630835D00424D5E781496210684623F0A8
:1017F00095F9684627F05CFF01466846D4E7204625
:10180000FFF7D0FBD2E72046FFF7E2FBCEE7013D32
:10181000082DBFD801A353F825F000BF41180000E0
:1018200055180000C118000095170000951700001A
:101830009517000095170000951700006318000029
:10184000204604F007FD694927F020FF0028C9D190
:1018500000249FE72046FFF7D8FB400040F001043A
:1018600098E7204604F0F6FCFEF7ABFF614D411C03
:101870000646002209202C6004F098FE044608B9B0
:101880000A2031E70746730043F00103286847F850
:10189000043F04F0DFFC4FF00008054646457FF7A3
:1018A00079AF2846FEF797FF400040F0010047F867
:1018B000040F2846FEF771FF08F101080546EDE721
:1018C000204604F0C7FC27F0F3FE4A4DC11C064633
:1018D0000022891003202C6004F068FE04460028D2
:1018E000CED02D683146FEF72DFF284604F0B2FC1D
:1018F000E21C00239E427FF74DAFC15C02F8011F3E
:101900000133F7E7032566686B1E7610032B3FF65D
:1019100041AFDFE803F00212713A012E0BD1A46847
:10192000E00708D4042C7FF635AF236803F00F03DB
:10193000012B3FF42FAF2D20D6E6012E03D1A46852
:10194000E1073FF527AF2C20CEE6013754F82700FA
:10195000FFF75BFB7F2812DDB0F5006F11DBB0F500
:10196000803F10DBB0F5883FB4BF2B46002398447E
:10197000BE42EADA01F0FCFB58B12A20B4E60123AA
:10198000F5E70223F3E70323F1E701274FF000080F
:10199000EEE7184D40462C6004F084FE2F680446A4
:1019A00000283FF455AF04F055FC0125AE42FFF688
:1019B000F1AE013557F82530DA0701D4272093E638
:1019C000B3F5081F4FEA630101D331208CE6FFF71E
:1019D000AEFAEBE7DEA30200E6A30200EDA30200ED
:1019E000F4A30200F9A3020063B1020082BD020069
:1019F00001AA0200C81B0020F11C48BFB11D554DB3
:101A00000022891003202C6004F0D0FD0446002839
:101A10003FF436AF31462D68FEF794FE021D6FF09D
:101A2000030005F10803001B11188E427FF7B2AEC8
:101A300053F8041BCD07C1D5B1F5007F4FEA61050E
:101A400001D3132050E602F8015BEDE73546266826
:101A5000013DC6F30F13C6F34176C6EB8306082D8E
:101A60003FF698AE01A353F825F000BF911A00008D
:101A7000A11A000095170000AB1A0000951700008E
:101A8000951700009517000095170000DF1A000059
:101A9000012E7FF450AF2379002B7FF4A3AED7E65D
:101AA000012E7FF450AF2079D7E62A4D30462C60C6
:101AB00004F0F8FD2B68044600283FF4E1AE1A1D3F
:101AC000C3F1FF2303F57F03C11CFC33D018B042E0
:101AD000BFF660AE12F8010B01F8010FF6E71D4DDD
:101AE0000022711C09202C6004F060FD2B68044664
:101AF00000283FF4C5AE0146720042F0010241F8F1
:101B0000042F6FF00202D81CD21A13189E427FF7DE
:101B100041AE10F8013F5B0043F0010341F8043F80
:101B2000F3E7731E082B3FF635AE01A252F823F0FF
:101B300007180000071800004D1A0000C118000027
:101B400095170000951700009517000095170000E5
:101B500005190000C81B0020021E10B513DD0B681C
:101B600013F001041CBF5C1024EAE474012A00D0C5
:101B70004A68611C092004F019FD18B1640044F0A2
:101B80000104446010BD00240122F2E70A6812F04B
:101B9000010038B53AD1042A38D91368496803F0EE
:101BA0000F04092C1AD15568C3F30F13B3EB650F5B
:101BB0004FEA650498BF03F1FF34151D844205DC2C
:101BC00001330220984205DB002038BD45F8041F90
:101BD0000130F3E742F820100130F3E7032C15D170
:101BE000C80704D4BDE83840132001F0BBBAB1F5F2
:101BF000007F4FEA6100F5D20432C3F30F1302EB0A
:101C000083039A42E0D202F8010BFAE70B2001F0BD
:101C1000A9FAD9E72DE9F0414E6816F00107884688
:101C20002BD1042E29D9326802F00F03092B14D1CD
:101C30007368C2F30F12B2EB630F4FEA630500D86B
:101C4000551ED8F8008018F0010F1AD04FEA68042A
:101C5000002C1CDDA54223DA19E0042B04D1304608
:101C6000FEF785FD0546ECE7032B08D1C2F30F1301
:101C7000C2F34172C2EB8305E3E70025E1E73D468D
:101C8000DFE734484146FFF78FFAC0B10DB91220A3
:101C90002FE027F02DFC90FBF5F303FB15035C1CF4
:101CA000002F54D1042E52D9336803F00F03092BAF
:101CB00025D1013456F824402046BDE8F08126485D
:101CC0004146FFF771FAC0B9B8F1040F10D9D8F83E
:101CD000003003F00F03042B0AD14046FFF795F9BB
:101CE000041EB6D11D484146FFF75EFA0028CED14A
:101CF0001120BDE8F04101F035BA2C46D0E7042BA5
:101D00001DD1304604F0A6FA012C05460FDCFEF783
:101D100044FD461B304604F0C5FC04460028CBD0E9
:101D200004F098FA3246294627F040FBC4E72B78A6
:101D3000013C002BABD02846FEF72FFDE4E7032B38
:101D400005D13444E478640044F00104B4E70B2086
:101D5000CFE700BF04A40200D0A3020082BD0200AE
:101D60002DE9F0414C6814F00106884632D1042C6C
:101D700030D923688F6803F00F02092A15D16268F1
:101D8000C3F30F13B3EB620F4FEA620500D85D1E79
:101D9000D8F800103748FFF707FA98B3236803F024
:101DA0000F03092B20D1012319E0032A12D1FA07CE
:101DB00004D41320BDE8F04101F0D4B9B7F5007F99
:101DC0004FEA6706F5D2C3F30F15C3F34173C3EBB4
:101DD0008505DDE70B20EDE7013344F823709D42D4
:101DE000FADA0020BDE8F081032BFAD1E31CC4F13C
:101DF000FF2404F57F04FE34E218AA42F1DC03F864
:101E0000016FF9E7D8F8008018F0010F0ED04FEA03
:101E10006800002822DD854220DB236803F00F03E1
:101E2000092B21D1013044F82070DAE712484146ED
:101E3000FFF7BAF9B0B9B8F1040F11D9D8F80030EA
:101E400003F00F03042B0BD14046FFF7DEF8002808
:101E5000E0D10A484146FFF7A7F908B11220A9E7E7
:101E60001120A7E72846D8E7032B04BF2418E67003
:101E7000B7E700BFCCA30200D0A3020082BD0200DE
:101E8000086808B5C3071BD4042819D9036803F0F0
:101E90000F02092A01D1406808BD032A09D1C3F302
:101EA0000F12C3F34170C0EB8200400040F001000C
:101EB000F2E7042A04D104F0CDF9FEF782FCF4E73E
:101EC0000120E9E7024A03480F2106F0C5B800BF28
:101ED000A0A402000BA402001FB500210E2003F0F5
:101EE00023FF01210D2003F01FFF01210F2003F02C
:101EF0001BFF0A4808F094F84FF080530193002329
:101F0000039302238DF8083004AB13E90E00034855
:101F100005B05DF804EB08F099B800BF5030002020
:101F2000086810B50C46C10706D4042804D9036814
:101F300003F00F03042B04D0BDE810400E2001F085
:101F400011B904F087F90278A2F14103052B03D9F6
:101F5000A2F16103052B01D85A1C01D1206810BDE4
:101F6000054AD25C0E2A01BF044AD05C400040F012
:101F7000010018BF0120F2E70400002070050020D6
:101F8000086810B50C46C10706D4042804D90368B4
:101F900003F00F03042B04D0BDE810400E2001F025
:101FA000E1B804F057F90278A2F14103052B03D9F7
:101FB000A2F16103052B01D85A1C01D1206810BD84
:101FC000034A32F81300400040F00100F7E700BF79
:101FD0006405002010B500220621032004F0E6FA73
:101FE00020B9BDE810400A2001F0BCB8C30709D4ED
:101FF000042807D9036803F00F02032A04BF43F043
:10200000C0430360054AC31C00F1180112F8014BDC
:1020100003F8014F8B42F9D110BD00BFFB05002032
:102020002DE9F04102230F4683420EDA57F82320B0
:10203000D50707EB830405D40D2001F093F8206841
:10204000BDE8F0810133DBB2EEE7386810F001063D
:1020500006D1042804D9036803F00F03042B04D02D
:10206000BDE8F0410E2001F07DB804F0F3F80578EA
:10207000A5F14103052B77D81D46681C77D0484B46
:102080005B5D0A2B40F08A80464A15236B43D118CA
:10209000E320D0544D70BC686410C4EB042414F1E8
:1020A000630F904665DB642394FBF3F4FF2CA8BF19
:1020B000FF24FA685210C2EB022212F1630F5ADBBE
:1020C000642392FBF3F2FF2AA8BFFF223B695B1057
:1020D000C3EB032313F1630F4FDB642193FBF1F395
:1020E000FF2BA8BFFF237868C10748D4042846D92E
:1020F000016801F00F01042941D1152101FB05817F
:10210000E4B2D2B2DBB28C70CA700B714C718A71BE
:10211000CB710C724A728B72CC720A734B730121B1
:10212000102023F003F90021102023F03DF91E4C6C
:10213000FFF7D2FE152303FB058515F8011B20468A
:10214000013607F090FF152EF7D1174807F08AFFE8
:102150000121102023F028F9144B4FF4FA4043F0EA
:102160000103984704206BE7613D052D85D9386848
:1021700066E700249DE70022A8E70023B3E74110AB
:10218000013903293FF65CAF01EB4100152101FB4A
:10219000058101448C70CA700B71C0E700204FE7C5
:1021A000040000207605002050300020B0A5020079
:1021B00010B5FC23064A0370811D034612F8014B3B
:1021C00003F8014F8B42F9D1024B1B7DC37110BD47
:1021D00004000020FB05002070B50121102023F031
:1021E000A5F80021102023F0DFF8FFF775FE0E4858
:1021F0000E4DE22107F037FF0124295D0A48013422
:1022000007F031FF152CF8D1074807F02BFF1020FD
:10221000012123F0C9F8064BBDE870404FF4FA40A5
:1022200043F00103184700BF503000201000002089
:10223000B0A502004B68D80710B50C4604D40D2099
:1022400000F090FF606810BD0868C10706D404283C
:1022500004D9036803F00F03042B04D0BDE8104039
:102260000E2000F07FBF03F0F5FF0278A2F14103DA
:10227000052B03D9A2F16103052B01D85A1C01D10A
:102280002068E0E70A4AD25C082A0ED1094A616850
:1022900003EB4303134400225A709A70A1F34802DF
:1022A000DA70FFF799FF0420CDE70020CBE700BFED
:1022B00004000020100000204B68D80710B50C4621
:1022C00004D40D2000F04EFF606810BD0868C107FF
:1022D00006D4042804D9036803F00F03042B04D0A8
:1022E000BDE810400E2000F03DBF03F0B3FF0278C0
:1022F000A2F14103052B03D9A2F16103052B01D8FB
:102300005A1C01D12068E0E70A4AD25C013A052A4A
:102310000ED8094A616803EB4303134400225A7044
:102320009A70A1F34802DA70FFF756FF0420CCE759
:102330000020CAE704000020100000204B68D807E6
:1023400010B50C4604D40D2000F00CFF606810BDE1
:102350000868C10706D4042804D9036803F00F03F2
:10236000042B04D0BDE810400E2000F0FBBE03F0AB
:1023700071FF0278A2F14103052B03D9A2F1610399
:10238000052B01D85A1C01D12068E0E7104AD25C25
:10239000013A052A1AD8626852100BD0642A6FF0ED
:1023A0006301A8BF64228A42B8BF0A46032192FB98
:1023B000F1F25A32074903EB43030B4400215970F1
:1023C0009970DA70FFF708FF0420C0E70020BEE72D
:1023D000040000201000002038B54B68DC070D46D3
:1023E00005D58B68D80702D5CB68D90704D40D2052
:1023F00000F0B8FE002055E0286810F0010406D176
:10240000042804D9036803F00F03042B04D0BDE8AB
:1024100038400E2000F0A6BE03F01CFF0378A3F1A5
:102420004102052A3AD813465A1C3AD06A6852101B
:10243000C2EB022212F1630F35DB642192FBF1F251
:10244000FF2AA8BFFF22A8684010C0EB002010F1AF
:10245000630F2ADB642190FBF1F0FF28A8BFFF2067
:10246000E9684910C1EB012111F1630F05DB642418
:1024700091FBF4F4FF2CA8BFFF240D49C95C072988
:1024800001D00929B6D10B4903EB43030B44587023
:102490009A70DC70FFF7A0FE042003E0613B052B7F
:1024A000C2D9286838BD0022CDE70020D8E700BF98
:1024B000040000201000002000EB400303481844F3
:1024C000002343708370C370FFF786BE10000020A6
:1024D0002DE9F3479D4B9E4C186800909B88ADF802
:1024E00004300121102022F021FF0021102022F0D1
:1024F0005BFFFFF7F1FC9748964EDE2107F0B3FD36
:1025000001252070FF21304607F0ADFD60550135F3
:10251000152DF7D18F48904E07F0A4FD1020012112
:1025200022F042FF8D4BE2781A7062795A70E2799C
:102530009A70627ADA70E27A1A71627B5A7188480C
:10254000DFF840C2002303279E46018816F8012BBE
:1025500002EB4102B2F53C7FB2FBF7F520F8025BDB
:1025600051DD0DF803E00133062BEED17D4ADFF893
:1025700018C21078694667461E46002511F801EB1F
:1025800097F8008007F801EBC6451CBF0125002025
:10259000013EF3D105B110701178132944D80131EF
:1025A0001170714E3378002B40F0B7806F4F3A783E
:1025B00032B30121102022F0B9FE0021102022F0B8
:1025C000F3FEFFF789FC6A4DDFF88881002415F8D7
:1025D000011B4046013407F046FD152CF7D15D483C
:1025E00007F040FD0121102022F0DEFE614B4FF488
:1025F000FA4043F0010398470123337000233B70F6
:1026000002B0BDE8F087012212F80C1001F10608B3
:10261000454505DC06398D4202DB0DF80320A2E7B3
:1026200001321A2AF0D19EE71429BAD1152111706E
:102630004E49514D91F800E0504800222F469046F7
:102640004FF0010917F801AB1CF8016BB24508D037
:102650000EB11F2E33D180F8008007F8016C0122E3
:102660009646013B00F10100ECD10AB181F800E08F
:102670000B78002B95D03E4B15220021184626F0F2
:10268000BDFEE122027000220221052617464FF00E
:10269000040C4FF0030E4FF006084FF0010915F837
:1026A000013B03F1FF3ABAF1010F02F1010210D828
:1026B00080F80190062A00F10100F0D171E790F84E
:1026C00000A0BAF1000FCCD107F8016C80F800909F
:1026D000C5E7A3F1030ABAF1030F02D880F801801D
:1026E000E8E7072B01D0092B01D14170E2E70A2B63
:1026F00002D180F801E0DDE7A3F10B0ABAF10A0F7D
:1027000002D880F801C0D5E7082B02D0163B032B76
:1027100001D84670CEE74770CCE7DFF85490DFF879
:102720004C80174F0025013515F8092014F8153095
:102730009A4205D00123384688F8003006F014F894
:10274000062DF0D10023337030E700BF2CA5020026
:10275000FB050020503000200906002070050020F5
:102760006405002011060020FA0500201006002054
:1027700025000020B0A5020004000020F405002080
:1027800018A5020088A502000A000020F0B587B055
:102790001522FF21684626F031FEDF23012110209B
:1027A0008DF8003022F0C2FD0021102022F0FCFD47
:1027B000FFF792FB0D4E6C461525002714F8011B00
:1027C0000B4807F050FC013D06F8017BF6D10848A4
:1027D00007F048FC0121102022F0E6FD054B4FF0E8
:1027E0001F321A609A8007B0F0BD00BF10000020B1
:1027F000503000200A000020024A0348082105F05A
:102800002BBC00BF48A502008FB80200014A13602C
:10281000704700BF500E0020704710B5044622F0EC
:102820000FFA204610BD000008B5084609F099FBD4
:102830000022114607F0C0FF034B4FF6FF721A80CB
:10284000024B00221A6008BD3A0000201806002042
:1028500010B50846144609F084FB08F04DF9034B07
:10286000228C1A80024B01221A6010BD3A0000200F
:1028700018060020F0B5104E85B0002201A808F01F
:10288000BDFB3468BDF80A50019FC4F50062954253
:1028900004DD0A48036801330360154608482A46E8
:1028A0003946204426F082FD2C443846346020F01E
:1028B000F6FF05B0F0BD00BF480E0020580E002006
:1028C0001C06002010B5034B0360044608F0D6FA3E
:1028D000204610BD60A6020010B50446FFF7F2FFC7
:1028E000204622F0ADF9204610BD10B5044603F095
:1028F00009FA044403F006FAA04207D206F05EF992
:1029000004F04AFB01201FF069FBF3E710BD00F162
:10291000080373B50360044608460D4626F0C8FE5A
:102920000F2805EB0006019007D9002201A92046D7
:1029300023F03EF8019B2060A360206832462946C0
:1029400023F069F8019B2268636000212046D1547E
:1029500002B070BD4FF08052136E4371190A0171BD
:10296000190C1B0EC1708370536E43701B0A0370E9
:102970007047000037B5002468460094ADF8044065
:10298000FFF7E8FFBDF804300E495BBA1A209BB28E
:10299000B3FBF0F200FB12334133B2FBF0F50B70E6
:1029A00000FB1522B5FBF0F300FB1350413088709B
:1029B0000548CC7041324A7003B0BDE8304026F083
:1029C0006FBE00BF120600201D0E0020F8B5134E8A
:1029D00033780BB3124D134C28682188124F132201
:1029E00009F0C1FA4FF6FF732380104B28680024CA
:1029F0001C600F4B1C7009F0B4FA08F07DF83968C0
:102A00002868224609F008FD204608F055FF094BCA
:102A10002C603C601C603470F8BD00BF1C0E0020B0
:102A2000540E00203A0000205C0E00201806002002
:102A3000440E00204C0E002010B50E4C20688CB0C7
:102A4000B0B109F08EFA08F057F8206809F089FA59
:102A5000094904466846FFF75AFF694606A80AF086
:102A6000E4F8204606A907F07CFE684622F0C2FF83
:102A70000CB010BD540E0020B6A5020010B5154BC9
:102A80001B6886B01BB308F0FBFD044608F03DF858
:102A90001149204608F060F910496846FFF737FFF2
:102AA0006946204608F0D2F9684622F0A3FF642167
:102AB000204607F07AFEC821204607F079FE084B31
:102AC0001B7823B100221146204607F075FE06B0A0
:102AD00010BD00BF540E0020B6A502001D0E002040
:102AE000440E00202DE9F041434D2B7886B0002B99
:102AF0007ED1FFF73FFF4149414E424FDFF8FC8056
:102B00006846FFF704FF684608F046FE684622F074
:102B100071FF08F099FD04463060042022F08CF823
:102B2000394B036001460122204609F025FA374956
:102B30003068374E09F03DFC1022364930604FF4C2
:102B400000730AF031F8344B04461860042022F078
:102B500073F801460760204608F098FB4FF40073B5
:102B600004222E4930680AF01FF80446042022F09F
:102B700063F801460760204608F088FB306809F0DA
:102B8000A5FE274A01232B701370FFF777FF1B4820
:102B900026F08EFD032405462E1F0327B5421DD0C7
:102BA000012108EB060003F085FD69460090012035
:102BB00004F0F0F86946CDE900070320029704F01D
:102BC00021F94FF42F70FFF790FE6946002003F0C3
:102BD000E5FE6420FFF789FE0136DFE74FF47A70E7
:102BE000FFF783FE013CD7D16946204603F0D6FEAD
:102BF00006B0BDE8F08100BF1C0E00201D0E0020B5
:102C0000540E002060A6020030A60200B6A5020005
:102C10005C0E0020DBA502004C0E002000A6020086
:102C2000440E0020014B1868704700BF18060020B2
:102C3000012070472DE9F043464D2B6887B00646CA
:102C40000C46002B49D044481EF094FF022862DD58
:102C500005201FF0C3F940481EF08CFF14280246DF
:102C600001A9A8BF14223C481EF037FF01AB002287
:102C7000023890424FDD13F8011BFA2902F10102DC
:102C8000F7D119781A29F4D15F78002FF1D1DFF844
:102C9000D890DFF8D880B9F80010D8F800001322D7
:102CA00009F061F94FF6FF73A9F800302B4BD8F803
:102CB000000019683A4609F0AFFB294B2F601F70DE
:102CC00025481EF057FF844222463146A8BF0246DF
:102CD00021481EF002FF044637E0DFF8848098F8B0
:102CE0000030002BECD105F02BFD074698B9DFF83A
:102CF0007C90D9F8000070B1184B196809F06EFB90
:102D0000D9F8000009F02DF93A46394607F054FD8C
:102D1000012388F800302B68002BD1D0114F3D687B
:102D2000AC42A8BF2C4684B1DFF84480224641461D
:102D300030462D1B26F03AFB002D05DD2A4608EB18
:102D40000401404626F032FB3D60204607B0BDE856
:102D5000F08300BF18060020685A00205C0E002097
:102D6000440E0020480E00203A000020540E00209F
:102D70001C0600200B462DE9F341D41A1B4B1B689F
:102D8000411833B91A48224602B0BDE8F0411EF09E
:102D90000DBE184D019102F0B5FF2B6801999842C4
:102DA0003CBF00232B602B68C31A132B06461BD98C
:102DB000002C19DDFA2CDFF844800F4FD8F8000002
:102DC000A8BFFA24002322463B6008F067FAD8F82F
:102DD000000008F057FA3B682E60002B18BF002453
:102DE000204602B0BDE8F0810024F9E71806002073
:102DF000685A0020400E0020500E00204C0E00208B
:102E000008B505481EF08EFEBDE8084002484FF4A4
:102E1000E1311EF075BE00BF685A0020037883B10F
:102E20001A0601D40130704703F0C003C02B08BF5D
:102E30000130024610460132037803F0C003802BB4
:102E4000F8D0704773B50646084611F001011446E4
:102E500027D1042842D9036803F00F03042B3DD186
:102E6000D30714D4042A39D9136803F00F03042BB1
:102E700034D103F0EFF90546204603F0EBF90146A3
:102E8000284626F003FC002830DB21D129E00191FF
:102E900003F0E0F901990A2226F0C2FC054664100D
:102EA00013E012F0010117D1042A17D9136803F0B7
:102EB0000F03042B12D145101046019103F0CAF9FB
:102EC00001990A2226F0ACFC0446A5420EDB08DD7F
:102ED000002E09DC00200CE04510E0E7064B0F2235
:102EE0001A700136022EF5D8042002E0701700F0A7
:102EF000040002B070BD00BF840E002007B510F0C2
:102F0000010104D04110084603B05DF804FB042819
:102F100013D9026802F00F02042A09D1019103F0CB
:102F200099F901990A2203B05DF804EB26F078BC08
:102F3000032A02D10A220430F5E7024B0D221A704F
:102F4000E1E700BF840E00202DE9F843054605F0B7
:102F500097F8044608B1BDE8F883284626F0A8FB98
:102F60002C4E07463379032B0AD00134FF2C06F18F
:102F70000806F7D1284B1B221A704FF0FF30EAE702
:102F80003A462946E0B205F0F9F8034600283DD15B
:102F900032685068111D9842E7D051F804CFBCF157
:102FA000F00F03F10103F6D19B000833D00702EBC9
:102FB0000301DAD40429D8D9D35803F00F02042A24
:102FC000D3D1C3F30F130133CA0701EB8300CCD471
:102FD0000428CAD951F8233003F00F03042BC4D1BD
:102FE00003F038F94FF0030980460921404626F0E6
:102FF00040FB0028B9D0B9F1010900F10108F4D172
:103000002946404626F06FFB8045AED164F0FF00B4
:10301000A1E700BFC0760020840E002010F001025E
:1030200010B516D1042802D90268C2F30F1211F0AC
:10303000010310D1042902D90B68C3F30F13934283
:1030400014D1043000EB83030331834205D80120FF
:1030500010BD0022EBE70023F1E710F8014B11F857
:10306000012F54EA020CF2D09442EED00020EFE798
:103070002DE9F04F85B0CDE90113314F314E804637
:103080008AB102233B70012333603368DFF8C890B4
:10309000DFF8C8A0DFF8C8B00024FC54444504DBC6
:1030A00005B0BDE8F08F3260EFE7019B316853F85F
:1030B0002400C30707EB0105C1F5487105D5224A75
:1030C0004310284621F03EFD04E0A8B91F4A2846D7
:1030D00021F038FD1A4826F0EBFA029B30604BB124
:1030E00008F1FF33A34205DD431C20223A5400229D
:1030F000FA5433600134D1E7042801D1144AE6E7D9
:103100001BD9026802F00F03042B06D1039103F0D0
:10311000A1F8104A03990346D3E7092B03D143686A
:103120005A465B10CDE7032B08D1C2F30F13C2F34D
:103130004172C2EB83035246C3E701234A46C0E70C
:10314000D80E0020F811002001AA020084A6020077
:103150008AA6020023DD0200A9A602009EA60200A4
:103160008FA60200014B187000207047840E0020CB
:10317000024B1878003818BF01207047840E0020D9
:10318000024B1860024BFF221A7070470012002099
:10319000840E002008B500231A46FFF769FF034B91
:1031A0000348196805F0F2FC002008BDF811002062
:1031B000D80E002010B502F0B1FD084C231D0146C9
:1031C0001F22184626F07CFA26F072FA031D9B088F
:1031D0001B0143F004032360204610BD600E002055
:1031E0002DE9F04F804608F11809D8F81410C74FA0
:1031F000D8F810508BB009EB8101D0E90230029170
:103200003978AA0003EB800409EB8505002952D127
:1032100053F8203092101E12C8F8102003F07F03DC
:10322000BB4A52F823300434924643F00103184756
:10323000D8F8082098F8023098F80100A21A9210E5
:1032400043EA022205F0B2F9002388F800303B700F
:10325000D8F80830E41A029BA5EB0905A3EB09098D
:10326000A410AD104FEAA903C8F80C40C8F81050DC
:10327000C8F814300BB0BDE8F08F98F8010005F0E5
:103280008FF9002388F80030E2E73B789BB954F8C7
:10329000043BA5EB09021E1203F07F0392105AF8BB
:1032A0002330C8F81020C0E72A1DA2EB0903D82B51
:1032B00017DD1A233B703978FF29B9D1954E0023C9
:1032C0003B703368002BC3DD012388F8003002F027
:1032D00011FD33684FF47A7202FB0300C8F8040052
:1032E000B6E7294615469A103B780E60002BE2D1CE
:1032F00054F8043BC8F810201E1203F07F035AF85C
:10330000233092E72A1DA2EB0903D82B02DD1A23F2
:103310003B70D0E721462846154651F8042B026041
:103320009A103B780BB10C46C5E76368C8F81020CB
:103330001E1203F07F0308345AF8233075E72A1D64
:10334000A2EB0903D82B02DD1A233B70B3E7294611
:1033500015469A103B7804EB86060E60002BAAD126
:1033600054F8043BC8F810201E1203F07F035AF8EB
:1033700023305AE72A1DA2EB0903D82B02DD1A23BA
:103380003B7098E729461546634A52F826200A60A2
:103390009A103B78002B8ED154F8043BC8F81020CB
:1033A0001E1203F07F035AF823303EE75A4B55F8BC
:1033B000042D43F826203B78002B7FF47CAF54F893
:1033C000043BA5EB09021E1203F07F0392105AF88A
:1033D0002330C8F8102028E7DFF83CB15BF826005E
:1033E000FFF78CFD3A78002A7FF465AF009055F81E
:1033F000040DFFF783FD009B184440003B7840F02C
:103400000100A5EB09024BF826009210002B7FF477
:1034100052AF54F8043BC8F810201E1203F07F038B
:103420005AF8233001E72A1DA2EB0903D82B02DD4D
:103430001A233B703FE7029B2946994534BF53F856
:103440000C3C01230B603B781546A2EB090292105D
:10345000002B7FF430AF54F8043BC8F810201E1244
:1034600003F07F035AF82330DFE62A1DA2EB09039D
:10347000D82B02DD1A233B701DE7029989451BD228
:1034800029461546029A06F1804652F80C0C033E76
:10349000A6EB600652F826200A609A103B78002BB3
:1034A0007FF409AF54F8043BC8F810201E1203F053
:1034B0007F035AF82330B8E618233B7000232B60B3
:1034C0001546F8E6029B99451CD2029A55F8043D30
:1034D00052F80C0C06F18046033EA6EB600642F85B
:1034E00026303B78A5EB09029210002B7FF4E3AE67
:1034F00054F8043BC8F810201E1203F07F035AF85A
:10350000233092E618233B70D5E600BF840E0020DE
:10351000CCA6020000120020B87E0020029B994534
:103520002DD253F80C3C029A06F18046033EA6EBDE
:10353000630352F82300FFF7E1FC834655F8040DBE
:10354000FFF7DCFC029B029A53F80C3C5844A6EBB4
:103550006306430043F0010342F826303B78A5EBB5
:1035600009029210002B7FF4A6AE54F8043BC8F871
:1035700010201E1203F07F035AF8233055E618235B
:103580003B7098E62A1DA2EB0903D82B02DD1A2313
:103590003B7090E629461546029A52F826200A60AA
:1035A0009A103B78002B7FF486AE54F8043BC8F8A1
:1035B00010201E1203F07F035AF8233035E6029ADA
:1035C00055F8043D42F826303B78002B7FF473AE6B
:1035D00054F8043BA5EB09021E1203F07F0392107E
:1035E0005AF82330C8F810201FE6029B53F8260033
:1035F0004FEA600B55F8040DFFF780FC5844029B1E
:10360000400040F0010043F826003B78002B7FF497
:1036100052AE54F8043BA5EB09021E1203F07F03DF
:1036200092105AF82330C8F81020FEE5A5EB860565
:10363000A945A5EB09060ED83A78B310002A7FF405
:103640003AAE54F8042BC8F81030161202F07F027C
:103650005AF82230E9E5CC4802F0ECFD3A78B31094
:10366000002A7FF428AE54F8042BC8F81030161244
:1036700002F07F025AF82230D7E5002E04EB8604D0
:10368000FFF6E6AD3B78A5EB09029210002B7FF424
:1036900012AE54F8043BC8F810201E1203F07F034A
:1036A0005AF82330C1E555F8043D042B04D1002E0F
:1036B00004EB8604FFF6CCAD3B78A5EB0902921033
:1036C000002B7FF4F8AD54F8043BC8F810201E120C
:1036D00003F07F035AF82330A7E555F8043D042B87
:1036E00004D0002E04EB8604FFF6B2AD3B78A5EBC8
:1036F00009029210002B7FF4DEAD54F8043BC8F8A9
:1037000010201E1203F07F035AF823308DE555F880
:10371000040CC107A5F1040B0BD54010013800289B
:103720000ADB400040F0010004EB8604CBF8000007
:103730008EE5FFF7E3FBF1E73B78ABEB0902921074
:103740000BB15D46B7E554F8043BC8F810201E12D3
:1037500003F07F035D465AF8233066E5029B05F1CE
:103760000C0EAEEB0901A3EB0903D8294FEAA30322
:1037700002DD1A233B709EE5760006F4FF7646F0E4
:1037800001062E60AB46D8F80850641B98F802502A
:10379000A41045EA04256D005B0045F0010543F0E7
:1037A0000103CBF80450CBF8083088F802203A78AF
:1037B00050F83C30C8F808307546891022B103F142
:1037C0000804CDF808E076E503F10C049B68CDF819
:1037D00008E01E1203F07F03C8F810105AF82330D7
:1037E00023E5029B55F8046C99452DD1F2071ED4B0
:1037F000042E15D9336803F00F03042B19D130467A
:1038000002F028FD25F054FFB0F5487FA8BF4FF423
:1038100048700630643004F0E3FC78B9043C17E5E6
:103820000AD0002E0CBF07204FF40070F2E70A20E8
:10383000F0E74FF40070EDE70720EBE798F80100A0
:10384000314604F0CAFE1CE5029B504953F80C2C8B
:103850004F4B3878A3EB6203029A42F8236002EBE5
:10386000830552F8083C5A1088F80220D2B2043579
:1038700051F83210029AC8F8081052F8042C52106D
:1038800009EB8202C3F355230292A5EB090201EB77
:103890008304921000287FF40EAD51F82330C8F84D
:1038A00010201E1203F07F0304345AF82330BCE4C6
:1038B00055F8040CFFF722FB1E28A5EB86052DDC2E
:1038C000A5EB090B00284FEAAB0B0DDC3B78002B76
:1038D0007FF4F1AC54F8043BC8F810B01E1203F0AA
:1038E0007F035AF82330A0E4009002F003FA009B13
:1038F000033B1E1802F0FEF9264B801B9842F9D2BA
:103900003B78002B7FF4D7AC54F8043BC8F810B0D8
:103910001E1203F07F035AF8233086E4012288F850
:103920000020009002F0E6F9009B0A380344C8F832
:1039300004308DE455F8040CFFF7E0FAA5EB86059A
:10394000061E10DC3B78A5EB09029210002B7FF4D9
:10395000B2AC54F8043BC8F810201E1203F07F03E9
:103960005AF8233061E40C4B9E4202DD1D233B706C
:10397000A1E4012388F8003002F0BCF94FF47A7317
:1039800003FB06000A38A9E4BBA60200C0760020AB
:10399000FDFFFF3F8096980080EE36000023304602
:1039A000A5EB8605CA4E1A462946FFF761FB31682A
:1039B000C84802F07FFEC84B31681860C54804F063
:1039C000C9FF3168C34805F0E1F83B78002B7FF46C
:1039D00072AC54F8043BA5EB09021E1203F07F03FE
:1039E00092105AF82330C8F810201EE43B78A5EB5B
:1039F0008605002B7FF45FAC54F8043BA5EB09026D
:103A00001E1203F07F0392105AF82330C8F81020DA
:103A10000BE4404604F042FC3B78002B7FF44BACB7
:103A200054F8043BA5EB09021E1203F07F03921029
:103A30005AF82330C8F81020FFF7F7BB55F8043CBC
:103A4000002B47D155F80C0C10F0010B20D04FEA99
:103A5000600B4FEA4B0343F0010345F8083CBBF110
:103A6000000F40F3968055F8080C4FEA4B03CBEB60
:103A7000600B55F80C0C43F0010345F8043CC307F8
:103A80002DD50BF1010B4FEA4B0343F0010331E05D
:103A900004281BD9036803F00F02092A01D14068EA
:103AA000D5E7042A09D102F0D5FB0378002BD0D04A
:103AB000FFF7B4F90BF1010BF7E7032A06D1C3F3C3
:103AC0000F1BC3F34173C3EB8B0BC2E719233B708E
:103AD000FFF7F1BB4FEA630B0BF1FF3BBFE7042895
:103AE00053D9036803F00F03092B18D10BF1020B14
:103AF00050F82B30029A42F826303B78A5EB0902A9
:103B00009210002B7FF4D7AB54F8043BC8F8102078
:103B10001E1203F07F035AF82330FFF786BB042BF5
:103B20002CD1029B03EB8603009302F093FB0BF175
:103B3000010B0646BBF1010F10DC3046FFF76EF9B2
:103B4000821B1046039202F0ADFD834668B102F07D
:103B500081FB039A314625F029FC06E030780BF111
:103B6000FF3B30B912233B708346009BC3F800B083
:103B7000C3E73046FFF752F90646DBE7032B04D1D3
:103B800083449BF804305B007FE719233B70FFF709
:103B900092BB0434B1E705EB8603A3EB0903D82BF2
:103BA00016DC0122002E06F1FF3315DC3B78A5EB75
:103BB00009029210002B7FF47EAB54F8043BC8F846
:103BC00010201E1203F07F035AF82330FFF72DBB9D
:103BD0001A233B70FFF76FBB45F8042B1E46E1E745
:103BE0002B1DA3EB0903D82B03DD1A233B70FFF732
:103BF00062BB029B994530D255F8040CFFF77EF961
:103C0000002827DD029B53F80C3CB0EB630F4FEA12
:103C100063021FDC801A00F18040029B043853F8D5
:103C20002020A5EB86031A60C6F1010605EB860588
:103C30003B78A5EB09029210002B7FF43CAB54F8C3
:103C4000043BC8F810201E1203F07F035AF82330FB
:103C5000FFF7EBBA20233B70E6E71823FBE71E4B88
:103C60001A68A5EB8603C6F101061A603B7805EBDE
:103C70008605002B7FF41FAB54F8043BA5EB09022B
:103C80001E1203F07F0392105AF82330C8F8102058
:103C9000FFF7CBBA55F8043C042BA5F104023B789E
:103CA00008BF2A46A2EB090108BF04EB860489106D
:103CB00013B11546FFF7FFBA54F8043BC8F81010CB
:103CC0001E1203F07F0315465AF82330FFF7ADBAF2
:103CD000F8110020D80E00204400002055F8043DC3
:103CE000042B1CBF002345F8043B3B78A5EB0902DD
:103CF00018BF04EB86049210002B7FF4DCAA54F862
:103D0000043BC8F810201E1203F07F035AF823303A
:103D1000FFF78BBA002EA5EB860119DC1C233B7044
:103D20000022C6F1010605EB86053B780A60A5EB8B
:103D300009029210002B7FF4BEAA54F8043BC8F885
:103D400010201E1203F07F035AF82330FFF76DBADC
:103D50000B684FF0000C5B1051F82C0010F00102C2
:103D600002D10D233B70DCE7401083420CF1010CC3
:103D7000A8BF03466645EFDC5B0043F00102D0E7D5
:103D8000002EA5EB860119DC1C233B700022C6F136
:103D9000010605EB86053B780A60A5EB0902921047
:103DA000002B7FF488AA54F8043BC8F810201E1298
:103DB00003F07F035AF82330FFF737BA0B684FF050
:103DC000000C5B1051F82C0010F0010202D10D2301
:103DD0003B70DCE7401083420CF1010CB8BF034696
:103DE0006645EFDC5B0043F00102D0E755F8081CA4
:103DF00011F0010F4FEA860323D055F8042C12F07E
:103E0000010F1ED05210B2EB610FA5EB0303CCBF24
:103E1000042200221A60C6F1010605EB86053B78F4
:103E2000A5EB09029210002B7FF445AA54F8043B3D
:103E3000C8F810201E1203F07F035AF82330FFF752
:103E4000F4B955F8042C6FF00100A5EB030BFEF755
:103E5000F9FFCBF80000DEE755F8081C11F0010F60
:103E60004FEA860323D055F8042C12F0010F1ED020
:103E70005210B2EB610FA5EB0303ACBF042200228A
:103E80001A60C6F1010605EB86053B78A5EB090231
:103E90009210002B7FF40FAA54F8043BC8F81020AE
:103EA0001E1203F07F035AF82330FFF7BEB955F80E
:103EB000042C4FF0FF30A5EB030BFEF7C3FFCBF84C
:103EC0000000DEE755E902014FEA860B8142A5EBCF
:103ED0000B0B18D10423CBF80030C6F1010605EB1B
:103EE00086053B78A5EB09029210002B7FF4E3A92D
:103EF00054F8043BC8F810201E1203F07F035AF850
:103F00002330FFF792B9042801D80023E3E7C20762
:103F1000FBD4036803F00F03042BF6D1CB07F4D4D2
:103F20000429F2D90B6803F00F03042BEDD1FFF73E
:103F300075F8002814BF04230023CCE755E90201DB
:103F40004FEA860B8142A5EB0B0B18D10023CBF86F
:103F50000030C6F1010605EB86053B78A5EB0902AA
:103F60009210002B7FF4A7A954F8043BC8F8102046
:103F70001E1203F07F035AF82330FFF756B90428C6
:103F800001D80423E3E7C207FBD4036803F00F035F
:103F9000042BF6D1CB07F4D40429F2D90B6803F033
:103FA0000F03042BEDD1FFF739F8002814BF0023CD
:103FB0000423CCE755F8081C11F0010F4FEA8603E3
:103FC00023D055F8042C12F0010F1ED05210B2EB82
:103FD000610FA5EB0303D4BF042200221A60C6F1CF
:103FE000010605EB86053B78A5EB09029210002B34
:103FF0007FF461A954F8043BC8F810201E1203F0A6
:104000007F035AF82330FFF710B955F8042C01202C
:10401000A5EB030BFEF716FFCBF80000DFE755F822
:10402000081C11F0010F4FEA860323D055F8042C29
:1040300012F0010F1ED05210B2EB610FA5EB03037B
:10404000B4BF042200221A60C6F1010605EB860502
:104050003B78A5EB09029210002B7FF42CA954F8B1
:10406000043BC8F810201E1203F07F035AF82330D7
:10407000FFF7DBB855F8042C0220A5EB030BFEF785
:10408000E1FECBF80000DFE755F8043C042BA5EB7C
:1040900086030CBF00220422C6F101061A6005EB5C
:1040A00086053B78A5EB09029210002B7FF403A94B
:1040B00054F8043BC8F810201E1203F07F035AF88E
:1040C0002330FFF7B2B855F8080CFEF717FF834608
:1040D00055F8040CFEF712FF5844A5EB8603400088
:1040E00040F0010018603B78C6F1010605EB86053B
:1040F000002B7FF4E0A854F8043BA5EB09021E1244
:1041000003F07F0392105AF82330C8F81020FFF70D
:104110008CB855F8080CFEF7F1FE834655F8040CF0
:10412000FEF7ECFEABEB0000A5EB8603400040F091
:10413000010018603B78C6F1010605EB8605002BEF
:104140007FF4B9A854F8043BA5EB09021E1203F052
:104150007F0392105AF82330C8F81020FFF765B893
:1041600055F8080CFEF7CAFE834655F8040CFEF716
:10417000C5FE00FB0BF0A5EB8603400040F00100FC
:1041800018603B78C6F1010605EB8605002B7FF42D
:1041900092A854F8043BA5EB09021E1203F07F031A
:1041A00092105AF82330C8F81020FFF73EB855F89F
:1041B000040CFEF7A3FE8346D0B91F233B70A5EB8A
:1041C0008603C6F10106186005EB86053B78A5EB72
:1041D00009029210002B7FF46EA854F8043BC8F833
:1041E00010201E1203F07F035AF82330FFF71DB88A
:1041F00055F8080CFEF782FE90FBFBF0400040F003
:104200000100DCE7A5EB860BDBF80000FEF776FE8D
:104210000090DBF80400FEF771FE009BC8B91F2375
:104220003B70C6F1010605EB86053B78CBF8000034
:10423000A5EB09029210002B7FF43DA854F8043B33
:10424000C8F810201E1203F07F035AF82330FEF73F
:10425000ECBF80EAE072A2EBE07293FBF2F002FBAB
:1042600010300028B8BF8018400040F00100D8E7A7
:1042700055F8040CFEF742FE002855F8040C1DDD2D
:10428000FEF73CFEA5EB8603400040F00100C6F1BE
:104290000106186005EB86053B78A5EB0902921034
:1042A000002B7FF408A854F8043BC8F810201E1215
:1042B00003F07F035AF82330FEF7B7BFFEF71EFE68
:1042C0004042DFE7012EA5EB860B35D1DBF800007D
:1042D000FEF714FE0028ACBF01224FF0FF328242ED
:1042E00002DD1346024618460130831A03920093FA
:1042F00025F0FEF8009B039A90FBF3F101FB1303FA
:104300001A445200C6F1010642F0010205EB86058F
:104310003B78CBF80020A5EB09029210002B7EF42D
:10432000CAAF54F8043BC8F810201E1203F07F03F4
:104330005AF82330FEF779BF022E0AD1DBF80000CD
:10434000FEF7DCFD0090DBF80400FEF7D7FD009AD5
:10435000C5E764200122C7E7A5EB860B3046594626
:1043600002F0C7F93B78CBF80000C6F1010605EB77
:104370008605002B7EF49FAF54F8043BA5EB0902A1
:104380001E1203F07F0392105AF82330C8F8102051
:10439000FEF74BBF55F8080CFEF7B0FD834655F805
:1043A000040CFEF7ABFD0BEA0000A5EB8603400012
:1043B00040F0010018603B78C6F1010605EB860568
:1043C000002B7EF478AF54F8043BA5EB09021E12D3
:1043D00003F07F0392105AF82330C8F81020FEF73C
:1043E00024BF55F8080CFEF789FD834655F8040CE8
:1043F000FEF784FD4BEA0000A5EB8603400040F089
:10440000010018603B78C6F1010605EB8605002B1C
:104410007EF451AF54F8043BA5EB09021E1203F0E1
:104420007F0392105AF82330C8F81020FEF7FDBE23
:1044300055F8080CFEF762FD834655F8040CFEF7AC
:104440005DFD8BEA0000A5EB8603400040F0010013
:1044500018603B78C6F1010605EB8605002B7EF45B
:104460002AAF54F8043BA5EB09021E1203F07F03A8
:1044700092105AF82330C8F81020FEF7D6BE55F82F
:10448000040CFEF73BFDC043A5EB8603400040F063
:10449000010018603B78C6F1010605EB8605002B8C
:1044A0007EF409AF54F8043BA5EB09021E1203F099
:1044B0007F0392105AF82330C8F81020FEF7B5BEDB
:1044C00055F8080CFEF71AFD834655F8040CFEF764
:1044D00015FD0BFA00F0A5EB8603400040F001004B
:1044E00018603B78C6F1010605EB8605002B7EF4CB
:1044F000E2AE54F8043BA5EB09021E1203F07F0361
:1045000092105AF82330C8F81020FEF78EBE55F8E6
:10451000080CFEF7F3FC834655F8040CFEF7EEFC9E
:104520004BFA00F0A5EB8603400040F00100186054
:104530003B78C6F1010605EB8605002B7EF4BBAE89
:1045400054F8043BA5EB09021E1203F07F039210FE
:104550005AF82330C8F81020FEF767BE55F80C0C47
:10456000FEF7CCFC834655F8080CFEF7C7FC8BFB26
:10457000002355F8040CCDE90023FEF7BFFCDDE96C
:104580000023C0F1200CB0F1200103FA0CFC22FA48
:1045900000F040EA0C005CBF43FA01F10843A5EBD0
:1045A000860E40003B7840F00100C6F10106CEF8CF
:1045B000000005EB8605002B7EF47DAE54F8043B2D
:1045C000A5EB09021E1203F07F0392105AF8233064
:1045D000C8F81020FEF729BEA5EB860B30465946D9
:1045E000FDF7BAFA3B78CBF80000C6F1010605EBFF
:1045F0008605002B7EF45FAE54F8043BA5EB090260
:104600001E1203F07F0392105AF82330C8F81020CE
:10461000FEF70BBEA5EB860529463046FDF7B6FA38
:104620003B78002B7EF447AE54F8043BA5EB09021F
:104630001E1203F07F0392105AF82330C8F810209E
:10464000FEF7F3BDA5EB860B30465946FDF7E2FABF
:104650003B78CBF80000C6F1010605EB8605002B80
:104660007EF429AE54F8043BA5EB09021E1203F0B8
:104670007F0392105AF82330C8F81020FEF7D5BDFA
:10468000A5EB860529463046FDF76AFB3B78002BF3
:104690007EF411AE54F8043BA5EB09021E1203F0A0
:1046A0007F0392105AF82330C8F81020FEF7BDBDE2
:1046B000A5EB860B30465946FDF7E2FB3B78CBF87D
:1046C0000000C6F1010605EB8605002B7EF4F3AD74
:1046D00054F8043BA5EB09021E1203F07F0392106D
:1046E0005AF82330C8F81020FEF79FBD55F8040C87
:1046F00001F0B0FD55F8083CD9072ED4042B0CD995
:104700001B6803F00F03013B082B10D8DFE803F010
:1047100005252B270F0F0F0F2900D24924F0B6FFD4
:10472000A5EB860300280CBF042200221A60C6F104
:10473000010605EB86053B78A5EB09029210002BDC
:104740007EF4B9AD54F8043BC8F810201E1203F0F3
:104750007F035AF82330FEF768BDC349DEE7C3493B
:10476000DCE7C349DAE7C349D8E705F1040BABEB53
:104770000906D82E03DD1A233B70FEF79CBD01F01D
:10478000C1FA2B46400040F0010018603B785D46BE
:10479000B210002B7EF48FAD54F8043BC8F8102003
:1047A0001E1203F07F035AF82330FEF73EBD05F1D9
:1047B000040BABEB0906D82E03DD1A233B70FEF782
:1047C0007ABD01F097FAAC4B2A4603EA40003B78E9
:1047D00040F0010010605D46B210002B7EF46BAD1E
:1047E00054F8043BC8F810201E1203F07F035AF857
:1047F0002330FEF71ABD2E1DA6EB0903D82B03DDCF
:104800001A233B70FEF757BD01F07CFA9B4B1B68E7
:1048100098423DBFC3F5830303F63713C018C01A8F
:1048200040002B4640F0010018603B78A6EB0902DF
:1048300035469210002B7EF43EAD54F8043BC8F888
:1048400010201E1203F07F035AF82330FEF7EDBC50
:1048500001F058FA894B18603B78A5EB8605002BD0
:104860007EF429AD54F8043BA5EB09021E1203F0B7
:104870007F0392105AF82330C8F81020FEF7D5BCF9
:1048800003F05EFFB30090B9ED1A3B78A5EB090287
:104890009210002B7EF40FAD54F8043BC8F81020A2
:1048A0001E1203F07F035AF82330FEF7BEBC3046D9
:1048B000EF1A734E01231A463946FEF7D9FB3068CA
:1048C000643003F08DFC00283EF4A8AF98F8012076
:1048D00031686C4803F086FE012388F8003001F04F
:1048E00009FA694A33681268063302FB0300C8F804
:1048F00004003D46FEF7ACBC03F022FFB10090B9C6
:104900006D1A3B78A5EB09029210002B7EF4D3AC14
:1049100054F8043BC8F810201E1203F07F035AF825
:104920002330FEF782BC30466F1A554E0123002219
:104930003946FEF79DFB3068643003F051FC0028D7
:104940003EF46CAF4F4803F00EFEC5E7FEF732FCB5
:10495000A5EB860B3B78CBF80000C6F1010605EB12
:104960008605002B7EF4A7AC54F8043BA5EB0902A6
:104970001E1203F07F0392105AF82330C8F810205B
:10498000FEF753BC3B78A5EB8605002B7EF493AC79
:1049900054F8043BA5EB09021E1203F07F039210AA
:1049A0005AF82330C8F81020FEF73FBC012E4FEA1A
:1049B00086021ADC1C233B70AA1A00231360C6F17E
:1049C000010605EB86053B78A5EB09029210002B4A
:1049D0007EF471AC54F8043BC8F810201E1203F0AA
:1049E0007F035AF82330FEF720BC029B9945A5EBC4
:1049F000020202D355F8043CE0E755F8083C55F8AC
:104A0000041C5B10002B0DDD029850F80C0CB3EB6E
:104A1000600F4FEA600CDFBFA3EB0C030299043B6D
:104A200051F823101160CAE7A5EB860B584601F038
:104A3000A1F93B78CBF80000C6F1010605EB86052D
:104A4000002B7EF438AC54F8043BA5EB09021E128F
:104A500003F07F0392105AF82330C8F81020FEF7B5
:104A6000E4BB00BFDEA30200E6A30200EDA3020048
:104A7000F4A30200F9A30200FEFFFF7F041200204E
:104A8000F8110020D80E002040000020A5EB860B76
:104A9000584601F071F93B78CBF80000C6F10106E9
:104AA00005EB8605002B7EF406AC54F8043BA5EB21
:104AB00009021E1203F07F0392105AF82330C8F83F
:104AC0001020FEF7B2BBA5EB860B3046594601F02D
:104AD00009F83B78CBF80000C6F1010605EB860526
:104AE000002B7EF4E8AB54F8043BA5EB09021E1240
:104AF00003F07F0392105AF82330C8F81020FEF715
:104B000094BBA5EB8605284601F038F93B78002BCD
:104B10007EF4D1AB54F8043BA5EB09021E1203F05E
:104B20007F0392105AF82330C8F81020FEF77DBB9F
:104B3000A5EB860B3046594601F010F83B78CBF8D0
:104B40000000C6F1010605EB8605002B7EF4B3AB31
:104B500054F8043BA5EB09021E1203F07F039210E8
:104B60005AF82330C8F81020FEF75FBBA5EB860586
:104B7000284601F0F5F93B78002B7EF49CAB54F805
:104B8000043BA5EB09021E1203F07F0392105AF8B2
:104B90002330C8F81020FEF748BB0121304601F051
:104BA0009DF93B78002B7EF486AB54F8043BA5EBD3
:104BB00009021E1203F07F0392105AF82330C8F83E
:104BC0001020FEF732BB0021304601F087F93B7818
:104BD000002B7EF470AB54F8043BA5EB09021E12C7
:104BE00003F07F0392105AF82330C8F81020FEF724
:104BF0001CBBA5EB860B584601F032F93B78CBF88D
:104C00000000C6F1010605EB8605002B7EF453ABD0
:104C100054F8043BA5EB09021E1203F07F03921027
:104C20005AF82330C8F81020FEF7FFBAA5EB860B20
:104C3000584601F029F93B78CBF80000C6F101068F
:104C400005EB8605002B7EF436AB54F8043BA5EB50
:104C500009021E1203F07F0392105AF82330C8F89D
:104C60001020FEF7E2BAA5EB8605284601F0DAF837
:104C70003B78002B7EF41FAB54F8043BA5EB0902F4
:104C80001E1203F07F0392105AF82330C8F8102048
:104C9000FEF7CBBAA5EB8605284604F0BDFB3B78B2
:104CA000002B7EF408AB54F8043BA5EB09021E125E
:104CB00003F07F0392105AF82330C8F81020FEF753
:104CC000B4BAA5EB860B584604F0B6FC3B78CBF89B
:104CD0000000C6F1010605EB8605002B7EF4EBAA69
:104CE00054F8043BA5EB09021E1203F07F03921057
:104CF0005AF82330C8F81020FEF797BAA5EB8605BE
:104D0000284604F0D3FA3B78002B7EF4D4AA54F85A
:104D1000043BA5EB09021E1203F07F0392105AF820
:104D20002330C8F81020FEF780BAA5EB860B584652
:104D300004F0DAFA3B78CBF80000C6F1010605EB87
:104D40008605002B7EF4B7AA54F8043BA5EB0902B4
:104D50001E1203F07F0392105AF82330C8F8102077
:104D6000FEF763BAA5EB86052946304601F0CAFF77
:104D70003B78002B7EF49FAA54F8043BA5EB090274
:104D80001E1203F07F0392105AF82330C8F8102047
:104D9000FEF74BBAA5EB86052946304601F0FEFD2D
:104DA0003B78002B7EF487AA54F8043BA5EB09025C
:104DB0001E1203F07F0392105AF82330C8F8102017
:104DC000FEF733BAA5EB86052946304601F0A6FF6B
:104DD0003B78002B7EF46FAA54F8043BA5EB090244
:104DE0001E1203F07F0392105AF82330C8F81020E7
:104DF000FEF71BBAA5EB86052946304601F0ACFF4D
:104E00003B78002B7EF457AA54F8043BA5EB09022B
:104E10001E1203F07F0392105AF82330C8F81020B6
:104E2000FEF703BAA5EB860B3046594604F020FD89
:104E30003B78CBF80000C6F1010605EB8605002B98
:104E40007EF439AA54F8043BA5EB09021E1203F0C4
:104E50007F0392105AF82330C8F81020FEF7E5B906
:104E6000A5EB860B3046594604F00AFD3B78CBF89B
:104E70000000C6F1010605EB8605002B7EF41BAA97
:104E800054F8043BA5EB09021E1203F07F039210B5
:104E90005AF82330C8F81020FEF7C7B9A5EB860BE7
:104EA0003046594604F0F4FC3B78CBF80000C6F1DC
:104EB000010605EB8605002B7EF4FDA954F8043BA2
:104EC000A5EB09021E1203F07F0392105AF823305B
:104ED000C8F81020FEF7A9B9A5EB860B3046594655
:104EE00004F0BAF83B78CBF80000C6F1010605EBF8
:104EF0008605002B7EF4DFA954F8043BA5EB0902DC
:104F00001E1203F07F0392105AF82330C8F81020C5
:104F1000FEF78BB9A5EB86052946304601F0C6FFA2
:104F20003B78002B7EF4C7A954F8043BA5EB09029B
:104F30001E1203F07F0392105AF82330C8F8102095
:104F4000FEF773B9A5EB86052946304601F05AFFF6
:104F50003B78002B7EF4AFA954F8043BA5EB090283
:104F60001E1203F07F0392105AF82330C8F8102065
:104F7000FEF75BB9A5EB860B3046594601F00AFFF8
:104F80003B78CBF80000C6F1010605EB8605002B47
:104F90007EF491A954F8043BA5EB09021E1203F01C
:104FA0007F0392105AF82330C8F81020FEF73DB95D
:104FB000A5EB86052946304601F04AFE3B78002BDA
:104FC0007EF479A954F8043BA5EB09021E1203F004
:104FD0007F0392105AF82330C8F81020FEF725B945
:104FE000A5EB86052868FDF789FF44F61662A0F157
:104FF0000A019142009021D86868FDF77FFF0928D7
:1050000006461BDD009B580040F001004FF0FF3BBF
:10501000069005A90220CDF814B000F019FDBF4B91
:1050200001221A6000F066FE4FF47A7303FB06005B
:10503000BB4B87F800B01860BA4B1E6000232B6092
:105040003B78A5EB09029210002B7EF434A954F8AA
:10505000043BC8F810201E1203F07F035AF82330D7
:10506000FEF7E3B8A5EB86052868C20706D4042836
:1050700004D9036803F00F03042B02D00E233B7006
:1050800028E001F0E7F80678A6F14103052B1ED8C9
:105090001E46731C1ED0A868FDF730FF42F2107345
:1050A0009842834616DC2B68059305A96B68069326
:1050B0000220FDF701F9BBF1090F9B4A1EDC00231A
:1050C00042F82630994B012243F8262002E0613E47
:1050D000052EDED900232B603B78A5EB0902921048
:1050E000002B7EF4E8A854F8043BC8F810201E12E8
:1050F00003F07F035AF82330FEF797B8012342F8F4
:10510000263000F0F7FD4FF47A7202FB0B00884A5C
:1051100042F82600854A012342F82630814BC3F825
:1051200000B0FF23ABE7A5EB86052868C60706D4C9
:10513000042804D9036803F00F03042B02D00E23C4
:105140003B7028E001F086F80678A6F14103052BB4
:105150001ED81E46711C1ED0A868FDF7CFFE42F275
:1051600010739842834616DC2B68059305A96B687B
:1051700006930220FDF7E2F8BBF1090F6A4A6B4B78
:105180001DDC002142F82610022243F8262002E00E
:10519000613E052EDED900232B603B78A5EB09028A
:1051A0009210002B7EF487A854F8043BC8F8102016
:1051B0001E1203F07F035AF82330FEF736B80121A0
:1051C00042F8261000F096FD4FF47A7202FB0B00B5
:1051D000574A564B42F82600022243F82620514BEC
:1051E000C3F800B0FF23ABE7A5EB86052868C2072C
:1051F00006D4042804D9036803F00F03042B02D05B
:105200000E233B7028E001F025F80678A6F1410353
:10521000052B1ED81E46731C1ED0A868FDF76EFE17
:1052200042F210739842834616DC2B68059305A959
:105230006B6806930220FCF7FDFFBBF1090F3A4AA9
:105240003A4B1DDC002142F82610032243F82620A9
:1052500002E0613E052EDED900232B603B78A5EBF2
:1052600009029210002B7EF426A854F8043BC8F8DB
:1052700010201E1203F07F035AF82330FDF7D5BF2C
:10528000012142F8261000F035FD4FF47A7202FB3E
:105290000B00274A254B42F82600032243F826201C
:1052A000204BC3F800B0FF23ABE7A5EB86052868C9
:1052B000C60706D4042804D9036803F00F03042B9F
:1052C00002D00E233B7038E000F0C4FF0678A6F150
:1052D0004103052B2ED81E46711C2ED02869FDF7E0
:1052E0000DFE42F210739842834626DC2B6805932C
:1052F0006B680693AB68079305A9EB6808930420D5
:10530000FDF76AF8BBF1090F074A084B29DC0021B9
:1053100042F82610042243F826200EE08C0E0020CE
:10532000880E002000120020900E0020C00E0020E9
:10533000A80E0020613E052ECED900232B603B78BD
:10534000A5EB09029210002B7DF4B5AF54F8043B95
:10535000C8F810201E1203F07F035AF82330FDF71F
:1053600064BF012142F8261000F0C4FC4FF47A72A9
:1053700002FB0B00A64AA74B42F82600042243F882
:105380002620A54BC3F800B0FF239BE7A5EB8605BD
:105390002868C20706D4042804D9036803F00F0361
:1053A000042B02D00E233B7031E000F053FF06784F
:1053B000A6F14103052B27D81E46731C27D0286968
:1053C000FDF79CFD42F21073984283461FDC2B6868
:1053D00092480593032101F06DF96B680793AB6860
:1053E0000690089305A9EB6809930520FCF718FEC1
:1053F000BBF1090F8A4A874B1DDC002142F82610B9
:10540000052243F8262002E0613E052ED5D900236F
:105410002B603B78A5EB09029210002B7DF44BAF7B
:1054200054F8043BC8F810201E1203F07F035AF80A
:105430002330FDF7FABE012142F8261000F05AFC95
:105440004FF47A7202FB0B00714A724B42F826004D
:10545000052243F82620704BC3F800B0FF23A2E7D3
:10546000002E40F38A806C4A55F804BC4FF0FF339D
:10547000012E13603B7012D11BF0010F1CD1BBF148
:10548000040F19D9DBF8002002F00F02042A13D10F
:10549000584600F0DFFEFDF757FD03460CE0022EF4
:1054A0000AD155F8080CC10706D4042804D90268AB
:1054B00002F00F02042AECD05A1CA5EB86055CD042
:1054C000022E3DD11BF0010F33D1BBF1040F30D9B7
:1054D000DBF8002002F00F02092A2AD1DBF80400D1
:1054E0002E1FC0F34700012181421CDD05EB800522
:1054F000A5EB09029210C8F8102023F0FF0212F564
:10550000807F1FD11E02B6B206434648C6F3072C61
:1055100000EBCC0332121B79032B3EF41FA90223AC
:105520003B70FDF7C8BE01315BF8212046F8042F1F
:10553000DAE70B233B70002345F8043BFDF7BBBEC5
:105540000020D5E7A5EB800529469847364A002379
:10555000136045F8040B3B78A5EB09029210002B71
:105560007DF4A9AE54F8043BC8F810201E1203F0D5
:105570007F035AF82330FDF758BE002345F8043B5B
:105580003B78A5EB09029210002B7DF494AE54F801
:10559000043BC8F810201E1203F07F035AF8233092
:1055A000FDF743BEA5EB86052946304603F002F918
:1055B0003B78002B7DF47FAE54F8043BA5EB090249
:1055C0001E1203F07F0392105AF82330C8F81020FF
:1055D000FDF72BBEA5EB860B3046594603F0EAF8E3
:1055E0003B78CBF80000C6F1010605EB8605002BE1
:1055F0007DF461AE54F8043BA5EB09021E1203F0E2
:105600007F0392105AF82330C8F81020FDF70DBE22
:10561000A80E0020C00E002000120020CCA3020023
:10562000900E0020C0760020C81B00202DE9F04F0E
:1056300089B000F05FFB00901CF0C8FC00274FF021
:10564000FF33DFF8F09206930190FF2564243B4678
:10565000002B03F1FF3B75DA1CF0B8FC019BC01A6C
:10566000B0F5FA7F0CD9FDF7DDFA48B104A8FCF7D4
:105670009FFD082104A803F089FA1CF0A7FC019003
:10568000FDF7D0FA002800F08280002F7FD11CF0B7
:105690009DFC012704461CF099FC001BC82840F221
:1056A000E8801CF093FC40F29323044606A90220F4
:1056B000079300F0CDF901259A4E33686BB100F0E5
:1056C00019FB994B1B68984207D9012306A90220B0
:1056D000079300F0BDF9002333604FF0000BDFF8B3
:1056E00058A2DFF858825E465AF8041B81B100F0D8
:1056F00001FB58F82B1088420AD98C4B53F82B1019
:10570000042900F3E580012900F3E48000F0E5803E
:105710000BF1010BBBF1060FE6D101F03DFC03F0EC
:105720004FF903F05DFA00F0E5FA009BC01A41F270
:105730008833984204D9FCF7CBFE00F0DBFA0090E6
:105740004FF0190B4FF0000A5046794B1A6852453A
:105750001BDDD9F80030DFF8E88101339342A8BFA0
:105760000023C9F80030D9F80030F0225A4308EB82
:10577000020118F802204646002A00F0D080022AD2
:1057800040F0AE800846FDF72BFD5B4660E7FDF775
:1057900049FA0646F0B9EFB11CF018FC40F2974305
:1057A000044606A90220079300F052F90A2537465D
:1057B0001CF00CFC001B64287FF67EAF1CF006FC7E
:1057C00040F2DD33044606A9022007930B2500F0C2
:1057D0003FF971E7002D3FF45EAF012D11D11CF0B0
:1057E000F5FB001B64287FF667AF1CF0EFFB40F26F
:1057F0001743044606A902200793022500F028F962
:105800005AE7022D11D11CF0E1FB001B64287FF642
:1058100053AF1CF0DBFB40F29743044606A9284631
:105820000793032500F014F946E7032D11D11CF06E
:10583000CDFB001B64287FF63FAF1CF0C7FB40F296
:10584000C953044606A902200793042500F000F975
:1058500032E7042D0FD11CF0B9FB001B64287FF642
:105860002BAF012306A902200793FF2500F0F0F8D3
:1058700022E7002520E70A2D9AD00B2D11D11CF02C
:10588000A5FB001B64287FF617AF1CF09FFB40F2BE
:105890001133044606A9022007930C2500F0D8F81E
:1058A0000AE70C2D11D11CF091FB001B64287FF638
:1058B00003AF1CF08BFB40F20D23044606A9022027
:1058C00007930D2500F0C4F8F6E60D2DC3D0F3E6DE
:1058D00005291BE75846FCF7EFFD4AF8046C17E76B
:1058E000012A15D128B9CDE9023100F003FADDE92A
:1058F00002314FF0F00C0CFB03FC06EB0C02DFF85E
:1059000044E05268821A72453CBF022208F80C201B
:10591000F022534318F80330022B3FF433AF0AF15F
:10592000010A12E78C0E0020880E0020C00E002015
:10593000FC1100203C000020900E0020A80E00204A
:10594000606D00208096980020B1034B800143F0E9
:1059500001031847704700BFC0A902000A4B4FF46B
:1059600000721A60094B01211964D3F840250532F1
:10597000C3F84825C3F84C254FF44022C3F804234C
:10598000034B1970704700BF00E100E00090004039
:105990004B12002004207047F8B5D1E9003513F010
:1059A000010031D015F001002ED0392B4FEA6304ED
:1059B00044D8234F6D1041F288363B5DAE42A8BFFC
:1059C0002E46012B05D0012120461FF0AFFC0123FC
:1059D0003B551C4B1B780BB9FFF7C0FF002D1A4B32
:1059E00013DC1A49002240F2DC50FF2513F8016B4A
:1059F000B44208BF21F8120002F1010208BF03F807
:105A0000015C082AF2D10420F8BD1946184600228C
:105A100010F8015BAC4203D10C4B23F81260F2E7A3
:105A20000132082AF4D1002211F8010BFF2801D11C
:105A30009C54F1E70132082AF6D1E4E70020E3E7BD
:105A40002C1200204B120020600000204A00002091
:105A500070B5D1E9003513F0010020D015F0010038
:105A60001DD0392B4FEA6304174E88BF1B24335DCA
:105A7000012B05D0012120461FF058FC012333558E
:105A8000124B6D10A5F110029A42114B08D94FF03C
:105A9000FF32002120461A601FF086FC042070BDF2
:105AA0001C600C4B0C4890FBF5F018800B4B1B78DE
:105AB0000BB9FFF753FF0A4B01229A64D3F848252C
:105AC0001044C3F84805E9E72C1200209086010035
:105AD0005C0000204800002020A107004B1200209D
