:020000021000EC
:10C0000000000220856D0200AD6D0200AF6D0200E0
:10C01000B16D0200B36D0200B56D020000000000BA
:10C02000000000000000000000000000B76D0200EA
:10C03000B96D020000000000BB6D0200BD6D020082
:10C04000BF6D0200392A020049710200596B0200DB
:10C050004D6B0200BF6D0200BF6D0200BF6D02009C
:10C06000A90D0200BF6D0200BF6D0200BF6D02008E
:10C07000BF6D0200BF6D0200BF6D0200BF6D020008
:10C08000BF6D020001720200BF6D0200BF6D0200B1
:10C09000BF6D0200BF6D0200BF6D0200BF6D0200E8
:10C0A000BF6D0200BF6D0200BF6D0200BF6D0200D8
:10C0B000BF6D0200BF6D0200000000000000000024
:10C0C000BF6D0200BF6D0200BF6D0200BF6D0200B8
:10C0D000BF6D0200BF6D0200BF6D0200BF6D0200A8
:10C0E000BF6D020000000000000000000000000022
:10C0F00000000000BF6D020000000000BF6D0200E4
:10C10000000000000000000000000000000000002F
:10C11000000000000000000000000000000000001F
:10C12000000000000000000000000000000000000F
:10C1300000000000000000000000000000000000FF
:10C1400000000000000000000000000000000000EF
:10C1500000000000000000000000000000000000DF
:10C1600000000000000000000000000000000000CF
:10C1700000000000000000000000000000000000BF
:10C1800000000000000000000000000000000000AF
:10C19000000000000000000000000000000000009F
:10C1A000000000000000000000000000000000008F
:10C1B000000000000000000000000000000000007F
:10C1C000000000000000000000000000000000006F
:10C1D000000000000000000000000000000000005F
:10C1E000000000000000000000000000000000004F
:10C1F000000000000000000000000000000000003F
:10C2000010B5054C237833B9044B13B10448AFF390
:10C2100000800123237010BD804200200000000038
:10C22000ACF1020008B5034B1BB103490348AFF35F
:10C23000008008BD0000000084420020ACF1020034
:10C24000154B002B08BF134B9D46A3F5803A0021E8
:10C250008B460F461348144A121A0EF040F90F4B42
:10C26000002B00D098470E4B002B00D098470020A1
:10C27000002104000D000D48002802D00C48AFF347
:10C2800000800EF0AFF8200029000AF0CFFF0EF07A
:10C2900083F800BF0000080000000220000000003A
:10C2A000000000008042002020A1002000000000CB
:10C2B0000000000010F0010310D104280CD903681D
:10C2C000C3F30F1343B1013B9B001A1DC118097939
:10C2D00011B101339342F9D1184670470023FBE7AF
:10C2E000037883B11A0601D40130704703F0C0030C
:10C2F000C02B08BF0130024610460132037803F01C
:10C30000C003802BF8D0704708B5002103780BB923
:10C31000084608BDFFF7E4FF0131F7E738B5002212
:10C3200004460D46411C092005F0B0F840B16300F9
:10C33000024643F0010342F8043F0023A34200DB1E
:10C3400038BD55F8231042F8041F0133F6E70128E1
:10C3500038B504DC1C20BDE8384001F005BF0D688D
:10C36000EA0701D41120F6E74868C30706D4042879
:10C3700004D9036803F00F03042B01D00E20EAE771
:10C3800004F0EAFE6D10002D044603DDFFF7BCFF4C
:10C39000A84206DA1220DEE72046FFF7A1FF013DA2
:10C3A0000446012DF8D120787F2808DDDF280ADC3B
:10C3B0006378800100F4F86003F03F031843400005
:10C3C00040F0010038BDEF280ADC637800039B01D0
:10C3D00080B203F47C630343A07800F03F00EDE7F4
:10C3E000F72810DC637880041B0303F47C3300F42B
:10C3F000E0101843E37803F03F030343A078800183
:10C4000000F47C60DAE74FF0FF30D8E7486838B5D1
:10C41000C3070D4606D4042804D9036803F00F02AD
:10C42000092A04D00B20BDE8384001F09DBE4468C5
:10C43000C3F30F1364105A1EA2420BD8032194FBBE
:10C44000F1F16429A8BF64210329ACBF5918D91C94
:10C4500005F058F80368C3F30F13013B9C4208D260
:10C46000A31C013464002A6840F8232044F001042E
:10C470004460002038BD01282DE9F84304DC1C206D
:10C48000BDE8F84301F070BE02284E680CD08C68FD
:10C49000E70709D56410012CB8BF0124F50705D5BD
:10C4A0004FF0FF30BDE8F8830124F7E7042EF7D9F9
:10C4B00033680D6803F00F02042A30D1E80706D470
:10C4C000042D04D92B6803F00F03042B01D00E2098
:10C4D000D6E73046FFF7EEFEA042E1DB304604F03F
:10C4E0003BFE0646284604F037FE03780146002B43
:10C4F000D6D0601E30440EF040FF01460028CFD059
:10C50000012433780BB18E4203D3640044F0010060
:10C51000C8E73046FFF7E4FE01340646F1E7092A92
:10C5200038D177687F10BC42BADCE90729D4042DE2
:10C5300027D92B6803F00F03042B22D1284604F0DF
:10C540000BFE804604F1010956F82900854203D10B
:10C55000600040F00100A5E7C2070ED404280CD902
:10C56000036803F00F03042B07D104F0F5FD014627
:10C5700040460EF0DBFE0028C7D0B9454C46E1DD51
:10C580008EE7631C56F82320AA42BED0BB421C464D
:10C59000F7DD85E7032A83D1C3F30F17C3F3417394
:10C5A000C3EB8707BC423FF77BAFEB0728D4042DD2
:10C5B00026D9286800F00F03032B17D1C0F30F13FF
:10C5C000C0F3417005F10408C0EB83003F1A013C41
:10C5D00040440336BC423FF763AF321943468342BF
:10C5E00019460FD315D1601C4000B2E7042B07D1C8
:10C5F000284604F0B1FD80462846FFF75BFEE5E7DC
:10C600000F203DE712F8015F09788D4203F1010325
:10C61000E5D00134DEE7000001282DE9F0470E46A1
:10C6200004DC1C20BDE8F04701F09EBD0868C2078D
:10C6300006D4042804D9036803F00F03042B01D0A7
:10C640000E20EFE74B6813F00109F9D1042BF7D95D
:10C650001B6803F00F03042BF2D104F07DFD0446A8
:10C66000706804F079FD82460EF06AFE804670B96B
:10C670002046FFF749FE05460122A918092004F0CB
:10C6800005FF354F386098B90020BDE8F087514666
:10C6900020460EF072FE231A5D425D4120466F1C5B
:10C6A0000028E9D0514640440EF067FE3D46F6E7CB
:10C6B0006B0043F001034360B8F1000F19D120462D
:10C6C000FFF70EFE4D45064601DC3868DDE7311BFD
:10C6D000204604F05CFF0028D6D009F102023B6836
:10C6E00043F822003046FFF7FBFD09F1010934460B
:10C6F000E8E7012D02D133688360C6E75146204642
:10C700000EF03BFE01268146B9F1000F14D0B54270
:10C71000DBDBA9EB0401204604F039FF0028B3D08D
:10C720003B68013609EB080443F8260051462046D1
:10C730000EF023FE8146E7E7B542C6DB20460EF049
:10C74000FFFD0146204604F022FF00289CD0013660
:10C750003B6843F82600B8E7705A002008B504F09B
:10C76000DFFC400040F0010008BDC30711D40428DD
:10C770000FD9026802F00F03032B0AD101F0030363
:10C78000C3F104035B0703F0C04322F0C04213432C
:10C7900003607047002838B504DC1C20BDE8384031
:10C7A00001F0E2BC0C68E50701D40D20F6E7012892
:10C7B0001CD04B68DA07F8D55B10FF2B01D913208A
:10C7C000ECE71A0442EA03621A4342EA03226410C5
:10C7D00024EAE474E11C8910032004F057FE0546A6
:10C7E00010B12146FFF7C1FF284638BD0022EEE711
:10C7F00001282DE9F0470546884604DC1C20BDE8E9
:10C80000F04701F0B1BC4C6814F0010701D10D20D4
:10C81000F5E7022802D08B68DA07F8D5D8F800606F
:10C82000F30700F1A980042E40F2A680326864105C
:10C83000012C02F00F03B8BF0124092B28D1766820
:10C84000022D4FEA660605D0D8F808305B109E42EC
:10C85000A8BF1E46351B0135012225EAE575A9183A
:10C86000092004F013FE074648B16D00034645F069
:10C870000105D8F8002043F8045FA64202DA3846E2
:10C88000BDE8F087013452F8241043F8041FF4E7A0
:10C89000042B43D1304604F05FFCFFF735FD022D39
:10C8A000824605D0D8F808305B109842A8BF9A4657
:10C8B000A24504DA0020BDE8F04704F061BE30462E
:10C8C00004F04AFC0546A74222DB304604F044FC53
:10C8D000A94606462846FFF703FD0134A245054652
:10C8E000F8DAA0EB0905284604F04AFE07460028BE
:10C8F000C5D004F031FC0446D8F8000004F02CFC4C
:10C90000A9EB060101442A4620460DF0C4FDB6E716
:10C910002846FFF7E5FC01370546D4E7032B2BD16A
:10C92000C2F30F13022DC2F34172C2EB830205D092
:10C93000D8F808305B109A42A8BF1A46A24206DA1D
:10C94000002211460320BDE8F04704F09FBD151BEF
:10C950000423291D002291FBF3F1032004F096FD2E
:10C96000074600288BD001352946FFF7FEFEE11C63
:10C970002A4631440430C8E7212040E70028F8B5B2
:10C9800004DC1C20BDE8F84001F0EEBB0C6814F09C
:10C99000010711D06410FF2C01D91320F2E7002207
:10C9A0000121032004F072FD054618B10121FFF7B3
:10C9B000DCFE04712846F8BD042CEED9256805F08C
:10C9C0000F05042D19D12046FFF774FC3A46C11C0F
:10C9D000064691FBF5F1032004F058FD05460028BA
:10C9E000E8D03146FFF7C1FE204604F0B5FB3246E1
:10C9F0000146281D0DF04FFDDCE7092D1DD16668AD
:10CA000076100423F11C3A4691FBF3F1032004F065
:10CA10003DFD05460028CDD03146FFF7A6FE043483
:10CA2000B742C7DA54F8043FDA0704D55B10FF2B8E
:10CA3000B3D8EA1913710137F2E7032DADD12546BA
:10CA4000B8E77F2902DC017001307047B1F5006F53
:10CA50000CDA03468A1162F03F0203F8022B01F060
:10CA60003F0161F07F01417018467047B1F5803F8A
:10CA70000FDA0B1363F01F030370C1F3851301F08A
:10CA80003F0163F07F0361F07F01437081700330E9
:10CA90007047B1F5883F0DDAF0230370902343709F
:10CAA0008B1101F03F0163F07F0361F07F01837020
:10CAB000C1700430704710B510F0010402D044106A
:10CAC000204610BD042812D9026802F00F02042A81
:10CAD00007D104F041FB0A222146BDE810400EF0C8
:10CAE000E1BC032A03D10A2221460430F5E70D20D8
:10CAF00001F03AFBE4E7000000282DE9F7430F4678
:10CB000003DC1C2001F030FB16E00C6814F001057A
:10CB100006D1042C1FD9236803F00F03042B0DD179
:10CB20002046FFF7C8FF6C4601462046FFF789FF05
:10CB3000011B204604F02BFD044635E0092B0AD1E9
:10CB40006668DFF8849076104FF00108B04504DD88
:10CB500001F010FBD8B12A20D4E708F1010854F8FD
:10CB60002800FFF7A8FF7F280BDDB0F5006F0ADB78
:10CB7000B0F5803F09DB4845D4BF042000200544C0
:10CB8000E4E70120FBE70220F9E70320F7E7284666
:10CB900004F0F6FC044638B1D7F8008004F0DCFA63
:10CBA00001250746B54203DD204603B0BDE8F0830A
:10CBB000013558F82500FFF77EFF01463846FFF79C
:10CBC00040FF0746EEE700BFFF0F01000128F8B560
:10CBD00007460D4604DC1C20BDE8F84001F0C4BA4D
:10CBE0000868FFF768FF06466868FFF764FF022FD2
:10CBF000044606D0A868FFF75EFF051E02DC292068
:10CC0000EAE70125A642D5BFA41B341B94FBF5F42B
:10CC100094FBF5F4D4BF013401344FF0000204F169
:10CC200001014FF00900C8BF6D4204F02FFC50B164
:10CC30006200034642F0010243F8042F6D007600C3
:10CC40000022944200DCF8BD46F0010143F8041FC5
:10CC500001322E44F5E710B5044611F0010011D160
:10CC600004290ED90B6803F00F03042B09D10846E1
:10CC700004F072FA014620460EF058FBB0FA80F03C
:10CC8000400910BD0020FCE70128F8B50D4604DC82
:10CC90001C20BDE8F84001F067BA4E68F20706D4E0
:10CCA000042E04D9336803F00F02092A01D00B20A7
:10CCB000EFE7746809686410C3F30F13A34298BFC9
:10CCC00003F1FF3411F001070DD0481000283ADDC0
:10CCD000844238DB06EB8003844218DD9A6843F80F
:10CCE000042F0130F8E71A48FFF7B5FF40B10123E0
:10CCF000BC4201DA0020F8BD013746F82730F7E7DB
:10CD000029681448FFF7A7FF50B1002CF2D0012288
:10CD1000631C013C9440144346F823207460E9E707
:10CD20002868C30711D404280FD9036803F00F0340
:10CD3000042B0AD1FFF7BFFE0028C8D12968064896
:10CD4000FFF789FF08B11220A3E71120A1E700BF78
:10CD50009BD402009FD40200B3E60200002310B56A
:10CD60000B70C3070C4606D50E4942102046BDE89D
:10CD700010400EF09FBA28B90B492046BDE810407C
:10CD80000EF0B8BA042801D10849F6E709D90368BA
:10CD900003F00F03042B04D104F0DEF9044902462A
:10CDA000E4E710BD6ADE0200A4D40200AAD40200A7
:10CDB000AFD402002DE9F04301288FB081460E4622
:10CDC00007DC1C2001F0D0F9054628460FB0BDE86D
:10CDD000F0830B6813F0010440F0A180042B40F2B3
:10CDE000D5801B6803F00F03092B40D1274656F866
:10CDF000273013F0010806D1042B04D9186800F07D
:10CE00000F00092801D02220DCE75B680137B94513
:10CE100004EB6304EBD10122A11804F037FB0546B3
:10CE200008B90025D1E7640044F00104446042469B
:10CE300000F1080456F822104B6808685B10C0F334
:10CE40000F10984298BF00F1FF3304310020834255
:10CE500007DC013223EAE373BA4204EB8304E9DB23
:10CE6000B3E751F804CF44F820C00130EFE7032BBB
:10CE700040F08C80274656F8270010F00108C2D1F8
:10CE80000428C0D9036803F00F02032A38D1C3F382
:10CE90000F12C3F34173C3EB82031C440137B9453E
:10CEA000E9D10423E11C002291FBF3F1032004F0FB
:10CEB000EDFA05460028B4D02146FFF756FC00F1F4
:10CEC000040956F82840E10720D4042C1ED9206814
:10CED00000F00F03032B19D1C0F30F13C0F34170FF
:10CEE000C0EB830003344B46A3EB0902824211DB03
:10CEF00008F101080028A8BF8144B845E1DB64E7D8
:10CF0000042A80D1FFF7D6F90444C7E72046FFF78B
:10CF1000D1F9E7E714F8012F03F8012BE4E7002526
:10CF20002C4656F82500C20732D4042830D90368AD
:10CF300003F00F02042A32D1FFF7BCF90444013593
:10CF4000A945EED1204604F01BFB054600283FF41E
:10CF500068AF041DB04606EB890958F8046BF30767
:10CF600028D4042E26D9336803F00F02042A34D1C2
:10CF70003046FFF79FF90746304604F0EDF83A4691
:10CF8000014620460DF087FA3C4421E02546C8E7DB
:10CF900001A9FFF7E3FE01A80EF0D2F9CEE7032ABC
:10CFA0007FF431AFC3F30F12C3F34173C3EB8203BA
:10CFB0001C44C4E701A93046FFF7D0FE01A80EF0DB
:10CFC000BFF901A90646024620460DF064FA344432
:10CFD000C145C2D100232370F7E6032AF8D1C3F379
:10CFE0000F17C3F34173C3EB87073A46311DC8E7F8
:10CFF0002DE9F04F002893B00F4607DC1C2001F00C
:10D00000B3F80546284613B0BDE8F08F0D6815F05B
:10D01000010806D1042D04D92B6803F00F03092B56
:10D0200001D00B20EBE76E687610002E03DC404643
:10D0300004F0A6FAE5E7012826D04868C20723D401
:10D04000042821D9036803F00F03042B1CD104F03A
:10D0500083F8044620460EF073F90435731E8146AA
:10D06000009303FB00FB05EB860A55F8040FC3078A
:10D0700071D404286FD9036803F00F02042A05D184
:10D08000FFF718F983440AE0384CE3E7032A69D133
:10D09000C3F30F12C3F34173C3EB82039B44AA454E
:10D0A000E3D1584604F06CFA05460028AAD0D7F818
:10D0B00000A0B9F1000F03D0786804F04DF80446E1
:10D0C000284604F049F80AF1040307460193019B3E
:10D0D00053F804AF0193504604F03EF81AF00103F0
:10D0E0000146029302D1BAF1040F04D805A95046B3
:10D0F000FFF734FE05A9084603910EF021F9DDE99A
:10D10000023183468BB9BAF1040F0ED9DAF8000068
:10D1100000F00F0CBCF1030F01BFC0F30F13C0F3FD
:10D1200041700AF10401C0EB830B38465A460DF0FA
:10D13000B2F95F44B9F1000F08D0009B434505DD0B
:10D1400038464A4621460DF0A6F94F4408F1010839
:10D150004645BCD156E705A9FFF700FE05A80EF02D
:10D16000EFF88FE703F0F8FFF9E700BF9BD9020063
:10D17000021E10B513DD0B6813F001041CBF5C1018
:10D1800024EAE474012A00D04A68611C092004F0F2
:10D190007DF918B1640044F00104446010BD00241E
:10D1A0000122F2E70A6838B512F0010436D1042AE8
:10D1B00034D91368496803F00F00092818D1506862
:10D1C000C3F30F134010834298BF03F1FF30151DC6
:10D1D000A04205DC01330220984205DB002038BD67
:10D1E00045F8041F0134F3E742F820100130F3E75B
:10D1F000032813D1C80704D41320BDE8384000F039
:10D20000B3BF4910FF29F7D80432C3F30F1302EB61
:10D2100083039A42E2D202F8011BFAE70B2000F0E6
:10D22000A3FFDBE72DE9F0414E6816F001078846C1
:10D2300029D1042E27D9326802F00F03092B12D10D
:10D240007068C2F30F124510AA4200D8551ED8F8D4
:10D25000008018F0010F1AD04FEA6804002C49DD55
:10D26000A54220DA46E0042B04D13046FFF722F82D
:10D270000546ECE7032B08D1C2F30F10C2F341724D
:10D28000C2EB8005E3E70025E1E73D46DFE74146E5
:10D290003248FFF7E0FCA8B10DF094FF90FBF5F3E6
:10D2A00003FB1500441C002F55D1042E53D93368BD
:10D2B00003F00F03092B26D1013456F824402046F1
:10D2C000BDE8F08141462648FFF7C5FCC8B9B8F172
:10D2D000040F11D9D8F8003003F00F03042B0BD141
:10D2E0004046FFF7E8FB041EB9D141461D48FFF751
:10D2F000B2FC08B1122000E01120BDE8F04100F0BE
:10D3000033BF2C46CFE7042B1DD1304603F024FF5A
:10D31000012C05460FDCFEF7E3FF461B304604F008
:10D320002FF904460028CAD003F016FF32462946DA
:10D330000DF0B1F8C3E72B78013C002BDAD028467A
:10D34000FEF7CEFFE4E7032B05D13444E478640014
:10D3500044F00104B3E70B20CFE700BF94D40200F0
:10D360009FD40200B3E602002DE9F0414C6814F0AE
:10D37000010788462ED1042C2CD923688E6803F02F
:10D380000F02092A13D16568C3F30F136D10AB4266
:10D3900000D85D1ED8F800103448FFF75CFC68B375
:10D3A000236803F00F03092B1ED1012317E0032A82
:10D3B00010D1F20704D41320BDE8F04100F0D4BE30
:10D3C0007710FF2FF7D8C3F30F15C3F34173C3EBE7
:10D3D0008505DFE70B20EFE7013344F823609D422A
:10D3E000FADA0020BDE8F081032BFAD103340123DF
:10D3F0009D42F6DB04F8017F0133F9E7D8F800809D
:10D4000018F0010F0ED04FEA6800002822DD854297
:10D4100020DB236803F00F03092B21D1013044F8EE
:10D420002060DEE741461248FFF715FCB0B9B8F1BD
:10D43000040F11D9D8F8003003F00F03042B0BD1DF
:10D440004046FFF738FB0028E0D141460948FFF786
:10D4500002FC08B11220AFE71120ADE72846D8E75B
:10D46000032B04BF2418E770BBE700BF9BD4020066
:10D470009FD40200B3E60200086808B5C3071BD4B6
:10D48000042819D9036803F00F02092A01D1406862
:10D4900008BD032A09D1C3F30F12C3F34170C0EBD7
:10D4A0008200400040F00100F2E7042A04D103F0BA
:10D4B00053FEFEF729FFF4E70120E9E7024A03489B
:10D4C0000E2105F09FBB00BF24D402001CD4020033
:10D4D0001FB500210E2003F039FB0E4C01210D2059
:10D4E00003F034FB01210F2003F030FB204607F04E
:10D4F000CDF84FF0805301930023039302238DF85E
:10D50000083004AB13E90E00204604B0BDE810401B
:10D5100007F0D2B89C8B0020086810B50C46C107F4
:10D5200006D4042804D9036803F00F03042B04D0A5
:10D530000E20BDE8104000F017BE03F00DFE02788B
:10D54000A2F14103052B88BF4FF0FF33613A052A52
:10D5500098BF13465A1C01D1206810BD054AD25C01
:10D560000E2A01BF044AD05C400040F0010018BF01
:10D570000120F2E704400020A84200202DE9F041FC
:10D580000223884683420FDA1AB208EB820458F865
:10D590002220D20705D40D2000F0E6FD2068BDE86A
:10D5A000F0810133DBB2EDE7D8F8000010F001059F
:10D5B00006D1042804D9036803F00F03042B04D018
:10D5C0000E20BDE8F04100F0CFBD03F0C5FD0378AB
:10D5D000A3F14104052C94BF26464FF0FF36613B72
:10D5E000052B98BF1E46731C02D1D8F80000D6E761
:10D5F000394B9B5D0A2B6CD1384C15237343E118D2
:10D60000E322E2544E70D8F80870D8F80C20D8F80D
:10D6100010307F1052105B106420C7EB0727C2EB5D
:10D62000022297FBF0F792FBF0F2C3EB032393FB8C
:10D63000F0F3D8F8040010F0010F87F3080782F325
:10D64000080283F30803A04634D1042832D90468C1
:10D6500004F00F0CBCF1040F2CD1FFB2D2B2DBB23C
:10D660008F70CA700B714F718A71CB710F724A72D1
:10D670008B72CF720A734B730121102009F018FFCF
:10D680000021102009F03EFFFFF722FF152303FBC6
:10D690000684134E615D3046013507F01AF8152DEA
:10D6A000F8D10F4807F014F81020012109F02AFFE3
:10D6B000042074E74110013903293FF670AF01EBF4
:10D6C0004100152101FB068101448F70CA700B7166
:10D6D000D2E7284663E700BF04400020AE420020A6
:10D6E0009C8B002010B500220621032003F0CEFE03
:10D6F00020B90A20BDE8104000F036BDC30709D4A8
:10D70000042807D9036803F00F02032A04BF43F07B
:10D71000C0430360054AC31C00F1180112F8014F11
:10D7200003F8014F8B42F9D110BD00BF31430020F7
:10D7300038B50121102009F0BBFE0021102009F0AE
:10D74000E1FEFFF7C5FE094D0024295D08480134BC
:10D7500006F0BFFF152CF8D1054806F0B9FF0121EE
:10D760001020BDE8384009F0CDBE00BF10400020B9
:10D770009C8B00204B6870B50D46D90704D40D2052
:10D7800000F0F2FC686870BD286810F0010406D152
:10D79000042804D9066806F00F06042E04D00E20D3
:10D7A000BDE8704000F0E0BC03F0D6FC0278A2F1C6
:10D7B0004103052B88BF4FF0FF33613A052A98BF1C
:10D7C00013465A1C01D12868DDE70A4AD25C082AB0
:10D7D0000DD1094A696803EB43031344A1F34802DE
:10D7E0005C709C70DA70FFF7A3FF3046CBE72046F1
:10D7F000C9E700BF04400020104000204B6870B50E
:10D800000D46D90704D40D2000F0AEFC686870BD49
:10D81000286810F0010406D1042804D9066806F02F
:10D820000F06042E04D00E20BDE8704000F09CBC12
:10D8300003F092FC0278A2F14103052B88BF4FF060
:10D84000FF33613A052A98BF13465A1C01D1286854
:10D85000DDE70A4A6968D25C013A052AA1F348016A
:10D860000AD8074A03EB430313445C709C70D970D9
:10D87000FFF75EFF3046CAE72046C8E704400020B5
:10D88000104000204B68DA0770B50E4604D40D2016
:10D8900000F06AFC706870BD086810F0010506D1E0
:10D8A000042804D9046804F00F04042C04D00E20CA
:10D8B000BDE8704000F058BC03F04EFC0378A3F1C3
:10D8C0004102052A88BF4FF0FF32613B052B98BF0C
:10D8D0001A46531C01D13068DDE773685B10642B76
:10D8E0006FF06301A8BF64238B42B8BF0B460B499E
:10D8F000895C013905290ED8032193FBF1F308490E
:10D9000002EB42020A445A3355709570D370FFF708
:10D910000FFF2046BFE72846BDE700BF04400020B8
:10D92000104000204B6870B5DC070E4605D58B68AB
:10D93000D80702D5CB68D90704D40D2000F014FC19
:10D94000002070BD306810F0010506D1042804D90C
:10D95000036803F00F03042B04D00E20BDE87040D1
:10D9600000F002BC03F0F8FB0278A2F14103052BA2
:10D9700088BF4FF0FF33613A052A98BF13465A1CFF
:10D9800001D13068DDE77068B468F2684010641057
:10D9900052106421C0EB0020C4EB042490FBF1F092
:10D9A00094FBF1F4C2EB022292FBF1F20C49C95C48
:10D9B000072980F3080084F3080482F3080201D0E9
:10D9C00009290AD1074903EB43030B4458709C70A3
:10D9D000DA70FFF7ADFE0420B3E72846B1E700BFD9
:10D9E00004400020104000202DE9F04788B04FF09F
:10D9F0001F330093012141F61F731020ADF804304E
:10DA000009F056FD0021102009F07CFDFFF760FDB4
:10DA1000DE217048704C6F4E06F05BFE01252070D1
:10DA2000FF21304606F055FE60550135152DF7D122
:10DA300068486A4D6A4F06F04BFE0121102009F03C
:10DA400061FD684BE2781A7062795A70E2799A70D7
:10DA5000627ADA70E27A1A71627B5A7103260E22B8
:10DA60004FF0000C35F8021FA35C03EB410393FB5E
:10DA7000F6F3FA2B2B8022DD0DEB020303F80ECC1C
:10DA80000132142AEED1584B584C18780022114616
:10DA90001DF8015014F8016F2570AE4201F101012B
:10DAA0001CBF012200200629F2D102B118701A7899
:10DAB000132A16D801321A7008B0BDE8F087012188
:10DAC000C85D00F1040E734507DC0438834204DBB3
:10DAD0000DEB020303F80E1CD2E701311A29EFD136
:10DAE000CEE7142AE8D102AC1522002120461A7094
:10DAF0000CF0F5FCE1238DF80830DFF8FCC03C4861
:10DB00003C4D002319461E4601274FF0020E4FF0F0
:10DB100005084FF0040913F80C200AB11F2A2CD174
:10DB2000C654EA540121EA5C02F1FF3ABAF1010F4E
:10DB300003F1010329D8E754062BECD10029BBD00F
:10DB40000121102009F0B4FC0021102009F0DAFCBA
:10DB5000FFF7BEFC1F4E0025615D3046013506F023
:10DB6000B8FD152DF8D11B4806F0B2FD012110209B
:10DB700008B0BDE8F04709F0C5BC10F803A0BAF141
:10DB8000000FD0D1EA54C754CCE7A2F1030ABAF18E
:10DB9000030F02D80622E254CEE7072A01D0092A51
:10DBA00002D104F803E0C7E70A2A01D10322F2E711
:10DBB000A2F10B0ABAF10A0F02D804F80390BBE7EE
:10DBC000082A02D0163A032A02D804F80380B3E7E1
:10DBD000E654B1E79C8B0020324300209A4200209B
:10DBE00074D50200A84200204743002009400020CD
:10DBF0002C430020044000200A400020024A034831
:10DC0000072104F0FFBF00BF3CD5020048E002003E
:10DC100008B503F07FF903F073FA05F065F865487D
:10DC200005F080FB04F07CFA05F05EFC0121022087
:10DC300009F03EFC0121022009F064FC4CF2503353
:10DC40001846013800BF00BF00BF00BF00BF00BFC3
:10DC500000BF00BF00BF00BF00BF00BF00BF00BFCC
:10DC600000BF00BF00BF00BF00BF00BF00BF00BFBC
:10DC700000BF00BF00BF00BF00BF00BF00BF00BFAC
:10DC800000BF00BF00BF00BF00BF00BF00BF00BF9C
:10DC900000BF00BF00BF00BF00BF00BF00BF00BF8C
:10DCA00000BF00BF00BF00BF00BF00BF00BF00BF7C
:10DCB00000BF00BF00BF00BFC3D11846013800BF7E
:10DCC00000BF00BF00BF00BF00BF00BF00BF00BF5C
:10DCD00000BF00BF00BF00BF00BF00BF00BF00BF4C
:10DCE00000BF00BF00BF00BF00BF00BF00BF00BF3C
:10DCF00000BF00BF00BF00BF00BF00BF00BF00BF2C
:10DD000000BF00BF00BF00BF00BF00BF00BF00BF1B
:10DD100000BF00BF00BF00BF00BF00BF00BF00BF0B
:10DD200000BF00BF00BF00BF00BF00BF00BF00BFFB
:10DD300000BFC3D11846013800BF00BF00BF00BFFD
:10DD400000BF00BF00BF00BF00BF00BF00BF00BFDB
:10DD500000BF00BF00BF00BF00BF00BF00BF00BFCB
:10DD600000BF00BF00BF00BF00BF00BF00BF00BFBB
:10DD700000BF00BF00BF00BF00BF00BF00BF00BFAB
:10DD800000BF00BF00BF00BF00BF00BF00BF00BF9B
:10DD900000BF00BF00BF00BF00BF00BF00BF00BF8B
:10DDA00000BF00BF00BF00BF00BF00BFC3D1184607
:10DDB00002E000BFA3D50200013800BF00BF00BFD2
:10DDC00000BF00BF00BF00BF00BF00BF00BF00BF5B
:10DDD00000BF00BF00BF00BF00BF00BF00BF00BF4B
:10DDE00000BF00BF00BF00BF00BF00BF00BF00BF3B
:10DDF00000BF00BF00BF00BF00BF00BF00BF00BF2B
:10DE000000BF00BF00BF00BF00BF00BF00BF00BF1A
:10DE100000BF00BF00BF00BF00BF00BF00BF00BF0A
:10DE200000BF00BF00BF00BF00BF00BF00BFC3D125
:10DE300000210220BDE8084009F064BB02F07CB973
:10DE4000037883B11A0601D40130704703F0C00390
:10DE5000C02B08BF0130024610460132037803F0A0
:10DE6000C003802BF8D07047F8B511F001050646C5
:10DE70001446084626D104293FD90B6803F00F0346
:10DE8000042B3AD1D30714D4042A36D9136803F0EB
:10DE90000F03042B31D103F05FF90546204603F050
:10DEA0005BF9014628460DF041FA00282DDB1ED112
:10DEB00026E003F051F929460A220DF0F3FA05464F
:10DEC000601011E012F0010715D1042A15D913686A
:10DED00003F00F03042B10D110464D1003F03CF952
:10DEE0000A2239460DF0DEFA85420EDB08DD002EEF
:10DEF00009DC00200CE04D10E2E7064B0F221A70FF
:10DF00000136022EF5D8042002E0701700F004005C
:10DF1000F8BD00BF6C4300202DE9F0412E4F0646AE
:10DF20000024E500EB191B79032B0AD00134FF2CE8
:10DF3000F7D1304604F07AFE002808BF4FF0FF30DA
:10DF400048E030460DF0FCF931460246E0B204F0FC
:10DF5000EDFE00283CD1E9594A680B1D9042E5D0FE
:10DF600053F8045FF02D00F10100F7D1800000F1BB
:10DF70000803CA18D007D9D4042AD7D9CB5803F03C
:10DF80000F010429D2D1C3F30F13013302EB830035
:10DF9000C507CBD40428C9D952F8233003F00F03A6
:10DFA000042BC3D103F0D8F84FF00308054609212C
:10DFB00028460DF0AEF90028B8D0B8F1010800F1FC
:10DFC0000105F4D1314628460DF0D7F98542ADD18F
:10DFD00064F0FF00BDE8F0811C97002010B510F040
:10DFE000010402D04410204610BD042812D9026852
:10DFF00002F00F02042A07D103F0AEF80A222146EC
:10E00000BDE810400DF04EBA032A03D10A22214682
:10E010000430F5E7014B0D221A70E4E76C43002051
:10E0200010F0010210B516D1042802D90268C2F31B
:10E030000F1211F0010310D1042902D90B68C3F3A8
:10E040000F13934216D1043000EB83020331904248
:10E0500005D301200BE00022EBE70023F1E710F8E5
:10E06000014B11F8013F1CB9B3FA83F0400910BD10
:10E070009C42ECD00020FAE72DE9F74F8046894614
:10E080009A46304F304E6AB102233B700123336011
:10E090003368DFF8D0B00024FC54444504DB03B0FF
:10E0A000BDE8F08F3260F3E759F824003168C30708
:10E0B00007EB0105C1F5487105D5244A43102846F0
:10E0C0000DF0C4F804E0C8B9214A28460DF0BEF8A6
:10E0D0001C480DF035F93060BAF1000F0CD008F192
:10E0E000FF33A34208DDB0F5487F05D2431C202250
:10E0F0003A540022FA5433600134CEE7042801D1A7
:10E10000144AE2E71BD9026802F00F03042B06D180
:10E11000019103F021F8104A01990346CFE7092B3A
:10E1200003D143685A465B10C9E7032B08D1C2F3F9
:10E130000F13C2F34172C2EB8303084ABFE7012306
:10E14000074ABCE76D430020904600206ADE0200CB
:10E15000A4D40200AAD4020097E40200D7D7020098
:10E16000E2D70200C8D70200014B187000207047A8
:10E170006C430020024B1878003018BF0120704714
:10E180006C43002008B500231A46FFF775FF034BC8
:10E190000348196805F0ECFA002008BD90460020FD
:10E1A0006D43002010B502F0CBFC084C231D014646
:10E1B0001F2218460DF0CCF80DF0C2F8043080088C
:10E1C000000140F004002060204610BD48430020BC
:10E1D0002DE9F04FD0E9022100F118090369BC4F85
:10E1E0008046406985B009EB8000029038789B003A
:10E1F00002EB810509EB030400283DD152F82120F0
:10E20000B449161202F07F029B10C8F8103051F882
:10E21000223004358A4643F001031847D8F8082015
:10E2200098F8023098F80100AA1A921043EA0222E4
:10E2300004F099FF002388F8003021E098F80100ED
:10E2400004F08BFF002388F800301AE03B789BB97C
:10E250002B68A4EB09021E1203F07F039210C8F88A
:10E2600010205AF823300435D5E7231DA3EB09020B
:10E27000D82A1BDD1A233B703978FF29CED1002321
:10E280003B70D8F80830ED1A029BA4EB0904A3EB0D
:10E290000909AD10A4104FEAA903C8F80C50C8F83A
:10E2A0001040C8F8143005B0BDE8F08F21461C4678
:10E2B0003B780E60002BDFD12B681E1203F07F032A
:10E2C0009210C8F810205AF823300435A3E7231D14
:10E2D000A3EB0902D82A02DD1A233B70CCE72046C3
:10E2E0001C462B6803603B78291D0BB10D46C3E724
:10E2F0006B681E1203F07F039210C8F810205AF8C2
:10E300002330083587E7231DA3EB0902D82A02DD55
:10E310001A233B70B0E721461C463B7805EB860686
:10E320000E60002BA8D12B681E1203F07F03921001
:10E33000C8F810205AF8233004356CE7231DA3EBEE
:10E340000902D82A02DD1A233B7095E721461C46B4
:10E35000614B53F826300B603B78002B8CD12B6837
:10E360001E1203F07F039210C8F810205AF82330D1
:10E37000043550E7584B54F8042D43F826203B78D9
:10E38000002B7FF479AF2B68A4EB09021E1203F077
:10E390007F039210C8F810205AF8233004353AE76A
:10E3A000DFF834B15BF82600FFF718FE3A785AB967
:10E3B000009054F8040DFFF711FE009B1844400034
:10E3C00040F001004BF826003B78002B7FF454AF5F
:10E3D0002B68A4EB09021E1203F07F039210C8F809
:10E3E00010205AF82330043515E7221DA2EB09034B
:10E3F000D82B02DD1A233B703EE7029B214699454C
:10E4000034BF53F80C3C01230B603B781446002BBF
:10E410007FF432AF2B68A2EB09021E1203F07F03D8
:10E420009210C8F810205AF823300435F3E6211D65
:10E43000A1EB0902D82A02DD1A233B701CE7029BDC
:10E4400099451CD253F80C3C02985B1006F18046AB
:10E45000C3EB8373033E334450F8233023603B788F
:10E460000C46002B7FF408AF2B681E1203F07F03CD
:10E470009210C8F810205AF823300435CBE6182340
:10E480003B700023EAE7029B99451ED253F80C3CEF
:10E49000029954F8042D5B1006F18046C3EB837398
:10E4A000033E334441F823203B78002B7FF4E4AE55
:10E4B0002B68A4EB09021E1203F07F039210C8F828
:10E4C00010205AF823300435A5E618233B70EBE7FB
:10E4D0006C430020C8D50200149F0020029B994580
:10E4E00031D253F80C3C029A06F180465B10033E91
:10E4F000C3EB8373334452F82300FFF76FFD834669
:10E5000054F8040DFFF76AFD029B53F80C3C5B10B6
:10E51000C3EB837358441E444000029B40F001004B
:10E5200043F826003B78002B7FF4A6AE2B68A4EBC3
:10E5300009021E1203F07F039210C8F810205AF847
:10E540002330043567E618233B70EBE7231DA3EB6C
:10E550000902D82A02DD1A233B708DE621461C46AB
:10E56000029B53F826300B603B78002B7FF484AE7F
:10E570002B681E1203F07F039210C8F810205AF87F
:10E580002330043547E6029A54F8043D42F8263019
:10E590003B78002B7FF470AE2B68A4EB09021E12AF
:10E5A00003F07F039210C8F810205AF82330043586
:10E5B00031E6029B53F826004FEA600B54F8040D35
:10E5C000FFF70CFD5844029B400040F0010043F867
:10E5D00026003B78002B7FF44FAE2B68A4EB09029A
:10E5E0001E1203F07F039210C8F810205AF823304F
:10E5F000043510E6A4EB8604A145A4EB090B0FD863
:10E600003B78002B7FF438AE2B681E1203F07F039B
:10E610004FEAAB02C8F810205AF823300435FAE567
:10E62000CD4802F089FD3B78002B7FF425AE2B68A6
:10E630001E1203F07F034FEAAB02C8F810205AF80D
:10E6400023300435E7E5002E05EB8605FFF619AE0D
:10E650003B78002B7FF410AE2B68A4EB09021E124E
:10E6600003F07F039210C8F810205AF823300435C5
:10E67000D1E554F8043D042B04D1002E05EB8605AA
:10E68000FFF6FFAD3B78002B7FF4F6AD2B68A4EBD3
:10E6900009021E1203F07F039210C8F810205AF8E6
:10E6A00023300435B7E554F8043D042B04D0002E84
:10E6B00005EB8605FFF6E5AD3B78002B7FF4DCAD7E
:10E6C0002B68A4EB09021E1203F07F039210C8F816
:10E6D00010205AF8233004359DE554F8040CC30784
:10E6E000A4F1040B0BD54010013800280ADB4000D0
:10E6F00040F0010005EB8605CBF80000C1E5FFF70F
:10E700006DFCF1E73B780BB15C46B5E52B68ABEBF4
:10E7100009021E1203F07F039210C8F810205AF865
:10E7200023305C46043576E5029B04F10C0BABEB21
:10E730000902A3EB0903D82A4FEAA30302DD1A2337
:10E740003B7099E52046740004F4FF7646F001061C
:10E750000660D8F808402D1B98F80240AD1044EA36
:10E76000052464005B0044F0010443F001034460AD
:10E77000836088F802E051F83C303978C8F80830F6
:10E780005C46921021B103F10805CDF808B073E59D
:10E7900003F10C059B68CDF808B01E1203F07F034F
:10E7A000C8F810205AF8233035E5029B54F8046C61
:10E7B00099452FD1F10720D4042E17D9336803F0DF
:10E7C0000F03042B13D1304602F0C6FC0CF0B8FD49
:10E7D000B0F5487F28BF4FF448700630643004F02D
:10E7E000D7FA70B9043DCDF808904AE507D0002E5D
:10E7F00014BF4FF400700720F0E70A20EEE707206F
:10E80000ECE7314698F8010004F0C4FC002388F8D6
:10E810000030E8E7029B514953F80C3C38785A1015
:10E820006FF0030353430C3B029AD650D41852F8AE
:10E83000082C531088F80230DBB2043451F833103E
:10E84000C8F80810C2F35523029A52F8042C52104B
:10E8500009EB82020292A4EB090201EB83059210FC
:10E8600000287FF409AD51F82330C8F810201E129B
:10E8700003F07F0304355AF82330CCE454F8040C39
:10E88000FFF7ACFB1E288346A4EB86042FDC002890
:10E8900010DC3B78002B7FF4EFAC2B68A4EB090273
:10E8A0001E1203F07F039210C8F810205AF823308C
:10E8B0000435B0E402F03AF9ABF1030B834402F003
:10E8C00035F9274BA0EB0B009842F8D83B78002B8A
:10E8D0007FF4D2AC2B68A4EB09021E1203F07F0375
:10E8E0009210C8F810205AF82330043593E401231D
:10E8F00088F8003002F01AF90A385844C8F80400C1
:10E90000BFE454F8040CFFF769FBA4EB8604061E71
:10E9100010DC3B78002B7FF4AFAC2B68A4EB090232
:10E920001E1203F07F039210C8F810205AF823300B
:10E93000043570E40B4B9E4202DD1D233B709BE4CB
:10E94000012388F8003002F0F1F84FF47A7303FBEA
:10E9500006000A38D2E700BFF4D702001C97002057
:10E960007F96980080EE360000233046A4EB8604A4
:10E97000C84E1A462146FFF77FFB3168C64802F0B1
:10E9800006FEC64B31681860C34804F0C5FD316807
:10E99000C14804F0EDFE3B78002B7FF46DAC2B6892
:10E9A000A4EB09021E1203F07F039210C8F8102096
:10E9B0005AF8233004352EE43B78A4EB8604002B70
:10E9C0007FF45AAC2B68A4EB09021E1203F07F03FC
:10E9D0009210C8F810205AF8233004351BE4404642
:10E9E00004F03AFA3B78002B7FF446AC2B68A4EB9A
:10E9F00009021E1203F07F039210C8F810205AF883
:10EA00002330043507E454F8043C002B45D154F876
:10EA10000C0C10F0010B1ED04FEA600B4FEA4B03B9
:10EA200043F0010344F8083CBBF1000F40F392802F
:10EA30004FEA4B0343F0010354F80C0C44F8043C38
:10EA400054F8083CC207CBEB63032BD501335B00C2
:10EA500043F0010331E004281BD9036803F00F02DF
:10EA6000092A01D14068D7E7042A09D102F074FBD2
:10EA70000378002BD2D0FFF7E3F90BF1010BF7E796
:10EA8000032A06D1C3F30F1BC3F34173C3EB8B0BF4
:10EA9000C4E719233B70FFF7EFBB4FEA630B0BF1A1
:10EAA000FF3BC1E7042851D9026802F00F02092A8E
:10EAB00018D103F1020B50F82B30029A42F826309D
:10EAC0003B78002B7FF4D8AB2B68A4EB09021E1215
:10EAD00003F07F039210C8F810205AF82330043551
:10EAE000FFF799BB042A2CD10393029B03EB860307
:10EAF000009302F031FB039B83465E1C012E12DC67
:10EB00005846FFF79DF9A0EB0B06304602F038FDA2
:10EB1000034670B1039002F01FFB324659460BF0DA
:10EB2000BAFC039B05E09BF80030013E23B912229A
:10EB30003A70009A1360C3E75846FFF781F983469D
:10EB4000DCE7032A02D11844037980E719233B70DC
:10EB5000FFF792BB0435B3E704EB8603A3EB09038D
:10EB6000D82B16DC0122002E06F1FF3315DC3B7892
:10EB7000002B7FF481AB2B68A4EB09021E1203F07B
:10EB80007F039210C8F810205AF823300435FFF79D
:10EB900042BB1A233B70FFF76FBB22601E46043452
:10EBA000E1E7231DA3EB0903D82B03DD1A233B70F8
:10EBB000FFF762BB029B994531D254F8040CFFF772
:10EBC0000DFA002828DD029B53F80C3C5B108342B1
:10EBD00022DBC3EB8373184400F18040029B0438AE
:10EBE00053F82020A4EB86031A606FF003003B78F3
:10EBF00000FB06440434002B7FF43EAB2B68A4EBEF
:10EC000009021E1203F07F039210C8F810205AF870
:10EC100023300435FFF7FFBA20233B70E5E71823C4
:10EC2000FBE71E4B1A68A4EB86036FF003001A6023
:10EC30003B7800FB06440434002B7FF41DAB2B68AB
:10EC4000A4EB09021E1203F07F039210C8F81020F3
:10EC50005AF823300435FFF7DEBA54F8043C042B8D
:10EC60003B78A4F1040104BF05EB8605214613B1EE
:10EC70000C46FFF701BB2B68A1EB09021E1203F043
:10EC80007F039210C8F810205AF823300C46043540
:10EC9000FFF7C1BA904600206D43002030400020AD
:10ECA00054F8043D042B1CBF002323603B781CBF99
:10ECB00005EB86050434002B7FF4DEAA2B68A4EB59
:10ECC00009021E1203F07F039210C8F810205AF8B0
:10ECD00023300435FFF79FBA002EA4EB86011ADC1F
:10ECE0001C233B7000226FF003003B780A6000FB9E
:10ECF00006440434002B7FF4BFAA2B68A4EB09025E
:10ED00001E1203F07F039210C8F810205AF8233027
:10ED10000435FFF780BA0B684FF0000C5B1051F818
:10ED20002C0010F0010202D10D233B70DBE74010F4
:10ED300083420CF1010CA8BF03466645EFDC5B0083
:10ED400043F00102CFE7002EA4EB86011ADC1C235E
:10ED50003B7000226FF003003B780A6000FB064422
:10ED60000434002B7FF488AA2B68A4EB09021E123E
:10ED700003F07F039210C8F810205AF823300435AE
:10ED8000FFF749BA0B684FF0000C5B1051F82C00EC
:10ED900010F0010202D10D233B70DBE740108342EB
:10EDA0000CF1010CB8BF03466645EFDC5B0043F095
:10EDB0000102CFE754F8081C11F0010F4FEA860357
:10EDC00023D054F8042CD0071FD55210B2EB610F9A
:10EDD000A4EB0303D4BF002204221A606FF00300E7
:10EDE0003B7800FB06440434002B7FF445AA2B68D3
:10EDF000A4EB09021E1203F07F039210C8F8102042
:10EE00005AF823300435FFF706BA54F8042C6FF093
:10EE10000100A4EB030BFFF727F8CBF80000DDE7B8
:10EE200054F8081C11F0010F4FEA860323D054F860
:10EE3000042CD0071FD55210B2EB610FA4EB0303D3
:10EE4000B4BF002204221A606FF003003B7800FB7D
:10EE500006440434002B7FF40FAA2B68A4EB0902AC
:10EE60001E1203F07F039210C8F810205AF82330C6
:10EE70000435FFF7D0B954F8042C4FF0FF30A4EB61
:10EE8000030BFEF7F1FFCBF80000DDE754E90201C8
:10EE900081424FEA860319D1E31A04221A606FF007
:10EEA00003003B7800FB06440434002B7FF4E4A904
:10EEB0002B68A4EB09021E1203F07F039210C8F81E
:10EEC00010205AF823300435FFF7A5B90428A4EB25
:10EED000030B01D8002315E0C207FBD4036803F03D
:10EEE0000F03042BF6D1CB07F4D40429F2D90B6815
:10EEF00003F00F03042BEDD1FFF792F800280CBFAD
:10EF000000230423CBF80030C9E754E90201814211
:10EF10004FEA860319D1E31A00221A606FF003004A
:10EF20003B7800FB06440434002B7FF4A5A92B6832
:10EF3000A4EB09021E1203F07F039210C8F8102000
:10EF40005AF823300435FFF766B90428A4EB030B05
:10EF500001D8042315E0C207FBD4036803F00F03B4
:10EF6000042BF6D1CB07F4D40429F2D90B6803F0B3
:10EF70000F03042BEDD1FFF753F800280CBF042337
:10EF80000023CBF80030C9E754F8081C11F0010F3A
:10EF90004FEA860323D054F8042CD0071FD5521013
:10EFA000B2EB610FA4EB0303CCBF002204221A6072
:10EFB0006FF003003B7800FB06440434002B7FF421
:10EFC0005BA92B68A4EB09021E1203F07F039210C9
:10EFD000C8F810205AF823300435FFF71CB954F84C
:10EFE000042C0120A4EB030BFEF73EFFCBF800003E
:10EFF000DEE754F8081C11F0010F4FEA860323D016
:10F0000054F8042CD0071FD55210B2EB610FA4EBBB
:10F010000303ACBF002204221A606FF003003B78A8
:10F0200000FB06440434002B7FF426A92B68A4EBD4
:10F0300009021E1203F07F039210C8F810205AF83C
:10F0400023300435FFF7E7B854F8042C0220A4EB72
:10F05000030BFEF709FFCBF80000DEE754F8043C91
:10F06000042BA4EB860314BF042200221A606FF065
:10F0700003003B7800FB06440434002B7FF4FCA81B
:10F080002B68A4EB09021E1203F07F039210C8F84C
:10F0900010205AF823300435FFF7BDB854F8080C97
:10F0A000FEF79CFF834654F8040CFEF797FF584484
:10F0B000A4EB8603400040F0010018606FF00300ED
:10F0C0003B7800FB06440434002B7FF4D5A82B6862
:10F0D000A4EB09021E1203F07F039210C8F810205F
:10F0E0005AF823300435FFF796B854F8080CFEF7A9
:10F0F00075FF834654F8040CFEF770FFABEB00007D
:10F10000A4EB8603400040F0010018606FF003009C
:10F110003B7800FB06440434002B7FF4ADA82B6839
:10F12000A4EB09021E1203F07F039210C8F810200E
:10F130005AF823300435FFF76EB854F8080CFEF780
:10F140004DFF834654F8040CFEF748FF00FB0BF01C
:10F15000A4EB8603400040F0010018606FF003004C
:10F160003B7800FB06440434002B7FF485A82B6811
:10F17000A4EB09021E1203F07F039210C8F81020BE
:10F180005AF823300435FFF746B854F8040CFEF75C
:10F1900025FF8346E0B91F233B70A4EB86036FF085
:10F1A0000300C3F800B03B7800FB06440434002B96
:10F1B0007FF462A82B68A4EB09021E1203F07F0300
:10F1C0009210C8F810205AF823300435FFF723B8FE
:10F1D00054F8080CFEF702FF90FBFBFB4FEA4B0BC9
:10F1E0004BF0010BD9E754F8040CFEF7F7FE834609
:10F1F000E0B91F233B70A4EB86036FF00300C3F854
:10F2000000B03B7800FB06440434002B7FF434A8A4
:10F210002B68A4EB09021E1203F07F039210C8F8BA
:10F2200010205AF823300435FEF7F5BF54F8080CC7
:10F23000FEF7D4FE90FBFBF303FB1B0B4FEA4B0BDB
:10F240004BF0010BD7E754F8040CFEF7C7FE00287B
:10F2500054F8040C1EDDFEF7C1FEA4EB860340004B
:10F2600040F0010018606FF003003B7800FB06449B
:10F270000434002B7FF400A82B68A4EB09021E12B3
:10F2800003F07F039210C8F810205AF82330043599
:10F29000FEF7C1BFFEF7A2FE4042DEE7012EA4EB5F
:10F2A000860B37D1DBF80000FEF798FE02460028F7
:10F2B000B4BF4FF0FF330123934202DC11461A46DC
:10F2C0000B4601339B1A039200930BF07BFF009BCC
:10F2D000039A90FBF3F101FB130313445B0043F02B
:10F2E0000103CBF800306FF003003B7800FB0644CD
:10F2F0000434002B7EF4C0AF2B68A4EB09021E126D
:10F3000003F07F039210C8F810205AF82330043518
:10F31000FEF781BF022E0BD1DBF80000FEF75EFE88
:10F320000090DBF80400FEF759FE009B0246C3E79D
:10F3300064230122C5E7A4EB860B5946304602F050
:10F3400046F93B78CBF800006FF0030000FB064461
:10F350000434002B7EF490AF2B68A4EB09021E123C
:10F3600003F07F039210C8F810205AF823300435B8
:10F37000FEF751BF54F8080CFEF730FE834654F8F0
:10F38000040CFEF72BFE0BEA0000A4EB8603400002
:10F3900040F0010018606FF003003B7800FB06446A
:10F3A0000434002B7EF468AF2B68A4EB09021E1214
:10F3B00003F07F039210C8F810205AF82330043568
:10F3C000FEF729BF54F8080CFEF708FE834654F8F0
:10F3D000040CFEF703FE4BEA0000A4EB860340009A
:10F3E00040F0010018606FF003003B7800FB06441A
:10F3F0000434002B7EF440AF2B68A4EB09021E12EC
:10F4000003F07F039210C8F810205AF82330043517
:10F41000FEF701BF54F8080CFEF7E0FD834654F8F0
:10F42000040CFEF7DBFD8BEA0000A4EB8603400032
:10F4300040F0010018606FF003003B7800FB0644C9
:10F440000434002B7EF418AF2B68A4EB09021E12C3
:10F4500003F07F039210C8F810205AF823300435C7
:10F46000FEF7D9BE54F8040CFEF7B8FDC043A4EB78
:10F470008603400040F0010018606FF003003B7805
:10F4800000FB06440434002B7EF4F6AE2B68A4EB9C
:10F4900009021E1203F07F039210C8F810205AF8D8
:10F4A00023300435FEF7B7BE54F8080CFEF796FD7E
:10F4B000834654F8040CFEF791FD0BFA00F0A4EB20
:10F4C0008603400040F0010018606FF003003B78B5
:10F4D00000FB06440434002B7EF4CEAE2B68A4EB74
:10F4E00009021E1203F07F039210C8F810205AF888
:10F4F00023300435FEF78FBE54F8080CFEF76EFD7E
:10F50000834654F8040CFEF769FD4BFA00F0A4EBB7
:10F510008603400040F0010018606FF003003B7864
:10F5200000FB06440434002B7EF4A6AE2B68A4EB4B
:10F5300009021E1203F07F039210C8F810205AF837
:10F5400023300435FEF767BE54F80C0CFEF746FD79
:10F55000834654F8080CFEF741FD8BFB002354F85A
:10F56000040CCDE90023FEF739FDDDE90023C0F1ED
:10F57000200CB0F1200103FA0CFC22FA00F040EA62
:10F580000C005CBF43FA01F10843A4EB860E400077
:10F5900040F00100CEF800003B786FF0030000FB64
:10F5A00006440434002B7EF467AE2B68A4EB0902FA
:10F5B0001E1203F07F039210C8F810205AF823306F
:10F5C0000435FEF728BEA4EB860B59463046FDF7FE
:10F5D000CFFD3B78CBF800006FF0030000FB064442
:10F5E0000434002B7EF448AE2B68A4EB09021E12F3
:10F5F00003F07F039210C8F810205AF82330043526
:10F60000FEF709BEA4EB860421463046FDF7CAFD8D
:10F610003B78002B7EF430AE2B68A4EB09021E125F
:10F6200003F07F039210C8F810205AF823300435F5
:10F63000FEF7F1BDA4EB860B59463046FDF7F2FD0F
:10F640003B78CBF800006FF0030000FB0644043465
:10F65000002B7EF411AE2B68A4EB09021E1203F0FE
:10F660007F039210C8F810205AF823300435FEF7B3
:10F67000D2BDA4EB860421463046FDF775FE3B78EB
:10F68000002B7EF4F9AD2B68A4EB09021E1203F0E7
:10F690007F039210C8F810205AF823300435FEF783
:10F6A000BABDA4EB860B59463046FDF7E5FE3B7824
:10F6B000CBF800006FF0030000FB06440434002B7D
:10F6C0007EF4DAAD2B68A4EB09021E1203F07F036F
:10F6D0009210C8F810205AF823300435FEF79BBD6D
:10F6E00054F8040C01F038FD54F8083CDA072FD424
:10F6F000042B0CD91B6803F00F03013B082B10D817
:10F70000DFE803F005262C280F0F0F0F2A00C4494D
:10F710000BF00CFEA4EB8603002814BF0022042289
:10F720001A606FF003003B7800FB06440434002BA2
:10F730007EF4A2AD2B68A4EB09021E1203F07F0336
:10F740009210C8F810205AF823300435FEF763BD34
:10F75000B449DDE7B449DBE7B449D9E7B449D7E7B1
:10F76000261DA6EB090BBBF1D80F03DD1A233B7056
:10F77000FEF782BD01F0DCF92346400040F00100B5
:10F7800018603B783446002B7EF476AD2B681E1251
:10F7900003F07F034FEAAB02C8F810205AF8233079
:10F7A0000435FEF738BD261DA6EB090BBBF1D80FBB
:10F7B00003DD1A233B70FEF75FBD01F0B7F99D4BE7
:10F7C000224603EA40003B7840F0010034461060D6
:10F7D000002B7EF451AD2B681E1203F07F034FEA1D
:10F7E000AB02C8F810205AF823300435FEF713BDD9
:10F7F000261DA6EB0903D82B03DD1A233B70FEF769
:10F800003BBD01F095F98C4B1B6898423DBFC3F599
:10F81000830303F63713C018C01A4000234640F094
:10F82000010018603B783446002B7EF425AD2B6830
:10F83000A4EB09021E1203F07F039210C8F81020F7
:10F840005AF823300435FEF7E6BC01F071F97A4B23
:10F8500018603B78A4EB8604002B7EF40DAD2B687A
:10F86000A4EB09021E1203F07F039210C8F81020C7
:10F870005AF823300435FEF7CEBC03F03FFDB30049
:10F8800090B9E41A3B78002B7EF4F6AC2B68A4EB1D
:10F8900009021E1203F07F039210C8F810205AF8D4
:10F8A00023300435FEF7B7BC30462746634EE41AD2
:10F8B00001231A462146FEF7DFFB3068643003F06F
:10F8C00067FA18B9043D3C46FEF7DBBC98F8012006
:10F8D00031685B4803F063FC012388F8003001F0D5
:10F8E00025F9584A33681268063302FB0300FFF714
:10F8F00005B803F003FDB30090B9E41A3B78002B80
:10F900007EF4BAAC2B68A4EB09021E1203F07F034D
:10F910009210C8F810205AF823300435FEF77BBC4B
:10F9200030462746454EE41A002201232146FEF7C1
:10F93000A3FB3068643003F02BFA0028C2D04048A3
:10F9400003F0EEFBC8E7FEF72DFCA4EB860B3B783B
:10F95000CBF800006FF0030000FB06440434002BDA
:10F960007EF48AAC2B68A4EB09021E1203F07F031D
:10F970009210C8F810205AF823300435FEF74BBC1B
:10F980003B78A4EB8604002B7EF476AC2B68A4EBCA
:10F9900009021E1203F07F039210C8F810205AF8D3
:10F9A00023300435FEF737BCA4EB860B584601F034
:10F9B000F1F83B78CBF800006FF0030000FB064441
:10F9C0000434002B7EF458AC2B68A4EB09021E1201
:10F9D00003F07F039210C8F810205AF82330043542
:10F9E000FEF719BCA4EB860B584601F0D5F83B781E
:10F9F000CBF800006FF0030000FB06440434002B3A
:10FA00007EF43AAC2B68A4EB09021E1203F07F03CC
:10FA10009210C8F810205AF823300435FEF7FBBBCB
:10FA200004D802000CD8020013D802001AD8020031
:10FA30001FD80200FEFFFF7F98460020904600205E
:10FA40006D4300202C400020A4EB860B5946304625
:10FA500000F006FD3B78CBF800006FF0030000FBE0
:10FA600006440434002B7EF407AC2B68A4EB090297
:10FA70001E1203F07F039210C8F810205AF82330AA
:10FA80000435FEF7C8BBA4EB8604204601F086F8D7
:10FA90003B78002B7EF4F0AB2B68A4EB09021E121E
:10FAA00003F07F039210C8F810205AF82330043571
:10FAB000FEF7B1BBA4EB860B5946304600F0A6FC1E
:10FAC0003B78CBF800006FF0030000FB06440434E1
:10FAD000002B7EF4D1AB2B68A4EB09021E1203F0BD
:10FAE0007F039210C8F810205AF823300435FEF72F
:10FAF00092BBA4EB8604204601F042F93B78002B30
:10FB00007EF4BAAB2B68A4EB09021E1203F07F034C
:10FB10009210C8F810205AF823300435FEF77BBB4A
:10FB20000121304601F0EAF83B78002B7EF4A4ABCB
:10FB30002B68A4EB09021E1203F07F039210C8F891
:10FB400010205AF823300435FEF765BB00213046FB
:10FB500001F0D4F83B78002B7EF48EAB2B68A4EB3D
:10FB600009021E1203F07F039210C8F810205AF801
:10FB700023300435FEF74FBBA4EB860B584601F04B
:10FB80007FF83B78CBF800006FF0030000FB0644E1
:10FB90000434002B7EF470AB2B68A4EB09021E1218
:10FBA00003F07F039210C8F810205AF82330043570
:10FBB000FEF731BBA4EB860B584601F075F83B7895
:10FBC000CBF800006FF0030000FB06440434002B68
:10FBD0007EF452AB2B68A4EB09021E1203F07F03E4
:10FBE0009210C8F810205AF823300435FEF713BBE2
:10FBF000A4EB8604204601F025F83B78002B7EF428
:10FC00003BAB2B68A4EB09021E1203F07F0392109A
:10FC1000C8F810205AF823300435FEF7FCBAA4EBDC
:10FC20008604204604F0B6F93B78002B7EF424AB22
:10FC30002B68A4EB09021E1203F07F039210C8F890
:10FC400010205AF823300435FEF7E5BAA4EB860BF2
:10FC5000584604F091FA3B78CBF800006FF00300AF
:10FC600000FB06440434002B7EF406AB2B68A4EBA7
:10FC700009021E1203F07F039210C8F810205AF8F0
:10FC800023300435FEF7C7BAA4EB8604204604F0FF
:10FC9000CDF83B78002B7EF4EFAA2B68A4EB090289
:10FCA0001E1203F07F039210C8F810205AF8233078
:10FCB0000435FEF7B0BAA4EB860B584604F0D2F830
:10FCC0003B78CBF800006FF0030000FB06440434DF
:10FCD000002B7EF4D1AA2B68A4EB09021E1203F0BC
:10FCE0007F039210C8F810205AF823300435FEF72D
:10FCF00092BAA4EB86042146304601F005FF3B781A
:10FD0000002B7EF4B9AA2B68A4EB09021E1203F0A3
:10FD10007F039210C8F810205AF823300435FEF7FC
:10FD20007ABAA4EB86042146304601F047FD3B78C1
:10FD3000002B7EF4A1AA2B68A4EB09021E1203F08B
:10FD40007F039210C8F810205AF823300435FEF7CC
:10FD500062BAA4EB86042146304601F0E1FE3B780E
:10FD6000002B7EF489AA2B68A4EB09021E1203F073
:10FD70007F039210C8F810205AF823300435FEF79C
:10FD80004ABAA4EB86042146304601F0E7FE3B78F0
:10FD9000002B7EF471AA2B68A4EB09021E1203F05B
:10FDA0007F039210C8F810205AF823300435FEF76C
:10FDB00032BAA4EB860B5946304604F0F1FA3B7890
:10FDC000CBF800006FF0030000FB06440434002B66
:10FDD0007EF452AA2B68A4EB09021E1203F07F03E3
:10FDE0009210C8F810205AF823300435FEF713BAE1
:10FDF000A4EB860B5946304604F0DAFA3B78CBF890
:10FE000000006FF0030000FB06440434002B7EF476
:10FE100033AA2B68A4EB09021E1203F07F03921091
:10FE2000C8F810205AF823300435FEF7F4B9A4EBD3
:10FE3000860B5946304604F0C3FA3B78CBF80000F5
:10FE40006FF0030000FB06440434002B7EF414AA78
:10FE50002B68A4EB09021E1203F07F039210C8F86E
:10FE600010205AF823300435FEF7D5B9A4EB860BE1
:10FE70005946304603F0D8FE3B78CBF800006FF0CF
:10FE8000030000FB06440434002B7EF4F5A92B6824
:10FE9000A4EB09021E1203F07F039210C8F8102091
:10FEA0005AF823300435FEF7B6B9A4EB8604214690
:10FEB000304601F0FDFE3B78002B7EF4DDA92B6877
:10FEC000A4EB09021E1203F07F039210C8F8102061
:10FED0005AF823300435FEF79EB9A4EB8604214678
:10FEE000304601F091FE3B78002B7EF4C5A92B68CB
:10FEF000A4EB09021E1203F07F039210C8F8102031
:10FF00005AF823300435FEF786B9A4EB860B594620
:10FF1000304601F041FE3B78CBF800006FF0030063
:10FF200000FB06440434002B7EF4A6A92B68A4EB46
:10FF300009021E1203F07F039210C8F810205AF82D
:10FF400023300435FEF767B9A4EB8604214630461A
:10FF500001F086FD3B78002B7EF48EA92B68A4EB84
:10FF600009021E1203F07F039210C8F810205AF8FD
:10FF700023300435FEF74FB9002E40F38A80012E5E
:10FF800054F804BC49D11BF0010F53D1BBF1040F4D
:10FF900050D9DBF8003003F00F03042B4AD1584648
:10FFA00001F0DAF8FDF7B8FF03465A1CA4EB86040B
:10FFB0006FD0022E4ED11BF0010F44D1BBF1040FC4
:10FFC00041D9DBF8002002F00F02092A3BD1DBF80F
:10FFD0000400261FC0F34700012282422DDD04EBFE
:10FFE0008004A4EB09029210C8F8102023F0FF024D
:10FFF00012F5807F30D11E02B6B206434FEA262E9C
:020000022000DC
:100000004B495FFA8EFC01EBCC031B79032B3EF4CA
:100010008BAB02233B70FEF72FB9022E0AD154F8A6
:10002000080CC10706D4042804D9036803F00F03A1
:10003000042BB5D04FF0FF33B7E701325BF8221045
:1000400046F8041FC9E70B233B70002323600434E8
:10005000FEF712B90020C4E7A4EB800B594698477D
:10006000344A002313603B78CBF800000BF1040402
:10007000002B7EF401A92B68A4EB09021E1203F0E9
:100080007F039210C8F810205AF823300435FEF789
:10009000C2B8002323603B78211D13B10C46FEF744
:1000A000EBB82B68A1EB09021E1203F07F0392103C
:1000B000C8F810205AF823300C460435FEF7ABB8C8
:1000C000A4EB86042146304603F052F93B78002B1E
:1000D0007EF4D2A82B68A4EB09021E1203F07F0362
:1000E0009210C8F810205AF823300435FEF793B860
:1000F000A4EB860B5946304603F03AF93B78CBF82F
:1001000000006FF0030000FB06440434002B7EF473
:10011000B3A82B68A4EB09021E1203F07F03921010
:10012000C8F810205AF823300435FEF774B800BF21
:100130001C970020705A00202DE9F74F00F0F6FCC4
:10014000304D80460023002B03F1FF371FDA01F00A
:100150002BFE03F01DFA03F023FB00F0E7FC41F255
:100160008833A0EB0800984210D90121084607F017
:100170009FF90121084607F0C5F9FDF735FC00F0AD
:10018000D5FC00218046012007F0BCF91927002684
:100190001D4930461D4B1A68B24215DD2B681C4CB8
:1001A00001339342A8BF00232B60D5F800A0F023B1
:1001B00003FB0AF304EB030BE35CA146FBB1022B48
:1001C00004D15846FEF704F83B46BCE7012B0FD19B
:1001D00018B9019100F0AAFC0199F02303FB0AF37E
:1001E00009EB03025268821A8A429CBF0222E2543F
:1001F000F02303FB0AFA14F80A30022BE1D001368F
:10020000C8E700BF284000207F9698009446002051
:10021000BC8D002010DF70470A4B4FF480721A60CB
:10022000094B01211964D3F840250532C3F848254C
:10023000C3F84C254FF44022C3F80423034B197034
:10024000704700BF00E100E000800040DF46002072
:1002500008B50B4B18600B4B0B4890FBF1F0188066
:100260000A4B1B780BB9FFF7D7FF094B01229A64A1
:10027000D3F8481511FA80F0C3F8480508BD00BF4F
:10028000404000203440002020A10700DF4600202D
:100290000080004004207047F8B5D1E9004514F013
:1002A00001002DD015F001002AD064101C2C3CD880
:1002B0001F4F6D1041F288363B5DAE42A8BF2E46FF
:1002C000012B05D00121204607F0F2F801233B5510
:1002D000184B1B780BB9FFF79FFF002D4FF0000361
:1002E000154A0EDC154940F2DC50FF25D65CB442BD
:1002F00004BF21F81300D5540133042BF6D1042098
:10030000F8BDD15C8C4203D10C4A22F81360F6E7A9
:100310000133042BF5D10023D15CFF2901D1D45442
:10032000F2E70133042BF7D1E9E70020E8E700BF4B
:10033000C0460020DF460020444000203640002018
:1003400070B5D1E9004514F001001FD015F001008F
:100350001CD064101D2C28BF1B240F4E335D012BB5
:1003600005D00121204607F0A3F801233355691079
:100370000A4BA1F110029A4209D9094B4FF0FF3202
:10038000002120461A6007F0BDF8042070BD204609
:10039000FFF75EFFF9E700BFC0460020908601002E
:1003A0004040002070B5D1E9005414F0010021D084
:1003B00015F001001ED0124EF37E012B05D0012155
:1003C0001B2007F075F80123F37669100D4BA1F19E
:1003D00010029A4205D86410053C41F283339C42D6
:1003E00009D9094B4FF0FF3200211B201A6007F09A
:1003F00089F8042070BD1B20FFF72AFFF9E700BF32
:10040000C0460020908601004040002070B50C6876
:10041000E30704D40D20FDF7A7FE012070BD641092
:100420001C2C14D8012814DD4B68042B14BF0025A4
:1004300002250A4E335DAB4204D02946204607F020
:1004400037F83555204607F079F8012803D0002009
:10045000E4E70025EDE70420E0E700BFC046002008
:10046000F8B50B68DA0707460D4604D40D20FDF7F2
:100470007BFE012009E05B100A2B07D0062B1FD161
:1004800003F002FD400040F00100F8BD05230D4AD5
:100490000D4E52F82340335D2BB10021204607F06A
:1004A00007F800233355012F06DD6B68042B03D1B9
:1004B0000221204606F0FCFF204606F003FFE1E79C
:1004C000E5D9D6E78CD80200C046002010B510F060
:1004D000010402D04410204610BD042812D902683D
:1004E00002F00F02042A07D100F036FE0A2221464C
:1004F000BDE810400AF0D6BF032A03D10A222146E4
:100500000430F5E70D20FDF72FFEE4E70228F8B5EB
:100510000C4604DC1C20BDE8F840FDF725BE086849
:10052000FFF7D4FF06466068FFF7D0FF0546A068D6
:100530006E4CFFF7CBFF1C2D94FBF0F400F2B5825C
:100540006B4F7B5D012B05D00121284606F0B0FFE3
:1005500001237B550021284606F0D4FF002C3CD017
:100560002046013800BF00BF00BF00BF00BF00BF72
:1005700000BF00BF00BF00BF00BF00BF00BF00BF83
:1005800000BF00BF00BF00BF00BF00BF00BF00BF73
:1005900000BF00BF00BF00BF00BF00BF00BF00BF63
:1005A00000BF00BF00BF00BF00BF00BF00BF00BF53
:1005B00000BF00BF00BF00BF00BF00BF00BF00BF43
:1005C00000BF00BF00BF00BF00BF00BF00BF00BF33
:1005D00000BF00BF00BF00BFC3D106F00101284625
:1005E00006F090FF002C3CD02046013800BF00BF31
:1005F00000BF00BF00BF00BF00BF00BF00BF00BF03
:1006000000BF00BF00BF00BF00BF00BF00BF00BFF2
:1006100000BF00BF00BF00BF00BF00BF00BF00BFE2
:1006200000BF00BF00BF00BF00BF00BF00BF00BFD2
:1006300000BF00BF00BF00BF00BF00BF00BF00BFC2
:1006400000BF00BF00BF00BF00BF00BF00BF00BFB2
:1006500000BF00BF00BF00BF00BF00BF00BF00BFA2
:10066000C3D1C6F34001284606F04CFF002C41D010
:100670002046013800BF00BF00BF00BF00BF00BF61
:1006800000BF00BF00BF00BF00BF00BF00BF00BF72
:1006900000BF00BF00BF00BF00BF00BF00BF00BF62
:1006A00000BF00BF00BF00BF00BF00BF00BF00BF52
:1006B00000BF00BF00BF00BF00BF00BF00BF00BF42
:1006C00000BF00BF00BF00BF00BF00BF00BF00BF32
:1006D00000BF00BF00BF00BF00BF00BF00BF00BF22
:1006E00000BF00BF00BF00BFC3D103E040420F0006
:1006F000C0460020C6F38001284606F003FF002C08
:100700003CD02046013800BF00BF00BF00BF00BF83
:1007100000BF00BF00BF00BF00BF00BF00BF00BFE1
:1007200000BF00BF00BF00BF00BF00BF00BF00BFD1
:1007300000BF00BF00BF00BF00BF00BF00BF00BFC1
:1007400000BF00BF00BF00BF00BF00BF00BF00BFB1
:1007500000BF00BF00BF00BF00BF00BF00BF00BFA1
:1007600000BF00BF00BF00BF00BF00BF00BF00BF91
:1007700000BF00BF00BF00BF00BFC3D1C6F3C001B0
:10078000284606F0BFFE002C3CD02046013800BFB2
:1007900000BF00BF00BF00BF00BF00BF00BF00BF61
:1007A00000BF00BF00BF00BF00BF00BF00BF00BF51
:1007B00000BF00BF00BF00BF00BF00BF00BF00BF41
:1007C00000BF00BF00BF00BF00BF00BF00BF00BF31
:1007D00000BF00BF00BF00BF00BF00BF00BF00BF21
:1007E00000BF00BF00BF00BF00BF00BF00BF00BF11
:1007F00000BF00BF00BF00BF00BF00BF00BF00BF01
:1008000000BFC3D1C6F30011284606F07BFE002CC2
:100810003CD02046013800BF00BF00BF00BF00BF72
:1008200000BF00BF00BF00BF00BF00BF00BF00BFD0
:1008300000BF00BF00BF00BF00BF00BF00BF00BFC0
:1008400000BF00BF00BF00BF00BF00BF00BF00BFB0
:1008500000BF00BF00BF00BF00BF00BF00BF00BFA0
:1008600000BF00BF00BF00BF00BF00BF00BF00BF90
:1008700000BF00BF00BF00BF00BF00BF00BF00BF80
:1008800000BF00BF00BF00BF00BFC3D1C6F340110F
:10089000284606F037FE002C3CD02046013800BF29
:1008A00000BF00BF00BF00BF00BF00BF00BF00BF50
:1008B00000BF00BF00BF00BF00BF00BF00BF00BF40
:1008C00000BF00BF00BF00BF00BF00BF00BF00BF30
:1008D00000BF00BF00BF00BF00BF00BF00BF00BF20
:1008E00000BF00BF00BF00BF00BF00BF00BF00BF10
:1008F00000BF00BF00BF00BF00BF00BF00BF00BF00
:1009000000BF00BF00BF00BF00BF00BF00BF00BFEF
:1009100000BFC3D1C6F38011284606F0F3FD002CBA
:100920003CD02046013800BF00BF00BF00BF00BF61
:1009300000BF00BF00BF00BF00BF00BF00BF00BFBF
:1009400000BF00BF00BF00BF00BF00BF00BF00BFAF
:1009500000BF00BF00BF00BF00BF00BF00BF00BF9F
:1009600000BF00BF00BF00BF00BF00BF00BF00BF8F
:1009700000BF00BF00BF00BF00BF00BF00BF00BF7F
:1009800000BF00BF00BF00BF00BF00BF00BF00BF6F
:1009900000BF00BF00BF00BF00BFC3D1C6F3C0117E
:1009A000284606F0AFFD002C3CD02046013800BFA1
:1009B00000BF00BF00BF00BF00BF00BF00BF00BF3F
:1009C00000BF00BF00BF00BF00BF00BF00BF00BF2F
:1009D00000BF00BF00BF00BF00BF00BF00BF00BF1F
:1009E00000BF00BF00BF00BF00BF00BF00BF00BF0F
:1009F00000BF00BF00BF00BF00BF00BF00BF00BFFF
:100A000000BF00BF00BF00BF00BF00BF00BF00BFEE
:100A100000BF00BF00BF00BF00BF00BF00BF00BFDE
:100A200000BFC3D10121284606F06CFD002C3CD04C
:100A30002046013800BF00BF00BF00BF00BF00BF9D
:100A400000BF00BF00BF00BF00BF00BF00BF00BFAE
:100A500000BF00BF00BF00BF00BF00BF00BF00BF9E
:100A600000BF00BF00BF00BF00BF00BF00BF00BF8E
:100A700000BF00BF00BF00BF00BF00BF00BF00BF7E
:100A800000BF00BF00BF00BF00BF00BF00BF00BF6E
:100A900000BF00BF00BF00BF00BF00BF00BF00BF5E
:100AA00000BF00BF00BF00BFC3D10020F8BD00BF22
:100AB000042070472DE9F843074618480D4604F016
:100AC0000CFA044630B3A842A8BF2C460A2221469D
:100AD0001348DFF84890124EDFF84C8006F0EFF82C
:100AE00010490F4806F0A2F83D46EB1B9C420EDD74
:100AF000484604F024FAC1B205F8011B0A22304628
:100B000006F0F6F84146304606F079F8EDE704487D
:100B100006F07CF82046BDE8F88300BFE0460020E0
:100B20003C8D0020C5D80200FCEE020006F040BB60
:100B300008B506F03DFB4FF47A73B0FBF3F008BD47
:100B400000487047A8D802001D20704770B5054DB9
:100B50002B5C8B4204460E4602D006F0A9FC2E55B3
:100B600070BD00BFC046002070B50024084D264669
:100B7000635D012B08D10021204606F0C3FC002153
:100B8000204606F095FC665501341D2CF0D170BD51
:100B9000C04600200F2070473B20704770B50468A6
:100BA000E20702D54668F30704D40D20BDE8704083
:100BB000FDF7DABA64101C2C32D81A4D2B5D012BCC
:100BC00018D00121204606F073FC01231B2C2B5565
:100BD00010D1154BDA6E154B202AB8BF4FF0A04349
:100BE00002F01F0203EB8203D3F8002742F44072A5
:100BF000C3F800270E4BD3F8082132B1D3F81821DF
:100C0000002AFBD00022C3F81821A6F34A0189105C
:100C1000204606F0FBFB2B5D012B04BF054A135554
:100C200070BD00BFC0460020ECEB02000003005086
:100C300000C001409C46002008B50846FFF7AEFF03
:100C4000002008BD13B50A4A044692E80300226852
:100C50006B46042A83E8030019464FF0020003D1D3
:100C600000F05EFF02B010BD00F078FFFAE700BFB1
:100C70002CD8020008B50846FFF7E4FF002008BDA5
:100C800010B5084C63792BB10021052006F010FC4B
:100C900000236371052006F051FC00280CBF0420DE
:100CA000002010BDC046002010B5084CE37A2BB1DF
:100CB00000210B2006F0FCFB0023E3720B2006F062
:100CC0003DFC00280CBF0420002010BDC0460020C1
:100CD00007480849084A012343604B6053600023DA
:100CE000C0F80035C1F80035C2F80035704700BFC4
:100CF00000C0014000100240002002401C2870B5D6
:100D000004460D4632D81A4E335C012B04D0012123
:100D100006F0CEFB012333551C2C12D1FFF7D8FF70
:100D2000144B1A6F144B202AB8BF4FF0A04302F0A7
:100D30001F0203EB8203D3F8002742F44072C3F88A
:100D400000270E4B1B5D4BB1002D40F2FF312046BA
:100D500008BF0021BDE8704006F058BB291C2046A2
:100D600018BF0121BDE8704006F0CCBB70BD00BFCC
:100D7000C0460020ECEB0200000300509C4600201F
:100D80000368D90702D40D20FDF7EEB941680A1FA8
:100D9000514251415810FFF7B1BF08B50846FFF75F
:100DA000EFFF002008BD0000F8B5324CD4F8483100
:100DB000ABB10023D4F84855C4F848312E4B18681D
:100DC00000280CDB2D4A1178B1FA81F14909117024
:100DD00006F098FB2A4B1B882B44C4F84835254B5A
:100DE000D3F84C21002A37D00021264ED3F84C45A9
:100DF000C3F84C113378244D33B12B68032B03D83F
:100E0000224AD05C06F07EFB2B68204F01335A4209
:100E100002F0030203F0030358BF53422B60002289
:100E2000042B194619D00133F81810F8010CFF28CB
:100E300001D10122F4E702B12960012106F062FB31
:100E4000012333702A68124B33F8122004F10C038B
:100E50001344084AC2F84C35F8BD4FF0FF3304F58F
:100E60008C44044A2B605C3400233370C2F84C4538
:100E7000F2E700BF0080004040400020DE46002036
:100E800034400020DD460020BC46002044400020C5
:100E900036400020094B0A4940F2DC521A805A8041
:100EA0009A80DA80074A00231370074AFF200870EF
:100EB00048708870C8701360704700BF36400020CB
:100EC00044400020DD460020BC460020024B4FF08D
:100ED000FF321A60704700BF40400020024A0348BA
:100EE0000B2101F08FBE00BF34D802009FDF02004B
:100EF00010B5054C204604F0A5F82046034A0449E5
:100F0000BDE8104006F034BBE04600200040002061
:100F10003110020038B54FF4E1312D4805F0D0FF13
:100F20002C4B012200211A61C3F804150321C3F8D8
:100F300008150421C3F810151A604FF080430221F0
:100F4000C3F818159A604FF01023D3F80C32DB0762
:100F50000FD5214BC3F80425D3F80024002AFBD079
:100F60004FF010226FF00101C2F80C120022C3F8FA
:100F70000425082006F08EF9184A0023FF21995411
:100F800001331D2BFBD1164B164D012200201A6098
:100F9000042403F58073024619680029FCD02968EF
:100FA0001A60013C41EA0020F6D10F4B01221A6081
:100FB00006F0E0F821462046FFF72CF90B480C49D3
:100FC00003F020FD0948BDE8384004F0C9B800BF6F
:100FD0003C8D00200080004000E00140C046002021
:100FE00000D0004008D5004004D00040E04600207A
:100FF000B5D80200F8B506460948094F0C4605F079
:101000009FFF8442A8BF04463546AB1B9C4205DDCA
:10101000384605F09BFF05F8010BF6E72046F8BDC2
:101020003C8D00200146014805F04FBF3C8D00205B
:10103000124B03F17C0210B50360426003F18C0295
:10104000B43304468260C0F8743100F6FC1003F03B
:10105000FCFB04F6D81003F091FB04F51C6003F0D0
:10106000F4FB04F69C1003F089FB04F6841003F0F3
:10107000ECFB204603F018FE204610BD30E80200CD
:1010800010B50446FFF7D4FF204606F0E3F82046EB
:1010900010BD0000C3070CD4064B1B68834208D860
:1010A000054B1B68984204D850F8043C002B18BF2D
:1010B00018467047FC500020F85000200C4908B535
:1010C0000122002341F823200133642BFAD1094B7C
:1010D0001A60094B4FF417621846002109F0FFF916
:1010E00042F2A05340F8043F044B186008BD00BF13
:1010F000149F00203040002000510020F4500020B8
:10110000044A054B1360054A03F517631360FFF7A4
:10111000D5BF00BFFC50002000510020F850002037
:10112000044B1B681868C0F30F10023820EAE07007
:10113000704700BFF450002000B59BB0024605493F
:1011400001A80AF0B7F801A802F0ECF802F028FBB9
:10115000FCE700BF8BD90200C30713D4042802D8D0
:1011600012D00B487047036803F00F03042B01D122
:1011700004307047092B09D0064A0748032B18BFD3
:101180001046704705487047054870470548704746
:10119000A4D4020076D902007FD9020065D90200EA
:1011A000AAD402006FD90200074B002003F66C118D
:1011B0001A6843F8040CC2F30F12023203EB8203E5
:1011C0008B42F5D3704700BF04510020304B314AA9
:1011D0001868314B2DE9F0411C6802F66C15136854
:1011E00003F00F01072928D81368C3F30F13023344
:1011F00002EB8302AA42F2D32849002251F82200CE
:10120000FFF748FF41F822000132642AF6D1244A50
:101210001068FFF73FFF1060224A106810B1FFF717
:1012200039FF1060204B214C1E680021F0274FF041
:101230003C08B14214DBBDE8F081C3F30F1302EBAD
:1012400083039A42D0D01968CE0707D4884205D2CA
:101250008C4203D351F8041C01B11960043BF0E740
:1012600007FB01F31A191B5D0BB90131E1E71269A4
:10127000551E08FB012204EB82021832002DF4DB1C
:1012800052F8040DFFF706FF013D1060F6E700BFBE
:10129000FC50002004510020F8500020149F002032
:1012A00030400020705A002094460020BC8D002061
:1012B000C307F0B540D4214B1C68A0423CD3204B5F
:1012C0001D68A84238D850F8043CABBB03680246FE
:1012D000C3F30F13012673B9904242F8046C2BD06C
:1012E000116851F8043C51F82370176041F823202D
:1012F000013B0A46EFE752F82310CF0702EB830CBD
:1013000018D48C4216D88D4214D351F8047C8FB96E
:101310000F6807F00F0EBEF1070F08D9CCF8007068
:1013200042F8043C0B680A60C3F30F13E1E741F88D
:10133000046CD0E7013BCEE7F0BD00BFFC500020BD
:10134000F85000200D4A30B5134602F66C141968A7
:1013500053F8045CC1F30F11881C65B1934214BFAC
:101360001146002143F8041C02EB800203EB8003CA
:10137000A342ECD330BD09011960F7E70451002006
:10138000154B2DE9F0411E464FF0000803F66C1492
:101390003268C2F30F1712070FD07D1C9E424FEA2E
:1013A000850505D018462A46314609F07FF80346E0
:1013B0005A1904352B44C2F80080023706EB870621
:1013C000A642E5D3E41AA410013C044A24011C609F
:1013D0001360BDE8F08100BF04510020F4500020EC
:1013E0002DE9F0419AB0FFF7A1FB214D07460024FB
:1013F00055F824000134FFF75BFF642CF8D11D4B36
:101400001868FFF755FF1C4B186808B1FFF750FF2D
:101410001A4DDFF874800026D8F800309E4218DBA1
:10142000FFF790FFFFF7D2FEFFF7AAFFFFF77EFB63
:10143000134B14491B681B68C3F30F13C21B023BF9
:1014400001A809F037FF01A801F06CFF1AB0BDE850
:10145000F0812B7813B90136F035DDE72C69013CBA
:10146000002CF8DB05EB84039869FFF721FFF6E712
:10147000149F002030400020705A0020BC8D0020B6
:10148000F450002045D90200944600202DE9F8438D
:101490001B4C23681B684D1CC3F30F139D4206466B
:1014A00088461746A1460CDBFFF79AFF23681B68A6
:1014B000C3F30F139D4204DB0A20BDE8F843FCF799
:1014C00053BE08F10202D9F800009B1A1B0140F834
:1014D0002230002340F8043C06F00F06034646EA9B
:1014E0000816940043F8046B0119083CC9F8001071
:1014F0001C44A34201D3BDE8F88343F8047BF8E71A
:10150000F4500020F8B510F0010704460E462CD127
:10151000174B1B68834228D8164B1B68834224D97B
:10152000154D28600068012200F00F00FFF7AEFFA4
:101530002C682F600546C0B12146043051F8042BB9
:10154000C2F30F12B242A8BF3246920008F0A3FFC6
:10155000FFF72AFE44F8045CFFF738FE2268074BC9
:1015600044F8047C134023602C462046F8BD00BF9D
:10157000FC500020F8500020705A0020F0FF0F00AF
:10158000011D0022042091FBF0F1FFF77FBF38B569
:10159000054608460C46FFF7F3FF50B1C21C2B4628
:1015A000591B8C4206DC002CACBF0419041C002320
:1015B000237138BD13F8011B02F8011FF0E708B5CD
:1015C00001F09CFE002814BF0420002008BD08681C
:1015D00008B5C30706D4042804D9036803F00F0331
:1015E000042B04D00E20BDE80840FCF7BDBDFFF77A
:1015F000B3FD0378232B08BF01301022002109F02E
:1016000051FF00F10053B3F1804F01D31420EAE7FA
:10161000400040F0010008BD10B510F0010402D0F8
:101620004410204610BD042812D9026802F00F02AF
:10163000042A07D1FFF790FD0A222146BDE8104099
:1016400009F030BF032A03D10A2221460430F5E70E
:101650000D20FCF789FDE4E708B50868FFF7DCFF1B
:1016600008F026FB06F046FA0022054B08F08AFB3C
:1016700006F012F808F036FE400040F0010008BD08
:1016800000408F4008B50868FFF7C6FF07EE900AD4
:10169000B8EEE77ADFED0A7A67EE277A17EE900A5E
:1016A00008F018FB06F042F80022064B08F06AFB2F
:1016B00005F0F2FF08F016FE400040F0010008BD02
:1016C000D30237390000D04004282DE9F0410C4600
:1016D00004DC1C20BDE8F041FCF746BD0868FFF7BC
:1016E0009BFF07466068FFF797FF0646A068FFF775
:1016F00093FF0546E068FFF78FFF80462069FFF7FC
:101700008BFFAE4201D11F20E4E7BF1BA0EB080016
:101710007843AD1B90FBF5F04044400040F00100E1
:10172000BDE8F081000000000128D0B50C4604DCC3
:101730001C20BDE8D040FCF717BD4868401008F0F9
:10174000B7FA0646206840100F4608F0B1FA024684
:101750000B463046394608F03FFC11A3D3E900237D
:1017600006F02AF802460B4600200B4908F052F911
:1017700007A3D3E9002308F005FB0022074B08F07C
:1017800001FB08F0AFFD400040F00100D0BD00BFFC
:101790000000000040A5E5400000F03F00408F4001
:1017A0006C45D9CC955BC83F024A0348072101F03C
:1017B00029BA00BFA4D902009CD90200014B002025
:1017C00018607047945A0020034B01221A60034BA3
:1017D0001868904010437047985A0020745A0020AF
:1017E0002DE9F043EFF31084012304F0010483F3A7
:1017F0001088164A164912680E68013A9340154A35
:101800001568154A12684FF002094FF00E0C4FF0A0
:101810000D0E4FF00608A3B118422A600AD0774691
:1018200039000139FDDC3260474639000139FDDC01
:101830005B08F0E74F4639000139FDDC326067464E
:10184000F3E784F31088BDE8F08300BF4840002030
:101850007C5A0020805A0020885A002070B5084E1B
:10186000084D002456F824000021FFF76FF955F8C1
:10187000240000210134FFF769F9052CF2D170BD75
:1018800028DA02007CDD02002DE9F041134E144DF0
:10189000144F0024002156F82400FFF757F955F89B
:1018A000248001214046FFF751F9B8F1220F10D8EA
:1018B00057F828200C4B202AB8BF4FF0A04302F065
:1018C0001F0203EB8203D3F8002742F44072C3F8EF
:1018D00000270134052CDDD1BDE8F08128DA0200B3
:1018E0007CDD0200ECEB0200000300502DE9F34127
:1018F0003B4D4FF441732C68ADF804300A238DF84A
:101900000630BCBBFFF7AAFFDFF8E480264658F894
:10191000267001213846FFF719F9013600213846B3
:1019200005F0F0FD052EF2D100260DF1040816F8A1
:10193000087001213846FFF709F9013601213846C0
:1019400005F0E0FD032EF2D100210420FFF7FEF8A0
:1019500000213046FFF7FAF800210A20FFF7F6F8D9
:1019600001232B60FFF7E2F81E4B1860204602B0FF
:10197000BDE8F0811B4B1C68FFF7D8F8844298BF84
:10198000001BB0F57A6F29DB022005F089FC0420EA
:1019900005F098FC0446032005F094FC07460A2055
:1019A00005F090FC0646012005F07AFC012005F0C8
:1019B00089FCE0193044C0F532600323023090FB0B
:1019C000F3F0094B0028BCBF00221A60074AA8BFE9
:1019D000186000232B6013600124C7E70024C5E7CB
:1019E000905A00209C5A0020745A0020985A0020D7
:1019F0007CDD020010B5041E1CDA00241049114BD6
:101A0000114A0B6004331360104B53F824301F2B22
:101A100081BF0F4808600F49116003F01F024FF0AB
:101A2000010303FA02F38CBF0C310B490B4A0B6024
:101A3000136010BDFFF788F8A042DEDDDEE700BFCF
:101A4000805A0020080500507C5A0020ECEB020070
:101A5000080800500C08005018050050885A002053
:101A600008B50B68DA074CBF5B104FF0FF33012855
:101A70000BDD4A68042A14BF1822202204491846A4
:101A80000A60FFF7B7FF002008BD1822F6E700BF85
:101A900048400020002808B50CDD0B68042B084BDB
:101AA00014BF012200221A6006D0FFF7D7FE054BB3
:101AB00000221A60002008BDFFF7E6FEFAE700BF2B
:101AC0008C5A0020745A002010B510F0010402D086
